{
  "_format": "hh-sol-artifact-1",
  "contractName": "PhotonicAuction",
  "sourceName": "contracts/PhotonicAuction.sol",
  "abi": [
    {
      "inputs": [],
      "stateMutability": "nonpayable",
      "type": "constructor"
    },
    {
      "inputs": [
        {
          "internalType": "address",
          "name": "owner",
          "type": "address"
        }
      ],
      "name": "OwnableInvalidOwner",
      "type": "error"
    },
    {
      "inputs": [
        {
          "internalType": "address",
          "name": "account",
          "type": "address"
        }
      ],
      "name": "OwnableUnauthorizedAccount",
      "type": "error"
    },
    {
      "inputs": [],
      "name": "ReentrancyGuardReentrantCall",
      "type": "error"
    },
    {
      "anonymous": false,
      "inputs": [
        {
          "indexed": true,
          "internalType": "bytes32",
          "name": "intentId",
          "type": "bytes32"
        },
        {
          "indexed": true,
          "internalType": "address",
          "name": "agent",
          "type": "address"
        },
        {
          "indexed": false,
          "internalType": "uint256",
          "name": "priceQuote",
          "type": "uint256"
        }
      ],
      "name": "BidSubmitted",
      "type": "event"
    },
    {
      "anonymous": false,
      "inputs": [
        {
          "indexed": true,
          "internalType": "bytes32",
          "name": "intentId",
          "type": "bytes32"
        },
        {
          "indexed": true,
          "internalType": "address",
          "name": "winner",
          "type": "address"
        },
        {
          "indexed": false,
          "internalType": "uint256",
          "name": "price",
          "type": "uint256"
        },
        {
          "indexed": false,
          "internalType": "uint256",
          "name": "score",
          "type": "uint256"
        }
      ],
      "name": "IntentAwarded",
      "type": "event"
    },
    {
      "anonymous": false,
      "inputs": [
        {
          "indexed": true,
          "internalType": "bytes32",
          "name": "intentId",
          "type": "bytes32"
        },
        {
          "indexed": true,
          "internalType": "address",
          "name": "buyer",
          "type": "address"
        }
      ],
      "name": "IntentCancelled",
      "type": "event"
    },
    {
      "anonymous": false,
      "inputs": [
        {
          "indexed": true,
          "internalType": "bytes32",
          "name": "intentId",
          "type": "bytes32"
        }
      ],
      "name": "IntentExpired",
      "type": "event"
    },
    {
      "anonymous": false,
      "inputs": [
        {
          "indexed": true,
          "internalType": "bytes32",
          "name": "intentId",
          "type": "bytes32"
        },
        {
          "indexed": false,
          "internalType": "string",
          "name": "taskDescription",
          "type": "string"
        }
      ],
      "name": "IntentRevealed",
      "type": "event"
    },
    {
      "anonymous": false,
      "inputs": [
        {
          "indexed": true,
          "internalType": "bytes32",
          "name": "intentId",
          "type": "bytes32"
        },
        {
          "indexed": true,
          "internalType": "address",
          "name": "buyer",
          "type": "address"
        },
        {
          "indexed": false,
          "internalType": "enum PhotonicAuction.PrivacyMode",
          "name": "mode",
          "type": "uint8"
        },
        {
          "indexed": false,
          "internalType": "uint256",
          "name": "maxCost",
          "type": "uint256"
        }
      ],
      "name": "IntentSubmitted",
      "type": "event"
    },
    {
      "anonymous": false,
      "inputs": [
        {
          "indexed": true,
          "internalType": "address",
          "name": "previousOwner",
          "type": "address"
        },
        {
          "indexed": true,
          "internalType": "address",
          "name": "newOwner",
          "type": "address"
        }
      ],
      "name": "OwnershipTransferred",
      "type": "event"
    },
    {
      "inputs": [
        {
          "internalType": "address",
          "name": "",
          "type": "address"
        }
      ],
      "name": "agentDiversityScore",
      "outputs": [
        {
          "internalType": "uint256",
          "name": "",
          "type": "uint256"
        }
      ],
      "stateMutability": "view",
      "type": "function"
    },
    {
      "inputs": [
        {
          "internalType": "uint256",
          "name": "",
          "type": "uint256"
        }
      ],
      "name": "allIntents",
      "outputs": [
        {
          "internalType": "bytes32",
          "name": "",
          "type": "bytes32"
        }
      ],
      "stateMutability": "view",
      "type": "function"
    },
    {
      "inputs": [
        {
          "internalType": "bytes32",
          "name": "intentId",
          "type": "bytes32"
        }
      ],
      "name": "awardIntent",
      "outputs": [],
      "stateMutability": "nonpayable",
      "type": "function"
    },
    {
      "inputs": [],
      "name": "biddingWindow",
      "outputs": [
        {
          "internalType": "uint256",
          "name": "",
          "type": "uint256"
        }
      ],
      "stateMutability": "view",
      "type": "function"
    },
    {
      "inputs": [
        {
          "internalType": "bytes32",
          "name": "",
          "type": "bytes32"
        },
        {
          "internalType": "uint256",
          "name": "",
          "type": "uint256"
        }
      ],
      "name": "bids",
      "outputs": [
        {
          "internalType": "address",
          "name": "agent",
          "type": "address"
        },
        {
          "internalType": "bytes32",
          "name": "genomeHash",
          "type": "bytes32"
        },
        {
          "internalType": "uint256",
          "name": "priceQuote",
          "type": "uint256"
        },
        {
          "internalType": "bytes32",
          "name": "bpdSample",
          "type": "bytes32"
        },
        {
          "internalType": "uint256",
          "name": "scoreCached",
          "type": "uint256"
        },
        {
          "internalType": "uint64",
          "name": "submittedAt",
          "type": "uint64"
        },
        {
          "internalType": "bool",
          "name": "active",
          "type": "bool"
        }
      ],
      "stateMutability": "view",
      "type": "function"
    },
    {
      "inputs": [
        {
          "internalType": "bytes32",
          "name": "intentId",
          "type": "bytes32"
        }
      ],
      "name": "cancelIntent",
      "outputs": [],
      "stateMutability": "nonpayable",
      "type": "function"
    },
    {
      "inputs": [],
      "name": "getAllIntentCount",
      "outputs": [
        {
          "internalType": "uint256",
          "name": "",
          "type": "uint256"
        }
      ],
      "stateMutability": "view",
      "type": "function"
    },
    {
      "inputs": [
        {
          "internalType": "bytes32",
          "name": "intentId",
          "type": "bytes32"
        }
      ],
      "name": "getBids",
      "outputs": [
        {
          "components": [
            {
              "internalType": "address",
              "name": "agent",
              "type": "address"
            },
            {
              "internalType": "bytes32",
              "name": "genomeHash",
              "type": "bytes32"
            },
            {
              "internalType": "uint256",
              "name": "priceQuote",
              "type": "uint256"
            },
            {
              "internalType": "bytes32",
              "name": "bpdSample",
              "type": "bytes32"
            },
            {
              "internalType": "uint256",
              "name": "scoreCached",
              "type": "uint256"
            },
            {
              "internalType": "uint64",
              "name": "submittedAt",
              "type": "uint64"
            },
            {
              "internalType": "bool",
              "name": "active",
              "type": "bool"
            }
          ],
          "internalType": "struct PhotonicAuction.Bid[]",
          "name": "",
          "type": "tuple[]"
        }
      ],
      "stateMutability": "view",
      "type": "function"
    },
    {
      "inputs": [
        {
          "internalType": "bytes32",
          "name": "intentId",
          "type": "bytes32"
        }
      ],
      "name": "getIntent",
      "outputs": [
        {
          "components": [
            {
              "internalType": "bytes32",
              "name": "intentId",
              "type": "bytes32"
            },
            {
              "internalType": "address",
              "name": "buyer",
              "type": "address"
            },
            {
              "internalType": "bytes32",
              "name": "intentHash",
              "type": "bytes32"
            },
            {
              "internalType": "string",
              "name": "taskDescription",
              "type": "string"
            },
            {
              "internalType": "uint256",
              "name": "maxCost",
              "type": "uint256"
            },
            {
              "internalType": "uint64",
              "name": "deadline",
              "type": "uint64"
            },
            {
              "internalType": "uint256",
              "name": "qualityFloor",
              "type": "uint256"
            },
            {
              "internalType": "enum PhotonicAuction.PrivacyMode",
              "name": "privacyMode",
              "type": "uint8"
            },
            {
              "internalType": "enum PhotonicAuction.CompositionMode",
              "name": "compositionMode",
              "type": "uint8"
            },
            {
              "internalType": "enum PhotonicAuction.IntentStatus",
              "name": "status",
              "type": "uint8"
            },
            {
              "internalType": "address",
              "name": "winner",
              "type": "address"
            },
            {
              "internalType": "uint64",
              "name": "createdAt",
              "type": "uint64"
            },
            {
              "internalType": "uint64",
              "name": "awardedAt",
              "type": "uint64"
            }
          ],
          "internalType": "struct PhotonicAuction.Intent",
          "name": "",
          "type": "tuple"
        }
      ],
      "stateMutability": "view",
      "type": "function"
    },
    {
      "inputs": [],
      "name": "getOpenIntentCount",
      "outputs": [
        {
          "internalType": "uint256",
          "name": "",
          "type": "uint256"
        }
      ],
      "stateMutability": "view",
      "type": "function"
    },
    {
      "inputs": [
        {
          "internalType": "bytes32",
          "name": "",
          "type": "bytes32"
        },
        {
          "internalType": "address",
          "name": "",
          "type": "address"
        }
      ],
      "name": "hasBid",
      "outputs": [
        {
          "internalType": "bool",
          "name": "",
          "type": "bool"
        }
      ],
      "stateMutability": "view",
      "type": "function"
    },
    {
      "inputs": [
        {
          "internalType": "bytes32",
          "name": "",
          "type": "bytes32"
        }
      ],
      "name": "intents",
      "outputs": [
        {
          "internalType": "bytes32",
          "name": "intentId",
          "type": "bytes32"
        },
        {
          "internalType": "address",
          "name": "buyer",
          "type": "address"
        },
        {
          "internalType": "bytes32",
          "name": "intentHash",
          "type": "bytes32"
        },
        {
          "internalType": "string",
          "name": "taskDescription",
          "type": "string"
        },
        {
          "internalType": "uint256",
          "name": "maxCost",
          "type": "uint256"
        },
        {
          "internalType": "uint64",
          "name": "deadline",
          "type": "uint64"
        },
        {
          "internalType": "uint256",
          "name": "qualityFloor",
          "type": "uint256"
        },
        {
          "internalType": "enum PhotonicAuction.PrivacyMode",
          "name": "privacyMode",
          "type": "uint8"
        },
        {
          "internalType": "enum PhotonicAuction.CompositionMode",
          "name": "compositionMode",
          "type": "uint8"
        },
        {
          "internalType": "enum PhotonicAuction.IntentStatus",
          "name": "status",
          "type": "uint8"
        },
        {
          "internalType": "address",
          "name": "winner",
          "type": "address"
        },
        {
          "internalType": "uint64",
          "name": "createdAt",
          "type": "uint64"
        },
        {
          "internalType": "uint64",
          "name": "awardedAt",
          "type": "uint64"
        }
      ],
      "stateMutability": "view",
      "type": "function"
    },
    {
      "inputs": [
        {
          "internalType": "uint256",
          "name": "",
          "type": "uint256"
        }
      ],
      "name": "openIntents",
      "outputs": [
        {
          "internalType": "bytes32",
          "name": "",
          "type": "bytes32"
        }
      ],
      "stateMutability": "view",
      "type": "function"
    },
    {
      "inputs": [],
      "name": "owner",
      "outputs": [
        {
          "internalType": "address",
          "name": "",
          "type": "address"
        }
      ],
      "stateMutability": "view",
      "type": "function"
    },
    {
      "inputs": [],
      "name": "protocolFeeBps",
      "outputs": [
        {
          "internalType": "uint256",
          "name": "",
          "type": "uint256"
        }
      ],
      "stateMutability": "view",
      "type": "function"
    },
    {
      "inputs": [],
      "name": "renounceOwnership",
      "outputs": [],
      "stateMutability": "nonpayable",
      "type": "function"
    },
    {
      "inputs": [
        {
          "internalType": "bytes32",
          "name": "intentId",
          "type": "bytes32"
        },
        {
          "internalType": "string",
          "name": "taskDescription",
          "type": "string"
        },
        {
          "internalType": "bytes32",
          "name": "nonce",
          "type": "bytes32"
        }
      ],
      "name": "revealIntent",
      "outputs": [],
      "stateMutability": "nonpayable",
      "type": "function"
    },
    {
      "inputs": [
        {
          "internalType": "address",
          "name": "agent",
          "type": "address"
        },
        {
          "internalType": "uint256",
          "name": "score",
          "type": "uint256"
        }
      ],
      "name": "setAgentDiversityScore",
      "outputs": [],
      "stateMutability": "nonpayable",
      "type": "function"
    },
    {
      "inputs": [
        {
          "internalType": "uint256",
          "name": "_window",
          "type": "uint256"
        }
      ],
      "name": "setBiddingWindow",
      "outputs": [],
      "stateMutability": "nonpayable",
      "type": "function"
    },
    {
      "inputs": [
        {
          "internalType": "uint256",
          "name": "_bps",
          "type": "uint256"
        }
      ],
      "name": "setProtocolFee",
      "outputs": [],
      "stateMutability": "nonpayable",
      "type": "function"
    },
    {
      "inputs": [
        {
          "internalType": "bytes32",
          "name": "intentId",
          "type": "bytes32"
        },
        {
          "internalType": "bytes32",
          "name": "genomeHash",
          "type": "bytes32"
        },
        {
          "internalType": "uint256",
          "name": "priceQuote",
          "type": "uint256"
        },
        {
          "internalType": "bytes32",
          "name": "bpdSample",
          "type": "bytes32"
        }
      ],
      "name": "submitBid",
      "outputs": [],
      "stateMutability": "nonpayable",
      "type": "function"
    },
    {
      "inputs": [
        {
          "internalType": "bytes32",
          "name": "intentId",
          "type": "bytes32"
        },
        {
          "internalType": "string",
          "name": "taskDescription",
          "type": "string"
        },
        {
          "internalType": "uint256",
          "name": "qualityFloor",
          "type": "uint256"
        },
        {
          "internalType": "enum PhotonicAuction.CompositionMode",
          "name": "compositionMode",
          "type": "uint8"
        }
      ],
      "name": "submitPublicIntent",
      "outputs": [],
      "stateMutability": "payable",
      "type": "function"
    },
    {
      "inputs": [
        {
          "internalType": "bytes32",
          "name": "intentId",
          "type": "bytes32"
        },
        {
          "internalType": "bytes32",
          "name": "intentHash",
          "type": "bytes32"
        },
        {
          "internalType": "uint256",
          "name": "qualityFloor",
          "type": "uint256"
        },
        {
          "internalType": "enum PhotonicAuction.CompositionMode",
          "name": "compositionMode",
          "type": "uint8"
        }
      ],
      "name": "submitZKIntent",
      "outputs": [],
      "stateMutability": "payable",
      "type": "function"
    },
    {
      "inputs": [
        {
          "internalType": "address",
          "name": "newOwner",
          "type": "address"
        }
      ],
      "name": "transferOwnership",
      "outputs": [],
      "stateMutability": "nonpayable",
      "type": "function"
    },
    {
      "inputs": [],
      "name": "weightBpdQuality",
      "outputs": [
        {
          "internalType": "uint256",
          "name": "",
          "type": "uint256"
        }
      ],
      "stateMutability": "view",
      "type": "function"
    },
    {
      "inputs": [],
      "name": "weightCompositionalFitness",
      "outputs": [
        {
          "internalType": "uint256",
          "name": "",
          "type": "uint256"
        }
      ],
      "stateMutability": "view",
      "type": "function"
    },
    {
      "inputs": [],
      "name": "weightDiversityBonus",
      "outputs": [
        {
          "internalType": "uint256",
          "name": "",
          "type": "uint256"
        }
      ],
      "stateMutability": "view",
      "type": "function"
    },
    {
      "inputs": [],
      "name": "weightPriceEfficiency",
      "outputs": [
        {
          "internalType": "uint256",
          "name": "",
          "type": "uint256"
        }
      ],
      "stateMutability": "view",
      "type": "function"
    }
  ],
  "bytecode": "0x608080604052346100bd5733156100a75760008054336001600160a01b03198216811783556040519290916001600160a01b0316907f8be0079c531659141344cd1fd0a4f28419497f9722a3daafe3b4186f6b6457e09080a360017f9b779b17422d0df92223018b32b4d1fa46e071723d6817e2486d003becc55f0055610e1060075560646008556028600955601e600a556014600b55600a600c5561233790816100c38239f35b631e4fbdf760e01b815260006004820152602490fd5b600080fdfe608080604052600436101561001357600080fd5b60003560e01c9081630b62c3bb14611c095750806330aad97514611836578063346c2b9d146117e457806335659fb8146117c657806339eed48b146117a857806343f2f5c21461178a5780634f371f731461176c57806356e56c301461171b578063611eaba114611279578063715018a614611220578063787dce3d146111c757806381b27c5d146111765780638da5cb5b1461114d5780639021578a146110495780639d4f988b14610f3b578063a1e8838714610efc578063b6ba7d2b14610ede578063bd3200f614610ec0578063c38826e014610ea2578063cb0a5a6b14610ba6578063cb2c33f614610896578063d55f960d146107c9578063dec0f0881461041a578063decaf084146103f9578063ece86c09146103db578063f13c46aa1461027a578063f2fde38b146101f15763f7e65b1c1461015357600080fd5b346101ec5760403660031901126101ec576024356004356000526002602052604060002080548210156101ec5760e09161018c91611e10565b5060ff60018060a01b03825416916001810154906002810154600382015490600560048401549301549360405196875260208701526040860152606085015260808401526001600160401b03811660a084015260401c16151560c0820152f35b600080fd5b346101ec5760203660031901126101ec5761020a611c3f565b6102126122b5565b6001600160a01b0390811690811561026157600054826001600160601b0360a01b821617600055167f8be0079c531659141344cd1fd0a4f28419497f9722a3daafe3b4186f6b6457e0600080a3005b604051631e4fbdf760e01b815260006004820152602490fd5b346101ec576020806003193601126101ec576040519061029982611cbc565b600082526000818301526000604083015260608083015260006080830152600060a0830152600060c0830152600060e083015261010091600083820152608060c0610120926000848201526101409560008783015261016090600082840152600061018080940152600435600052600187526103186040600020612111565b9160405198888a998a528451818b01528401519060018060a01b0380921660408b0152604085015160608b01526103c061036460608701518c6101a09b8c9101526101c08d0190611db9565b99608087015160a08d015260a0870151958c6001600160401b039a8b8099169101528c60e060c08a01519101528c8160e08a0151916103a283611df9565b01528701516103b081611df9565b818d0152860151828c0190611e03565b84015116818901528201511682870152015116908301520390f35b346101ec5760003660031901126101ec576020600b54604051908152f35b346101ec5760203660031901126101ec576104126122b5565b600435600755005b60803660031901126101ec57600260643510156101ec57610439612285565b610444341515611e42565b600435600052600160205261046d6001600160401b0360076040600020015460b81c1615611e99565b6001600160401b0361048160075442611ee5565b166040519061048f82611cbc565b60043582523360208301526024356040830152604051602081018181106001600160401b038211176107b35760405260008152606083015234608083015260a082015260443560c0820152600160e08201526104ec606435611df9565b606435610100820152600061012082015260006101408201526001600160401b03421661016082015260006101808201526004356000526001602052604060002090805182556001820160018060a01b036020830151166001600160601b0360a01b8254161790556040810151600283015560608101519182516001600160401b0381116107b35761058e816105856003850154611c82565b60038501611f0d565b6020601f82116001146107455781906105c093949560009261073a575b50508160011b916000199060031b1c19161790565b60038201555b6080820151600482015560058101906001600160401b0360a084015116916001600160401b0319928382541617905560c083015160068201556007810160e084015161061181611df9565b61061a81611df9565b815460ff61ff0061010088015161063081611df9565b61063981611df9565b60081b1692169061ffff1916171781556101208401516004811015610724576001600160401b03928261067160089361018095611f63565b61014087015181546301000000600160b81b03191660189190911b6301000000600160b81b03161781556101608701518154908660b81b9060b81b16908660b81b19161790550193015116908254161790556106ce600435611f84565b6106d9600435611fcc565b6040516001815234602082015233907f2ce20f2d95ad40e6debdcf55e49b8abd91915fdb446d16460dba72f3c3bb3fde604060043592a360016000805160206122e283398151915255005b634e487b7160e01b600052602160045260246000fd5b0151905085806105ab565b6003830160005260206000209060005b601f198416811061079b5750600193949583601f19811610610782575b505050811b0160038201556105c6565b015160001960f88460031b161c19169055848080610772565b9091602060018192858a015181550193019101610755565b634e487b7160e01b600052604160045260246000fd5b346101ec5760203660031901126101ec576004356107e5612285565b806000526001602052604060002061080a60018060a01b036001830154163314612014565b600781019081549060ff8260101c16926004841015610724576000806004819482946202000061085b9861083f8c9b15612060565b62ff000019161790550154335af1610855612209565b50612239565b33907fac5a4b90e421002a2fdb9f132b9b32c24fa4ae16ec480516c85932de208d2a33600080a360016000805160206122e283398151915255005b346101ec5760803660031901126101ec576108af612285565b6004356000526001602052604060002060ff600782015460101c16600481101561072457610b62576001600160401b03600582015416421015610b1d57600435600052600360205260406000203360005260205260ff60406000205416610ad8576004015460443511610a9357600435600052600260205260406000206040519061093982611cd8565b338252602435602083015260443560408301526064356060830152600060808301526001600160401b03421660a0830152600160c08301528054600160401b8110156107b35761098e91600182018155611e10565b610a7d5760059060018060a01b038351166001600160601b0360a01b8254161781556020830151600182015560408301516002820155606083015160038201556080830151600482015501906001600160401b0360a08201511668ff000000000000000060c08454930151151560401b169168ffffffffffffffffff19161717905560043560005260036020526040600020336000526020526040600020600160ff19825416179055604051604435815233907f50fe806ad7090c0b4c89850edc7f5f0619df0b894aa98735d1d54c60548bf286602060043592a360016000805160206122e283398151915255005b634e487b7160e01b600052600060045260246000fd5b60405162461bcd60e51b815260206004820152601f60248201527f50686f746f6e696341756374696f6e3a2061626f7665206d617820636f7374006044820152606490fd5b60405162461bcd60e51b815260206004820152601c60248201527f50686f746f6e696341756374696f6e3a20616c726561647920626964000000006044820152606490fd5b60405162461bcd60e51b815260206004820152601f60248201527f50686f746f6e696341756374696f6e3a2062696464696e6720636c6f736564006044820152606490fd5b606460405162461bcd60e51b815260206004820152602060248201527f50686f746f6e696341756374696f6e3a20696e74656e74206e6f74206f70656e6044820152fd5b346101ec5760603660031901126101ec5760246004356001600160401b0382358181116101ec57610bdb903690600401611c55565b918360005260016020958187526040600020610c0360018060a01b0384830154163314612014565b60078101548360ff8216610c1681611df9565b03610e5e5760101c60ff166004811015610e49578303610df6576040518881019087878337610c596040828a81018d60443590820152038c810184520182611cf3565b519020600282015403610db257600301928511610d9e5750610c8584610c7f8454611c82565b84611f0d565b600090601f8511600114610d135750836040937f3d918dc0b0572da8a7d032adfdc76156fe94d0121d0873dfe29a435128385fad969793610cdf83808096600091610d08575b508160011b916000199060031b1c19161790565b90555b8451958487958652850152848401376000828201840152601f01601f19168101030190a2005b90508401358c610ccb565b90601f1985169083600052876000209160005b818110610d895750938693849360409793857f3d918dc0b0572da8a7d032adfdc76156fe94d0121d0873dfe29a435128385fad9b9c9810610d6f575b505083811b019055610ce2565b840135600019600387901b60f8161c191690558a80610d62565b86830135845592840192918901918901610d26565b634e487b7160e01b60009081526041600452fd5b60405162461bcd60e51b815260048101899052601e818401527f50686f746f6e696341756374696f6e3a2068617368206d69736d6174636800006044820152606490fd5b60405162461bcd60e51b8152600481018990526026818401527f50686f746f6e696341756374696f6e3a206d757374206265206177617264656460448201526508199a5c9cdd60d21b6064820152608490fd5b82634e487b7160e01b60005260216004526000fd5b60405162461bcd60e51b8152600481018a9052601c818501527f50686f746f6e696341756374696f6e3a206e6f74205a4b206d6f6465000000006044820152606490fd5b346101ec5760003660031901126101ec576020600c54604051908152f35b346101ec5760003660031901126101ec576020600a54604051908152f35b346101ec5760003660031901126101ec576020600954604051908152f35b346101ec5760403660031901126101ec57610f15611c3f565b610f1d6122b5565b6001600160a01b031660009081526004602052604090206024359055005b346101ec576020806003193601126101ec57600435600052600281526040600020908154916001600160401b03928381116107b3579160405192610f84828260051b0185611cf3565b8084528184018093600052826000206000915b838310611026575050505060405192818401908285525180915260408401929160005b828110610fc75785850386f35b835180516001600160a01b03168652808301518684015260408082015190870152606080820151908701526080808201519087015260a08082015189169087015260c09081015115159086015260e09094019392810192600101610fba565b600685600192611038859a989a6120ac565b815201920192019190959395610f97565b346101ec5760203660031901126101ec5760043560005260016020526060604060002080549060018060a01b03918260018301541660028301549361109060038501611d14565b906004850154946001600160401b0393846005830154166006830154906110ed60078501549660ff88169489600860ff8b821c16980154169a6040519e8f9e8f906101a094859483526020830152604082015201528c0190611db9565b9860808b015260a08a015260c089015261110681611df9565b60e088015261111481611df9565b61010087015261112e610120870160ff8460101c16611e03565b8160181c1661014086015260b81c166101608401526101808301520390f35b346101ec5760003660031901126101ec576000546040516001600160a01b039091168152602090f35b346101ec5760203660031901126101ec576004356005548110156101ec5760209060056000527f036b6384b5eca791c62761152d0c79bb0604c104a5fb6f4eb0703f3154bb3db00154604051908152f35b346101ec5760203660031901126101ec576004356111e36122b5565b6103e881116111f157600855005b60405162461bcd60e51b81526020600482015260076024820152666d61782031302560c81b6044820152606490fd5b346101ec5760003660031901126101ec576112396122b5565b600080546001600160a01b0319811682556001600160a01b03167f8be0079c531659141344cd1fd0a4f28419497f9722a3daafe3b4186f6b6457e08280a3005b346101ec5760203660031901126101ec57611292612285565b600435600052600160205260406000206112b960018060a01b036001830154163314612014565b60ff600782015460101c166004811015610724576112d79015612060565b6001600160401b0360058201541642106116ca5760043560005260026020526040600020908154156116855760009081805b845481101561150a5760ff60056113208388611e10565b50015460401c16156115025761133f6113398287611e10565b506120ac565b61134884612111565b6060820151909190156114f1576080670b1a2bc2ec500000925b018051156114e8576040820151670de0b6b3a764000091828202918083048414901517156114a457519081156114d257828282048103116114a457049003905b80516001600160a01b031660009081526004602052604090205492831592836114ba57670de0b6b3a7640000938585810204851417156114a45760646114549481960204925b670de0b6b3a764000080851161149a575b509161143a61144061144a93602061143a96015115156000146114855761143a6114306709b6e64a8ec60000955b600954906121e9565b91600a54906121e9565b90611ee5565b91600b54906121e9565b91600c54906121e9565b048060046114628489611e10565b500155828111611478575b506001905b01611309565b915092506001839061146d565b61143a61143067058d15e17628000095611427565b935061143a6113f9565b634e487b7160e01b600052601160045260246000fd5b60649450611454935067016345785d8a0000926113e8565b634e487b7160e01b600052601260045260246000fd5b506000906113a2565b6080670429d069189e000092611362565b600190611472565b50600261152d859461151c8187611e10565b50546001600160a01b031695611e10565b50015460078301805462010000600160b81b0319166301000000600160b81b03601887901b1617620100001790556008808401805467ffffffffffffffff1916426001600160401b031617905554909290611597906127109061159090866121e9565b04846121fc565b6115a58460048401546121fc565b9080611623575b50806115fc575b505060405191825260208201527f1a7d1bd9541230a71a85f1873ed02c2ab08382ecc570b030a47a424e51f58ced604060043592a360016000805160206122e283398151915255005b60008080809361161c956001808060a01b03910154165af1610855612209565b83806115b3565b600080808093895af1611634612209565b501561164057856115ac565b60405162461bcd60e51b815260206004820152601f60248201527f50686f746f6e696341756374696f6e3a207061796d656e74206661696c6564006044820152606490fd5b60405162461bcd60e51b815260206004820152601860248201527f50686f746f6e696341756374696f6e3a206e6f206269647300000000000000006044820152606490fd5b60405162461bcd60e51b815260206004820152602360248201527f50686f746f6e696341756374696f6e3a2062696464696e67207374696c6c206f6044820152623832b760e91b6064820152608490fd5b346101ec5760203660031901126101ec576004356006548110156101ec5760209060066000527ff652222313e28459528d920b65115c16c04f3efc82aaedc97be59f3f377c0d3f0154604051908152f35b346101ec5760003660031901126101ec576020600754604051908152f35b346101ec5760003660031901126101ec576020600554604051908152f35b346101ec5760003660031901126101ec576020600654604051908152f35b346101ec5760003660031901126101ec576020600854604051908152f35b346101ec5760403660031901126101ec576024356001600160a01b038116908190036101ec576004356000526003602052604060002090600052602052602060ff604060002054166040519015158152f35b60803660031901126101ec576024356001600160401b0381116101ec57611861903690600401611c55565b600260643510156101ec57611874612285565b61187f341515611e42565b60043560005260016020526118a86001600160401b0360076040600020015460b81c1615611e99565b6040516020810190828483376118da6054828581013360601b6020820152426034820152036034810184520182611cf3565b519020916001600160401b036118f260075442611ee5565b16916040519361190185611cbc565b6004358552336020860152604085015261191a81611ef2565b916119286040519384611cf3565b81835236828201116101ec57816000926020928386013783010152606083015234608083015260a082015260443560c0820152600060e082015261196d606435611df9565b606435610100820152600061012082015260006101408201526001600160401b03421661016082015260006101808201526004356000526001602052604060002090805182556001820160018060a01b036020830151166001600160601b0360a01b8254161790556040810151600283015560608101519182516001600160401b0381116107b357611a06816105856003850154611c82565b6020601f8211600114611b9b578190611a3793949560009261073a5750508160011b916000199060031b1c19161790565b60038201555b6080820151600482015560058101906001600160401b0360a084015116916001600160401b0319928382541617905560c083015160068201556007810160e0840151611a8881611df9565b611a9181611df9565b815460ff61ff00610100880151611aa781611df9565b611ab081611df9565b60081b1692169061ffff1916171781556101208401516004811015610724576001600160401b039282611ae860089361018095611f63565b61014087015181546301000000600160b81b03191660189190911b6301000000600160b81b03161781556101608701518154908660b81b9060b81b16908660b81b1916179055019301511690825416179055611b45600435611f84565b611b50600435611fcc565b6040516000815234602082015233907f2ce20f2d95ad40e6debdcf55e49b8abd91915fdb446d16460dba72f3c3bb3fde604060043592a360016000805160206122e283398151915255005b6003830160005260206000209060005b601f1984168110611bf15750600193949583601f19811610611bd8575b505050811b016003820155611a3d565b015160001960f88460031b161c19169055848080611bc8565b9091602060018192858a015181550193019101611bab565b346101ec5760203660031901126101ec576020906001600160a01b03611c2d611c3f565b16600052600482526040600020548152f35b600435906001600160a01b03821682036101ec57565b9181601f840112156101ec578235916001600160401b0383116101ec57602083818601950101116101ec57565b90600182811c92168015611cb2575b6020831014611c9c57565b634e487b7160e01b600052602260045260246000fd5b91607f1691611c91565b6101a081019081106001600160401b038211176107b357604052565b60e081019081106001600160401b038211176107b357604052565b90601f801991011681019081106001600160401b038211176107b357604052565b90604051918260008254611d2781611c82565b90818452602094600191600181169081600014611d975750600114611d58575b505050611d5692500383611cf3565b565b600090815285812095935091905b818310611d7f575050611d569350820101388080611d47565b85548884018501529485019487945091830191611d66565b92505050611d5694925060ff191682840152151560051b820101388080611d47565b919082519283825260005b848110611de5575050826000602080949584010152601f8019910116010190565b602081830181015184830182015201611dc4565b6002111561072457565b9060048210156107245752565b8054821015611e2c576000526006602060002091020190600090565b634e487b7160e01b600052603260045260246000fd5b15611e4957565b60405162461bcd60e51b815260206004820152602260248201527f50686f746f6e696341756374696f6e3a206d75737420657363726f772066756e604482015261647360f01b6064820152608490fd5b15611ea057565b60405162461bcd60e51b815260206004820152601e60248201527f50686f746f6e696341756374696f6e3a20696e74656e742065786973747300006044820152606490fd5b919082018092116114a457565b6001600160401b0381116107b357601f01601f191660200190565b90601f8111611f1b57505050565b6000916000526020600020906020601f850160051c83019410611f59575b601f0160051c01915b828110611f4e57505050565b818155600101611f42565b9092508290611f39565b9060048110156107245762ff000082549160101b169062ff00001916179055565b600554600160401b8110156107b3576001810180600555811015611e2c5760056000527f036b6384b5eca791c62761152d0c79bb0604c104a5fb6f4eb0703f3154bb3db00155565b600654600160401b8110156107b3576001810180600655811015611e2c5760066000527ff652222313e28459528d920b65115c16c04f3efc82aaedc97be59f3f377c0d3f0155565b1561201b57565b60405162461bcd60e51b815260206004820152601a60248201527f50686f746f6e696341756374696f6e3a206e6f742062757965720000000000006044820152606490fd5b1561206757565b60405162461bcd60e51b815260206004820152601960248201527f50686f746f6e696341756374696f6e3a206e6f74206f70656e000000000000006044820152606490fd5b906040516120b981611cd8565b60c060ff6005839560018060a01b0381541685526001810154602086015260028101546040860152600381015460608601526004810154608086015201546001600160401b03811660a085015260401c161515910152565b9060405161211e81611cbc565b8254815260018301546001600160a01b039081166020830152600284015460408301529092839161215160038301611d14565b6060840152600482015460808401526001600160401b03908160058401541660a0850152600683015460c085015260078301549260ff841661219281611df9565b60e086015260ff8460081c166121a781611df9565b61010086015260ff8460101c166004811015610724576101809460089385926101208901528160181c1661014088015260b81c16610160860152015416910152565b818102929181159184041417156114a457565b919082039182116114a457565b3d15612234573d9061221a82611ef2565b916122286040519384611cf3565b82523d6000602084013e565b606090565b1561224057565b60405162461bcd60e51b815260206004820152601e60248201527f50686f746f6e696341756374696f6e3a20726566756e64206661696c656400006044820152606490fd5b6000805160206122e283398151915260028154146122a35760029055565b604051633ee5aeb560e01b8152600490fd5b6000546001600160a01b031633036122c957565b60405163118cdaa760e01b8152336004820152602490fdfe9b779b17422d0df92223018b32b4d1fa46e071723d6817e2486d003becc55f00a264697066735822122003593dd86bc189843b8734c13d8e2e5ad23ca541c2a763878c0eb7480380ad6164736f6c63430008180033",
  "linkReferences": {},
  "deployedLinkReferences": {}
}