{
  "_format": "hh-sol-artifact-1",
  "contractName": "PhotonicVerifier",
  "sourceName": "contracts/PhotonicVerifier.sol",
  "abi": [
    {
      "inputs": [],
      "stateMutability": "nonpayable",
      "type": "constructor"
    },
    {
      "inputs": [
        {
          "internalType": "address",
          "name": "owner",
          "type": "address"
        }
      ],
      "name": "OwnableInvalidOwner",
      "type": "error"
    },
    {
      "inputs": [
        {
          "internalType": "address",
          "name": "account",
          "type": "address"
        }
      ],
      "name": "OwnableUnauthorizedAccount",
      "type": "error"
    },
    {
      "inputs": [],
      "name": "ReentrancyGuardReentrantCall",
      "type": "error"
    },
    {
      "anonymous": false,
      "inputs": [
        {
          "indexed": true,
          "internalType": "bytes32",
          "name": "bpdId",
          "type": "bytes32"
        },
        {
          "indexed": false,
          "internalType": "enum PhotonicVerifier.VerificationStatus",
          "name": "status",
          "type": "uint8"
        },
        {
          "indexed": false,
          "internalType": "uint256",
          "name": "consensusCount",
          "type": "uint256"
        },
        {
          "indexed": false,
          "internalType": "uint256",
          "name": "totalVerifiers",
          "type": "uint256"
        }
      ],
      "name": "BPDResolved",
      "type": "event"
    },
    {
      "anonymous": false,
      "inputs": [
        {
          "indexed": true,
          "internalType": "bytes32",
          "name": "bpdId",
          "type": "bytes32"
        },
        {
          "indexed": true,
          "internalType": "address",
          "name": "provider",
          "type": "address"
        },
        {
          "indexed": false,
          "internalType": "bytes32",
          "name": "bpdHash",
          "type": "bytes32"
        },
        {
          "indexed": false,
          "internalType": "uint256",
          "name": "deliveryFee",
          "type": "uint256"
        }
      ],
      "name": "BPDSubmitted",
      "type": "event"
    },
    {
      "anonymous": false,
      "inputs": [
        {
          "indexed": true,
          "internalType": "address",
          "name": "previousOwner",
          "type": "address"
        },
        {
          "indexed": true,
          "internalType": "address",
          "name": "newOwner",
          "type": "address"
        }
      ],
      "name": "OwnershipTransferred",
      "type": "event"
    },
    {
      "anonymous": false,
      "inputs": [
        {
          "indexed": true,
          "internalType": "bytes32",
          "name": "bpdId",
          "type": "bytes32"
        },
        {
          "indexed": true,
          "internalType": "address",
          "name": "verifier",
          "type": "address"
        },
        {
          "indexed": false,
          "internalType": "uint256",
          "name": "reward",
          "type": "uint256"
        }
      ],
      "name": "RewardClaimed",
      "type": "event"
    },
    {
      "anonymous": false,
      "inputs": [
        {
          "indexed": true,
          "internalType": "bytes32",
          "name": "bpdId",
          "type": "bytes32"
        },
        {
          "indexed": true,
          "internalType": "address",
          "name": "verifier",
          "type": "address"
        },
        {
          "indexed": false,
          "internalType": "uint256",
          "name": "slashed",
          "type": "uint256"
        }
      ],
      "name": "SlashExecuted",
      "type": "event"
    },
    {
      "anonymous": false,
      "inputs": [
        {
          "indexed": true,
          "internalType": "bytes32",
          "name": "bpdId",
          "type": "bytes32"
        },
        {
          "indexed": true,
          "internalType": "address",
          "name": "verifier",
          "type": "address"
        },
        {
          "indexed": false,
          "internalType": "uint256",
          "name": "amount",
          "type": "uint256"
        },
        {
          "indexed": false,
          "internalType": "bytes32",
          "name": "submittedHash",
          "type": "bytes32"
        }
      ],
      "name": "VerifierStaked",
      "type": "event"
    },
    {
      "inputs": [
        {
          "internalType": "uint256",
          "name": "",
          "type": "uint256"
        }
      ],
      "name": "allBpdIds",
      "outputs": [
        {
          "internalType": "bytes32",
          "name": "",
          "type": "bytes32"
        }
      ],
      "stateMutability": "view",
      "type": "function"
    },
    {
      "inputs": [
        {
          "internalType": "bytes32",
          "name": "",
          "type": "bytes32"
        }
      ],
      "name": "bpdRecords",
      "outputs": [
        {
          "internalType": "bytes32",
          "name": "bpdHash",
          "type": "bytes32"
        },
        {
          "internalType": "address",
          "name": "provider",
          "type": "address"
        },
        {
          "internalType": "uint256",
          "name": "deliveryFee",
          "type": "uint256"
        },
        {
          "internalType": "uint256",
          "name": "stakedTotal",
          "type": "uint256"
        },
        {
          "internalType": "uint256",
          "name": "verifierCount",
          "type": "uint256"
        },
        {
          "internalType": "uint256",
          "name": "consensusCount",
          "type": "uint256"
        },
        {
          "internalType": "enum PhotonicVerifier.VerificationStatus",
          "name": "status",
          "type": "uint8"
        },
        {
          "internalType": "uint64",
          "name": "createdAt",
          "type": "uint64"
        },
        {
          "internalType": "uint64",
          "name": "resolvedAt",
          "type": "uint64"
        },
        {
          "internalType": "bool",
          "name": "settled",
          "type": "bool"
        }
      ],
      "stateMutability": "view",
      "type": "function"
    },
    {
      "inputs": [
        {
          "internalType": "bytes32",
          "name": "bpdId",
          "type": "bytes32"
        }
      ],
      "name": "claimReward",
      "outputs": [],
      "stateMutability": "nonpayable",
      "type": "function"
    },
    {
      "inputs": [],
      "name": "consensusThreshold",
      "outputs": [
        {
          "internalType": "uint256",
          "name": "",
          "type": "uint256"
        }
      ],
      "stateMutability": "view",
      "type": "function"
    },
    {
      "inputs": [
        {
          "internalType": "bytes32",
          "name": "bpdId",
          "type": "bytes32"
        }
      ],
      "name": "getBPDRecord",
      "outputs": [
        {
          "components": [
            {
              "internalType": "bytes32",
              "name": "bpdHash",
              "type": "bytes32"
            },
            {
              "internalType": "address",
              "name": "provider",
              "type": "address"
            },
            {
              "internalType": "uint256",
              "name": "deliveryFee",
              "type": "uint256"
            },
            {
              "internalType": "uint256",
              "name": "stakedTotal",
              "type": "uint256"
            },
            {
              "internalType": "uint256",
              "name": "verifierCount",
              "type": "uint256"
            },
            {
              "internalType": "uint256",
              "name": "consensusCount",
              "type": "uint256"
            },
            {
              "internalType": "enum PhotonicVerifier.VerificationStatus",
              "name": "status",
              "type": "uint8"
            },
            {
              "internalType": "uint64",
              "name": "createdAt",
              "type": "uint64"
            },
            {
              "internalType": "uint64",
              "name": "resolvedAt",
              "type": "uint64"
            },
            {
              "internalType": "bool",
              "name": "settled",
              "type": "bool"
            }
          ],
          "internalType": "struct PhotonicVerifier.BPDRecord",
          "name": "",
          "type": "tuple"
        }
      ],
      "stateMutability": "view",
      "type": "function"
    },
    {
      "inputs": [
        {
          "internalType": "bytes32",
          "name": "bpdId",
          "type": "bytes32"
        },
        {
          "internalType": "address",
          "name": "verifier",
          "type": "address"
        }
      ],
      "name": "getStake",
      "outputs": [
        {
          "components": [
            {
              "internalType": "uint256",
              "name": "amount",
              "type": "uint256"
            },
            {
              "internalType": "bytes32",
              "name": "submittedHash",
              "type": "bytes32"
            },
            {
              "internalType": "bool",
              "name": "matched",
              "type": "bool"
            },
            {
              "internalType": "bool",
              "name": "claimed",
              "type": "bool"
            }
          ],
          "internalType": "struct PhotonicVerifier.VerifierStake",
          "name": "",
          "type": "tuple"
        }
      ],
      "stateMutability": "view",
      "type": "function"
    },
    {
      "inputs": [
        {
          "internalType": "bytes32",
          "name": "bpdId",
          "type": "bytes32"
        }
      ],
      "name": "getVerifiers",
      "outputs": [
        {
          "internalType": "address[]",
          "name": "",
          "type": "address[]"
        }
      ],
      "stateMutability": "view",
      "type": "function"
    },
    {
      "inputs": [],
      "name": "minStake",
      "outputs": [
        {
          "internalType": "uint256",
          "name": "",
          "type": "uint256"
        }
      ],
      "stateMutability": "view",
      "type": "function"
    },
    {
      "inputs": [],
      "name": "owner",
      "outputs": [
        {
          "internalType": "address",
          "name": "",
          "type": "address"
        }
      ],
      "stateMutability": "view",
      "type": "function"
    },
    {
      "inputs": [],
      "name": "renounceOwnership",
      "outputs": [],
      "stateMutability": "nonpayable",
      "type": "function"
    },
    {
      "inputs": [
        {
          "internalType": "bytes32",
          "name": "bpdId",
          "type": "bytes32"
        }
      ],
      "name": "resolveBPD",
      "outputs": [],
      "stateMutability": "nonpayable",
      "type": "function"
    },
    {
      "inputs": [
        {
          "internalType": "uint256",
          "name": "_pct",
          "type": "uint256"
        }
      ],
      "name": "setConsensusThreshold",
      "outputs": [],
      "stateMutability": "nonpayable",
      "type": "function"
    },
    {
      "inputs": [
        {
          "internalType": "uint256",
          "name": "_min",
          "type": "uint256"
        }
      ],
      "name": "setMinStake",
      "outputs": [],
      "stateMutability": "nonpayable",
      "type": "function"
    },
    {
      "inputs": [
        {
          "internalType": "uint256",
          "name": "_window",
          "type": "uint256"
        }
      ],
      "name": "setVerificationWindow",
      "outputs": [],
      "stateMutability": "nonpayable",
      "type": "function"
    },
    {
      "inputs": [
        {
          "internalType": "bytes32",
          "name": "bpdId",
          "type": "bytes32"
        },
        {
          "internalType": "bytes32",
          "name": "submittedHash",
          "type": "bytes32"
        }
      ],
      "name": "stakeAndVerify",
      "outputs": [],
      "stateMutability": "payable",
      "type": "function"
    },
    {
      "inputs": [
        {
          "internalType": "bytes32",
          "name": "",
          "type": "bytes32"
        },
        {
          "internalType": "address",
          "name": "",
          "type": "address"
        }
      ],
      "name": "stakes",
      "outputs": [
        {
          "internalType": "uint256",
          "name": "amount",
          "type": "uint256"
        },
        {
          "internalType": "bytes32",
          "name": "submittedHash",
          "type": "bytes32"
        },
        {
          "internalType": "bool",
          "name": "matched",
          "type": "bool"
        },
        {
          "internalType": "bool",
          "name": "claimed",
          "type": "bool"
        }
      ],
      "stateMutability": "view",
      "type": "function"
    },
    {
      "inputs": [
        {
          "internalType": "bytes32",
          "name": "bpdId",
          "type": "bytes32"
        },
        {
          "internalType": "bytes32",
          "name": "bpdHash",
          "type": "bytes32"
        },
        {
          "internalType": "address",
          "name": "provider",
          "type": "address"
        }
      ],
      "name": "submitBPD",
      "outputs": [],
      "stateMutability": "payable",
      "type": "function"
    },
    {
      "inputs": [],
      "name": "totalBPDs",
      "outputs": [
        {
          "internalType": "uint256",
          "name": "",
          "type": "uint256"
        }
      ],
      "stateMutability": "view",
      "type": "function"
    },
    {
      "inputs": [
        {
          "internalType": "address",
          "name": "",
          "type": "address"
        }
      ],
      "name": "totalSlashed",
      "outputs": [
        {
          "internalType": "uint256",
          "name": "",
          "type": "uint256"
        }
      ],
      "stateMutability": "view",
      "type": "function"
    },
    {
      "inputs": [
        {
          "internalType": "address",
          "name": "newOwner",
          "type": "address"
        }
      ],
      "name": "transferOwnership",
      "outputs": [],
      "stateMutability": "nonpayable",
      "type": "function"
    },
    {
      "inputs": [],
      "name": "verificationWindow",
      "outputs": [
        {
          "internalType": "uint256",
          "name": "",
          "type": "uint256"
        }
      ],
      "stateMutability": "view",
      "type": "function"
    },
    {
      "inputs": [
        {
          "internalType": "bytes32",
          "name": "",
          "type": "bytes32"
        },
        {
          "internalType": "uint256",
          "name": "",
          "type": "uint256"
        }
      ],
      "name": "verifierList",
      "outputs": [
        {
          "internalType": "address",
          "name": "",
          "type": "address"
        }
      ],
      "stateMutability": "view",
      "type": "function"
    },
    {
      "inputs": [
        {
          "internalType": "address",
          "name": "",
          "type": "address"
        }
      ],
      "name": "verifierReputation",
      "outputs": [
        {
          "internalType": "uint256",
          "name": "",
          "type": "uint256"
        }
      ],
      "stateMutability": "view",
      "type": "function"
    },
    {
      "inputs": [],
      "name": "verifierRewardBps",
      "outputs": [
        {
          "internalType": "uint256",
          "name": "",
          "type": "uint256"
        }
      ],
      "stateMutability": "view",
      "type": "function"
    }
  ],
  "bytecode": "0x608080604052346100ba5733156100a45760008054336001600160a01b03198216811783556040519290916001600160a01b0316907f8be0079c531659141344cd1fd0a4f28419497f9722a3daafe3b4186f6b6457e09080a360017f9b779b17422d0df92223018b32b4d1fa46e071723d6817e2486d003becc55f005566038d7ea4c6800060065561070860075560436008556101f460095561176990816100c08239f35b631e4fbdf760e01b815260006004820152602490fd5b600080fdfe608080604052600436101561001357600080fd5b60003560e01c90816306a39213146111d6575080631aea9fd11461119c57806330f9243914611162578063375b3c0a14611144578063380a67bb146111205780633fca40cf14610e1e5780635399ab4c14610d6157806355bf8c5714610d0f578063715018a614610cb657806379bf1a3714610bfe57806385af47d514610bdd57806388d2209b14610b855780638c80fd9014610b645780638da5cb5b14610b3b5780639900aeec14610a8e578063a2626a5b146107b8578063a7b9828f14610747578063ade5b3b314610710578063b55a1e6a14610580578063da3f266114610562578063f2fde38b146104d4578063f541402314610168578063f79f55b61461014a5763f9b0b5b91461012757600080fd5b34610145576000366003190112610145576020600854604051908152f35b600080fd5b34610145576000366003190112610145576020600754604051908152f35b3461014557602080600319360112610145576004356101856116b7565b806000526001825260406000206006810160ff81541660048110156103e5571561048f5782600052600284526040600020336000528452604060002090815490811561044a57600283019081549160ff8360081c166103fb5761ff001983166101001790555460ff1660048110156103e55760011490816103da575b50156103145750600282015491600954928381029381850414901517156102fe5761023f926127106005610238930154910461138e565b9054611332565b91600080808086335af1610251611678565b50156102b0577ffe236dfc7ce073698734b89da1aee0e7551c9c6d264404c502e6e8fefc1132a89033600052600481526040600020610290815461137f565b90556040519384523393a35b600160008051602061171483398151915255005b6084906040519062461bcd60e51b82526004820152602160248201527f50686f746f6e696356657269666965723a207472616e73666572206661696c656044820152601960fa1b6064820152fd5b634e487b7160e01b600052601160045260246000fd5b60008080939481933383526005895261033260408420918254611332565b9055600101548554906001600160a01b03165af161034e611678565b5015610385575460405190815233927f3283d96d18219c171ae87edff3571820203be9a1e834b1e3dd12e18986598d3991a361029c565b60405162461bcd60e51b815260048101849052602760248201527f50686f746f6e696356657269666965723a20736c617368207472616e736665726044820152660819985a5b195960ca1b6064820152608490fd5b60ff91501686610201565b634e487b7160e01b600052602160045260246000fd5b60405162461bcd60e51b815260048101899052602160248201527f50686f746f6e696356657269666965723a20616c726561647920636c61696d656044820152601960fa1b6064820152608490fd5b60405162461bcd60e51b815260048101879052601a60248201527f50686f746f6e696356657269666965723a206e6f207374616b650000000000006044820152606490fd5b60405162461bcd60e51b815260048101859052601e60248201527f50686f746f6e696356657269666965723a206e6f74207265736f6c76656400006044820152606490fd5b34610145576020366003190112610145576104ed6111f1565b6104f56116e7565b6001600160a01b0390811690811561054957600054826bffffffffffffffffffffffff60a01b821617600055167f8be0079c531659141344cd1fd0a4f28419497f9722a3daafe3b4186f6b6457e0600080a3005b604051631e4fbdf760e01b815260006004820152602490fd5b34610145576000366003190112610145576020600a54604051908152f35b346101455760203660031901126101455760006101206040516105a28161163b565b8281528260208201528260408201528260608201528260808201528260a08201528260c08201528260e0820152826101008201520152600435600052600160205260406000206006604051916105f78361163b565b8054835260018101546001600160a01b0316602084015260028101546040840152600381015460608401526004808201546080850152600582015460a0850152910154919060ff8316908110156103e5576101409260ff9160c08401526001600160401b038160081c1660e08401526001600160401b038160481c1661010084015260881c161515610120820152610120604051918051835260018060a01b03602082015116602084015260408101516040840152606081015160608401526080810151608084015260a081015160a08401526106dc60c082015160c0850190611282565b6001600160401b0360e08201511660e08401526001600160401b036101008201511661010084015201511515610120820152f35b3461014557602036600319011261014557600435600a548110156101455761073960209161121d565b90546040519160031b1c8152f35b3461014557604036600319011261014557610760611207565b600435600052600260205260406000209060018060a01b03166000526020526080604060002060ff815491600260018201549101549060405193845260208401528181161515604084015260081c1615156060820152f35b6060366003190112610145576044356001600160a01b038116906024803591839003610145576107e66116b7565b60043560005260016020526001600160401b0360066040600020015460081c16610a3e5734156109ea5760405161081c8161163b565b8281528360208201523460408201526000606082015260006080820152600060a0820152600060c08201526001600160401b03421660e082015260006101008201526000610120820152600435600052600160205260066040600020825181556001810160018060a01b036020850151166bffffffffffffffffffffffff60a01b82541617905560408301516002820155606083015160038201556080830151600482015560a08301516005820155019060c081015160048110156109d557906108e9610120928461133f565b60e081015168ffffffffffffffff0084549160081b169068ffffffffffffffff0019161783556109276001600160401b036101008301511684611357565b0151815460ff60881b191690151560881b60ff60881b16179055600a5490600160401b8210156109c157508060016109629201600a5561121d565b81549060031b90600435821b91600019901b19161790556040519081523460208201527faa8c08841e544d4fd7e3844ad6ed12bbb6da3497e05410c3121bc5a9c867ad32604060043592a3600160008051602061171483398151915255005b634e487b7160e01b60009081526041600452fd5b83634e487b7160e01b60005260216004526000fd5b60849060276040519162461bcd60e51b8352602060048401528201527f50686f746f6e696356657269666965723a2064656c6976657279206665652072604482015266195c5d5a5c995960ca1b6064820152fd5b6084906040519062461bcd60e51b825260206004830152808201527f50686f746f6e696356657269666965723a2042504420616c72656164792065786044820152636973747360e01b6064820152fd5b34610145576020366003190112610145576004356000526001602052610140604060002060ff81549160018060a01b03600182015416600282015491600381015460048201549060066005840154930154946001600160401b0394604051988952602089015260408801526060870152608086015260a0850152610b1760c08501848416611282565b808260081c1660e08501528160481c1661010084015260881c161515610120820152f35b34610145576000366003190112610145576000546040516001600160a01b039091168152602090f35b3461014557602036600319011261014557610b7d6116e7565b600435600655005b3461014557602036600319011261014557600435610ba16116e7565b60648111610bae57600855005b60405162461bcd60e51b81526020600482015260076024820152661a5b9d985b1a5960ca1b6044820152606490fd5b3461014557602036600319011261014557610bf66116e7565b600435600755005b34610145576020806003193601126101455760043560005260038152604060002060405190818382549182815201908192600052846000209060005b86828210610c99578686610c5082880383611657565b604051928392818401908285525180915260408401929160005b828110610c7957505050500390f35b83516001600160a01b031685528695509381019392810192600101610c6a565b83546001600160a01b031685529093019260019283019201610c3a565b3461014557600036600319011261014557610ccf6116e7565b600080546001600160a01b0319811682556001600160a01b03167f8be0079c531659141344cd1fd0a4f28419497f9722a3daafe3b4186f6b6457e08280a3005b346101455760403660031901126101455760243560043560005260036020526040600020805482101561014557602091610d489161126a565b905460405160039290921b1c6001600160a01b03168152f35b3461014557604036600319011261014557610d7a611207565b60006060604051610d8a8161160a565b8281528260208201528260408201520152600435600052600260205260406000209060018060a01b03166000526020526080604060002060405190610dce8261160a565b80549182815260026001830154926020830193845201549160ff6060604084019382861615158552019360081c161515835260405193845251602084015251151560408301525115156060820152f35b60403660031901126101455760246004358135610e396116b7565b8160005260209260018452604060002090600682015460ff6001600160401b038260081c1691610e6a83151561128f565b16600481101561110b5790610e82610e8b92156112db565b60075490611332565b4210156110c857600654341061107b57836000526002855260406000203360005285526040600020546110395760018201546001600160a01b03919082163314610fe057604051610edb8161160a565b348152868101858152600260408301926000845260608101926000845289600052828b526040600020336000528b5260406000209151825551600182015501915115159060ff61ff0084549251151560081b1692169061ffff19161717905584600052600386526040600020805491600160401b8310156109c1575081610f6b916001600496959401815561126a565b819291549060031b9133831b921b191617905560038101610f8d348254611332565b905501610f9a815461137f565b9055604051923484528301527f8a7664d92998a25e8aab34a60c484cf7de9464ff266592a95ca21565befdf84a60403393a3600160008051602061171483398151915255005b85602d6084926040519262461bcd60e51b845260048401528201527f50686f746f6e696356657269666965723a2070726f76696465722063616e6e6f60448201526c742073656c662d76657269667960981b6064820152fd5b606490856040519162461bcd60e51b83528160048401528201527f50686f746f6e696356657269666965723a20616c7265616479207374616b65646044820152fd5b8460216084926040519262461bcd60e51b845260048401528201527f50686f746f6e696356657269666965723a2062656c6f77206d696e207374616b6044820152606560f81b6064820152fd5b84601f6064926040519262461bcd60e51b845260048401528201527f50686f746f6e696356657269666965723a2077696e646f7720636c6f736564006044820152fd5b82634e487b7160e01b60005260216004526000fd5b34610145576020366003190112610145576111396116b7565b61029c6004356113ae565b34610145576000366003190112610145576020600654604051908152f35b34610145576020366003190112610145576001600160a01b036111836111f1565b1660005260056020526020604060002054604051908152f35b34610145576020366003190112610145576001600160a01b036111bd6111f1565b1660005260046020526020604060002054604051908152f35b34610145576000366003190112610145576020906009548152f35b600435906001600160a01b038216820361014557565b602435906001600160a01b038216820361014557565b600a5481101561125457600a6000527fc65a7bb8d6351c1cf70c95a316cc6a92839c986682d98bc35f958f4883f9d2a80190600090565b634e487b7160e01b600052603260045260246000fd5b80548210156112545760005260206000200190600090565b9060048210156103e55752565b1561129657565b60405162461bcd60e51b815260206004820152601f60248201527f50686f746f6e696356657269666965723a20425044206e6f7420666f756e64006044820152606490fd5b156112e257565b60405162461bcd60e51b815260206004820152602260248201527f50686f746f6e696356657269666965723a20616c7265616479207265736f6c76604482015261195960f21b6064820152608490fd5b919082018092116102fe57565b9060048110156103e55760ff80198354169116179055565b9067ffffffffffffffff60481b82549160481b169067ffffffffffffffff60481b1916179055565b60001981146102fe5760010190565b8115611398570490565b634e487b7160e01b600052601260045260246000fd5b60008181526001906020908282526040908181209060068201908154956001600160401b0391828860081c166113e581151561128f565b60ff891660048110156115f65790610e8261140092156112db565b42106115a657600485019788541561155557508080958a83526003808a528884208585905b6114d5575b5050506005015560648502858104606414861517156114c157606097959360ff938a98969361147f61149c947feb29a1aefb4add57daff1edf5e2dce0eedaec22ba8fe902486616367a20dd1f99d549061138e565b6008541190506114b657611494905b8461133f565b421682611357565b54169354926114ad83518096611282565b840152820152a2565b50611494600261148e565b634e487b7160e01b82526011600452602482fd5b90919293825482101561154e57508c85526002808c528a86206114f8838561126a565b905490861b1c6001600160a01b031687528c528a86208781015486541461152a575b5050908580939201899493611425565b01805460ff191687179055978592919083906115459061137f565b9991929361151a565b939261142a565b7feb29a1aefb4add57daff1edf5e2dce0eedaec22ba8fe902486616367a20dd1f998508195506060979694919360ff9361159792851916178355421682611357565b5416936114ad83518096611282565b855162461bcd60e51b815260048101889052602360248201527f50686f746f6e696356657269666965723a2077696e646f77207374696c6c206f6044820152623832b760e91b6064820152608490fd5b634e487b7160e01b83526021600452602483fd5b608081019081106001600160401b0382111761162557604052565b634e487b7160e01b600052604160045260246000fd5b61014081019081106001600160401b0382111761162557604052565b90601f801991011681019081106001600160401b0382111761162557604052565b3d156116b2573d906001600160401b03821161162557604051916116a6601f8201601f191660200184611657565b82523d6000602084013e565b606090565b60008051602061171483398151915260028154146116d55760029055565b604051633ee5aeb560e01b8152600490fd5b6000546001600160a01b031633036116fb57565b60405163118cdaa760e01b8152336004820152602490fdfe9b779b17422d0df92223018b32b4d1fa46e071723d6817e2486d003becc55f00a2646970667358221220c0b952639499a0b8dfc7c813f14a520af23b41f60c0afe414f0aba165192641464736f6c63430008180033",
  "linkReferences": {},
  "deployedLinkReferences": {}
}