{
  "_format": "hh-sol-artifact-1",
  "contractName": "PhotonicRegistry",
  "sourceName": "contracts/PhotonicRegistry.sol",
  "abi": [
    {
      "inputs": [],
      "stateMutability": "nonpayable",
      "type": "constructor"
    },
    {
      "inputs": [
        {
          "internalType": "address",
          "name": "owner",
          "type": "address"
        }
      ],
      "name": "OwnableInvalidOwner",
      "type": "error"
    },
    {
      "inputs": [
        {
          "internalType": "address",
          "name": "account",
          "type": "address"
        }
      ],
      "name": "OwnableUnauthorizedAccount",
      "type": "error"
    },
    {
      "inputs": [],
      "name": "ReentrancyGuardReentrantCall",
      "type": "error"
    },
    {
      "anonymous": false,
      "inputs": [
        {
          "indexed": true,
          "internalType": "address",
          "name": "agent",
          "type": "address"
        },
        {
          "indexed": false,
          "internalType": "string",
          "name": "cause",
          "type": "string"
        },
        {
          "indexed": false,
          "internalType": "uint256",
          "name": "finalFitness",
          "type": "uint256"
        }
      ],
      "name": "AgentDied",
      "type": "event"
    },
    {
      "anonymous": false,
      "inputs": [
        {
          "indexed": true,
          "internalType": "address",
          "name": "agent",
          "type": "address"
        }
      ],
      "name": "AgentPermanentlyExtinct",
      "type": "event"
    },
    {
      "anonymous": false,
      "inputs": [
        {
          "indexed": true,
          "internalType": "address",
          "name": "agent",
          "type": "address"
        },
        {
          "indexed": false,
          "internalType": "uint32",
          "name": "generation",
          "type": "uint32"
        },
        {
          "indexed": false,
          "internalType": "address",
          "name": "parentA",
          "type": "address"
        },
        {
          "indexed": false,
          "internalType": "address",
          "name": "parentB",
          "type": "address"
        }
      ],
      "name": "AgentRegistered",
      "type": "event"
    },
    {
      "anonymous": false,
      "inputs": [
        {
          "indexed": true,
          "internalType": "address",
          "name": "agent",
          "type": "address"
        },
        {
          "indexed": false,
          "internalType": "address",
          "name": "sponsor",
          "type": "address"
        }
      ],
      "name": "AgentResurrected",
      "type": "event"
    },
    {
      "anonymous": false,
      "inputs": [
        {
          "indexed": true,
          "internalType": "address",
          "name": "agent",
          "type": "address"
        },
        {
          "indexed": false,
          "internalType": "bytes32",
          "name": "behavioralHistoryRoot",
          "type": "bytes32"
        },
        {
          "indexed": false,
          "internalType": "uint256",
          "name": "fitnessScore",
          "type": "uint256"
        }
      ],
      "name": "GenomeUpdated",
      "type": "event"
    },
    {
      "anonymous": false,
      "inputs": [
        {
          "indexed": true,
          "internalType": "address",
          "name": "previousOwner",
          "type": "address"
        },
        {
          "indexed": true,
          "internalType": "address",
          "name": "newOwner",
          "type": "address"
        }
      ],
      "name": "OwnershipTransferred",
      "type": "event"
    },
    {
      "inputs": [],
      "name": "FITNESS_SCALE",
      "outputs": [
        {
          "internalType": "uint256",
          "name": "",
          "type": "uint256"
        }
      ],
      "stateMutability": "view",
      "type": "function"
    },
    {
      "inputs": [
        {
          "internalType": "uint256",
          "name": "",
          "type": "uint256"
        }
      ],
      "name": "agentList",
      "outputs": [
        {
          "internalType": "address",
          "name": "",
          "type": "address"
        }
      ],
      "stateMutability": "view",
      "type": "function"
    },
    {
      "inputs": [],
      "name": "escrowContract",
      "outputs": [
        {
          "internalType": "address",
          "name": "",
          "type": "address"
        }
      ],
      "stateMutability": "view",
      "type": "function"
    },
    {
      "inputs": [
        {
          "internalType": "address",
          "name": "",
          "type": "address"
        }
      ],
      "name": "extinct",
      "outputs": [
        {
          "internalType": "bool",
          "name": "",
          "type": "bool"
        }
      ],
      "stateMutability": "view",
      "type": "function"
    },
    {
      "inputs": [
        {
          "internalType": "address",
          "name": "agent",
          "type": "address"
        }
      ],
      "name": "extinguishAgent",
      "outputs": [],
      "stateMutability": "nonpayable",
      "type": "function"
    },
    {
      "inputs": [
        {
          "internalType": "uint256",
          "name": "",
          "type": "uint256"
        }
      ],
      "name": "fossilList",
      "outputs": [
        {
          "internalType": "address",
          "name": "",
          "type": "address"
        }
      ],
      "stateMutability": "view",
      "type": "function"
    },
    {
      "inputs": [
        {
          "internalType": "address",
          "name": "",
          "type": "address"
        }
      ],
      "name": "fossilRecord",
      "outputs": [
        {
          "internalType": "bytes32",
          "name": "genomeSnapshot",
          "type": "bytes32"
        },
        {
          "internalType": "uint256",
          "name": "finalFitnessScore",
          "type": "uint256"
        },
        {
          "internalType": "uint64",
          "name": "diedAt",
          "type": "uint64"
        },
        {
          "internalType": "string",
          "name": "causeOfDeath",
          "type": "string"
        },
        {
          "internalType": "uint32",
          "name": "generation",
          "type": "uint32"
        }
      ],
      "stateMutability": "view",
      "type": "function"
    },
    {
      "inputs": [
        {
          "internalType": "address",
          "name": "",
          "type": "address"
        }
      ],
      "name": "genomes",
      "outputs": [
        {
          "internalType": "bytes32",
          "name": "capabilityRoot",
          "type": "bytes32"
        },
        {
          "internalType": "bytes32",
          "name": "toolRoot",
          "type": "bytes32"
        },
        {
          "internalType": "bytes32",
          "name": "promptArchHash",
          "type": "bytes32"
        },
        {
          "internalType": "bytes32",
          "name": "behavioralHistoryRoot",
          "type": "bytes32"
        },
        {
          "internalType": "uint256",
          "name": "fitnessScore",
          "type": "uint256"
        },
        {
          "internalType": "uint32",
          "name": "generation",
          "type": "uint32"
        },
        {
          "internalType": "address",
          "name": "parentA",
          "type": "address"
        },
        {
          "internalType": "address",
          "name": "parentB",
          "type": "address"
        },
        {
          "internalType": "uint64",
          "name": "registeredAt",
          "type": "uint64"
        },
        {
          "internalType": "uint64",
          "name": "lastActivityAt",
          "type": "uint64"
        },
        {
          "internalType": "bool",
          "name": "alive",
          "type": "bool"
        }
      ],
      "stateMutability": "view",
      "type": "function"
    },
    {
      "inputs": [],
      "name": "getAgentCount",
      "outputs": [
        {
          "internalType": "uint256",
          "name": "",
          "type": "uint256"
        }
      ],
      "stateMutability": "view",
      "type": "function"
    },
    {
      "inputs": [
        {
          "internalType": "uint256",
          "name": "offset",
          "type": "uint256"
        },
        {
          "internalType": "uint256",
          "name": "limit",
          "type": "uint256"
        }
      ],
      "name": "getAgentsPaginated",
      "outputs": [
        {
          "internalType": "address[]",
          "name": "",
          "type": "address[]"
        }
      ],
      "stateMutability": "view",
      "type": "function"
    },
    {
      "inputs": [
        {
          "internalType": "address",
          "name": "agent",
          "type": "address"
        }
      ],
      "name": "getFossil",
      "outputs": [
        {
          "components": [
            {
              "internalType": "bytes32",
              "name": "genomeSnapshot",
              "type": "bytes32"
            },
            {
              "internalType": "uint256",
              "name": "finalFitnessScore",
              "type": "uint256"
            },
            {
              "internalType": "uint64",
              "name": "diedAt",
              "type": "uint64"
            },
            {
              "internalType": "string",
              "name": "causeOfDeath",
              "type": "string"
            },
            {
              "internalType": "uint32",
              "name": "generation",
              "type": "uint32"
            }
          ],
          "internalType": "struct PhotonicRegistry.FossilRecord",
          "name": "",
          "type": "tuple"
        }
      ],
      "stateMutability": "view",
      "type": "function"
    },
    {
      "inputs": [],
      "name": "getFossilCount",
      "outputs": [
        {
          "internalType": "uint256",
          "name": "",
          "type": "uint256"
        }
      ],
      "stateMutability": "view",
      "type": "function"
    },
    {
      "inputs": [
        {
          "internalType": "uint256",
          "name": "offset",
          "type": "uint256"
        },
        {
          "internalType": "uint256",
          "name": "limit",
          "type": "uint256"
        }
      ],
      "name": "getFossilsPaginated",
      "outputs": [
        {
          "internalType": "address[]",
          "name": "",
          "type": "address[]"
        }
      ],
      "stateMutability": "view",
      "type": "function"
    },
    {
      "inputs": [
        {
          "internalType": "address",
          "name": "agent",
          "type": "address"
        }
      ],
      "name": "getGenome",
      "outputs": [
        {
          "components": [
            {
              "internalType": "bytes32",
              "name": "capabilityRoot",
              "type": "bytes32"
            },
            {
              "internalType": "bytes32",
              "name": "toolRoot",
              "type": "bytes32"
            },
            {
              "internalType": "bytes32",
              "name": "promptArchHash",
              "type": "bytes32"
            },
            {
              "internalType": "bytes32",
              "name": "behavioralHistoryRoot",
              "type": "bytes32"
            },
            {
              "internalType": "uint256",
              "name": "fitnessScore",
              "type": "uint256"
            },
            {
              "internalType": "uint32",
              "name": "generation",
              "type": "uint32"
            },
            {
              "internalType": "address",
              "name": "parentA",
              "type": "address"
            },
            {
              "internalType": "address",
              "name": "parentB",
              "type": "address"
            },
            {
              "internalType": "uint64",
              "name": "registeredAt",
              "type": "uint64"
            },
            {
              "internalType": "uint64",
              "name": "lastActivityAt",
              "type": "uint64"
            },
            {
              "internalType": "bool",
              "name": "alive",
              "type": "bool"
            }
          ],
          "internalType": "struct PhotonicRegistry.Genome",
          "name": "",
          "type": "tuple"
        }
      ],
      "stateMutability": "view",
      "type": "function"
    },
    {
      "inputs": [
        {
          "internalType": "address",
          "name": "agent",
          "type": "address"
        }
      ],
      "name": "isAlive",
      "outputs": [
        {
          "internalType": "bool",
          "name": "",
          "type": "bool"
        }
      ],
      "stateMutability": "view",
      "type": "function"
    },
    {
      "inputs": [
        {
          "internalType": "address",
          "name": "agent",
          "type": "address"
        },
        {
          "internalType": "string",
          "name": "cause",
          "type": "string"
        }
      ],
      "name": "killAgent",
      "outputs": [],
      "stateMutability": "nonpayable",
      "type": "function"
    },
    {
      "inputs": [],
      "name": "owner",
      "outputs": [
        {
          "internalType": "address",
          "name": "",
          "type": "address"
        }
      ],
      "stateMutability": "view",
      "type": "function"
    },
    {
      "inputs": [
        {
          "internalType": "address",
          "name": "agent",
          "type": "address"
        },
        {
          "internalType": "bytes32",
          "name": "capabilityRoot",
          "type": "bytes32"
        },
        {
          "internalType": "bytes32",
          "name": "toolRoot",
          "type": "bytes32"
        },
        {
          "internalType": "bytes32",
          "name": "promptArchHash",
          "type": "bytes32"
        },
        {
          "internalType": "address",
          "name": "parentA",
          "type": "address"
        },
        {
          "internalType": "address",
          "name": "parentB",
          "type": "address"
        }
      ],
      "name": "registerAgent",
      "outputs": [],
      "stateMutability": "nonpayable",
      "type": "function"
    },
    {
      "inputs": [
        {
          "internalType": "address",
          "name": "",
          "type": "address"
        }
      ],
      "name": "registered",
      "outputs": [
        {
          "internalType": "bool",
          "name": "",
          "type": "bool"
        }
      ],
      "stateMutability": "view",
      "type": "function"
    },
    {
      "inputs": [],
      "name": "renounceOwnership",
      "outputs": [],
      "stateMutability": "nonpayable",
      "type": "function"
    },
    {
      "inputs": [
        {
          "internalType": "address",
          "name": "agent",
          "type": "address"
        },
        {
          "internalType": "address",
          "name": "sponsor",
          "type": "address"
        }
      ],
      "name": "resurrectAgent",
      "outputs": [],
      "stateMutability": "nonpayable",
      "type": "function"
    },
    {
      "inputs": [
        {
          "internalType": "address",
          "name": "_escrow",
          "type": "address"
        }
      ],
      "name": "setEscrowContract",
      "outputs": [],
      "stateMutability": "nonpayable",
      "type": "function"
    },
    {
      "inputs": [
        {
          "internalType": "address",
          "name": "_vitality",
          "type": "address"
        }
      ],
      "name": "setVitalityContract",
      "outputs": [],
      "stateMutability": "nonpayable",
      "type": "function"
    },
    {
      "inputs": [],
      "name": "totalAgents",
      "outputs": [
        {
          "internalType": "uint256",
          "name": "",
          "type": "uint256"
        }
      ],
      "stateMutability": "view",
      "type": "function"
    },
    {
      "inputs": [],
      "name": "totalExtinct",
      "outputs": [
        {
          "internalType": "uint256",
          "name": "",
          "type": "uint256"
        }
      ],
      "stateMutability": "view",
      "type": "function"
    },
    {
      "inputs": [
        {
          "internalType": "address",
          "name": "newOwner",
          "type": "address"
        }
      ],
      "name": "transferOwnership",
      "outputs": [],
      "stateMutability": "nonpayable",
      "type": "function"
    },
    {
      "inputs": [
        {
          "internalType": "address",
          "name": "agent",
          "type": "address"
        },
        {
          "internalType": "bytes32",
          "name": "behavioralHistoryRoot",
          "type": "bytes32"
        },
        {
          "internalType": "uint256",
          "name": "fitnessScore",
          "type": "uint256"
        }
      ],
      "name": "updateGenome",
      "outputs": [],
      "stateMutability": "nonpayable",
      "type": "function"
    },
    {
      "inputs": [],
      "name": "vitalityContract",
      "outputs": [
        {
          "internalType": "address",
          "name": "",
          "type": "address"
        }
      ],
      "stateMutability": "view",
      "type": "function"
    }
  ],
  "bytecode": "0x6080806040523461009e5733156100885760008054336001600160a01b03198216811783556040519290916001600160a01b0316907f8be0079c531659141344cd1fd0a4f28419497f9722a3daafe3b4186f6b6457e09080a360017f9b779b17422d0df92223018b32b4d1fa46e071723d6817e2486d003becc55f0055611af690816100a48239f35b631e4fbdf760e01b815260006004820152602490fd5b600080fdfe608080604052600436101561001357600080fd5b60003560e01c90816307881762146114ed5750806308cc9b87146114cf5780630c4a4a96146110ba5780631703e5f91461103f5780631863393b14611000578063188724e414610e645780631b8e630d14610dd95780631db0ec0814610d175780632804f2a214610cee57806329a2673814610c545780632f80c54f14610c2b578063399673e514610c0857806349f4f46314610b08578063715018a614610aaf5780637549e7df146109c3578063784b869a146109815780638b8cc970146109635780638da5cb5b1461093a57806391cab63e1461091c5780639cd1db6c1461085a578063b2dd5c071461081b578063bd1eaebf1461078d578063c50537121461076f578063ce62b2de14610295578063e42a96e71461026c578063eff1aaee14610229578063f2fde38b1461019b5763f42375b51461015357600080fd5b346101965760203660031901126101965761016c6116a6565b610174611a94565b600880546001600160a01b0319166001600160a01b0392909216919091179055005b600080fd5b34610196576020366003190112610196576101b46116a6565b6101bc611a94565b6001600160a01b0390811690811561021057600054826bffffffffffffffffffffffff60a01b821617600055167f8be0079c531659141344cd1fd0a4f28419497f9722a3daafe3b4186f6b6457e0600080a3005b604051631e4fbdf760e01b815260006004820152602490fd5b34610196576020366003190112610196576102426116a6565b61024a611a94565b600780546001600160a01b0319166001600160a01b0392909216919091179055005b34610196576000366003190112610196576008546040516001600160a01b039091168152602090f35b346101965760c0366003190112610196576102ae6116a6565b6084356001600160a01b03811681036101965760a4356001600160a01b03811681036101965760027f9b779b17422d0df92223018b32b4d1fa46e071723d6817e2486d003becc55f00541461075d5760027f9b779b17422d0df92223018b32b4d1fa46e071723d6817e2486d003becc55f00556001600160a01b03831660009081526003602052604090205460ff1661070c576001600160a01b0383166000908152600460205260409020546103679060ff16156119b4565b6000926001600160a01b0383161515806106fa575b6105d5575b60405161038d81611815565b602435815260443560208201526064356040820152600060608201526000608082015263ffffffff851660a082015260018060a01b03841660c082015260018060a01b03831660e08201526001600160401b0342166101008201526001600160401b034216610120820152600161014082015260018060a01b03821660005260016020526007604060002082518155602083015160018201556040830151600282015560608301516003820155608083015160048201556005810163ffffffff60a085015116815490640100000000600160c01b0360c087015160201b16916001600160401b0360c01b16171790556006810160018060a01b0360e0850151168154906001600160401b0360a01b61010087015160a01b169163ffffffff60e01b161717905501906001600160401b036101208201511660ff60401b6101408454930151151560401b169168ffffffffffffffffff19161717905560036020526040600020600160ff1982541617905560055491600160401b8310156105bf577fe4cf95c88cee04727d783726043c482630dccb211dc0accc92b64b3a6708f8069361054184600160609601600555611764565b81546001600160a01b0386811660039390931b92831b921b191617905560095461056a90611a85565b6009556040805163ffffffff9790971687526001600160a01b039182166020880152918116918601919091521692a260017f9b779b17422d0df92223018b32b4d1fa46e071723d6817e2486d003becc55f0055005b634e487b7160e01b600052604160045260246000fd5b6001600160a01b03831660009081526003602052604090205490935060ff16806106dd575b15610687576001600160a01b0382811660009081526001602052604080822060059081015493851683529120015463ffffffff91908216908290811682101561067f57505060018060a01b03831660005260018180600560406000200154165b16019081116106695792610381565b634e487b7160e01b600052601160045260246000fd5b60019161065a565b60405162461bcd60e51b815260206004820152602860248201527f50686f746f6e696352656769737472793a20706172656e7473206e6f7420726560448201526719da5cdd195c995960c21b6064820152608490fd5b506001600160a01b0381166000908152604090205460ff166105fa565b506001600160a01b038216151561037c565b60405162461bcd60e51b8152602060048201526024808201527f50686f746f6e696352656769737472793a20616c726561647920726567697374604482015263195c995960e21b6064820152608490fd5b604051633ee5aeb560e01b8152600490fd5b34610196576000366003190112610196576020600954604051908152f35b34610196576020366003190112610196576001600160a01b036107ae6116a6565b166000526002602052604060002080546001820154916108116001600160401b036002830154169163ffffffff60046107e96003840161186d565b920154169260405195869586526020860152604085015260a0606085015260a084019061179b565b9060808301520390f35b34610196576020366003190112610196576001600160a01b0361083c6116a6565b166000526003602052602060ff604060002054166040519015158152f35b34610196576020366003190112610196576108736116a6565b6007546001600160a01b03919082163314801561090f575b8015610902575b61089b90611912565b16806000526001602052600760406000200160ff60401b19815416905560046020526040600020600160ff198254161790556108d8600a54611a85565b600a557f9c5ba7e5acba8e94298d2564e9c51e39d465c7a85e2be7872bb04f77aac5c17e600080a2005b5060005482163314610892565b508160085416331461088b565b34610196576000366003190112610196576020600554604051908152f35b34610196576000366003190112610196576000546040516001600160a01b039091168152602090f35b34610196576000366003190112610196576020600a54604051908152f35b3461019657602036600319011261019657600435600654811015610196576109aa602091611717565b905460405160039290921b1c6001600160a01b03168152f35b3461019657602080600319360112610196576109dd6116a6565b600060806040516109ed81611831565b8281528285820152826040820152606080820152015260018060a01b031660005260028152604060002060405190610a2482611831565b805482526004610aa36001830154928585019384526001600160401b038060028301541660408701908152610a5b6003840161186d565b926060880193845263ffffffff9586910154169560808801968752604051988998818a525190890152516040880152511660608601525160a0608086015260c085019061179b565b91511660a08301520390f35b3461019657600036600319011261019657610ac8611a94565b600080546001600160a01b0319811682556001600160a01b03167f8be0079c531659141344cd1fd0a4f28419497f9722a3daafe3b4186f6b6457e08280a3005b3461019657606036600319011261019657610b216116a6565b7f9836b8284628b94bdbf24358b03883dba7ba4d125ac142c876cfd7400a3764d160406024356044359360018060a01b0390816007541633148015610bfb575b8015610bee575b610b7190611912565b169384600052600360205260ff83600020541680610bd5575b610b939061195e565b846000526001602052600783600020836003820155826004820155016001600160401b0342166001600160401b031982541617905582519182526020820152a2005b506001602052600083902060070154831c60ff16610b8a565b5060005482163314610b68565b5081600854163314610b61565b34610196576000366003190112610196576020604051670de0b6b3a76400008152f35b3461019657602036600319011261019657600435600554811015610196576109aa602091611764565b3461019657610c62366116bc565b610c6c8183611a0e565b90600554809211600014610cde57505b610c8e610c898383611a1b565b611a3f565b91805b828110610caa5760405180610ca686826116d2565b0390f35b80610cb6600192611764565b838060a01b0391549060031b1c16610cd7610cd18584611a1b565b87611a71565b5201610c91565b610ce9915082611a0e565b610c7c565b34610196576000366003190112610196576007546040516001600160a01b039091168152602090f35b34610196576020366003190112610196576101606001600160a01b0380610d3c6116a6565b16600052600160205260ff604060002091600783549360018101549260028201549080600384015460048501546005860154916006870154956001600160401b039889980154996040519c8d5260208d015260408c015260608b015260808a015263ffffffff811660a08a015260201c1660c0880152811660e087015260a01c16610100850152811661012084015260401c161515610140820152f35b3461019657610de7366116bc565b610df18183611a0e565b90600654809211600014610e5457505b610e0e610c898383611a1b565b91805b828110610e265760405180610ca686826116d2565b80610e32600192611717565b838060a01b0391549060031b1c16610e4d610cd18584611a1b565b5201610e11565b610e5f915082611a0e565b610e01565b3461019657604036600319011261019657610e7d6116a6565b6001600160a01b03602435818116929083900361019657816007541633148015610ff3575b8015610fe6575b610eb290611912565b1690816000526020906003825260ff6040600020541615610fa357826000526001825260ff60076040600020015460401c16610f6057907fbacc50d760c09c383fcd81c38a191f9a10d87508825df22f3162edd3c63bc4ef918360005260048252610f2560ff60406000205416156119b4565b83600052600182526007604060002001600160401b81546001600160401b0342169068ffffffffffffffffff191617179055604051908152a2005b6064826040519062461bcd60e51b825280600483015260248201527f50686f746f6e696352656769737472793a206167656e74206e6f7420646561646044820152fd5b6064826040519062461bcd60e51b825280600483015260248201527f50686f746f6e696352656769737472793a206e6f7420726567697374657265646044820152fd5b5060005482163314610ea9565b5081600854163314610ea2565b34610196576020366003190112610196576001600160a01b036110216116a6565b166000526004602052602060ff604060002054166040519015158152f35b34610196576020366003190112610196576001600160a01b036110606116a6565b16600052600360205260ff60406000205416806110a0575b8061108b575b6020906040519015158152f35b50600460205260406000205460ff161561107e565b50600160205260ff60076040600020015460401c16611078565b34610196576040366003190112610196576110d36116a6565b602435906001600160401b0382116101965736602383011215610196576001600160401b0382600401351161019657366024836004013584010111610196576007546001600160a01b0316331480156114bb575b80156114a7575b61113790611912565b6001600160a01b03811660009081526003602052604090205460ff168061148c575b6111629061195e565b60018060a01b03811660005260016020526040600020906007820160ff60401b19815416905581546001830154906002840154604051926020840192835260408401526060830152606082528160808101106001600160401b036080840111176105bf576080820160405281519020600484015463ffffffff600586015416916111ee60808501611831565b608084015260a0830152426001600160401b031660c0830152604051906112236004870135601f01601f19166020018361184c565b60048601358083526024870160208401376000602087600401358401015260e0830191825261010083015260018060a01b03831660005260026020526040600020906080830151825560a08301516001830155600282016001600160401b0360c0850151166001600160401b0319825416179055518051906001600160401b0382116105bf576112b660038401546117db565b601f8111611445575b50602090601f83116001146113cc5792826101009360049363ffffffff966000926113c1575b50508160011b916000199060031b1c19161760038201555b019201511663ffffffff1982541617905560065491600160401b8310156105bf5760046060916113548560017f476145d5719eb3bcfb23bd230e7a26aad8ce19e6baf7f4b31fe349365b4e6aa89701600655611717565b81546001600160a01b0387811660039390931b92831b921b1916179055015460408051818152600487013591810182905293849290916024880185850137600060049097013583810185019790975260208301526001600160a01b031694601f01601f19168101030190a2005b015190508a806112e5565b90601f198316916003850160005260206000209260005b81811061142d57509360049363ffffffff9693600193836101009810611414575b505050811b0160038201556112fd565b015160001960f88460031b161c191690558a8080611404565b929360206001819287860151815501950193016113e3565b600384016000526020600020601f840160051c810160208510611485575b601f830160051c820181106114795750506112bf565b60008155600101611463565b5080611463565b5060016020526040600081902060070154901c60ff16611159565b506000546001600160a01b0316331461112e565b506008546001600160a01b03163314611127565b34610196576000366003190112610196576020600654604051908152f35b3461019657602036600319011261019657600061014061150b6116a6565b9261151581611815565b8281528260208201528260408201528260608201528260808201528260a08201528260c08201528260e08201528261010082015282610120820152015260018060a01b03166000526001602052610160604060002061014060405161157981611815565b60ff600784549485845260018101546020850152600281015460408501526003810154606085015260048101546080850152600581015463ffffffff811660a086015260018060a01b039060201c1660c08501526001600160401b03600682015460018060a01b03811660e087015260a01c1661010085015201546001600160401b03811661012084015260401c161515828201526040519283526020810151602084015260408101516040840152606081015160608401526080810151608084015263ffffffff60a08201511660a084015260018060a01b0360c08201511660c084015260018060a01b0360e08201511660e08401526001600160401b03610100820151166101008401526001600160401b036101208201511661012084015201511515610140820152f35b600435906001600160a01b038216820361019657565b6040906003190112610196576004359060243590565b602090602060408183019282815285518094520193019160005b8281106116fa575050505090565b83516001600160a01b0316855293810193928101926001016116ec565b60065481101561174e5760066000527ff652222313e28459528d920b65115c16c04f3efc82aaedc97be59f3f377c0d3f0190600090565b634e487b7160e01b600052603260045260246000fd5b60055481101561174e5760056000527f036b6384b5eca791c62761152d0c79bb0604c104a5fb6f4eb0703f3154bb3db00190600090565b919082519283825260005b8481106117c7575050826000602080949584010152601f8019910116010190565b6020818301810151848301820152016117a6565b90600182811c9216801561180b575b60208310146117f557565b634e487b7160e01b600052602260045260246000fd5b91607f16916117ea565b61016081019081106001600160401b038211176105bf57604052565b60a081019081106001600160401b038211176105bf57604052565b90601f801991011681019081106001600160401b038211176105bf57604052565b90604051918260008254611880816117db565b908184526020946001916001811690816000146118f057506001146118b1575b5050506118af9250038361184c565b565b600090815285812095935091905b8183106118d85750506118af93508201013880806118a0565b855488840185015294850194879450918301916118bf565b925050506118af94925060ff191682840152151560051b8201013880806118a0565b1561191957565b60405162461bcd60e51b815260206004820152601e60248201527f50686f746f6e696352656769737472793a20756e617574686f72697a656400006044820152606490fd5b1561196557565b60405162461bcd60e51b815260206004820152602160248201527f50686f746f6e696352656769737472793a206167656e74206e6f7420616c69766044820152606560f81b6064820152608490fd5b156119bb57565b60405162461bcd60e51b815260206004820152602560248201527f50686f746f6e696352656769737472793a207065726d616e656e746c792065786044820152641d1a5b98dd60da1b6064820152608490fd5b9190820180921161066957565b9190820391821161066957565b6001600160401b0381116105bf5760051b60200190565b90611a4982611a28565b611a56604051918261184c565b8281528092611a67601f1991611a28565b0190602036910137565b805182101561174e5760209160051b010190565b60001981146106695760010190565b6000546001600160a01b03163303611aa857565b60405163118cdaa760e01b8152336004820152602490fdfea2646970667358221220a890701c882048c6319e71fb95f70ee4217dba60819f849fdff254c0c1e6f65364736f6c63430008180033",
  "linkReferences": {},
  "deployedLinkReferences": {}
}