{"contracts/PhotonicVerifier.sol":{"PhotonicVerifier":{"abi":[{"inputs":[],"stateMutability":"nonpayable","type":"constructor"},{"inputs":[{"internalType":"address","name":"owner","type":"address"}],"name":"OwnableInvalidOwner","type":"error"},{"inputs":[{"internalType":"address","name":"account","type":"address"}],"name":"OwnableUnauthorizedAccount","type":"error"},{"inputs":[],"name":"ReentrancyGuardReentrantCall","type":"error"},{"anonymous":false,"inputs":[{"indexed":true,"internalType":"bytes32","name":"bpdId","type":"bytes32"},{"indexed":false,"internalType":"enum PhotonicVerifier.VerificationStatus","name":"status","type":"uint8"},{"indexed":false,"internalType":"uint256","name":"consensusCount","type":"uint256"},{"indexed":false,"internalType":"uint256","name":"totalVerifiers","type":"uint256"}],"name":"BPDResolved","type":"event"},{"anonymous":false,"inputs":[{"indexed":true,"internalType":"bytes32","name":"bpdId","type":"bytes32"},{"indexed":true,"internalType":"address","name":"provider","type":"address"},{"indexed":false,"internalType":"bytes32","name":"bpdHash","type":"bytes32"},{"indexed":false,"internalType":"uint256","name":"deliveryFee","type":"uint256"}],"name":"BPDSubmitted","type":"event"},{"anonymous":false,"inputs":[{"indexed":true,"internalType":"address","name":"previousOwner","type":"address"},{"indexed":true,"internalType":"address","name":"newOwner","type":"address"}],"name":"OwnershipTransferred","type":"event"},{"anonymous":false,"inputs":[{"indexed":true,"internalType":"bytes32","name":"bpdId","type":"bytes32"},{"indexed":true,"internalType":"address","name":"verifier","type":"address"},{"indexed":false,"internalType":"uint256","name":"reward","type":"uint256"}],"name":"RewardClaimed","type":"event"},{"anonymous":false,"inputs":[{"indexed":true,"internalType":"bytes32","name":"bpdId","type":"bytes32"},{"indexed":true,"internalType":"address","name":"verifier","type":"address"},{"indexed":false,"internalType":"uint256","name":"slashed","type":"uint256"}],"name":"SlashExecuted","type":"event"},{"anonymous":false,"inputs":[{"indexed":true,"internalType":"bytes32","name":"bpdId","type":"bytes32"},{"indexed":true,"internalType":"address","name":"verifier","type":"address"},{"indexed":false,"internalType":"uint256","name":"amount","type":"uint256"},{"indexed":false,"internalType":"bytes32","name":"submittedHash","type":"bytes32"}],"name":"VerifierStaked","type":"event"},{"inputs":[{"internalType":"uint256","name":"","type":"uint256"}],"name":"allBpdIds","outputs":[{"internalType":"bytes32","name":"","type":"bytes32"}],"stateMutability":"view","type":"function"},{"inputs":[{"internalType":"bytes32","name":"","type":"bytes32"}],"name":"bpdRecords","outputs":[{"internalType":"bytes32","name":"bpdHash","type":"bytes32"},{"internalType":"address","name":"provider","type":"address"},{"internalType":"uint256","name":"deliveryFee","type":"uint256"},{"internalType":"uint256","name":"stakedTotal","type":"uint256"},{"internalType":"uint256","name":"verifierCount","type":"uint256"},{"internalType":"uint256","name":"consensusCount","type":"uint256"},{"internalType":"enum PhotonicVerifier.VerificationStatus","name":"status","type":"uint8"},{"internalType":"uint64","name":"createdAt","type":"uint64"},{"internalType":"uint64","name":"resolvedAt","type":"uint64"},{"internalType":"bool","name":"settled","type":"bool"}],"stateMutability":"view","type":"function"},{"inputs":[{"internalType":"bytes32","name":"bpdId","type":"bytes32"}],"name":"claimReward","outputs":[],"stateMutability":"nonpayable","type":"function"},{"inputs":[],"name":"consensusThreshold","outputs":[{"internalType":"uint256","name":"","type":"uint256"}],"stateMutability":"view","type":"function"},{"inputs":[{"internalType":"bytes32","name":"bpdId","type":"bytes32"}],"name":"getBPDRecord","outputs":[{"components":[{"internalType":"bytes32","name":"bpdHash","type":"bytes32"},{"internalType":"address","name":"provider","type":"address"},{"internalType":"uint256","name":"deliveryFee","type":"uint256"},{"internalType":"uint256","name":"stakedTotal","type":"uint256"},{"internalType":"uint256","name":"verifierCount","type":"uint256"},{"internalType":"uint256","name":"consensusCount","type":"uint256"},{"internalType":"enum PhotonicVerifier.VerificationStatus","name":"status","type":"uint8"},{"internalType":"uint64","name":"createdAt","type":"uint64"},{"internalType":"uint64","name":"resolvedAt","type":"uint64"},{"internalType":"bool","name":"settled","type":"bool"}],"internalType":"struct PhotonicVerifier.BPDRecord","name":"","type":"tuple"}],"stateMutability":"view","type":"function"},{"inputs":[{"internalType":"bytes32","name":"bpdId","type":"bytes32"},{"internalType":"address","name":"verifier","type":"address"}],"name":"getStake","outputs":[{"components":[{"internalType":"uint256","name":"amount","type":"uint256"},{"internalType":"bytes32","name":"submittedHash","type":"bytes32"},{"internalType":"bool","name":"matched","type":"bool"},{"internalType":"bool","name":"claimed","type":"bool"}],"internalType":"struct PhotonicVerifier.VerifierStake","name":"","type":"tuple"}],"stateMutability":"view","type":"function"},{"inputs":[{"internalType":"bytes32","name":"bpdId","type":"bytes32"}],"name":"getVerifiers","outputs":[{"internalType":"address[]","name":"","type":"address[]"}],"stateMutability":"view","type":"function"},{"inputs":[],"name":"minStake","outputs":[{"internalType":"uint256","name":"","type":"uint256"}],"stateMutability":"view","type":"function"},{"inputs":[],"name":"owner","outputs":[{"internalType":"address","name":"","type":"address"}],"stateMutability":"view","type":"function"},{"inputs":[],"name":"renounceOwnership","outputs":[],"stateMutability":"nonpayable","type":"function"},{"inputs":[{"internalType":"bytes32","name":"bpdId","type":"bytes32"}],"name":"resolveBPD","outputs":[],"stateMutability":"nonpayable","type":"function"},{"inputs":[{"internalType":"uint256","name":"_pct","type":"uint256"}],"name":"setConsensusThreshold","outputs":[],"stateMutability":"nonpayable","type":"function"},{"inputs":[{"internalType":"uint256","name":"_min","type":"uint256"}],"name":"setMinStake","outputs":[],"stateMutability":"nonpayable","type":"function"},{"inputs":[{"internalType":"uint256","name":"_window","type":"uint256"}],"name":"setVerificationWindow","outputs":[],"stateMutability":"nonpayable","type":"function"},{"inputs":[{"internalType":"bytes32","name":"bpdId","type":"bytes32"},{"internalType":"bytes32","name":"submittedHash","type":"bytes32"}],"name":"stakeAndVerify","outputs":[],"stateMutability":"payable","type":"function"},{"inputs":[{"internalType":"bytes32","name":"","type":"bytes32"},{"internalType":"address","name":"","type":"address"}],"name":"stakes","outputs":[{"internalType":"uint256","name":"amount","type":"uint256"},{"internalType":"bytes32","name":"submittedHash","type":"bytes32"},{"internalType":"bool","name":"matched","type":"bool"},{"internalType":"bool","name":"claimed","type":"bool"}],"stateMutability":"view","type":"function"},{"inputs":[{"internalType":"bytes32","name":"bpdId","type":"bytes32"},{"internalType":"bytes32","name":"bpdHash","type":"bytes32"},{"internalType":"address","name":"provider","type":"address"}],"name":"submitBPD","outputs":[],"stateMutability":"payable","type":"function"},{"inputs":[],"name":"totalBPDs","outputs":[{"internalType":"uint256","name":"","type":"uint256"}],"stateMutability":"view","type":"function"},{"inputs":[{"internalType":"address","name":"","type":"address"}],"name":"totalSlashed","outputs":[{"internalType":"uint256","name":"","type":"uint256"}],"stateMutability":"view","type":"function"},{"inputs":[{"internalType":"address","name":"newOwner","type":"address"}],"name":"transferOwnership","outputs":[],"stateMutability":"nonpayable","type":"function"},{"inputs":[],"name":"verificationWindow","outputs":[{"internalType":"uint256","name":"","type":"uint256"}],"stateMutability":"view","type":"function"},{"inputs":[{"internalType":"bytes32","name":"","type":"bytes32"},{"internalType":"uint256","name":"","type":"uint256"}],"name":"verifierList","outputs":[{"internalType":"address","name":"","type":"address"}],"stateMutability":"view","type":"function"},{"inputs":[{"internalType":"address","name":"","type":"address"}],"name":"verifierReputation","outputs":[{"internalType":"uint256","name":"","type":"uint256"}],"stateMutability":"view","type":"function"},{"inputs":[],"name":"verifierRewardBps","outputs":[{"internalType":"uint256","name":"","type":"uint256"}],"stateMutability":"view","type":"function"}],"evm":{"bytecode":{"linkReferences":{},"object":"608080604052346100ba5733156100a45760008054336001600160a01b03198216811783556040519290916001600160a01b0316907f8be0079c531659141344cd1fd0a4f28419497f9722a3daafe3b4186f6b6457e09080a360017f9b779b17422d0df92223018b32b4d1fa46e071723d6817e2486d003becc55f005566038d7ea4c6800060065561070860075560436008556101f460095561176990816100c08239f35b631e4fbdf760e01b815260006004820152602490fd5b600080fdfe608080604052600436101561001357600080fd5b60003560e01c90816306a39213146111d6575080631aea9fd11461119c57806330f9243914611162578063375b3c0a14611144578063380a67bb146111205780633fca40cf14610e1e5780635399ab4c14610d6157806355bf8c5714610d0f578063715018a614610cb657806379bf1a3714610bfe57806385af47d514610bdd57806388d2209b14610b855780638c80fd9014610b645780638da5cb5b14610b3b5780639900aeec14610a8e578063a2626a5b146107b8578063a7b9828f14610747578063ade5b3b314610710578063b55a1e6a14610580578063da3f266114610562578063f2fde38b146104d4578063f541402314610168578063f79f55b61461014a5763f9b0b5b91461012757600080fd5b34610145576000366003190112610145576020600854604051908152f35b600080fd5b34610145576000366003190112610145576020600754604051908152f35b3461014557602080600319360112610145576004356101856116b7565b806000526001825260406000206006810160ff81541660048110156103e5571561048f5782600052600284526040600020336000528452604060002090815490811561044a57600283019081549160ff8360081c166103fb5761ff001983166101001790555460ff1660048110156103e55760011490816103da575b50156103145750600282015491600954928381029381850414901517156102fe5761023f926127106005610238930154910461138e565b9054611332565b91600080808086335af1610251611678565b50156102b0577ffe236dfc7ce073698734b89da1aee0e7551c9c6d264404c502e6e8fefc1132a89033600052600481526040600020610290815461137f565b90556040519384523393a35b600160008051602061171483398151915255005b6084906040519062461bcd60e51b82526004820152602160248201527f50686f746f6e696356657269666965723a207472616e73666572206661696c656044820152601960fa1b6064820152fd5b634e487b7160e01b600052601160045260246000fd5b60008080939481933383526005895261033260408420918254611332565b9055600101548554906001600160a01b03165af161034e611678565b5015610385575460405190815233927f3283d96d18219c171ae87edff3571820203be9a1e834b1e3dd12e18986598d3991a361029c565b60405162461bcd60e51b815260048101849052602760248201527f50686f746f6e696356657269666965723a20736c617368207472616e736665726044820152660819985a5b195960ca1b6064820152608490fd5b60ff91501686610201565b634e487b7160e01b600052602160045260246000fd5b60405162461bcd60e51b815260048101899052602160248201527f50686f746f6e696356657269666965723a20616c726561647920636c61696d656044820152601960fa1b6064820152608490fd5b60405162461bcd60e51b815260048101879052601a60248201527f50686f746f6e696356657269666965723a206e6f207374616b650000000000006044820152606490fd5b60405162461bcd60e51b815260048101859052601e60248201527f50686f746f6e696356657269666965723a206e6f74207265736f6c76656400006044820152606490fd5b34610145576020366003190112610145576104ed6111f1565b6104f56116e7565b6001600160a01b0390811690811561054957600054826bffffffffffffffffffffffff60a01b821617600055167f8be0079c531659141344cd1fd0a4f28419497f9722a3daafe3b4186f6b6457e0600080a3005b604051631e4fbdf760e01b815260006004820152602490fd5b34610145576000366003190112610145576020600a54604051908152f35b346101455760203660031901126101455760006101206040516105a28161163b565b8281528260208201528260408201528260608201528260808201528260a08201528260c08201528260e0820152826101008201520152600435600052600160205260406000206006604051916105f78361163b565b8054835260018101546001600160a01b0316602084015260028101546040840152600381015460608401526004808201546080850152600582015460a0850152910154919060ff8316908110156103e5576101409260ff9160c08401526001600160401b038160081c1660e08401526001600160401b038160481c1661010084015260881c161515610120820152610120604051918051835260018060a01b03602082015116602084015260408101516040840152606081015160608401526080810151608084015260a081015160a08401526106dc60c082015160c0850190611282565b6001600160401b0360e08201511660e08401526001600160401b036101008201511661010084015201511515610120820152f35b3461014557602036600319011261014557600435600a548110156101455761073960209161121d565b90546040519160031b1c8152f35b3461014557604036600319011261014557610760611207565b600435600052600260205260406000209060018060a01b03166000526020526080604060002060ff815491600260018201549101549060405193845260208401528181161515604084015260081c1615156060820152f35b6060366003190112610145576044356001600160a01b038116906024803591839003610145576107e66116b7565b60043560005260016020526001600160401b0360066040600020015460081c16610a3e5734156109ea5760405161081c8161163b565b8281528360208201523460408201526000606082015260006080820152600060a0820152600060c08201526001600160401b03421660e082015260006101008201526000610120820152600435600052600160205260066040600020825181556001810160018060a01b036020850151166bffffffffffffffffffffffff60a01b82541617905560408301516002820155606083015160038201556080830151600482015560a08301516005820155019060c081015160048110156109d557906108e9610120928461133f565b60e081015168ffffffffffffffff0084549160081b169068ffffffffffffffff0019161783556109276001600160401b036101008301511684611357565b0151815460ff60881b191690151560881b60ff60881b16179055600a5490600160401b8210156109c157508060016109629201600a5561121d565b81549060031b90600435821b91600019901b19161790556040519081523460208201527faa8c08841e544d4fd7e3844ad6ed12bbb6da3497e05410c3121bc5a9c867ad32604060043592a3600160008051602061171483398151915255005b634e487b7160e01b60009081526041600452fd5b83634e487b7160e01b60005260216004526000fd5b60849060276040519162461bcd60e51b8352602060048401528201527f50686f746f6e696356657269666965723a2064656c6976657279206665652072604482015266195c5d5a5c995960ca1b6064820152fd5b6084906040519062461bcd60e51b825260206004830152808201527f50686f746f6e696356657269666965723a2042504420616c72656164792065786044820152636973747360e01b6064820152fd5b34610145576020366003190112610145576004356000526001602052610140604060002060ff81549160018060a01b03600182015416600282015491600381015460048201549060066005840154930154946001600160401b0394604051988952602089015260408801526060870152608086015260a0850152610b1760c08501848416611282565b808260081c1660e08501528160481c1661010084015260881c161515610120820152f35b34610145576000366003190112610145576000546040516001600160a01b039091168152602090f35b3461014557602036600319011261014557610b7d6116e7565b600435600655005b3461014557602036600319011261014557600435610ba16116e7565b60648111610bae57600855005b60405162461bcd60e51b81526020600482015260076024820152661a5b9d985b1a5960ca1b6044820152606490fd5b3461014557602036600319011261014557610bf66116e7565b600435600755005b34610145576020806003193601126101455760043560005260038152604060002060405190818382549182815201908192600052846000209060005b86828210610c99578686610c5082880383611657565b604051928392818401908285525180915260408401929160005b828110610c7957505050500390f35b83516001600160a01b031685528695509381019392810192600101610c6a565b83546001600160a01b031685529093019260019283019201610c3a565b3461014557600036600319011261014557610ccf6116e7565b600080546001600160a01b0319811682556001600160a01b03167f8be0079c531659141344cd1fd0a4f28419497f9722a3daafe3b4186f6b6457e08280a3005b346101455760403660031901126101455760243560043560005260036020526040600020805482101561014557602091610d489161126a565b905460405160039290921b1c6001600160a01b03168152f35b3461014557604036600319011261014557610d7a611207565b60006060604051610d8a8161160a565b8281528260208201528260408201520152600435600052600260205260406000209060018060a01b03166000526020526080604060002060405190610dce8261160a565b80549182815260026001830154926020830193845201549160ff6060604084019382861615158552019360081c161515835260405193845251602084015251151560408301525115156060820152f35b60403660031901126101455760246004358135610e396116b7565b8160005260209260018452604060002090600682015460ff6001600160401b038260081c1691610e6a83151561128f565b16600481101561110b5790610e82610e8b92156112db565b60075490611332565b4210156110c857600654341061107b57836000526002855260406000203360005285526040600020546110395760018201546001600160a01b03919082163314610fe057604051610edb8161160a565b348152868101858152600260408301926000845260608101926000845289600052828b526040600020336000528b5260406000209151825551600182015501915115159060ff61ff0084549251151560081b1692169061ffff19161717905584600052600386526040600020805491600160401b8310156109c1575081610f6b916001600496959401815561126a565b819291549060031b9133831b921b191617905560038101610f8d348254611332565b905501610f9a815461137f565b9055604051923484528301527f8a7664d92998a25e8aab34a60c484cf7de9464ff266592a95ca21565befdf84a60403393a3600160008051602061171483398151915255005b85602d6084926040519262461bcd60e51b845260048401528201527f50686f746f6e696356657269666965723a2070726f76696465722063616e6e6f60448201526c742073656c662d76657269667960981b6064820152fd5b606490856040519162461bcd60e51b83528160048401528201527f50686f746f6e696356657269666965723a20616c7265616479207374616b65646044820152fd5b8460216084926040519262461bcd60e51b845260048401528201527f50686f746f6e696356657269666965723a2062656c6f77206d696e207374616b6044820152606560f81b6064820152fd5b84601f6064926040519262461bcd60e51b845260048401528201527f50686f746f6e696356657269666965723a2077696e646f7720636c6f736564006044820152fd5b82634e487b7160e01b60005260216004526000fd5b34610145576020366003190112610145576111396116b7565b61029c6004356113ae565b34610145576000366003190112610145576020600654604051908152f35b34610145576020366003190112610145576001600160a01b036111836111f1565b1660005260056020526020604060002054604051908152f35b34610145576020366003190112610145576001600160a01b036111bd6111f1565b1660005260046020526020604060002054604051908152f35b34610145576000366003190112610145576020906009548152f35b600435906001600160a01b038216820361014557565b602435906001600160a01b038216820361014557565b600a5481101561125457600a6000527fc65a7bb8d6351c1cf70c95a316cc6a92839c986682d98bc35f958f4883f9d2a80190600090565b634e487b7160e01b600052603260045260246000fd5b80548210156112545760005260206000200190600090565b9060048210156103e55752565b1561129657565b60405162461bcd60e51b815260206004820152601f60248201527f50686f746f6e696356657269666965723a20425044206e6f7420666f756e64006044820152606490fd5b156112e257565b60405162461bcd60e51b815260206004820152602260248201527f50686f746f6e696356657269666965723a20616c7265616479207265736f6c76604482015261195960f21b6064820152608490fd5b919082018092116102fe57565b9060048110156103e55760ff80198354169116179055565b9067ffffffffffffffff60481b82549160481b169067ffffffffffffffff60481b1916179055565b60001981146102fe5760010190565b8115611398570490565b634e487b7160e01b600052601260045260246000fd5b60008181526001906020908282526040908181209060068201908154956001600160401b0391828860081c166113e581151561128f565b60ff891660048110156115f65790610e8261140092156112db565b42106115a657600485019788541561155557508080958a83526003808a528884208585905b6114d5575b5050506005015560648502858104606414861517156114c157606097959360ff938a98969361147f61149c947feb29a1aefb4add57daff1edf5e2dce0eedaec22ba8fe902486616367a20dd1f99d549061138e565b6008541190506114b657611494905b8461133f565b421682611357565b54169354926114ad83518096611282565b840152820152a2565b50611494600261148e565b634e487b7160e01b82526011600452602482fd5b90919293825482101561154e57508c85526002808c528a86206114f8838561126a565b905490861b1c6001600160a01b031687528c528a86208781015486541461152a575b5050908580939201899493611425565b01805460ff191687179055978592919083906115459061137f565b9991929361151a565b939261142a565b7feb29a1aefb4add57daff1edf5e2dce0eedaec22ba8fe902486616367a20dd1f998508195506060979694919360ff9361159792851916178355421682611357565b5416936114ad83518096611282565b855162461bcd60e51b815260048101889052602360248201527f50686f746f6e696356657269666965723a2077696e646f77207374696c6c206f6044820152623832b760e91b6064820152608490fd5b634e487b7160e01b83526021600452602483fd5b608081019081106001600160401b0382111761162557604052565b634e487b7160e01b600052604160045260246000fd5b61014081019081106001600160401b0382111761162557604052565b90601f801991011681019081106001600160401b0382111761162557604052565b3d156116b2573d906001600160401b03821161162557604051916116a6601f8201601f191660200184611657565b82523d6000602084013e565b606090565b60008051602061171483398151915260028154146116d55760029055565b604051633ee5aeb560e01b8152600490fd5b6000546001600160a01b031633036116fb57565b60405163118cdaa760e01b8152336004820152602490fdfe9b779b17422d0df92223018b32b4d1fa46e071723d6817e2486d003becc55f00a2646970667358221220c0b952639499a0b8dfc7c813f14a520af23b41f60c0afe414f0aba165192641464736f6c63430008180033","opcodes":"PUSH1 0x80 DUP1 PUSH1 0x40 MSTORE CALLVALUE PUSH2 0xBA JUMPI CALLER ISZERO PUSH2 0xA4 JUMPI PUSH1 0x0 DUP1 SLOAD CALLER PUSH1 0x1 PUSH1 0x1 PUSH1 0xA0 SHL SUB NOT DUP3 AND DUP2 OR DUP4 SSTORE PUSH1 0x40 MLOAD SWAP3 SWAP1 SWAP2 PUSH1 0x1 PUSH1 0x1 PUSH1 0xA0 SHL SUB AND SWAP1 PUSH32 0x8BE0079C531659141344CD1FD0A4F28419497F9722A3DAAFE3B4186F6B6457E0 SWAP1 DUP1 LOG3 PUSH1 0x1 PUSH32 0x9B779B17422D0DF92223018B32B4D1FA46E071723D6817E2486D003BECC55F00 SSTORE PUSH7 0x38D7EA4C68000 PUSH1 0x6 SSTORE PUSH2 0x708 PUSH1 0x7 SSTORE PUSH1 0x43 PUSH1 0x8 SSTORE PUSH2 0x1F4 PUSH1 0x9 SSTORE PUSH2 0x1769 SWAP1 DUP2 PUSH2 0xC0 DUP3 CODECOPY RETURN JUMPDEST PUSH4 0x1E4FBDF7 PUSH1 0xE0 SHL DUP2 MSTORE PUSH1 0x0 PUSH1 0x4 DUP3 ADD MSTORE PUSH1 0x24 SWAP1 REVERT JUMPDEST PUSH1 0x0 DUP1 REVERT INVALID PUSH1 0x80 DUP1 PUSH1 0x40 MSTORE PUSH1 0x4 CALLDATASIZE LT ISZERO PUSH2 0x13 JUMPI PUSH1 0x0 DUP1 REVERT JUMPDEST PUSH1 0x0 CALLDATALOAD PUSH1 0xE0 SHR SWAP1 DUP2 PUSH4 0x6A39213 EQ PUSH2 0x11D6 JUMPI POP DUP1 PUSH4 0x1AEA9FD1 EQ PUSH2 0x119C JUMPI DUP1 PUSH4 0x30F92439 EQ PUSH2 0x1162 JUMPI DUP1 PUSH4 0x375B3C0A EQ PUSH2 0x1144 JUMPI DUP1 PUSH4 0x380A67BB EQ PUSH2 0x1120 JUMPI DUP1 PUSH4 0x3FCA40CF EQ PUSH2 0xE1E JUMPI DUP1 PUSH4 0x5399AB4C EQ PUSH2 0xD61 JUMPI DUP1 PUSH4 0x55BF8C57 EQ PUSH2 0xD0F JUMPI DUP1 PUSH4 0x715018A6 EQ PUSH2 0xCB6 JUMPI DUP1 PUSH4 0x79BF1A37 EQ PUSH2 0xBFE JUMPI DUP1 PUSH4 0x85AF47D5 EQ PUSH2 0xBDD JUMPI DUP1 PUSH4 0x88D2209B EQ PUSH2 0xB85 JUMPI DUP1 PUSH4 0x8C80FD90 EQ PUSH2 0xB64 JUMPI DUP1 PUSH4 0x8DA5CB5B EQ PUSH2 0xB3B JUMPI DUP1 PUSH4 0x9900AEEC EQ PUSH2 0xA8E JUMPI DUP1 PUSH4 0xA2626A5B EQ PUSH2 0x7B8 JUMPI DUP1 PUSH4 0xA7B9828F EQ PUSH2 0x747 JUMPI DUP1 PUSH4 0xADE5B3B3 EQ PUSH2 0x710 JUMPI DUP1 PUSH4 0xB55A1E6A EQ PUSH2 0x580 JUMPI DUP1 PUSH4 0xDA3F2661 EQ PUSH2 0x562 JUMPI DUP1 PUSH4 0xF2FDE38B EQ PUSH2 0x4D4 JUMPI DUP1 PUSH4 0xF5414023 EQ PUSH2 0x168 JUMPI DUP1 PUSH4 0xF79F55B6 EQ PUSH2 0x14A JUMPI PUSH4 0xF9B0B5B9 EQ PUSH2 0x127 JUMPI PUSH1 0x0 DUP1 REVERT JUMPDEST CALLVALUE PUSH2 0x145 JUMPI PUSH1 0x0 CALLDATASIZE PUSH1 0x3 NOT ADD SLT PUSH2 0x145 JUMPI PUSH1 0x20 PUSH1 0x8 SLOAD PUSH1 0x40 MLOAD SWAP1 DUP2 MSTORE RETURN JUMPDEST PUSH1 0x0 DUP1 REVERT JUMPDEST CALLVALUE PUSH2 0x145 JUMPI PUSH1 0x0 CALLDATASIZE PUSH1 0x3 NOT ADD SLT PUSH2 0x145 JUMPI PUSH1 0x20 PUSH1 0x7 SLOAD PUSH1 0x40 MLOAD SWAP1 DUP2 MSTORE RETURN JUMPDEST CALLVALUE PUSH2 0x145 JUMPI PUSH1 0x20 DUP1 PUSH1 0x3 NOT CALLDATASIZE ADD SLT PUSH2 0x145 JUMPI PUSH1 0x4 CALLDATALOAD PUSH2 0x185 PUSH2 0x16B7 JUMP JUMPDEST DUP1 PUSH1 0x0 MSTORE PUSH1 0x1 DUP3 MSTORE PUSH1 0x40 PUSH1 0x0 KECCAK256 PUSH1 0x6 DUP2 ADD PUSH1 0xFF DUP2 SLOAD AND PUSH1 0x4 DUP2 LT ISZERO PUSH2 0x3E5 JUMPI ISZERO PUSH2 0x48F JUMPI DUP3 PUSH1 0x0 MSTORE PUSH1 0x2 DUP5 MSTORE PUSH1 0x40 PUSH1 0x0 KECCAK256 CALLER PUSH1 0x0 MSTORE DUP5 MSTORE PUSH1 0x40 PUSH1 0x0 KECCAK256 SWAP1 DUP2 SLOAD SWAP1 DUP2 ISZERO PUSH2 0x44A JUMPI PUSH1 0x2 DUP4 ADD SWAP1 DUP2 SLOAD SWAP2 PUSH1 0xFF DUP4 PUSH1 0x8 SHR AND PUSH2 0x3FB JUMPI PUSH2 0xFF00 NOT DUP4 AND PUSH2 0x100 OR SWAP1 SSTORE SLOAD PUSH1 0xFF AND PUSH1 0x4 DUP2 LT ISZERO PUSH2 0x3E5 JUMPI PUSH1 0x1 EQ SWAP1 DUP2 PUSH2 0x3DA JUMPI JUMPDEST POP ISZERO PUSH2 0x314 JUMPI POP PUSH1 0x2 DUP3 ADD SLOAD SWAP2 PUSH1 0x9 SLOAD SWAP3 DUP4 DUP2 MUL SWAP4 DUP2 DUP6 DIV EQ SWAP1 ISZERO OR ISZERO PUSH2 0x2FE JUMPI PUSH2 0x23F SWAP3 PUSH2 0x2710 PUSH1 0x5 PUSH2 0x238 SWAP4 ADD SLOAD SWAP2 DIV PUSH2 0x138E JUMP JUMPDEST SWAP1 SLOAD PUSH2 0x1332 JUMP JUMPDEST SWAP2 PUSH1 0x0 DUP1 DUP1 DUP1 DUP7 CALLER GAS CALL PUSH2 0x251 PUSH2 0x1678 JUMP JUMPDEST POP ISZERO PUSH2 0x2B0 JUMPI PUSH32 0xFE236DFC7CE073698734B89DA1AEE0E7551C9C6D264404C502E6E8FEFC1132A8 SWAP1 CALLER PUSH1 0x0 MSTORE PUSH1 0x4 DUP2 MSTORE PUSH1 0x40 PUSH1 0x0 KECCAK256 PUSH2 0x290 DUP2 SLOAD PUSH2 0x137F JUMP JUMPDEST SWAP1 SSTORE PUSH1 0x40 MLOAD SWAP4 DUP5 MSTORE CALLER SWAP4 LOG3 JUMPDEST PUSH1 0x1 PUSH1 0x0 DUP1 MLOAD PUSH1 0x20 PUSH2 0x1714 DUP4 CODECOPY DUP2 MLOAD SWAP2 MSTORE SSTORE STOP JUMPDEST PUSH1 0x84 SWAP1 PUSH1 0x40 MLOAD SWAP1 PUSH3 0x461BCD PUSH1 0xE5 SHL DUP3 MSTORE PUSH1 0x4 DUP3 ADD MSTORE PUSH1 0x21 PUSH1 0x24 DUP3 ADD MSTORE PUSH32 0x50686F746F6E696356657269666965723A207472616E73666572206661696C65 PUSH1 0x44 DUP3 ADD MSTORE PUSH1 0x19 PUSH1 0xFA SHL PUSH1 0x64 DUP3 ADD MSTORE REVERT JUMPDEST PUSH4 0x4E487B71 PUSH1 0xE0 SHL PUSH1 0x0 MSTORE PUSH1 0x11 PUSH1 0x4 MSTORE PUSH1 0x24 PUSH1 0x0 REVERT JUMPDEST PUSH1 0x0 DUP1 DUP1 SWAP4 SWAP5 DUP2 SWAP4 CALLER DUP4 MSTORE PUSH1 0x5 DUP10 MSTORE PUSH2 0x332 PUSH1 0x40 DUP5 KECCAK256 SWAP2 DUP3 SLOAD PUSH2 0x1332 JUMP JUMPDEST SWAP1 SSTORE PUSH1 0x1 ADD SLOAD DUP6 SLOAD SWAP1 PUSH1 0x1 PUSH1 0x1 PUSH1 0xA0 SHL SUB AND GAS CALL PUSH2 0x34E PUSH2 0x1678 JUMP JUMPDEST POP ISZERO PUSH2 0x385 JUMPI SLOAD PUSH1 0x40 MLOAD SWAP1 DUP2 MSTORE CALLER SWAP3 PUSH32 0x3283D96D18219C171AE87EDFF3571820203BE9A1E834B1E3DD12E18986598D39 SWAP2 LOG3 PUSH2 0x29C JUMP JUMPDEST PUSH1 0x40 MLOAD PUSH3 0x461BCD PUSH1 0xE5 SHL DUP2 MSTORE PUSH1 0x4 DUP2 ADD DUP5 SWAP1 MSTORE PUSH1 0x27 PUSH1 0x24 DUP3 ADD MSTORE PUSH32 0x50686F746F6E696356657269666965723A20736C617368207472616E73666572 PUSH1 0x44 DUP3 ADD MSTORE PUSH7 0x819985A5B1959 PUSH1 0xCA SHL PUSH1 0x64 DUP3 ADD MSTORE PUSH1 0x84 SWAP1 REVERT JUMPDEST PUSH1 0xFF SWAP2 POP AND DUP7 PUSH2 0x201 JUMP JUMPDEST PUSH4 0x4E487B71 PUSH1 0xE0 SHL PUSH1 0x0 MSTORE PUSH1 0x21 PUSH1 0x4 MSTORE PUSH1 0x24 PUSH1 0x0 REVERT JUMPDEST PUSH1 0x40 MLOAD PUSH3 0x461BCD PUSH1 0xE5 SHL DUP2 MSTORE PUSH1 0x4 DUP2 ADD DUP10 SWAP1 MSTORE PUSH1 0x21 PUSH1 0x24 DUP3 ADD MSTORE PUSH32 0x50686F746F6E696356657269666965723A20616C726561647920636C61696D65 PUSH1 0x44 DUP3 ADD MSTORE PUSH1 0x19 PUSH1 0xFA SHL PUSH1 0x64 DUP3 ADD MSTORE PUSH1 0x84 SWAP1 REVERT JUMPDEST PUSH1 0x40 MLOAD PUSH3 0x461BCD PUSH1 0xE5 SHL DUP2 MSTORE PUSH1 0x4 DUP2 ADD DUP8 SWAP1 MSTORE PUSH1 0x1A PUSH1 0x24 DUP3 ADD MSTORE PUSH32 0x50686F746F6E696356657269666965723A206E6F207374616B65000000000000 PUSH1 0x44 DUP3 ADD MSTORE PUSH1 0x64 SWAP1 REVERT JUMPDEST PUSH1 0x40 MLOAD PUSH3 0x461BCD PUSH1 0xE5 SHL DUP2 MSTORE PUSH1 0x4 DUP2 ADD DUP6 SWAP1 MSTORE PUSH1 0x1E PUSH1 0x24 DUP3 ADD MSTORE PUSH32 0x50686F746F6E696356657269666965723A206E6F74207265736F6C7665640000 PUSH1 0x44 DUP3 ADD MSTORE PUSH1 0x64 SWAP1 REVERT JUMPDEST CALLVALUE PUSH2 0x145 JUMPI PUSH1 0x20 CALLDATASIZE PUSH1 0x3 NOT ADD SLT PUSH2 0x145 JUMPI PUSH2 0x4ED PUSH2 0x11F1 JUMP JUMPDEST PUSH2 0x4F5 PUSH2 0x16E7 JUMP JUMPDEST PUSH1 0x1 PUSH1 0x1 PUSH1 0xA0 SHL SUB SWAP1 DUP2 AND SWAP1 DUP2 ISZERO PUSH2 0x549 JUMPI PUSH1 0x0 SLOAD DUP3 PUSH12 0xFFFFFFFFFFFFFFFFFFFFFFFF PUSH1 0xA0 SHL DUP3 AND OR PUSH1 0x0 SSTORE AND PUSH32 0x8BE0079C531659141344CD1FD0A4F28419497F9722A3DAAFE3B4186F6B6457E0 PUSH1 0x0 DUP1 LOG3 STOP JUMPDEST PUSH1 0x40 MLOAD PUSH4 0x1E4FBDF7 PUSH1 0xE0 SHL DUP2 MSTORE PUSH1 0x0 PUSH1 0x4 DUP3 ADD MSTORE PUSH1 0x24 SWAP1 REVERT JUMPDEST CALLVALUE PUSH2 0x145 JUMPI PUSH1 0x0 CALLDATASIZE PUSH1 0x3 NOT ADD SLT PUSH2 0x145 JUMPI PUSH1 0x20 PUSH1 0xA SLOAD PUSH1 0x40 MLOAD SWAP1 DUP2 MSTORE RETURN JUMPDEST CALLVALUE PUSH2 0x145 JUMPI PUSH1 0x20 CALLDATASIZE PUSH1 0x3 NOT ADD SLT PUSH2 0x145 JUMPI PUSH1 0x0 PUSH2 0x120 PUSH1 0x40 MLOAD PUSH2 0x5A2 DUP2 PUSH2 0x163B JUMP JUMPDEST DUP3 DUP2 MSTORE DUP3 PUSH1 0x20 DUP3 ADD MSTORE DUP3 PUSH1 0x40 DUP3 ADD MSTORE DUP3 PUSH1 0x60 DUP3 ADD MSTORE DUP3 PUSH1 0x80 DUP3 ADD MSTORE DUP3 PUSH1 0xA0 DUP3 ADD MSTORE DUP3 PUSH1 0xC0 DUP3 ADD MSTORE DUP3 PUSH1 0xE0 DUP3 ADD MSTORE DUP3 PUSH2 0x100 DUP3 ADD MSTORE ADD MSTORE PUSH1 0x4 CALLDATALOAD PUSH1 0x0 MSTORE PUSH1 0x1 PUSH1 0x20 MSTORE PUSH1 0x40 PUSH1 0x0 KECCAK256 PUSH1 0x6 PUSH1 0x40 MLOAD SWAP2 PUSH2 0x5F7 DUP4 PUSH2 0x163B JUMP JUMPDEST DUP1 SLOAD DUP4 MSTORE PUSH1 0x1 DUP2 ADD SLOAD PUSH1 0x1 PUSH1 0x1 PUSH1 0xA0 SHL SUB AND PUSH1 0x20 DUP5 ADD MSTORE PUSH1 0x2 DUP2 ADD SLOAD PUSH1 0x40 DUP5 ADD MSTORE PUSH1 0x3 DUP2 ADD SLOAD PUSH1 0x60 DUP5 ADD MSTORE PUSH1 0x4 DUP1 DUP3 ADD SLOAD PUSH1 0x80 DUP6 ADD MSTORE PUSH1 0x5 DUP3 ADD SLOAD PUSH1 0xA0 DUP6 ADD MSTORE SWAP2 ADD SLOAD SWAP2 SWAP1 PUSH1 0xFF DUP4 AND SWAP1 DUP2 LT ISZERO PUSH2 0x3E5 JUMPI PUSH2 0x140 SWAP3 PUSH1 0xFF SWAP2 PUSH1 0xC0 DUP5 ADD MSTORE PUSH1 0x1 PUSH1 0x1 PUSH1 0x40 SHL SUB DUP2 PUSH1 0x8 SHR AND PUSH1 0xE0 DUP5 ADD MSTORE PUSH1 0x1 PUSH1 0x1 PUSH1 0x40 SHL SUB DUP2 PUSH1 0x48 SHR AND PUSH2 0x100 DUP5 ADD MSTORE PUSH1 0x88 SHR AND ISZERO ISZERO PUSH2 0x120 DUP3 ADD MSTORE PUSH2 0x120 PUSH1 0x40 MLOAD SWAP2 DUP1 MLOAD DUP4 MSTORE PUSH1 0x1 DUP1 PUSH1 0xA0 SHL SUB PUSH1 0x20 DUP3 ADD MLOAD AND PUSH1 0x20 DUP5 ADD MSTORE PUSH1 0x40 DUP2 ADD MLOAD PUSH1 0x40 DUP5 ADD MSTORE PUSH1 0x60 DUP2 ADD MLOAD PUSH1 0x60 DUP5 ADD MSTORE PUSH1 0x80 DUP2 ADD MLOAD PUSH1 0x80 DUP5 ADD MSTORE PUSH1 0xA0 DUP2 ADD MLOAD PUSH1 0xA0 DUP5 ADD MSTORE PUSH2 0x6DC PUSH1 0xC0 DUP3 ADD MLOAD PUSH1 0xC0 DUP6 ADD SWAP1 PUSH2 0x1282 JUMP JUMPDEST PUSH1 0x1 PUSH1 0x1 PUSH1 0x40 SHL SUB PUSH1 0xE0 DUP3 ADD MLOAD AND PUSH1 0xE0 DUP5 ADD MSTORE PUSH1 0x1 PUSH1 0x1 PUSH1 0x40 SHL SUB PUSH2 0x100 DUP3 ADD MLOAD AND PUSH2 0x100 DUP5 ADD MSTORE ADD MLOAD ISZERO ISZERO PUSH2 0x120 DUP3 ADD MSTORE RETURN JUMPDEST CALLVALUE PUSH2 0x145 JUMPI PUSH1 0x20 CALLDATASIZE PUSH1 0x3 NOT ADD SLT PUSH2 0x145 JUMPI PUSH1 0x4 CALLDATALOAD PUSH1 0xA SLOAD DUP2 LT ISZERO PUSH2 0x145 JUMPI PUSH2 0x739 PUSH1 0x20 SWAP2 PUSH2 0x121D JUMP JUMPDEST SWAP1 SLOAD PUSH1 0x40 MLOAD SWAP2 PUSH1 0x3 SHL SHR DUP2 MSTORE RETURN JUMPDEST CALLVALUE PUSH2 0x145 JUMPI PUSH1 0x40 CALLDATASIZE PUSH1 0x3 NOT ADD SLT PUSH2 0x145 JUMPI PUSH2 0x760 PUSH2 0x1207 JUMP JUMPDEST PUSH1 0x4 CALLDATALOAD PUSH1 0x0 MSTORE PUSH1 0x2 PUSH1 0x20 MSTORE PUSH1 0x40 PUSH1 0x0 KECCAK256 SWAP1 PUSH1 0x1 DUP1 PUSH1 0xA0 SHL SUB AND PUSH1 0x0 MSTORE PUSH1 0x20 MSTORE PUSH1 0x80 PUSH1 0x40 PUSH1 0x0 KECCAK256 PUSH1 0xFF DUP2 SLOAD SWAP2 PUSH1 0x2 PUSH1 0x1 DUP3 ADD SLOAD SWAP2 ADD SLOAD SWAP1 PUSH1 0x40 MLOAD SWAP4 DUP5 MSTORE PUSH1 0x20 DUP5 ADD MSTORE DUP2 DUP2 AND ISZERO ISZERO PUSH1 0x40 DUP5 ADD MSTORE PUSH1 0x8 SHR AND ISZERO ISZERO PUSH1 0x60 DUP3 ADD MSTORE RETURN JUMPDEST PUSH1 0x60 CALLDATASIZE PUSH1 0x3 NOT ADD SLT PUSH2 0x145 JUMPI PUSH1 0x44 CALLDATALOAD PUSH1 0x1 PUSH1 0x1 PUSH1 0xA0 SHL SUB DUP2 AND SWAP1 PUSH1 0x24 DUP1 CALLDATALOAD SWAP2 DUP4 SWAP1 SUB PUSH2 0x145 JUMPI PUSH2 0x7E6 PUSH2 0x16B7 JUMP JUMPDEST PUSH1 0x4 CALLDATALOAD PUSH1 0x0 MSTORE PUSH1 0x1 PUSH1 0x20 MSTORE PUSH1 0x1 PUSH1 0x1 PUSH1 0x40 SHL SUB PUSH1 0x6 PUSH1 0x40 PUSH1 0x0 KECCAK256 ADD SLOAD PUSH1 0x8 SHR AND PUSH2 0xA3E JUMPI CALLVALUE ISZERO PUSH2 0x9EA JUMPI PUSH1 0x40 MLOAD PUSH2 0x81C DUP2 PUSH2 0x163B JUMP JUMPDEST DUP3 DUP2 MSTORE DUP4 PUSH1 0x20 DUP3 ADD MSTORE CALLVALUE PUSH1 0x40 DUP3 ADD MSTORE PUSH1 0x0 PUSH1 0x60 DUP3 ADD MSTORE PUSH1 0x0 PUSH1 0x80 DUP3 ADD MSTORE PUSH1 0x0 PUSH1 0xA0 DUP3 ADD MSTORE PUSH1 0x0 PUSH1 0xC0 DUP3 ADD MSTORE PUSH1 0x1 PUSH1 0x1 PUSH1 0x40 SHL SUB TIMESTAMP AND PUSH1 0xE0 DUP3 ADD MSTORE PUSH1 0x0 PUSH2 0x100 DUP3 ADD MSTORE PUSH1 0x0 PUSH2 0x120 DUP3 ADD MSTORE PUSH1 0x4 CALLDATALOAD PUSH1 0x0 MSTORE PUSH1 0x1 PUSH1 0x20 MSTORE PUSH1 0x6 PUSH1 0x40 PUSH1 0x0 KECCAK256 DUP3 MLOAD DUP2 SSTORE PUSH1 0x1 DUP2 ADD PUSH1 0x1 DUP1 PUSH1 0xA0 SHL SUB PUSH1 0x20 DUP6 ADD MLOAD AND PUSH12 0xFFFFFFFFFFFFFFFFFFFFFFFF PUSH1 0xA0 SHL DUP3 SLOAD AND OR SWAP1 SSTORE PUSH1 0x40 DUP4 ADD MLOAD PUSH1 0x2 DUP3 ADD SSTORE PUSH1 0x60 DUP4 ADD MLOAD PUSH1 0x3 DUP3 ADD SSTORE PUSH1 0x80 DUP4 ADD MLOAD PUSH1 0x4 DUP3 ADD SSTORE PUSH1 0xA0 DUP4 ADD MLOAD PUSH1 0x5 DUP3 ADD SSTORE ADD SWAP1 PUSH1 0xC0 DUP2 ADD MLOAD PUSH1 0x4 DUP2 LT ISZERO PUSH2 0x9D5 JUMPI SWAP1 PUSH2 0x8E9 PUSH2 0x120 SWAP3 DUP5 PUSH2 0x133F JUMP JUMPDEST PUSH1 0xE0 DUP2 ADD MLOAD PUSH9 0xFFFFFFFFFFFFFFFF00 DUP5 SLOAD SWAP2 PUSH1 0x8 SHL AND SWAP1 PUSH9 0xFFFFFFFFFFFFFFFF00 NOT AND OR DUP4 SSTORE PUSH2 0x927 PUSH1 0x1 PUSH1 0x1 PUSH1 0x40 SHL SUB PUSH2 0x100 DUP4 ADD MLOAD AND DUP5 PUSH2 0x1357 JUMP JUMPDEST ADD MLOAD DUP2 SLOAD PUSH1 0xFF PUSH1 0x88 SHL NOT AND SWAP1 ISZERO ISZERO PUSH1 0x88 SHL PUSH1 0xFF PUSH1 0x88 SHL AND OR SWAP1 SSTORE PUSH1 0xA SLOAD SWAP1 PUSH1 0x1 PUSH1 0x40 SHL DUP3 LT ISZERO PUSH2 0x9C1 JUMPI POP DUP1 PUSH1 0x1 PUSH2 0x962 SWAP3 ADD PUSH1 0xA SSTORE PUSH2 0x121D JUMP JUMPDEST DUP2 SLOAD SWAP1 PUSH1 0x3 SHL SWAP1 PUSH1 0x4 CALLDATALOAD DUP3 SHL SWAP2 PUSH1 0x0 NOT SWAP1 SHL NOT AND OR SWAP1 SSTORE PUSH1 0x40 MLOAD SWAP1 DUP2 MSTORE CALLVALUE PUSH1 0x20 DUP3 ADD MSTORE PUSH32 0xAA8C08841E544D4FD7E3844AD6ED12BBB6DA3497E05410C3121BC5A9C867AD32 PUSH1 0x40 PUSH1 0x4 CALLDATALOAD SWAP3 LOG3 PUSH1 0x1 PUSH1 0x0 DUP1 MLOAD PUSH1 0x20 PUSH2 0x1714 DUP4 CODECOPY DUP2 MLOAD SWAP2 MSTORE SSTORE STOP JUMPDEST PUSH4 0x4E487B71 PUSH1 0xE0 SHL PUSH1 0x0 SWAP1 DUP2 MSTORE PUSH1 0x41 PUSH1 0x4 MSTORE REVERT JUMPDEST DUP4 PUSH4 0x4E487B71 PUSH1 0xE0 SHL PUSH1 0x0 MSTORE PUSH1 0x21 PUSH1 0x4 MSTORE PUSH1 0x0 REVERT JUMPDEST PUSH1 0x84 SWAP1 PUSH1 0x27 PUSH1 0x40 MLOAD SWAP2 PUSH3 0x461BCD PUSH1 0xE5 SHL DUP4 MSTORE PUSH1 0x20 PUSH1 0x4 DUP5 ADD MSTORE DUP3 ADD MSTORE PUSH32 0x50686F746F6E696356657269666965723A2064656C6976657279206665652072 PUSH1 0x44 DUP3 ADD MSTORE PUSH7 0x195C5D5A5C9959 PUSH1 0xCA SHL PUSH1 0x64 DUP3 ADD MSTORE REVERT JUMPDEST PUSH1 0x84 SWAP1 PUSH1 0x40 MLOAD SWAP1 PUSH3 0x461BCD PUSH1 0xE5 SHL DUP3 MSTORE PUSH1 0x20 PUSH1 0x4 DUP4 ADD MSTORE DUP1 DUP3 ADD MSTORE PUSH32 0x50686F746F6E696356657269666965723A2042504420616C7265616479206578 PUSH1 0x44 DUP3 ADD MSTORE PUSH4 0x69737473 PUSH1 0xE0 SHL PUSH1 0x64 DUP3 ADD MSTORE REVERT JUMPDEST CALLVALUE PUSH2 0x145 JUMPI PUSH1 0x20 CALLDATASIZE PUSH1 0x3 NOT ADD SLT PUSH2 0x145 JUMPI PUSH1 0x4 CALLDATALOAD PUSH1 0x0 MSTORE PUSH1 0x1 PUSH1 0x20 MSTORE PUSH2 0x140 PUSH1 0x40 PUSH1 0x0 KECCAK256 PUSH1 0xFF DUP2 SLOAD SWAP2 PUSH1 0x1 DUP1 PUSH1 0xA0 SHL SUB PUSH1 0x1 DUP3 ADD SLOAD AND PUSH1 0x2 DUP3 ADD SLOAD SWAP2 PUSH1 0x3 DUP2 ADD SLOAD PUSH1 0x4 DUP3 ADD SLOAD SWAP1 PUSH1 0x6 PUSH1 0x5 DUP5 ADD SLOAD SWAP4 ADD SLOAD SWAP5 PUSH1 0x1 PUSH1 0x1 PUSH1 0x40 SHL SUB SWAP5 PUSH1 0x40 MLOAD SWAP9 DUP10 MSTORE PUSH1 0x20 DUP10 ADD MSTORE PUSH1 0x40 DUP9 ADD MSTORE PUSH1 0x60 DUP8 ADD MSTORE PUSH1 0x80 DUP7 ADD MSTORE PUSH1 0xA0 DUP6 ADD MSTORE PUSH2 0xB17 PUSH1 0xC0 DUP6 ADD DUP5 DUP5 AND PUSH2 0x1282 JUMP JUMPDEST DUP1 DUP3 PUSH1 0x8 SHR AND PUSH1 0xE0 DUP6 ADD MSTORE DUP2 PUSH1 0x48 SHR AND PUSH2 0x100 DUP5 ADD MSTORE PUSH1 0x88 SHR AND ISZERO ISZERO PUSH2 0x120 DUP3 ADD MSTORE RETURN JUMPDEST CALLVALUE PUSH2 0x145 JUMPI PUSH1 0x0 CALLDATASIZE PUSH1 0x3 NOT ADD SLT PUSH2 0x145 JUMPI PUSH1 0x0 SLOAD PUSH1 0x40 MLOAD PUSH1 0x1 PUSH1 0x1 PUSH1 0xA0 SHL SUB SWAP1 SWAP2 AND DUP2 MSTORE PUSH1 0x20 SWAP1 RETURN JUMPDEST CALLVALUE PUSH2 0x145 JUMPI PUSH1 0x20 CALLDATASIZE PUSH1 0x3 NOT ADD SLT PUSH2 0x145 JUMPI PUSH2 0xB7D PUSH2 0x16E7 JUMP JUMPDEST PUSH1 0x4 CALLDATALOAD PUSH1 0x6 SSTORE STOP JUMPDEST CALLVALUE PUSH2 0x145 JUMPI PUSH1 0x20 CALLDATASIZE PUSH1 0x3 NOT ADD SLT PUSH2 0x145 JUMPI PUSH1 0x4 CALLDATALOAD PUSH2 0xBA1 PUSH2 0x16E7 JUMP JUMPDEST PUSH1 0x64 DUP2 GT PUSH2 0xBAE JUMPI PUSH1 0x8 SSTORE STOP JUMPDEST PUSH1 0x40 MLOAD PUSH3 0x461BCD PUSH1 0xE5 SHL DUP2 MSTORE PUSH1 0x20 PUSH1 0x4 DUP3 ADD MSTORE PUSH1 0x7 PUSH1 0x24 DUP3 ADD MSTORE PUSH7 0x1A5B9D985B1A59 PUSH1 0xCA SHL PUSH1 0x44 DUP3 ADD MSTORE PUSH1 0x64 SWAP1 REVERT JUMPDEST CALLVALUE PUSH2 0x145 JUMPI PUSH1 0x20 CALLDATASIZE PUSH1 0x3 NOT ADD SLT PUSH2 0x145 JUMPI PUSH2 0xBF6 PUSH2 0x16E7 JUMP JUMPDEST PUSH1 0x4 CALLDATALOAD PUSH1 0x7 SSTORE STOP JUMPDEST CALLVALUE PUSH2 0x145 JUMPI PUSH1 0x20 DUP1 PUSH1 0x3 NOT CALLDATASIZE ADD SLT PUSH2 0x145 JUMPI PUSH1 0x4 CALLDATALOAD PUSH1 0x0 MSTORE PUSH1 0x3 DUP2 MSTORE PUSH1 0x40 PUSH1 0x0 KECCAK256 PUSH1 0x40 MLOAD SWAP1 DUP2 DUP4 DUP3 SLOAD SWAP2 DUP3 DUP2 MSTORE ADD SWAP1 DUP2 SWAP3 PUSH1 0x0 MSTORE DUP5 PUSH1 0x0 KECCAK256 SWAP1 PUSH1 0x0 JUMPDEST DUP7 DUP3 DUP3 LT PUSH2 0xC99 JUMPI DUP7 DUP7 PUSH2 0xC50 DUP3 DUP9 SUB DUP4 PUSH2 0x1657 JUMP JUMPDEST PUSH1 0x40 MLOAD SWAP3 DUP4 SWAP3 DUP2 DUP5 ADD SWAP1 DUP3 DUP6 MSTORE MLOAD DUP1 SWAP2 MSTORE PUSH1 0x40 DUP5 ADD SWAP3 SWAP2 PUSH1 0x0 JUMPDEST DUP3 DUP2 LT PUSH2 0xC79 JUMPI POP POP POP POP SUB SWAP1 RETURN JUMPDEST DUP4 MLOAD PUSH1 0x1 PUSH1 0x1 PUSH1 0xA0 SHL SUB AND DUP6 MSTORE DUP7 SWAP6 POP SWAP4 DUP2 ADD SWAP4 SWAP3 DUP2 ADD SWAP3 PUSH1 0x1 ADD PUSH2 0xC6A JUMP JUMPDEST DUP4 SLOAD PUSH1 0x1 PUSH1 0x1 PUSH1 0xA0 SHL SUB AND DUP6 MSTORE SWAP1 SWAP4 ADD SWAP3 PUSH1 0x1 SWAP3 DUP4 ADD SWAP3 ADD PUSH2 0xC3A JUMP JUMPDEST CALLVALUE PUSH2 0x145 JUMPI PUSH1 0x0 CALLDATASIZE PUSH1 0x3 NOT ADD SLT PUSH2 0x145 JUMPI PUSH2 0xCCF PUSH2 0x16E7 JUMP JUMPDEST PUSH1 0x0 DUP1 SLOAD PUSH1 0x1 PUSH1 0x1 PUSH1 0xA0 SHL SUB NOT DUP2 AND DUP3 SSTORE PUSH1 0x1 PUSH1 0x1 PUSH1 0xA0 SHL SUB AND PUSH32 0x8BE0079C531659141344CD1FD0A4F28419497F9722A3DAAFE3B4186F6B6457E0 DUP3 DUP1 LOG3 STOP JUMPDEST CALLVALUE PUSH2 0x145 JUMPI PUSH1 0x40 CALLDATASIZE PUSH1 0x3 NOT ADD SLT PUSH2 0x145 JUMPI PUSH1 0x24 CALLDATALOAD PUSH1 0x4 CALLDATALOAD PUSH1 0x0 MSTORE PUSH1 0x3 PUSH1 0x20 MSTORE PUSH1 0x40 PUSH1 0x0 KECCAK256 DUP1 SLOAD DUP3 LT ISZERO PUSH2 0x145 JUMPI PUSH1 0x20 SWAP2 PUSH2 0xD48 SWAP2 PUSH2 0x126A JUMP JUMPDEST SWAP1 SLOAD PUSH1 0x40 MLOAD PUSH1 0x3 SWAP3 SWAP1 SWAP3 SHL SHR PUSH1 0x1 PUSH1 0x1 PUSH1 0xA0 SHL SUB AND DUP2 MSTORE RETURN JUMPDEST CALLVALUE PUSH2 0x145 JUMPI PUSH1 0x40 CALLDATASIZE PUSH1 0x3 NOT ADD SLT PUSH2 0x145 JUMPI PUSH2 0xD7A PUSH2 0x1207 JUMP JUMPDEST PUSH1 0x0 PUSH1 0x60 PUSH1 0x40 MLOAD PUSH2 0xD8A DUP2 PUSH2 0x160A JUMP JUMPDEST DUP3 DUP2 MSTORE DUP3 PUSH1 0x20 DUP3 ADD MSTORE DUP3 PUSH1 0x40 DUP3 ADD MSTORE ADD MSTORE PUSH1 0x4 CALLDATALOAD PUSH1 0x0 MSTORE PUSH1 0x2 PUSH1 0x20 MSTORE PUSH1 0x40 PUSH1 0x0 KECCAK256 SWAP1 PUSH1 0x1 DUP1 PUSH1 0xA0 SHL SUB AND PUSH1 0x0 MSTORE PUSH1 0x20 MSTORE PUSH1 0x80 PUSH1 0x40 PUSH1 0x0 KECCAK256 PUSH1 0x40 MLOAD SWAP1 PUSH2 0xDCE DUP3 PUSH2 0x160A JUMP JUMPDEST DUP1 SLOAD SWAP2 DUP3 DUP2 MSTORE PUSH1 0x2 PUSH1 0x1 DUP4 ADD SLOAD SWAP3 PUSH1 0x20 DUP4 ADD SWAP4 DUP5 MSTORE ADD SLOAD SWAP2 PUSH1 0xFF PUSH1 0x60 PUSH1 0x40 DUP5 ADD SWAP4 DUP3 DUP7 AND ISZERO ISZERO DUP6 MSTORE ADD SWAP4 PUSH1 0x8 SHR AND ISZERO ISZERO DUP4 MSTORE PUSH1 0x40 MLOAD SWAP4 DUP5 MSTORE MLOAD PUSH1 0x20 DUP5 ADD MSTORE MLOAD ISZERO ISZERO PUSH1 0x40 DUP4 ADD MSTORE MLOAD ISZERO ISZERO PUSH1 0x60 DUP3 ADD MSTORE RETURN JUMPDEST PUSH1 0x40 CALLDATASIZE PUSH1 0x3 NOT ADD SLT PUSH2 0x145 JUMPI PUSH1 0x24 PUSH1 0x4 CALLDATALOAD DUP2 CALLDATALOAD PUSH2 0xE39 PUSH2 0x16B7 JUMP JUMPDEST DUP2 PUSH1 0x0 MSTORE PUSH1 0x20 SWAP3 PUSH1 0x1 DUP5 MSTORE PUSH1 0x40 PUSH1 0x0 KECCAK256 SWAP1 PUSH1 0x6 DUP3 ADD SLOAD PUSH1 0xFF PUSH1 0x1 PUSH1 0x1 PUSH1 0x40 SHL SUB DUP3 PUSH1 0x8 SHR AND SWAP2 PUSH2 0xE6A DUP4 ISZERO ISZERO PUSH2 0x128F JUMP JUMPDEST AND PUSH1 0x4 DUP2 LT ISZERO PUSH2 0x110B JUMPI SWAP1 PUSH2 0xE82 PUSH2 0xE8B SWAP3 ISZERO PUSH2 0x12DB JUMP JUMPDEST PUSH1 0x7 SLOAD SWAP1 PUSH2 0x1332 JUMP JUMPDEST TIMESTAMP LT ISZERO PUSH2 0x10C8 JUMPI PUSH1 0x6 SLOAD CALLVALUE LT PUSH2 0x107B JUMPI DUP4 PUSH1 0x0 MSTORE PUSH1 0x2 DUP6 MSTORE PUSH1 0x40 PUSH1 0x0 KECCAK256 CALLER PUSH1 0x0 MSTORE DUP6 MSTORE PUSH1 0x40 PUSH1 0x0 KECCAK256 SLOAD PUSH2 0x1039 JUMPI PUSH1 0x1 DUP3 ADD SLOAD PUSH1 0x1 PUSH1 0x1 PUSH1 0xA0 SHL SUB SWAP2 SWAP1 DUP3 AND CALLER EQ PUSH2 0xFE0 JUMPI PUSH1 0x40 MLOAD PUSH2 0xEDB DUP2 PUSH2 0x160A JUMP JUMPDEST CALLVALUE DUP2 MSTORE DUP7 DUP2 ADD DUP6 DUP2 MSTORE PUSH1 0x2 PUSH1 0x40 DUP4 ADD SWAP3 PUSH1 0x0 DUP5 MSTORE PUSH1 0x60 DUP2 ADD SWAP3 PUSH1 0x0 DUP5 MSTORE DUP10 PUSH1 0x0 MSTORE DUP3 DUP12 MSTORE PUSH1 0x40 PUSH1 0x0 KECCAK256 CALLER PUSH1 0x0 MSTORE DUP12 MSTORE PUSH1 0x40 PUSH1 0x0 KECCAK256 SWAP2 MLOAD DUP3 SSTORE MLOAD PUSH1 0x1 DUP3 ADD SSTORE ADD SWAP2 MLOAD ISZERO ISZERO SWAP1 PUSH1 0xFF PUSH2 0xFF00 DUP5 SLOAD SWAP3 MLOAD ISZERO ISZERO PUSH1 0x8 SHL AND SWAP3 AND SWAP1 PUSH2 0xFFFF NOT AND OR OR SWAP1 SSTORE DUP5 PUSH1 0x0 MSTORE PUSH1 0x3 DUP7 MSTORE PUSH1 0x40 PUSH1 0x0 KECCAK256 DUP1 SLOAD SWAP2 PUSH1 0x1 PUSH1 0x40 SHL DUP4 LT ISZERO PUSH2 0x9C1 JUMPI POP DUP2 PUSH2 0xF6B SWAP2 PUSH1 0x1 PUSH1 0x4 SWAP7 SWAP6 SWAP5 ADD DUP2 SSTORE PUSH2 0x126A JUMP JUMPDEST DUP2 SWAP3 SWAP2 SLOAD SWAP1 PUSH1 0x3 SHL SWAP2 CALLER DUP4 SHL SWAP3 SHL NOT AND OR SWAP1 SSTORE PUSH1 0x3 DUP2 ADD PUSH2 0xF8D CALLVALUE DUP3 SLOAD PUSH2 0x1332 JUMP JUMPDEST SWAP1 SSTORE ADD PUSH2 0xF9A DUP2 SLOAD PUSH2 0x137F JUMP JUMPDEST SWAP1 SSTORE PUSH1 0x40 MLOAD SWAP3 CALLVALUE DUP5 MSTORE DUP4 ADD MSTORE PUSH32 0x8A7664D92998A25E8AAB34A60C484CF7DE9464FF266592A95CA21565BEFDF84A PUSH1 0x40 CALLER SWAP4 LOG3 PUSH1 0x1 PUSH1 0x0 DUP1 MLOAD PUSH1 0x20 PUSH2 0x1714 DUP4 CODECOPY DUP2 MLOAD SWAP2 MSTORE SSTORE STOP JUMPDEST DUP6 PUSH1 0x2D PUSH1 0x84 SWAP3 PUSH1 0x40 MLOAD SWAP3 PUSH3 0x461BCD PUSH1 0xE5 SHL DUP5 MSTORE PUSH1 0x4 DUP5 ADD MSTORE DUP3 ADD MSTORE PUSH32 0x50686F746F6E696356657269666965723A2070726F76696465722063616E6E6F PUSH1 0x44 DUP3 ADD MSTORE PUSH13 0x742073656C662D766572696679 PUSH1 0x98 SHL PUSH1 0x64 DUP3 ADD MSTORE REVERT JUMPDEST PUSH1 0x64 SWAP1 DUP6 PUSH1 0x40 MLOAD SWAP2 PUSH3 0x461BCD PUSH1 0xE5 SHL DUP4 MSTORE DUP2 PUSH1 0x4 DUP5 ADD MSTORE DUP3 ADD MSTORE PUSH32 0x50686F746F6E696356657269666965723A20616C7265616479207374616B6564 PUSH1 0x44 DUP3 ADD MSTORE REVERT JUMPDEST DUP5 PUSH1 0x21 PUSH1 0x84 SWAP3 PUSH1 0x40 MLOAD SWAP3 PUSH3 0x461BCD PUSH1 0xE5 SHL DUP5 MSTORE PUSH1 0x4 DUP5 ADD MSTORE DUP3 ADD MSTORE PUSH32 0x50686F746F6E696356657269666965723A2062656C6F77206D696E207374616B PUSH1 0x44 DUP3 ADD MSTORE PUSH1 0x65 PUSH1 0xF8 SHL PUSH1 0x64 DUP3 ADD MSTORE REVERT JUMPDEST DUP5 PUSH1 0x1F PUSH1 0x64 SWAP3 PUSH1 0x40 MLOAD SWAP3 PUSH3 0x461BCD PUSH1 0xE5 SHL DUP5 MSTORE PUSH1 0x4 DUP5 ADD MSTORE DUP3 ADD MSTORE PUSH32 0x50686F746F6E696356657269666965723A2077696E646F7720636C6F73656400 PUSH1 0x44 DUP3 ADD MSTORE REVERT JUMPDEST DUP3 PUSH4 0x4E487B71 PUSH1 0xE0 SHL PUSH1 0x0 MSTORE PUSH1 0x21 PUSH1 0x4 MSTORE PUSH1 0x0 REVERT JUMPDEST CALLVALUE PUSH2 0x145 JUMPI PUSH1 0x20 CALLDATASIZE PUSH1 0x3 NOT ADD SLT PUSH2 0x145 JUMPI PUSH2 0x1139 PUSH2 0x16B7 JUMP JUMPDEST PUSH2 0x29C PUSH1 0x4 CALLDATALOAD PUSH2 0x13AE JUMP JUMPDEST CALLVALUE PUSH2 0x145 JUMPI PUSH1 0x0 CALLDATASIZE PUSH1 0x3 NOT ADD SLT PUSH2 0x145 JUMPI PUSH1 0x20 PUSH1 0x6 SLOAD PUSH1 0x40 MLOAD SWAP1 DUP2 MSTORE RETURN JUMPDEST CALLVALUE PUSH2 0x145 JUMPI PUSH1 0x20 CALLDATASIZE PUSH1 0x3 NOT ADD SLT PUSH2 0x145 JUMPI PUSH1 0x1 PUSH1 0x1 PUSH1 0xA0 SHL SUB PUSH2 0x1183 PUSH2 0x11F1 JUMP JUMPDEST AND PUSH1 0x0 MSTORE PUSH1 0x5 PUSH1 0x20 MSTORE PUSH1 0x20 PUSH1 0x40 PUSH1 0x0 KECCAK256 SLOAD PUSH1 0x40 MLOAD SWAP1 DUP2 MSTORE RETURN JUMPDEST CALLVALUE PUSH2 0x145 JUMPI PUSH1 0x20 CALLDATASIZE PUSH1 0x3 NOT ADD SLT PUSH2 0x145 JUMPI PUSH1 0x1 PUSH1 0x1 PUSH1 0xA0 SHL SUB PUSH2 0x11BD PUSH2 0x11F1 JUMP JUMPDEST AND PUSH1 0x0 MSTORE PUSH1 0x4 PUSH1 0x20 MSTORE PUSH1 0x20 PUSH1 0x40 PUSH1 0x0 KECCAK256 SLOAD PUSH1 0x40 MLOAD SWAP1 DUP2 MSTORE RETURN JUMPDEST CALLVALUE PUSH2 0x145 JUMPI PUSH1 0x0 CALLDATASIZE PUSH1 0x3 NOT ADD SLT PUSH2 0x145 JUMPI PUSH1 0x20 SWAP1 PUSH1 0x9 SLOAD DUP2 MSTORE RETURN JUMPDEST PUSH1 0x4 CALLDATALOAD SWAP1 PUSH1 0x1 PUSH1 0x1 PUSH1 0xA0 SHL SUB DUP3 AND DUP3 SUB PUSH2 0x145 JUMPI JUMP JUMPDEST PUSH1 0x24 CALLDATALOAD SWAP1 PUSH1 0x1 PUSH1 0x1 PUSH1 0xA0 SHL SUB DUP3 AND DUP3 SUB PUSH2 0x145 JUMPI JUMP JUMPDEST PUSH1 0xA SLOAD DUP2 LT ISZERO PUSH2 0x1254 JUMPI PUSH1 0xA PUSH1 0x0 MSTORE PUSH32 0xC65A7BB8D6351C1CF70C95A316CC6A92839C986682D98BC35F958F4883F9D2A8 ADD SWAP1 PUSH1 0x0 SWAP1 JUMP JUMPDEST PUSH4 0x4E487B71 PUSH1 0xE0 SHL PUSH1 0x0 MSTORE PUSH1 0x32 PUSH1 0x4 MSTORE PUSH1 0x24 PUSH1 0x0 REVERT JUMPDEST DUP1 SLOAD DUP3 LT ISZERO PUSH2 0x1254 JUMPI PUSH1 0x0 MSTORE PUSH1 0x20 PUSH1 0x0 KECCAK256 ADD SWAP1 PUSH1 0x0 SWAP1 JUMP JUMPDEST SWAP1 PUSH1 0x4 DUP3 LT ISZERO PUSH2 0x3E5 JUMPI MSTORE JUMP JUMPDEST ISZERO PUSH2 0x1296 JUMPI JUMP JUMPDEST PUSH1 0x40 MLOAD PUSH3 0x461BCD PUSH1 0xE5 SHL DUP2 MSTORE PUSH1 0x20 PUSH1 0x4 DUP3 ADD MSTORE PUSH1 0x1F PUSH1 0x24 DUP3 ADD MSTORE PUSH32 0x50686F746F6E696356657269666965723A20425044206E6F7420666F756E6400 PUSH1 0x44 DUP3 ADD MSTORE PUSH1 0x64 SWAP1 REVERT JUMPDEST ISZERO PUSH2 0x12E2 JUMPI JUMP JUMPDEST PUSH1 0x40 MLOAD PUSH3 0x461BCD PUSH1 0xE5 SHL DUP2 MSTORE PUSH1 0x20 PUSH1 0x4 DUP3 ADD MSTORE PUSH1 0x22 PUSH1 0x24 DUP3 ADD MSTORE PUSH32 0x50686F746F6E696356657269666965723A20616C7265616479207265736F6C76 PUSH1 0x44 DUP3 ADD MSTORE PUSH2 0x1959 PUSH1 0xF2 SHL PUSH1 0x64 DUP3 ADD MSTORE PUSH1 0x84 SWAP1 REVERT JUMPDEST SWAP2 SWAP1 DUP3 ADD DUP1 SWAP3 GT PUSH2 0x2FE JUMPI JUMP JUMPDEST SWAP1 PUSH1 0x4 DUP2 LT ISZERO PUSH2 0x3E5 JUMPI PUSH1 0xFF DUP1 NOT DUP4 SLOAD AND SWAP2 AND OR SWAP1 SSTORE JUMP JUMPDEST SWAP1 PUSH8 0xFFFFFFFFFFFFFFFF PUSH1 0x48 SHL DUP3 SLOAD SWAP2 PUSH1 0x48 SHL AND SWAP1 PUSH8 0xFFFFFFFFFFFFFFFF PUSH1 0x48 SHL NOT AND OR SWAP1 SSTORE JUMP JUMPDEST PUSH1 0x0 NOT DUP2 EQ PUSH2 0x2FE JUMPI PUSH1 0x1 ADD SWAP1 JUMP JUMPDEST DUP2 ISZERO PUSH2 0x1398 JUMPI DIV SWAP1 JUMP JUMPDEST PUSH4 0x4E487B71 PUSH1 0xE0 SHL PUSH1 0x0 MSTORE PUSH1 0x12 PUSH1 0x4 MSTORE PUSH1 0x24 PUSH1 0x0 REVERT JUMPDEST PUSH1 0x0 DUP2 DUP2 MSTORE PUSH1 0x1 SWAP1 PUSH1 0x20 SWAP1 DUP3 DUP3 MSTORE PUSH1 0x40 SWAP1 DUP2 DUP2 KECCAK256 SWAP1 PUSH1 0x6 DUP3 ADD SWAP1 DUP2 SLOAD SWAP6 PUSH1 0x1 PUSH1 0x1 PUSH1 0x40 SHL SUB SWAP2 DUP3 DUP9 PUSH1 0x8 SHR AND PUSH2 0x13E5 DUP2 ISZERO ISZERO PUSH2 0x128F JUMP JUMPDEST PUSH1 0xFF DUP10 AND PUSH1 0x4 DUP2 LT ISZERO PUSH2 0x15F6 JUMPI SWAP1 PUSH2 0xE82 PUSH2 0x1400 SWAP3 ISZERO PUSH2 0x12DB JUMP JUMPDEST TIMESTAMP LT PUSH2 0x15A6 JUMPI PUSH1 0x4 DUP6 ADD SWAP8 DUP9 SLOAD ISZERO PUSH2 0x1555 JUMPI POP DUP1 DUP1 SWAP6 DUP11 DUP4 MSTORE PUSH1 0x3 DUP1 DUP11 MSTORE DUP9 DUP5 KECCAK256 DUP6 DUP6 SWAP1 JUMPDEST PUSH2 0x14D5 JUMPI JUMPDEST POP POP POP PUSH1 0x5 ADD SSTORE PUSH1 0x64 DUP6 MUL DUP6 DUP2 DIV PUSH1 0x64 EQ DUP7 ISZERO OR ISZERO PUSH2 0x14C1 JUMPI PUSH1 0x60 SWAP8 SWAP6 SWAP4 PUSH1 0xFF SWAP4 DUP11 SWAP9 SWAP7 SWAP4 PUSH2 0x147F PUSH2 0x149C SWAP5 PUSH32 0xEB29A1AEFB4ADD57DAFF1EDF5E2DCE0EEDAEC22BA8FE902486616367A20DD1F9 SWAP14 SLOAD SWAP1 PUSH2 0x138E JUMP JUMPDEST PUSH1 0x8 SLOAD GT SWAP1 POP PUSH2 0x14B6 JUMPI PUSH2 0x1494 SWAP1 JUMPDEST DUP5 PUSH2 0x133F JUMP JUMPDEST TIMESTAMP AND DUP3 PUSH2 0x1357 JUMP JUMPDEST SLOAD AND SWAP4 SLOAD SWAP3 PUSH2 0x14AD DUP4 MLOAD DUP1 SWAP7 PUSH2 0x1282 JUMP JUMPDEST DUP5 ADD MSTORE DUP3 ADD MSTORE LOG2 JUMP JUMPDEST POP PUSH2 0x1494 PUSH1 0x2 PUSH2 0x148E JUMP JUMPDEST PUSH4 0x4E487B71 PUSH1 0xE0 SHL DUP3 MSTORE PUSH1 0x11 PUSH1 0x4 MSTORE PUSH1 0x24 DUP3 REVERT JUMPDEST SWAP1 SWAP2 SWAP3 SWAP4 DUP3 SLOAD DUP3 LT ISZERO PUSH2 0x154E JUMPI POP DUP13 DUP6 MSTORE PUSH1 0x2 DUP1 DUP13 MSTORE DUP11 DUP7 KECCAK256 PUSH2 0x14F8 DUP4 DUP6 PUSH2 0x126A JUMP JUMPDEST SWAP1 SLOAD SWAP1 DUP7 SHL SHR PUSH1 0x1 PUSH1 0x1 PUSH1 0xA0 SHL SUB AND DUP8 MSTORE DUP13 MSTORE DUP11 DUP7 KECCAK256 DUP8 DUP2 ADD SLOAD DUP7 SLOAD EQ PUSH2 0x152A JUMPI JUMPDEST POP POP SWAP1 DUP6 DUP1 SWAP4 SWAP3 ADD DUP10 SWAP5 SWAP4 PUSH2 0x1425 JUMP JUMPDEST ADD DUP1 SLOAD PUSH1 0xFF NOT AND DUP8 OR SWAP1 SSTORE SWAP8 DUP6 SWAP3 SWAP2 SWAP1 DUP4 SWAP1 PUSH2 0x1545 SWAP1 PUSH2 0x137F JUMP JUMPDEST SWAP10 SWAP2 SWAP3 SWAP4 PUSH2 0x151A JUMP JUMPDEST SWAP4 SWAP3 PUSH2 0x142A JUMP JUMPDEST PUSH32 0xEB29A1AEFB4ADD57DAFF1EDF5E2DCE0EEDAEC22BA8FE902486616367A20DD1F9 SWAP9 POP DUP2 SWAP6 POP PUSH1 0x60 SWAP8 SWAP7 SWAP5 SWAP2 SWAP4 PUSH1 0xFF SWAP4 PUSH2 0x1597 SWAP3 DUP6 NOT AND OR DUP4 SSTORE TIMESTAMP AND DUP3 PUSH2 0x1357 JUMP JUMPDEST SLOAD AND SWAP4 PUSH2 0x14AD DUP4 MLOAD DUP1 SWAP7 PUSH2 0x1282 JUMP JUMPDEST DUP6 MLOAD PUSH3 0x461BCD PUSH1 0xE5 SHL DUP2 MSTORE PUSH1 0x4 DUP2 ADD DUP9 SWAP1 MSTORE PUSH1 0x23 PUSH1 0x24 DUP3 ADD MSTORE PUSH32 0x50686F746F6E696356657269666965723A2077696E646F77207374696C6C206F PUSH1 0x44 DUP3 ADD MSTORE PUSH3 0x3832B7 PUSH1 0xE9 SHL PUSH1 0x64 DUP3 ADD MSTORE PUSH1 0x84 SWAP1 REVERT JUMPDEST PUSH4 0x4E487B71 PUSH1 0xE0 SHL DUP4 MSTORE PUSH1 0x21 PUSH1 0x4 MSTORE PUSH1 0x24 DUP4 REVERT JUMPDEST PUSH1 0x80 DUP2 ADD SWAP1 DUP2 LT PUSH1 0x1 PUSH1 0x1 PUSH1 0x40 SHL SUB DUP3 GT OR PUSH2 0x1625 JUMPI PUSH1 0x40 MSTORE JUMP JUMPDEST PUSH4 0x4E487B71 PUSH1 0xE0 SHL PUSH1 0x0 MSTORE PUSH1 0x41 PUSH1 0x4 MSTORE PUSH1 0x24 PUSH1 0x0 REVERT JUMPDEST PUSH2 0x140 DUP2 ADD SWAP1 DUP2 LT PUSH1 0x1 PUSH1 0x1 PUSH1 0x40 SHL SUB DUP3 GT OR PUSH2 0x1625 JUMPI PUSH1 0x40 MSTORE JUMP JUMPDEST SWAP1 PUSH1 0x1F DUP1 NOT SWAP2 ADD AND DUP2 ADD SWAP1 DUP2 LT PUSH1 0x1 PUSH1 0x1 PUSH1 0x40 SHL SUB DUP3 GT OR PUSH2 0x1625 JUMPI PUSH1 0x40 MSTORE JUMP JUMPDEST RETURNDATASIZE ISZERO PUSH2 0x16B2 JUMPI RETURNDATASIZE SWAP1 PUSH1 0x1 PUSH1 0x1 PUSH1 0x40 SHL SUB DUP3 GT PUSH2 0x1625 JUMPI PUSH1 0x40 MLOAD SWAP2 PUSH2 0x16A6 PUSH1 0x1F DUP3 ADD PUSH1 0x1F NOT AND PUSH1 0x20 ADD DUP5 PUSH2 0x1657 JUMP JUMPDEST DUP3 MSTORE RETURNDATASIZE PUSH1 0x0 PUSH1 0x20 DUP5 ADD RETURNDATACOPY JUMP JUMPDEST PUSH1 0x60 SWAP1 JUMP JUMPDEST PUSH1 0x0 DUP1 MLOAD PUSH1 0x20 PUSH2 0x1714 DUP4 CODECOPY DUP2 MLOAD SWAP2 MSTORE PUSH1 0x2 DUP2 SLOAD EQ PUSH2 0x16D5 JUMPI PUSH1 0x2 SWAP1 SSTORE JUMP JUMPDEST PUSH1 0x40 MLOAD PUSH4 0x3EE5AEB5 PUSH1 0xE0 SHL DUP2 MSTORE PUSH1 0x4 SWAP1 REVERT JUMPDEST PUSH1 0x0 SLOAD PUSH1 0x1 PUSH1 0x1 PUSH1 0xA0 SHL SUB AND CALLER SUB PUSH2 0x16FB JUMPI JUMP JUMPDEST PUSH1 0x40 MLOAD PUSH4 0x118CDAA7 PUSH1 0xE0 SHL DUP2 MSTORE CALLER PUSH1 0x4 DUP3 ADD MSTORE PUSH1 0x24 SWAP1 REVERT INVALID SWAP12 PUSH24 0x9B17422D0DF92223018B32B4D1FA46E071723D6817E2486D STOP EXTCODESIZE 0xEC 0xC5 PUSH0 STOP LOG2 PUSH5 0x6970667358 0x22 SLT KECCAK256 0xC0 0xB9 MSTORE PUSH4 0x9499A0B8 0xDF 0xC7 0xC8 SGT CALL BLOBBASEFEE MSTORE EXP CALLCODE EXTCODESIZE COINBASE 0xF6 0xC EXP INVALID COINBASE 0x4F EXP 0xBA AND MLOAD SWAP3 PUSH5 0x1464736F6C PUSH4 0x43000818 STOP CALLER "},"methodIdentifiers":{"allBpdIds(uint256)":"ade5b3b3","bpdRecords(bytes32)":"9900aeec","claimReward(bytes32)":"f5414023","consensusThreshold()":"f9b0b5b9","getBPDRecord(bytes32)":"b55a1e6a","getStake(bytes32,address)":"5399ab4c","getVerifiers(bytes32)":"79bf1a37","minStake()":"375b3c0a","owner()":"8da5cb5b","renounceOwnership()":"715018a6","resolveBPD(bytes32)":"380a67bb","setConsensusThreshold(uint256)":"88d2209b","setMinStake(uint256)":"8c80fd90","setVerificationWindow(uint256)":"85af47d5","stakeAndVerify(bytes32,bytes32)":"3fca40cf","stakes(bytes32,address)":"a7b9828f","submitBPD(bytes32,bytes32,address)":"a2626a5b","totalBPDs()":"da3f2661","totalSlashed(address)":"30f92439","transferOwnership(address)":"f2fde38b","verificationWindow()":"f79f55b6","verifierList(bytes32,uint256)":"55bf8c57","verifierReputation(address)":"1aea9fd1","verifierRewardBps()":"06a39213"}}}}}