{"contracts/PhotonicVitality.sol":{"PhotonicVitality":{"abi":[{"inputs":[{"internalType":"address","name":"_registry","type":"address"}],"stateMutability":"nonpayable","type":"constructor"},{"inputs":[{"internalType":"address","name":"owner","type":"address"}],"name":"OwnableInvalidOwner","type":"error"},{"inputs":[{"internalType":"address","name":"account","type":"address"}],"name":"OwnableUnauthorizedAccount","type":"error"},{"inputs":[],"name":"ReentrancyGuardReentrantCall","type":"error"},{"anonymous":false,"inputs":[{"indexed":true,"internalType":"address","name":"agent","type":"address"},{"indexed":false,"internalType":"uint256","name":"finalVitality","type":"uint256"},{"indexed":false,"internalType":"uint256","name":"threshold","type":"uint256"}],"name":"AgentKilled","type":"event"},{"anonymous":false,"inputs":[{"indexed":true,"internalType":"address","name":"previousOwner","type":"address"},{"indexed":true,"internalType":"address","name":"newOwner","type":"address"}],"name":"OwnershipTransferred","type":"event"},{"anonymous":false,"inputs":[{"indexed":true,"internalType":"address","name":"agent","type":"address"},{"indexed":true,"internalType":"address","name":"sponsor","type":"address"},{"indexed":false,"internalType":"uint256","name":"bond","type":"uint256"}],"name":"ResurrectionBonded","type":"event"},{"anonymous":false,"inputs":[{"indexed":true,"internalType":"address","name":"agent","type":"address"},{"indexed":true,"internalType":"address","name":"sponsor","type":"address"},{"indexed":false,"internalType":"uint256","name":"slashed","type":"uint256"}],"name":"ResurrectionFailed","type":"event"},{"anonymous":false,"inputs":[{"indexed":true,"internalType":"address","name":"agent","type":"address"},{"indexed":true,"internalType":"address","name":"sponsor","type":"address"}],"name":"ResurrectionSucceeded","type":"event"},{"anonymous":false,"inputs":[{"indexed":true,"internalType":"address","name":"agent","type":"address"},{"indexed":false,"internalType":"uint256","name":"decayAmount","type":"uint256"},{"indexed":false,"internalType":"uint256","name":"newVitality","type":"uint256"}],"name":"VitalityDecayed","type":"event"},{"anonymous":false,"inputs":[{"indexed":true,"internalType":"address","name":"agent","type":"address"},{"indexed":false,"internalType":"uint256","name":"newVitality","type":"uint256"},{"indexed":false,"internalType":"uint256","name":"totalBPDs","type":"uint256"}],"name":"VitalityUpdated","type":"event"},{"inputs":[],"name":"ALPHA","outputs":[{"internalType":"uint256","name":"","type":"uint256"}],"stateMutability":"view","type":"function"},{"inputs":[],"name":"BETA","outputs":[{"internalType":"uint256","name":"","type":"uint256"}],"stateMutability":"view","type":"function"},{"inputs":[],"name":"DELTA","outputs":[{"internalType":"uint256","name":"","type":"uint256"}],"stateMutability":"view","type":"function"},{"inputs":[],"name":"EPSILON","outputs":[{"internalType":"uint256","name":"","type":"uint256"}],"stateMutability":"view","type":"function"},{"inputs":[],"name":"GAMMA","outputs":[{"internalType":"uint256","name":"","type":"uint256"}],"stateMutability":"view","type":"function"},{"inputs":[],"name":"RESURRECTION_BPD_REQUIRED","outputs":[{"internalType":"uint256","name":"","type":"uint256"}],"stateMutability":"view","type":"function"},{"inputs":[],"name":"RESURRECTION_WINDOW","outputs":[{"internalType":"uint256","name":"","type":"uint256"}],"stateMutability":"view","type":"function"},{"inputs":[],"name":"SCALE","outputs":[{"internalType":"uint256","name":"","type":"uint256"}],"stateMutability":"view","type":"function"},{"inputs":[],"name":"V_MAX_MATURE","outputs":[{"internalType":"uint256","name":"","type":"uint256"}],"stateMutability":"view","type":"function"},{"inputs":[],"name":"V_MIN_GENESIS","outputs":[{"internalType":"uint256","name":"","type":"uint256"}],"stateMutability":"view","type":"function"},{"inputs":[{"internalType":"address","name":"agent","type":"address"}],"name":"applyDecay","outputs":[],"stateMutability":"nonpayable","type":"function"},{"inputs":[{"internalType":"address","name":"agent","type":"address"}],"name":"checkResurrectionExpiry","outputs":[],"stateMutability":"nonpayable","type":"function"},{"inputs":[],"name":"decayInterval","outputs":[{"internalType":"uint256","name":"","type":"uint256"}],"stateMutability":"view","type":"function"},{"inputs":[{"internalType":"address","name":"agent","type":"address"}],"name":"getCurrentVitality","outputs":[{"internalType":"uint256","name":"","type":"uint256"}],"stateMutability":"view","type":"function"},{"inputs":[],"name":"getDynamicThreshold","outputs":[{"internalType":"uint256","name":"","type":"uint256"}],"stateMutability":"view","type":"function"},{"inputs":[{"internalType":"address","name":"agent","type":"address"}],"name":"getVitalityState","outputs":[{"components":[{"internalType":"uint256","name":"vitality","type":"uint256"},{"internalType":"uint256","name":"bpdQualityAccum","type":"uint256"},{"internalType":"uint256","name":"compositionalSuccesses","type":"uint256"},{"internalType":"uint256","name":"surplusAccum","type":"uint256"},{"internalType":"uint256","name":"diversityScore","type":"uint256"},{"internalType":"uint256","name":"resurrectionVouches","type":"uint256"},{"internalType":"uint256","name":"totalBPDs","type":"uint256"},{"internalType":"uint256","name":"totalDeliveries","type":"uint256"},{"internalType":"uint64","name":"lastDecayAt","type":"uint64"},{"internalType":"bool","name":"inResurrectionTrial","type":"bool"},{"internalType":"uint64","name":"resurrectionTrialStart","type":"uint64"},{"internalType":"uint256","name":"resurrectionBPDCount","type":"uint256"},{"internalType":"address","name":"resurrectionSponsor","type":"address"}],"internalType":"struct PhotonicVitality.VitalityState","name":"","type":"tuple"}],"stateMutability":"view","type":"function"},{"inputs":[{"internalType":"address","name":"agent","type":"address"}],"name":"isAboveThreshold","outputs":[{"internalType":"bool","name":"","type":"bool"}],"stateMutability":"view","type":"function"},{"inputs":[],"name":"lambdaDecay","outputs":[{"internalType":"uint256","name":"","type":"uint256"}],"stateMutability":"view","type":"function"},{"inputs":[],"name":"marketplaceMaturity","outputs":[{"internalType":"uint256","name":"","type":"uint256"}],"stateMutability":"view","type":"function"},{"inputs":[],"name":"minResurrectionBond","outputs":[{"internalType":"uint256","name":"","type":"uint256"}],"stateMutability":"view","type":"function"},{"inputs":[],"name":"muSurplus","outputs":[{"internalType":"uint256","name":"","type":"uint256"}],"stateMutability":"view","type":"function"},{"inputs":[],"name":"owner","outputs":[{"internalType":"address","name":"","type":"address"}],"stateMutability":"view","type":"function"},{"inputs":[{"internalType":"address","name":"agent","type":"address"}],"name":"postResurrectionBond","outputs":[],"stateMutability":"payable","type":"function"},{"inputs":[{"internalType":"address","name":"agent","type":"address"},{"internalType":"uint256","name":"bpdQualityScore","type":"uint256"},{"internalType":"uint256","name":"surplusGenerated","type":"uint256"},{"internalType":"bool","name":"wasCompositional","type":"bool"}],"name":"recordBPD","outputs":[],"stateMutability":"nonpayable","type":"function"},{"inputs":[],"name":"registry","outputs":[{"internalType":"contract IPhotonicRegistry","name":"","type":"address"}],"stateMutability":"view","type":"function"},{"inputs":[],"name":"renounceOwnership","outputs":[],"stateMutability":"nonpayable","type":"function"},{"inputs":[{"internalType":"address","name":"","type":"address"}],"name":"resurrectBonds","outputs":[{"internalType":"address","name":"sponsor","type":"address"},{"internalType":"address","name":"agent","type":"address"},{"internalType":"uint256","name":"bondAmount","type":"uint256"},{"internalType":"uint64","name":"bondedAt","type":"uint64"},{"internalType":"bool","name":"active","type":"bool"},{"internalType":"bool","name":"slashed","type":"bool"}],"stateMutability":"view","type":"function"},{"inputs":[{"internalType":"address","name":"agent","type":"address"},{"internalType":"uint256","name":"score","type":"uint256"}],"name":"setAgentDiversityScore","outputs":[],"stateMutability":"nonpayable","type":"function"},{"inputs":[{"internalType":"uint256","name":"_interval","type":"uint256"}],"name":"setDecayInterval","outputs":[],"stateMutability":"nonpayable","type":"function"},{"inputs":[{"internalType":"uint256","name":"_lambda","type":"uint256"},{"internalType":"uint256","name":"_mu","type":"uint256"}],"name":"setDecayParams","outputs":[],"stateMutability":"nonpayable","type":"function"},{"inputs":[{"internalType":"uint256","name":"maturity","type":"uint256"}],"name":"setMarketplaceMaturity","outputs":[],"stateMutability":"nonpayable","type":"function"},{"inputs":[{"internalType":"uint256","name":"_min","type":"uint256"}],"name":"setMinResurrectionBond","outputs":[],"stateMutability":"nonpayable","type":"function"},{"inputs":[{"internalType":"address","name":"newOwner","type":"address"}],"name":"transferOwnership","outputs":[],"stateMutability":"nonpayable","type":"function"},{"inputs":[{"internalType":"address","name":"","type":"address"}],"name":"vitality","outputs":[{"internalType":"uint256","name":"vitality","type":"uint256"},{"internalType":"uint256","name":"bpdQualityAccum","type":"uint256"},{"internalType":"uint256","name":"compositionalSuccesses","type":"uint256"},{"internalType":"uint256","name":"surplusAccum","type":"uint256"},{"internalType":"uint256","name":"diversityScore","type":"uint256"},{"internalType":"uint256","name":"resurrectionVouches","type":"uint256"},{"internalType":"uint256","name":"totalBPDs","type":"uint256"},{"internalType":"uint256","name":"totalDeliveries","type":"uint256"},{"internalType":"uint64","name":"lastDecayAt","type":"uint64"},{"internalType":"bool","name":"inResurrectionTrial","type":"bool"},{"internalType":"uint64","name":"resurrectionTrialStart","type":"uint64"},{"internalType":"uint256","name":"resurrectionBPDCount","type":"uint256"},{"internalType":"address","name":"resurrectionSponsor","type":"address"}],"stateMutability":"view","type":"function"},{"inputs":[],"name":"withdrawSlashedBonds","outputs":[],"stateMutability":"nonpayable","type":"function"},{"stateMutability":"payable","type":"receive"}],"evm":{"bytecode":{"linkReferences":{},"object":"60803461010657601f611a5e38819003918201601f19168301916001600160401b0383118484101761010b5780849260209460405283398101031261010657516001600160a01b0390818116908190036101065733156100ed5760005460018060a01b0319903382821617600055604051933391167f8be0079c531659141344cd1fd0a4f28419497f9722a3daafe3b4186f6b6457e0600080a360017f9b779b17422d0df92223018b32b4d1fa46e071723d6817e2486d003becc55f0055662386f26fc100006005556201518060065560056007556003600855600354161760035561193c90816101228239f35b604051631e4fbdf760e01b815260006004820152602490fd5b600080fd5b634e487b7160e01b600052604160045260246000fdfe60808060405260048036101561001f575b5050361561001d57600080fd5b005b600091823560e01c90816306b51d42146113dd57508063071a75411461049e578063118d206e146113bf578063249acb511461138d5780632e984a27146111ba5780633b7a14e31461119c5780634591b3741461114d57806353d4cfe0146110da5780635def4da714610e89578063715018a614610e2f5780637b10399914610e065780637ca03c3914610dea5780638a248b4c14610dc95780638afec09b14610d435780638b9880c0146109d45780638da5cb5b146109ad57806392f883cb146108db578063a1e8838714610887578063ad32fd0a1461086a578063b074d4071461084e578063b0805ae414610830578063b0b88d74146107b1578063b0bb1c5a14610795578063b3d78bb11461075c578063b6334aee1461073e578063c9405762146104e0578063cb2a7287146104c4578063d12c952b14610499578063e9815430146104a3578063eba0df6e1461049e578063ecb5fff614610499578063eced552614610473578063edfcc43714610271578063f2fde38b146101e15763fadb78ee0361001057346101dd5760203660031901126101dd578035906101c56115e1565b6101d9670de0b6b3a7640000831115611562565b5580f35b5080fd5b50346101dd5760203660031901126101dd576101fb61141a565b6102036115e1565b6001600160a01b039081169182156102595750600054826bffffffffffffffffffffffff60a01b821617600055167f8be0079c531659141344cd1fd0a4f28419497f9722a3daafe3b4186f6b6457e0600080a380f35b604051631e4fbdf760e01b8152908101849052602490fd5b50346101dd576020908160031936011261046f5761028d61141a565b916102978361164f565b6102a08361172a565b9160018060a01b038094169384865260018352836040872055856102d6670de0b6b3a76400006102d085546115a9565b046114f1565b9182861080610402575b610319575b50857f1e47c2b38e942a794065b3eda38de29674d535197655c51a92d9bc44b436346060408688825191868352820152a280f35b6003541692833b156101dd578660848392836040519788948593630625254b60e11b855284015260406024840152600e60448401526d766974616c6974795f646563617960901b60648401525af19283156103f55786936103d6575b505092604092917f2f2d096570460a7ea0f29dc5d62d2aa6ac728fbd32af2a863602e246adf9111f847f1e47c2b38e942a794065b3eda38de29674d535197655c51a92d9bc44b43634609681519085825286820152a29281925085386102e5565b6103e3919294935061147e565b6103f1579083908538610375565b8480fd5b50604051903d90823e3d90fd5b50602485826003541660405192838092631703e5f960e01b82528c8a8301525afa908115610464578391610437575b506102e0565b6104579150863d881161045d575b61044f8183611491565b81019061152a565b38610431565b503d610445565b6040513d85823e3d90fd5b8280fd5b82346104965780600319360112610496576020604051670de0b6b3a76400008152f35b80fd5b611430565b6113f9565b50346101dd5760203660031901126101dd576104bd6115e1565b3560065580f35b8234610496578060031936011261049657602060405160148152f35b50346101dd5760803660031901126101dd576104fa61141a565b906064359060443582151583036103f1576105136115e1565b60018060a01b0393848116948587526020936001855260408820956105378461164f565b60018701610548602435825461151d565b90556006870194610559865461159a565b865560078801610569815461159a565b905580610727575b50610712575b60ff600887015460401c166105c9575b5050917f0b455be0c77127a4af822900aed37d161c8886f776f830c8b5ce6754647eab1393916105b860409461172a565b80935554908351928352820152a280f35b6003600987016105d9815461159a565b809155106105875786600052600185526040600020906002865260056040600020926008810160ff60401b19908181541690556003850190815416905501610621815461159a565b905582825416600052600186526005604060002001610640815461159a565b90556000808080868654166002870154905af161065b6114b2565b50156106c25750604094927f0b455be0c77127a4af822900aed37d161c8886f776f830c8b5ce6754647eab139694926105b8925416887fce951a09aaa0a3c8279838afc01e9ea534f1a2b34e1d0daabf6814f44a2068ea600080a392945081939550610587565b60405162461bcd60e51b81529081018690526024808201527f50686f746f6e6963566974616c6974793a20626f6e642072657475726e2066616044820152631a5b195960e21b6064820152608490fd5b60028601610720815461159a565b9055610577565b6107366003890191825461151d565b905538610571565b82346104965780600319360112610496576020600654604051908152f35b8234610496576020366003190112610496576020906040906001600160a01b0361078461141a565b168152600183522054604051908152f35b82346104965780600319360112610496576020604051601e8152f35b50346101dd5760403660031901126101dd578035602435916107d16115e1565b603282111580610825575b156107eb575060075560085580f35b60649060206040519162461bcd60e51b83528201526013602482015272756e726561736f6e61626c6520706172616d7360681b6044820152fd5b5060328311156107dc565b82346104965780600319360112610496576020600554604051908152f35b8234610496578060031936011261049657602060405160558152f35b50346101dd57816003193601126101dd5760209054604051908152f35b50346101dd5760403660031901126101dd576108a161141a565b90602435916108ae6115e1565b6108c2670de0b6b3a7640000841115611562565b6001600160a01b03168352600160205260408320015580f35b50346101dd5760203660031901126101dd576101a0916001600160a01b0391906040908361090761141a565b16815260016020522080549260018201549260028301549060038401549084015460058501546006860154916007870154936008880154956001600160401b0397600a60098b01549a015416996040519b8c5260208c015260408b015260608a0152608089015260a088015260c087015260e086015281811661010086015260ff8160401c16151561012086015260481c16610140840152610160830152610180820152f35b8234610496578060031936011261049657546040516001600160a01b039091168152602090f35b506020908160031936011261046f576109eb61141a565b906109f461160d565b6005543410610cff57600354604051631703e5f960e01b81526001600160a01b03938416838201819052939185908290602490829086165afa908115610cf4578691610cd7575b50610c95578285526002845260ff600360408720015460401c16610c43576001600160401b0360405160c0810181811083821117610c3057916703782dace9d90000918894936040523381528787818301938185526003604085019434865260608101958342168752600260808301966001885260a08401968d88528d52528960408c20925116976bffffffffffffffffffffffff60a01b98898454161783558a60018401915116898254161790555160028201550193511669ff00000000000000000060ff60401b85549451151560401b169251151560481b169269ffffffffffffffffffff191617171790556001875260408420906008820168010000000000000000815470ffffffffffffffff0000000000000000004260481b169070ffffffffffffffffff0000000000000000191617179055846009830155600a8201903390825416179055556003541691823b156101dd5760448491836040519586948593630621c93960e21b85528401523360248401525af18015610c2557610c12575b507fe7504388ce145ddf2f87bce15593f0f8dbf8bf637011138ed475304a9154ee34604051923484523393a360017f9b779b17422d0df92223018b32b4d1fa46e071723d6817e2486d003becc55f005580f35b610c1e9093919361147e565b9138610bbf565b6040513d86823e3d90fd5b634e487b7160e01b885260418552602488fd5b60405162461bcd60e51b8152808301859052602560248201527f50686f746f6e6963566974616c6974793a20626f6e6420616c72656164792061604482015264637469766560d81b6064820152608490fd5b60648285806040519262461bcd60e51b845283015260248201527f50686f746f6e6963566974616c6974793a206167656e74206e6f7420646561646044820152fd5b610cee9150853d871161045d5761044f8183611491565b38610a3b565b6040513d88823e3d90fd5b60405162461bcd60e51b8152908101839052601e60248201527f50686f746f6e6963566974616c6974793a20626f6e6420746f6f206c6f7700006044820152606490fd5b82346104965760203660031901126104965760c0906001600160a01b039060ff9060409083610d7061141a565b1681526002602052208281541692600182015416906003600282015491015491604051948552602085015260408401526001600160401b0381166060840152818160401c161515608084015260481c16151560a0820152f35b50346101dd5760203660031901126101dd57610de36115e1565b3560055580f35b8234610496578060031936011261049657602060405160038152f35b82346104965780600319360112610496576003546040516001600160a01b039091168152602090f35b8234610496578060031936011261049657610e486115e1565b80546001600160a01b03198116825581906001600160a01b03167f8be0079c531659141344cd1fd0a4f28419497f9722a3daafe3b4186f6b6457e08280a380f35b50346101dd5760208060031936011261046f57610ea461141a565b91610ead61160d565b60018060a01b03809316918285526001815260408520600881015460ff8160401c1615611096576001600160401b039060481c166202a300810180911161108357421061103357600960039101541015610fe45782855260018152604085209360028252600860408720950160ff60401b19815416905560038501690100000000000000000069ffff00000000000000001982541617905585816003541693843b156101dd576024869183604051978894859363273476db60e21b85528401525af1908115610cf4577f5a4793cb20fc90657a7cb58a04c0ec68e38ec275211c47ee9a54275a28eaa06c93600292610fd5575b50855416940154604051908152a360017f9b779b17422d0df92223018b32b4d1fa46e071723d6817e2486d003becc55f005580f35b610fde9061147e565b38610fa0565b60405162461bcd60e51b815291820152602360248201527f50686f746f6e6963566974616c6974793a20616c72656164792073756363656560448201526219195960ea1b606482015260849150fd5b60405162461bcd60e51b81528084018390526024808201527f50686f746f6e6963566974616c6974793a20747269616c207374696c6c2061636044820152637469766560e01b6064820152608490fd5b634e487b7160e01b875260118452602487fd5b60405162461bcd60e51b8152808501849052601e60248201527f50686f746f6e6963566974616c6974793a206e6f7420696e20747269616c00006044820152606490fd5b50346101dd57816003193601126101dd576110f36115e1565b8180808060018060a01b0381541647905af161110d6114b2565b5015611117575080f35b60649060206040519162461bcd60e51b8352820152600f60248201526e1d1c985b9cd9995c8819985a5b1959608a1b6044820152fd5b50346101dd5760203660031901126101dd57611192670de0b6b3a76400006102d0604060209560018060a01b0361118261141a565b16815260018752205493546115a9565b1115604051908152f35b82346104965780600319360112610496576020600754604051908152f35b50346101dd5760203660031901126101dd5760406101a0926111da61141a565b8161018084516111e98161144c565b82815282602082015282868201528260608201528260808201528260a08201528260c08201528260e082015282610100820152826101208201528261014082015282610160820152015260018060a01b03168152600160205220604051906112508261144c565b8054928383526001820154602084015260028201546040840152600382015460608401528101546080830152600581015460a0830152600681015460c0830152600781015460e08301526001600160401b03600882015481811661010085015260ff8160401c16151561012085015260481c166101408301526009810154610160830152600a60018060a01b03910154166101808201526040519182526020810151602083015260408101516040830152606081015160608301526080810151608083015260a081015160a083015260c081015160c083015260e081015160e08301526001600160401b036101008201511661010083015261012081015115156101208301526001600160401b036101408201511661014083015261016081015161016083015261018060018060a01b0391015116610180820152f35b50903461049657806003193601126104965760206113b7670de0b6b3a76400006102d085546115a9565b604051908152f35b823461049657806003193601126104965760206040516202a3008152f35b8390346101dd57816003193601126101dd576020906008548152f35b3461141557600036600319011261141557602060405160198152f35b600080fd5b600435906001600160a01b038216820361141557565b34611415576000366003190112611415576020604051600a8152f35b6101a081019081106001600160401b0382111761146857604052565b634e487b7160e01b600052604160045260246000fd5b6001600160401b03811161146857604052565b90601f801991011681019081106001600160401b0382111761146857604052565b3d156114ec573d906001600160401b03821161146857604051916114e0601f8201601f191660200184611491565b82523d6000602084013e565b606090565b906702c68af0bb14000091820180921161150757565b634e487b7160e01b600052601160045260246000fd5b9190820180921161150757565b90816020910312611415575180151581036114155790565b811561154c570490565b634e487b7160e01b600052601260045260246000fd5b1561156957565b60405162461bcd60e51b81526020600482015260096024820152686d6178205343414c4560b81b6044820152606490fd5b60001981146115075760010190565b90670905438e60010000918083029283040361150757565b8181029291811591840414171561150757565b9190820391821161150757565b6000546001600160a01b031633036115f557565b60405163118cdaa760e01b8152336004820152602490fd5b7f9b779b17422d0df92223018b32b4d1fa46e071723d6817e2486d003becc55f00600281541461163d5760029055565b604051633ee5aeb560e01b8152600490fd5b6001600160a01b031660009081526001602052604090206008810180546001600160401b038082169290918315611714575061168b83426115d4565b916116996006548094611542565b92831561170c576116cf946116b16116b792866115c1565b9061151d565b166001600160401b03198254161790556007546115c1565b60648111611704575b60646116e6835492836115c1565b04808211156116fc576116f8916115d4565b9055565b505060009055565b5060646116d8565b505050505050565b925092504216906001600160401b031916179055565b6001600160a01b0316600090815260016020526040812060078101549182156118f75761175b836001840154611542565b91670de0b6b3a7640000938484116118ef575b6002820154858102908082048714901517156118db579061178e91611542565b9060038101548581116000146118c25750845b600492838301548781116000146118b95750600587935b0154600a9790888111156118a05750955b601e810290808204601e149015171561188d5760198202918083046019149015171561188d57906117f99161151d565b60198202918083046019149015171561187a57906118169161151d565b8582029180830487149015171561186757906118319161151d565b928481029481860414901517156118545750506064916118509161151d565b0490565b634e487b7160e01b825260119052602490fd5b634e487b7160e01b845260118352602484fd5b634e487b7160e01b855260118452602485fd5b634e487b7160e01b865260118552602486fd5b81810291818304149015171561188d57879004956117c9565b600590936117b8565b858102908082048714901517156118db578590046117a1565b634e487b7160e01b84526011600452602484fd5b84935061176e565b5050506703782dace9d900009056fea26469706673582212204ba56d15d983089f156b994bab3dc2a64e2c8b27ff72946905f1990de6abca8564736f6c63430008180033","opcodes":"PUSH1 0x80 CALLVALUE PUSH2 0x106 JUMPI PUSH1 0x1F PUSH2 0x1A5E CODESIZE DUP2 SWAP1 SUB SWAP2 DUP3 ADD PUSH1 0x1F NOT AND DUP4 ADD SWAP2 PUSH1 0x1 PUSH1 0x1 PUSH1 0x40 SHL SUB DUP4 GT DUP5 DUP5 LT OR PUSH2 0x10B JUMPI DUP1 DUP5 SWAP3 PUSH1 0x20 SWAP5 PUSH1 0x40 MSTORE DUP4 CODECOPY DUP2 ADD SUB SLT PUSH2 0x106 JUMPI MLOAD PUSH1 0x1 PUSH1 0x1 PUSH1 0xA0 SHL SUB SWAP1 DUP2 DUP2 AND SWAP1 DUP2 SWAP1 SUB PUSH2 0x106 JUMPI CALLER ISZERO PUSH2 0xED JUMPI PUSH1 0x0 SLOAD PUSH1 0x1 DUP1 PUSH1 0xA0 SHL SUB NOT SWAP1 CALLER DUP3 DUP3 AND OR PUSH1 0x0 SSTORE PUSH1 0x40 MLOAD SWAP4 CALLER SWAP2 AND PUSH32 0x8BE0079C531659141344CD1FD0A4F28419497F9722A3DAAFE3B4186F6B6457E0 PUSH1 0x0 DUP1 LOG3 PUSH1 0x1 PUSH32 0x9B779B17422D0DF92223018B32B4D1FA46E071723D6817E2486D003BECC55F00 SSTORE PUSH7 0x2386F26FC10000 PUSH1 0x5 SSTORE PUSH3 0x15180 PUSH1 0x6 SSTORE PUSH1 0x5 PUSH1 0x7 SSTORE PUSH1 0x3 PUSH1 0x8 SSTORE PUSH1 0x3 SLOAD AND OR PUSH1 0x3 SSTORE PUSH2 0x193C SWAP1 DUP2 PUSH2 0x122 DUP3 CODECOPY RETURN JUMPDEST PUSH1 0x40 MLOAD PUSH4 0x1E4FBDF7 PUSH1 0xE0 SHL DUP2 MSTORE PUSH1 0x0 PUSH1 0x4 DUP3 ADD MSTORE PUSH1 0x24 SWAP1 REVERT JUMPDEST PUSH1 0x0 DUP1 REVERT JUMPDEST PUSH4 0x4E487B71 PUSH1 0xE0 SHL PUSH1 0x0 MSTORE PUSH1 0x41 PUSH1 0x4 MSTORE PUSH1 0x24 PUSH1 0x0 REVERT INVALID PUSH1 0x80 DUP1 PUSH1 0x40 MSTORE PUSH1 0x4 DUP1 CALLDATASIZE LT ISZERO PUSH2 0x1F JUMPI JUMPDEST POP POP CALLDATASIZE ISZERO PUSH2 0x1D JUMPI PUSH1 0x0 DUP1 REVERT JUMPDEST STOP JUMPDEST PUSH1 0x0 SWAP2 DUP3 CALLDATALOAD PUSH1 0xE0 SHR SWAP1 DUP2 PUSH4 0x6B51D42 EQ PUSH2 0x13DD JUMPI POP DUP1 PUSH4 0x71A7541 EQ PUSH2 0x49E JUMPI DUP1 PUSH4 0x118D206E EQ PUSH2 0x13BF JUMPI DUP1 PUSH4 0x249ACB51 EQ PUSH2 0x138D JUMPI DUP1 PUSH4 0x2E984A27 EQ PUSH2 0x11BA JUMPI DUP1 PUSH4 0x3B7A14E3 EQ PUSH2 0x119C JUMPI DUP1 PUSH4 0x4591B374 EQ PUSH2 0x114D JUMPI DUP1 PUSH4 0x53D4CFE0 EQ PUSH2 0x10DA JUMPI DUP1 PUSH4 0x5DEF4DA7 EQ PUSH2 0xE89 JUMPI DUP1 PUSH4 0x715018A6 EQ PUSH2 0xE2F JUMPI DUP1 PUSH4 0x7B103999 EQ PUSH2 0xE06 JUMPI DUP1 PUSH4 0x7CA03C39 EQ PUSH2 0xDEA JUMPI DUP1 PUSH4 0x8A248B4C EQ PUSH2 0xDC9 JUMPI DUP1 PUSH4 0x8AFEC09B EQ PUSH2 0xD43 JUMPI DUP1 PUSH4 0x8B9880C0 EQ PUSH2 0x9D4 JUMPI DUP1 PUSH4 0x8DA5CB5B EQ PUSH2 0x9AD JUMPI DUP1 PUSH4 0x92F883CB EQ PUSH2 0x8DB JUMPI DUP1 PUSH4 0xA1E88387 EQ PUSH2 0x887 JUMPI DUP1 PUSH4 0xAD32FD0A EQ PUSH2 0x86A JUMPI DUP1 PUSH4 0xB074D407 EQ PUSH2 0x84E JUMPI DUP1 PUSH4 0xB0805AE4 EQ PUSH2 0x830 JUMPI DUP1 PUSH4 0xB0B88D74 EQ PUSH2 0x7B1 JUMPI DUP1 PUSH4 0xB0BB1C5A EQ PUSH2 0x795 JUMPI DUP1 PUSH4 0xB3D78BB1 EQ PUSH2 0x75C JUMPI DUP1 PUSH4 0xB6334AEE EQ PUSH2 0x73E JUMPI DUP1 PUSH4 0xC9405762 EQ PUSH2 0x4E0 JUMPI DUP1 PUSH4 0xCB2A7287 EQ PUSH2 0x4C4 JUMPI DUP1 PUSH4 0xD12C952B EQ PUSH2 0x499 JUMPI DUP1 PUSH4 0xE9815430 EQ PUSH2 0x4A3 JUMPI DUP1 PUSH4 0xEBA0DF6E EQ PUSH2 0x49E JUMPI DUP1 PUSH4 0xECB5FFF6 EQ PUSH2 0x499 JUMPI DUP1 PUSH4 0xECED5526 EQ PUSH2 0x473 JUMPI DUP1 PUSH4 0xEDFCC437 EQ PUSH2 0x271 JUMPI DUP1 PUSH4 0xF2FDE38B EQ PUSH2 0x1E1 JUMPI PUSH4 0xFADB78EE SUB PUSH2 0x10 JUMPI CALLVALUE PUSH2 0x1DD JUMPI PUSH1 0x20 CALLDATASIZE PUSH1 0x3 NOT ADD SLT PUSH2 0x1DD JUMPI DUP1 CALLDATALOAD SWAP1 PUSH2 0x1C5 PUSH2 0x15E1 JUMP JUMPDEST PUSH2 0x1D9 PUSH8 0xDE0B6B3A7640000 DUP4 GT ISZERO PUSH2 0x1562 JUMP JUMPDEST SSTORE DUP1 RETURN JUMPDEST POP DUP1 REVERT JUMPDEST POP CALLVALUE PUSH2 0x1DD JUMPI PUSH1 0x20 CALLDATASIZE PUSH1 0x3 NOT ADD SLT PUSH2 0x1DD JUMPI PUSH2 0x1FB PUSH2 0x141A JUMP JUMPDEST PUSH2 0x203 PUSH2 0x15E1 JUMP JUMPDEST PUSH1 0x1 PUSH1 0x1 PUSH1 0xA0 SHL SUB SWAP1 DUP2 AND SWAP2 DUP3 ISZERO PUSH2 0x259 JUMPI POP PUSH1 0x0 SLOAD DUP3 PUSH12 0xFFFFFFFFFFFFFFFFFFFFFFFF PUSH1 0xA0 SHL DUP3 AND OR PUSH1 0x0 SSTORE AND PUSH32 0x8BE0079C531659141344CD1FD0A4F28419497F9722A3DAAFE3B4186F6B6457E0 PUSH1 0x0 DUP1 LOG3 DUP1 RETURN JUMPDEST PUSH1 0x40 MLOAD PUSH4 0x1E4FBDF7 PUSH1 0xE0 SHL DUP2 MSTORE SWAP1 DUP2 ADD DUP5 SWAP1 MSTORE PUSH1 0x24 SWAP1 REVERT JUMPDEST POP CALLVALUE PUSH2 0x1DD JUMPI PUSH1 0x20 SWAP1 DUP2 PUSH1 0x3 NOT CALLDATASIZE ADD SLT PUSH2 0x46F JUMPI PUSH2 0x28D PUSH2 0x141A JUMP JUMPDEST SWAP2 PUSH2 0x297 DUP4 PUSH2 0x164F JUMP JUMPDEST PUSH2 0x2A0 DUP4 PUSH2 0x172A JUMP JUMPDEST SWAP2 PUSH1 0x1 DUP1 PUSH1 0xA0 SHL SUB DUP1 SWAP5 AND SWAP4 DUP5 DUP7 MSTORE PUSH1 0x1 DUP4 MSTORE DUP4 PUSH1 0x40 DUP8 KECCAK256 SSTORE DUP6 PUSH2 0x2D6 PUSH8 0xDE0B6B3A7640000 PUSH2 0x2D0 DUP6 SLOAD PUSH2 0x15A9 JUMP JUMPDEST DIV PUSH2 0x14F1 JUMP JUMPDEST SWAP2 DUP3 DUP7 LT DUP1 PUSH2 0x402 JUMPI JUMPDEST PUSH2 0x319 JUMPI JUMPDEST POP DUP6 PUSH32 0x1E47C2B38E942A794065B3EDA38DE29674D535197655C51A92D9BC44B4363460 PUSH1 0x40 DUP7 DUP9 DUP3 MLOAD SWAP2 DUP7 DUP4 MSTORE DUP3 ADD MSTORE LOG2 DUP1 RETURN JUMPDEST PUSH1 0x3 SLOAD AND SWAP3 DUP4 EXTCODESIZE ISZERO PUSH2 0x1DD JUMPI DUP7 PUSH1 0x84 DUP4 SWAP3 DUP4 PUSH1 0x40 MLOAD SWAP8 DUP9 SWAP5 DUP6 SWAP4 PUSH4 0x625254B PUSH1 0xE1 SHL DUP6 MSTORE DUP5 ADD MSTORE PUSH1 0x40 PUSH1 0x24 DUP5 ADD MSTORE PUSH1 0xE PUSH1 0x44 DUP5 ADD MSTORE PUSH14 0x766974616C6974795F6465636179 PUSH1 0x90 SHL PUSH1 0x64 DUP5 ADD MSTORE GAS CALL SWAP3 DUP4 ISZERO PUSH2 0x3F5 JUMPI DUP7 SWAP4 PUSH2 0x3D6 JUMPI JUMPDEST POP POP SWAP3 PUSH1 0x40 SWAP3 SWAP2 PUSH32 0x2F2D096570460A7EA0F29DC5D62D2AA6AC728FBD32AF2A863602E246ADF9111F DUP5 PUSH32 0x1E47C2B38E942A794065B3EDA38DE29674D535197655C51A92D9BC44B4363460 SWAP7 DUP2 MLOAD SWAP1 DUP6 DUP3 MSTORE DUP7 DUP3 ADD MSTORE LOG2 SWAP3 DUP2 SWAP3 POP DUP6 CODESIZE PUSH2 0x2E5 JUMP JUMPDEST PUSH2 0x3E3 SWAP2 SWAP3 SWAP5 SWAP4 POP PUSH2 0x147E JUMP JUMPDEST PUSH2 0x3F1 JUMPI SWAP1 DUP4 SWAP1 DUP6 CODESIZE PUSH2 0x375 JUMP JUMPDEST DUP5 DUP1 REVERT JUMPDEST POP PUSH1 0x40 MLOAD SWAP1 RETURNDATASIZE SWAP1 DUP3 RETURNDATACOPY RETURNDATASIZE SWAP1 REVERT JUMPDEST POP PUSH1 0x24 DUP6 DUP3 PUSH1 0x3 SLOAD AND PUSH1 0x40 MLOAD SWAP3 DUP4 DUP1 SWAP3 PUSH4 0x1703E5F9 PUSH1 0xE0 SHL DUP3 MSTORE DUP13 DUP11 DUP4 ADD MSTORE GAS STATICCALL SWAP1 DUP2 ISZERO PUSH2 0x464 JUMPI DUP4 SWAP2 PUSH2 0x437 JUMPI JUMPDEST POP PUSH2 0x2E0 JUMP JUMPDEST PUSH2 0x457 SWAP2 POP DUP7 RETURNDATASIZE DUP9 GT PUSH2 0x45D JUMPI JUMPDEST PUSH2 0x44F DUP2 DUP4 PUSH2 0x1491 JUMP JUMPDEST DUP2 ADD SWAP1 PUSH2 0x152A JUMP JUMPDEST CODESIZE PUSH2 0x431 JUMP JUMPDEST POP RETURNDATASIZE PUSH2 0x445 JUMP JUMPDEST PUSH1 0x40 MLOAD RETURNDATASIZE DUP6 DUP3 RETURNDATACOPY RETURNDATASIZE SWAP1 REVERT JUMPDEST DUP3 DUP1 REVERT JUMPDEST DUP3 CALLVALUE PUSH2 0x496 JUMPI DUP1 PUSH1 0x3 NOT CALLDATASIZE ADD SLT PUSH2 0x496 JUMPI PUSH1 0x20 PUSH1 0x40 MLOAD PUSH8 0xDE0B6B3A7640000 DUP2 MSTORE RETURN JUMPDEST DUP1 REVERT JUMPDEST PUSH2 0x1430 JUMP JUMPDEST PUSH2 0x13F9 JUMP JUMPDEST POP CALLVALUE PUSH2 0x1DD JUMPI PUSH1 0x20 CALLDATASIZE PUSH1 0x3 NOT ADD SLT PUSH2 0x1DD JUMPI PUSH2 0x4BD PUSH2 0x15E1 JUMP JUMPDEST CALLDATALOAD PUSH1 0x6 SSTORE DUP1 RETURN JUMPDEST DUP3 CALLVALUE PUSH2 0x496 JUMPI DUP1 PUSH1 0x3 NOT CALLDATASIZE ADD SLT PUSH2 0x496 JUMPI PUSH1 0x20 PUSH1 0x40 MLOAD PUSH1 0x14 DUP2 MSTORE RETURN JUMPDEST POP CALLVALUE PUSH2 0x1DD JUMPI PUSH1 0x80 CALLDATASIZE PUSH1 0x3 NOT ADD SLT PUSH2 0x1DD JUMPI PUSH2 0x4FA PUSH2 0x141A JUMP JUMPDEST SWAP1 PUSH1 0x64 CALLDATALOAD SWAP1 PUSH1 0x44 CALLDATALOAD DUP3 ISZERO ISZERO DUP4 SUB PUSH2 0x3F1 JUMPI PUSH2 0x513 PUSH2 0x15E1 JUMP JUMPDEST PUSH1 0x1 DUP1 PUSH1 0xA0 SHL SUB SWAP4 DUP5 DUP2 AND SWAP5 DUP6 DUP8 MSTORE PUSH1 0x20 SWAP4 PUSH1 0x1 DUP6 MSTORE PUSH1 0x40 DUP9 KECCAK256 SWAP6 PUSH2 0x537 DUP5 PUSH2 0x164F JUMP JUMPDEST PUSH1 0x1 DUP8 ADD PUSH2 0x548 PUSH1 0x24 CALLDATALOAD DUP3 SLOAD PUSH2 0x151D JUMP JUMPDEST SWAP1 SSTORE PUSH1 0x6 DUP8 ADD SWAP5 PUSH2 0x559 DUP7 SLOAD PUSH2 0x159A JUMP JUMPDEST DUP7 SSTORE PUSH1 0x7 DUP9 ADD PUSH2 0x569 DUP2 SLOAD PUSH2 0x159A JUMP JUMPDEST SWAP1 SSTORE DUP1 PUSH2 0x727 JUMPI JUMPDEST POP PUSH2 0x712 JUMPI JUMPDEST PUSH1 0xFF PUSH1 0x8 DUP8 ADD SLOAD PUSH1 0x40 SHR AND PUSH2 0x5C9 JUMPI JUMPDEST POP POP SWAP2 PUSH32 0xB455BE0C77127A4AF822900AED37D161C8886F776F830C8B5CE6754647EAB13 SWAP4 SWAP2 PUSH2 0x5B8 PUSH1 0x40 SWAP5 PUSH2 0x172A JUMP JUMPDEST DUP1 SWAP4 SSTORE SLOAD SWAP1 DUP4 MLOAD SWAP3 DUP4 MSTORE DUP3 ADD MSTORE LOG2 DUP1 RETURN JUMPDEST PUSH1 0x3 PUSH1 0x9 DUP8 ADD PUSH2 0x5D9 DUP2 SLOAD PUSH2 0x159A JUMP JUMPDEST DUP1 SWAP2 SSTORE LT PUSH2 0x587 JUMPI DUP7 PUSH1 0x0 MSTORE PUSH1 0x1 DUP6 MSTORE PUSH1 0x40 PUSH1 0x0 KECCAK256 SWAP1 PUSH1 0x2 DUP7 MSTORE PUSH1 0x5 PUSH1 0x40 PUSH1 0x0 KECCAK256 SWAP3 PUSH1 0x8 DUP2 ADD PUSH1 0xFF PUSH1 0x40 SHL NOT SWAP1 DUP2 DUP2 SLOAD AND SWAP1 SSTORE PUSH1 0x3 DUP6 ADD SWAP1 DUP2 SLOAD AND SWAP1 SSTORE ADD PUSH2 0x621 DUP2 SLOAD PUSH2 0x159A JUMP JUMPDEST SWAP1 SSTORE DUP3 DUP3 SLOAD AND PUSH1 0x0 MSTORE PUSH1 0x1 DUP7 MSTORE PUSH1 0x5 PUSH1 0x40 PUSH1 0x0 KECCAK256 ADD PUSH2 0x640 DUP2 SLOAD PUSH2 0x159A JUMP JUMPDEST SWAP1 SSTORE PUSH1 0x0 DUP1 DUP1 DUP1 DUP7 DUP7 SLOAD AND PUSH1 0x2 DUP8 ADD SLOAD SWAP1 GAS CALL PUSH2 0x65B PUSH2 0x14B2 JUMP JUMPDEST POP ISZERO PUSH2 0x6C2 JUMPI POP PUSH1 0x40 SWAP5 SWAP3 PUSH32 0xB455BE0C77127A4AF822900AED37D161C8886F776F830C8B5CE6754647EAB13 SWAP7 SWAP5 SWAP3 PUSH2 0x5B8 SWAP3 SLOAD AND DUP9 PUSH32 0xCE951A09AAA0A3C8279838AFC01E9EA534F1A2B34E1D0DAABF6814F44A2068EA PUSH1 0x0 DUP1 LOG3 SWAP3 SWAP5 POP DUP2 SWAP4 SWAP6 POP PUSH2 0x587 JUMP JUMPDEST PUSH1 0x40 MLOAD PUSH3 0x461BCD PUSH1 0xE5 SHL DUP2 MSTORE SWAP1 DUP2 ADD DUP7 SWAP1 MSTORE PUSH1 0x24 DUP1 DUP3 ADD MSTORE PUSH32 0x50686F746F6E6963566974616C6974793A20626F6E642072657475726E206661 PUSH1 0x44 DUP3 ADD MSTORE PUSH4 0x1A5B1959 PUSH1 0xE2 SHL PUSH1 0x64 DUP3 ADD MSTORE PUSH1 0x84 SWAP1 REVERT JUMPDEST PUSH1 0x2 DUP7 ADD PUSH2 0x720 DUP2 SLOAD PUSH2 0x159A JUMP JUMPDEST SWAP1 SSTORE PUSH2 0x577 JUMP JUMPDEST PUSH2 0x736 PUSH1 0x3 DUP10 ADD SWAP2 DUP3 SLOAD PUSH2 0x151D JUMP JUMPDEST SWAP1 SSTORE CODESIZE PUSH2 0x571 JUMP JUMPDEST DUP3 CALLVALUE PUSH2 0x496 JUMPI DUP1 PUSH1 0x3 NOT CALLDATASIZE ADD SLT PUSH2 0x496 JUMPI PUSH1 0x20 PUSH1 0x6 SLOAD PUSH1 0x40 MLOAD SWAP1 DUP2 MSTORE RETURN JUMPDEST DUP3 CALLVALUE PUSH2 0x496 JUMPI PUSH1 0x20 CALLDATASIZE PUSH1 0x3 NOT ADD SLT PUSH2 0x496 JUMPI PUSH1 0x20 SWAP1 PUSH1 0x40 SWAP1 PUSH1 0x1 PUSH1 0x1 PUSH1 0xA0 SHL SUB PUSH2 0x784 PUSH2 0x141A JUMP JUMPDEST AND DUP2 MSTORE PUSH1 0x1 DUP4 MSTORE KECCAK256 SLOAD PUSH1 0x40 MLOAD SWAP1 DUP2 MSTORE RETURN JUMPDEST DUP3 CALLVALUE PUSH2 0x496 JUMPI DUP1 PUSH1 0x3 NOT CALLDATASIZE ADD SLT PUSH2 0x496 JUMPI PUSH1 0x20 PUSH1 0x40 MLOAD PUSH1 0x1E DUP2 MSTORE RETURN JUMPDEST POP CALLVALUE PUSH2 0x1DD JUMPI PUSH1 0x40 CALLDATASIZE PUSH1 0x3 NOT ADD SLT PUSH2 0x1DD JUMPI DUP1 CALLDATALOAD PUSH1 0x24 CALLDATALOAD SWAP2 PUSH2 0x7D1 PUSH2 0x15E1 JUMP JUMPDEST PUSH1 0x32 DUP3 GT ISZERO DUP1 PUSH2 0x825 JUMPI JUMPDEST ISZERO PUSH2 0x7EB JUMPI POP PUSH1 0x7 SSTORE PUSH1 0x8 SSTORE DUP1 RETURN JUMPDEST PUSH1 0x64 SWAP1 PUSH1 0x20 PUSH1 0x40 MLOAD SWAP2 PUSH3 0x461BCD PUSH1 0xE5 SHL DUP4 MSTORE DUP3 ADD MSTORE PUSH1 0x13 PUSH1 0x24 DUP3 ADD MSTORE PUSH19 0x756E726561736F6E61626C6520706172616D73 PUSH1 0x68 SHL PUSH1 0x44 DUP3 ADD MSTORE REVERT JUMPDEST POP PUSH1 0x32 DUP4 GT ISZERO PUSH2 0x7DC JUMP JUMPDEST DUP3 CALLVALUE PUSH2 0x496 JUMPI DUP1 PUSH1 0x3 NOT CALLDATASIZE ADD SLT PUSH2 0x496 JUMPI PUSH1 0x20 PUSH1 0x5 SLOAD PUSH1 0x40 MLOAD SWAP1 DUP2 MSTORE RETURN JUMPDEST DUP3 CALLVALUE PUSH2 0x496 JUMPI DUP1 PUSH1 0x3 NOT CALLDATASIZE ADD SLT PUSH2 0x496 JUMPI PUSH1 0x20 PUSH1 0x40 MLOAD PUSH1 0x55 DUP2 MSTORE RETURN JUMPDEST POP CALLVALUE PUSH2 0x1DD JUMPI DUP2 PUSH1 0x3 NOT CALLDATASIZE ADD SLT PUSH2 0x1DD JUMPI PUSH1 0x20 SWAP1 SLOAD PUSH1 0x40 MLOAD SWAP1 DUP2 MSTORE RETURN JUMPDEST POP CALLVALUE PUSH2 0x1DD JUMPI PUSH1 0x40 CALLDATASIZE PUSH1 0x3 NOT ADD SLT PUSH2 0x1DD JUMPI PUSH2 0x8A1 PUSH2 0x141A JUMP JUMPDEST SWAP1 PUSH1 0x24 CALLDATALOAD SWAP2 PUSH2 0x8AE PUSH2 0x15E1 JUMP JUMPDEST PUSH2 0x8C2 PUSH8 0xDE0B6B3A7640000 DUP5 GT ISZERO PUSH2 0x1562 JUMP JUMPDEST PUSH1 0x1 PUSH1 0x1 PUSH1 0xA0 SHL SUB AND DUP4 MSTORE PUSH1 0x1 PUSH1 0x20 MSTORE PUSH1 0x40 DUP4 KECCAK256 ADD SSTORE DUP1 RETURN JUMPDEST POP CALLVALUE PUSH2 0x1DD JUMPI PUSH1 0x20 CALLDATASIZE PUSH1 0x3 NOT ADD SLT PUSH2 0x1DD JUMPI PUSH2 0x1A0 SWAP2 PUSH1 0x1 PUSH1 0x1 PUSH1 0xA0 SHL SUB SWAP2 SWAP1 PUSH1 0x40 SWAP1 DUP4 PUSH2 0x907 PUSH2 0x141A JUMP JUMPDEST AND DUP2 MSTORE PUSH1 0x1 PUSH1 0x20 MSTORE KECCAK256 DUP1 SLOAD SWAP3 PUSH1 0x1 DUP3 ADD SLOAD SWAP3 PUSH1 0x2 DUP4 ADD SLOAD SWAP1 PUSH1 0x3 DUP5 ADD SLOAD SWAP1 DUP5 ADD SLOAD PUSH1 0x5 DUP6 ADD SLOAD PUSH1 0x6 DUP7 ADD SLOAD SWAP2 PUSH1 0x7 DUP8 ADD SLOAD SWAP4 PUSH1 0x8 DUP9 ADD SLOAD SWAP6 PUSH1 0x1 PUSH1 0x1 PUSH1 0x40 SHL SUB SWAP8 PUSH1 0xA PUSH1 0x9 DUP12 ADD SLOAD SWAP11 ADD SLOAD AND SWAP10 PUSH1 0x40 MLOAD SWAP12 DUP13 MSTORE PUSH1 0x20 DUP13 ADD MSTORE PUSH1 0x40 DUP12 ADD MSTORE PUSH1 0x60 DUP11 ADD MSTORE PUSH1 0x80 DUP10 ADD MSTORE PUSH1 0xA0 DUP9 ADD MSTORE PUSH1 0xC0 DUP8 ADD MSTORE PUSH1 0xE0 DUP7 ADD MSTORE DUP2 DUP2 AND PUSH2 0x100 DUP7 ADD MSTORE PUSH1 0xFF DUP2 PUSH1 0x40 SHR AND ISZERO ISZERO PUSH2 0x120 DUP7 ADD MSTORE PUSH1 0x48 SHR AND PUSH2 0x140 DUP5 ADD MSTORE PUSH2 0x160 DUP4 ADD MSTORE PUSH2 0x180 DUP3 ADD MSTORE RETURN JUMPDEST DUP3 CALLVALUE PUSH2 0x496 JUMPI DUP1 PUSH1 0x3 NOT CALLDATASIZE ADD SLT PUSH2 0x496 JUMPI SLOAD PUSH1 0x40 MLOAD PUSH1 0x1 PUSH1 0x1 PUSH1 0xA0 SHL SUB SWAP1 SWAP2 AND DUP2 MSTORE PUSH1 0x20 SWAP1 RETURN JUMPDEST POP PUSH1 0x20 SWAP1 DUP2 PUSH1 0x3 NOT CALLDATASIZE ADD SLT PUSH2 0x46F JUMPI PUSH2 0x9EB PUSH2 0x141A JUMP JUMPDEST SWAP1 PUSH2 0x9F4 PUSH2 0x160D JUMP JUMPDEST PUSH1 0x5 SLOAD CALLVALUE LT PUSH2 0xCFF JUMPI PUSH1 0x3 SLOAD PUSH1 0x40 MLOAD PUSH4 0x1703E5F9 PUSH1 0xE0 SHL DUP2 MSTORE PUSH1 0x1 PUSH1 0x1 PUSH1 0xA0 SHL SUB SWAP4 DUP5 AND DUP4 DUP3 ADD DUP2 SWAP1 MSTORE SWAP4 SWAP2 DUP6 SWAP1 DUP3 SWAP1 PUSH1 0x24 SWAP1 DUP3 SWAP1 DUP7 AND GAS STATICCALL SWAP1 DUP2 ISZERO PUSH2 0xCF4 JUMPI DUP7 SWAP2 PUSH2 0xCD7 JUMPI JUMPDEST POP PUSH2 0xC95 JUMPI DUP3 DUP6 MSTORE PUSH1 0x2 DUP5 MSTORE PUSH1 0xFF PUSH1 0x3 PUSH1 0x40 DUP8 KECCAK256 ADD SLOAD PUSH1 0x40 SHR AND PUSH2 0xC43 JUMPI PUSH1 0x1 PUSH1 0x1 PUSH1 0x40 SHL SUB PUSH1 0x40 MLOAD PUSH1 0xC0 DUP2 ADD DUP2 DUP2 LT DUP4 DUP3 GT OR PUSH2 0xC30 JUMPI SWAP2 PUSH8 0x3782DACE9D90000 SWAP2 DUP9 SWAP5 SWAP4 PUSH1 0x40 MSTORE CALLER DUP2 MSTORE DUP8 DUP8 DUP2 DUP4 ADD SWAP4 DUP2 DUP6 MSTORE PUSH1 0x3 PUSH1 0x40 DUP6 ADD SWAP5 CALLVALUE DUP7 MSTORE PUSH1 0x60 DUP2 ADD SWAP6 DUP4 TIMESTAMP AND DUP8 MSTORE PUSH1 0x2 PUSH1 0x80 DUP4 ADD SWAP7 PUSH1 0x1 DUP9 MSTORE PUSH1 0xA0 DUP5 ADD SWAP7 DUP14 DUP9 MSTORE DUP14 MSTORE MSTORE DUP10 PUSH1 0x40 DUP13 KECCAK256 SWAP3 MLOAD AND SWAP8 PUSH12 0xFFFFFFFFFFFFFFFFFFFFFFFF PUSH1 0xA0 SHL SWAP9 DUP10 DUP5 SLOAD AND OR DUP4 SSTORE DUP11 PUSH1 0x1 DUP5 ADD SWAP2 MLOAD AND DUP10 DUP3 SLOAD AND OR SWAP1 SSTORE MLOAD PUSH1 0x2 DUP3 ADD SSTORE ADD SWAP4 MLOAD AND PUSH10 0xFF000000000000000000 PUSH1 0xFF PUSH1 0x40 SHL DUP6 SLOAD SWAP5 MLOAD ISZERO ISZERO PUSH1 0x40 SHL AND SWAP3 MLOAD ISZERO ISZERO PUSH1 0x48 SHL AND SWAP3 PUSH10 0xFFFFFFFFFFFFFFFFFFFF NOT AND OR OR OR SWAP1 SSTORE PUSH1 0x1 DUP8 MSTORE PUSH1 0x40 DUP5 KECCAK256 SWAP1 PUSH1 0x8 DUP3 ADD PUSH9 0x10000000000000000 DUP2 SLOAD PUSH17 0xFFFFFFFFFFFFFFFF000000000000000000 TIMESTAMP PUSH1 0x48 SHL AND SWAP1 PUSH17 0xFFFFFFFFFFFFFFFFFF0000000000000000 NOT AND OR OR SWAP1 SSTORE DUP5 PUSH1 0x9 DUP4 ADD SSTORE PUSH1 0xA DUP3 ADD SWAP1 CALLER SWAP1 DUP3 SLOAD AND OR SWAP1 SSTORE SSTORE PUSH1 0x3 SLOAD AND SWAP2 DUP3 EXTCODESIZE ISZERO PUSH2 0x1DD JUMPI PUSH1 0x44 DUP5 SWAP2 DUP4 PUSH1 0x40 MLOAD SWAP6 DUP7 SWAP5 DUP6 SWAP4 PUSH4 0x621C939 PUSH1 0xE2 SHL DUP6 MSTORE DUP5 ADD MSTORE CALLER PUSH1 0x24 DUP5 ADD MSTORE GAS CALL DUP1 ISZERO PUSH2 0xC25 JUMPI PUSH2 0xC12 JUMPI JUMPDEST POP PUSH32 0xE7504388CE145DDF2F87BCE15593F0F8DBF8BF637011138ED475304A9154EE34 PUSH1 0x40 MLOAD SWAP3 CALLVALUE DUP5 MSTORE CALLER SWAP4 LOG3 PUSH1 0x1 PUSH32 0x9B779B17422D0DF92223018B32B4D1FA46E071723D6817E2486D003BECC55F00 SSTORE DUP1 RETURN JUMPDEST PUSH2 0xC1E SWAP1 SWAP4 SWAP2 SWAP4 PUSH2 0x147E JUMP JUMPDEST SWAP2 CODESIZE PUSH2 0xBBF JUMP JUMPDEST PUSH1 0x40 MLOAD RETURNDATASIZE DUP7 DUP3 RETURNDATACOPY RETURNDATASIZE SWAP1 REVERT JUMPDEST PUSH4 0x4E487B71 PUSH1 0xE0 SHL DUP9 MSTORE PUSH1 0x41 DUP6 MSTORE PUSH1 0x24 DUP9 REVERT JUMPDEST PUSH1 0x40 MLOAD PUSH3 0x461BCD PUSH1 0xE5 SHL DUP2 MSTORE DUP1 DUP4 ADD DUP6 SWAP1 MSTORE PUSH1 0x25 PUSH1 0x24 DUP3 ADD MSTORE PUSH32 0x50686F746F6E6963566974616C6974793A20626F6E6420616C72656164792061 PUSH1 0x44 DUP3 ADD MSTORE PUSH5 0x6374697665 PUSH1 0xD8 SHL PUSH1 0x64 DUP3 ADD MSTORE PUSH1 0x84 SWAP1 REVERT JUMPDEST PUSH1 0x64 DUP3 DUP6 DUP1 PUSH1 0x40 MLOAD SWAP3 PUSH3 0x461BCD PUSH1 0xE5 SHL DUP5 MSTORE DUP4 ADD MSTORE PUSH1 0x24 DUP3 ADD MSTORE PUSH32 0x50686F746F6E6963566974616C6974793A206167656E74206E6F742064656164 PUSH1 0x44 DUP3 ADD MSTORE REVERT JUMPDEST PUSH2 0xCEE SWAP2 POP DUP6 RETURNDATASIZE DUP8 GT PUSH2 0x45D JUMPI PUSH2 0x44F DUP2 DUP4 PUSH2 0x1491 JUMP JUMPDEST CODESIZE PUSH2 0xA3B JUMP JUMPDEST PUSH1 0x40 MLOAD RETURNDATASIZE DUP9 DUP3 RETURNDATACOPY RETURNDATASIZE SWAP1 REVERT JUMPDEST PUSH1 0x40 MLOAD PUSH3 0x461BCD PUSH1 0xE5 SHL DUP2 MSTORE SWAP1 DUP2 ADD DUP4 SWAP1 MSTORE PUSH1 0x1E PUSH1 0x24 DUP3 ADD MSTORE PUSH32 0x50686F746F6E6963566974616C6974793A20626F6E6420746F6F206C6F770000 PUSH1 0x44 DUP3 ADD MSTORE PUSH1 0x64 SWAP1 REVERT JUMPDEST DUP3 CALLVALUE PUSH2 0x496 JUMPI PUSH1 0x20 CALLDATASIZE PUSH1 0x3 NOT ADD SLT PUSH2 0x496 JUMPI PUSH1 0xC0 SWAP1 PUSH1 0x1 PUSH1 0x1 PUSH1 0xA0 SHL SUB SWAP1 PUSH1 0xFF SWAP1 PUSH1 0x40 SWAP1 DUP4 PUSH2 0xD70 PUSH2 0x141A JUMP JUMPDEST AND DUP2 MSTORE PUSH1 0x2 PUSH1 0x20 MSTORE KECCAK256 DUP3 DUP2 SLOAD AND SWAP3 PUSH1 0x1 DUP3 ADD SLOAD AND SWAP1 PUSH1 0x3 PUSH1 0x2 DUP3 ADD SLOAD SWAP2 ADD SLOAD SWAP2 PUSH1 0x40 MLOAD SWAP5 DUP6 MSTORE PUSH1 0x20 DUP6 ADD MSTORE PUSH1 0x40 DUP5 ADD MSTORE PUSH1 0x1 PUSH1 0x1 PUSH1 0x40 SHL SUB DUP2 AND PUSH1 0x60 DUP5 ADD MSTORE DUP2 DUP2 PUSH1 0x40 SHR AND ISZERO ISZERO PUSH1 0x80 DUP5 ADD MSTORE PUSH1 0x48 SHR AND ISZERO ISZERO PUSH1 0xA0 DUP3 ADD MSTORE RETURN JUMPDEST POP CALLVALUE PUSH2 0x1DD JUMPI PUSH1 0x20 CALLDATASIZE PUSH1 0x3 NOT ADD SLT PUSH2 0x1DD JUMPI PUSH2 0xDE3 PUSH2 0x15E1 JUMP JUMPDEST CALLDATALOAD PUSH1 0x5 SSTORE DUP1 RETURN JUMPDEST DUP3 CALLVALUE PUSH2 0x496 JUMPI DUP1 PUSH1 0x3 NOT CALLDATASIZE ADD SLT PUSH2 0x496 JUMPI PUSH1 0x20 PUSH1 0x40 MLOAD PUSH1 0x3 DUP2 MSTORE RETURN JUMPDEST DUP3 CALLVALUE PUSH2 0x496 JUMPI DUP1 PUSH1 0x3 NOT CALLDATASIZE ADD SLT PUSH2 0x496 JUMPI PUSH1 0x3 SLOAD PUSH1 0x40 MLOAD PUSH1 0x1 PUSH1 0x1 PUSH1 0xA0 SHL SUB SWAP1 SWAP2 AND DUP2 MSTORE PUSH1 0x20 SWAP1 RETURN JUMPDEST DUP3 CALLVALUE PUSH2 0x496 JUMPI DUP1 PUSH1 0x3 NOT CALLDATASIZE ADD SLT PUSH2 0x496 JUMPI PUSH2 0xE48 PUSH2 0x15E1 JUMP JUMPDEST DUP1 SLOAD PUSH1 0x1 PUSH1 0x1 PUSH1 0xA0 SHL SUB NOT DUP2 AND DUP3 SSTORE DUP2 SWAP1 PUSH1 0x1 PUSH1 0x1 PUSH1 0xA0 SHL SUB AND PUSH32 0x8BE0079C531659141344CD1FD0A4F28419497F9722A3DAAFE3B4186F6B6457E0 DUP3 DUP1 LOG3 DUP1 RETURN JUMPDEST POP CALLVALUE PUSH2 0x1DD JUMPI PUSH1 0x20 DUP1 PUSH1 0x3 NOT CALLDATASIZE ADD SLT PUSH2 0x46F JUMPI PUSH2 0xEA4 PUSH2 0x141A JUMP JUMPDEST SWAP2 PUSH2 0xEAD PUSH2 0x160D JUMP JUMPDEST PUSH1 0x1 DUP1 PUSH1 0xA0 SHL SUB DUP1 SWAP4 AND SWAP2 DUP3 DUP6 MSTORE PUSH1 0x1 DUP2 MSTORE PUSH1 0x40 DUP6 KECCAK256 PUSH1 0x8 DUP2 ADD SLOAD PUSH1 0xFF DUP2 PUSH1 0x40 SHR AND ISZERO PUSH2 0x1096 JUMPI PUSH1 0x1 PUSH1 0x1 PUSH1 0x40 SHL SUB SWAP1 PUSH1 0x48 SHR AND PUSH3 0x2A300 DUP2 ADD DUP1 SWAP2 GT PUSH2 0x1083 JUMPI TIMESTAMP LT PUSH2 0x1033 JUMPI PUSH1 0x9 PUSH1 0x3 SWAP2 ADD SLOAD LT ISZERO PUSH2 0xFE4 JUMPI DUP3 DUP6 MSTORE PUSH1 0x1 DUP2 MSTORE PUSH1 0x40 DUP6 KECCAK256 SWAP4 PUSH1 0x2 DUP3 MSTORE PUSH1 0x8 PUSH1 0x40 DUP8 KECCAK256 SWAP6 ADD PUSH1 0xFF PUSH1 0x40 SHL NOT DUP2 SLOAD AND SWAP1 SSTORE PUSH1 0x3 DUP6 ADD PUSH10 0x1000000000000000000 PUSH10 0xFFFF0000000000000000 NOT DUP3 SLOAD AND OR SWAP1 SSTORE DUP6 DUP2 PUSH1 0x3 SLOAD AND SWAP4 DUP5 EXTCODESIZE ISZERO PUSH2 0x1DD JUMPI PUSH1 0x24 DUP7 SWAP2 DUP4 PUSH1 0x40 MLOAD SWAP8 DUP9 SWAP5 DUP6 SWAP4 PUSH4 0x273476DB PUSH1 0xE2 SHL DUP6 MSTORE DUP5 ADD MSTORE GAS CALL SWAP1 DUP2 ISZERO PUSH2 0xCF4 JUMPI PUSH32 0x5A4793CB20FC90657A7CB58A04C0EC68E38EC275211C47EE9A54275A28EAA06C SWAP4 PUSH1 0x2 SWAP3 PUSH2 0xFD5 JUMPI JUMPDEST POP DUP6 SLOAD AND SWAP5 ADD SLOAD PUSH1 0x40 MLOAD SWAP1 DUP2 MSTORE LOG3 PUSH1 0x1 PUSH32 0x9B779B17422D0DF92223018B32B4D1FA46E071723D6817E2486D003BECC55F00 SSTORE DUP1 RETURN JUMPDEST PUSH2 0xFDE SWAP1 PUSH2 0x147E JUMP JUMPDEST CODESIZE PUSH2 0xFA0 JUMP JUMPDEST PUSH1 0x40 MLOAD PUSH3 0x461BCD PUSH1 0xE5 SHL DUP2 MSTORE SWAP2 DUP3 ADD MSTORE PUSH1 0x23 PUSH1 0x24 DUP3 ADD MSTORE PUSH32 0x50686F746F6E6963566974616C6974793A20616C726561647920737563636565 PUSH1 0x44 DUP3 ADD MSTORE PUSH3 0x191959 PUSH1 0xEA SHL PUSH1 0x64 DUP3 ADD MSTORE PUSH1 0x84 SWAP2 POP REVERT JUMPDEST PUSH1 0x40 MLOAD PUSH3 0x461BCD PUSH1 0xE5 SHL DUP2 MSTORE DUP1 DUP5 ADD DUP4 SWAP1 MSTORE PUSH1 0x24 DUP1 DUP3 ADD MSTORE PUSH32 0x50686F746F6E6963566974616C6974793A20747269616C207374696C6C206163 PUSH1 0x44 DUP3 ADD MSTORE PUSH4 0x74697665 PUSH1 0xE0 SHL PUSH1 0x64 DUP3 ADD MSTORE PUSH1 0x84 SWAP1 REVERT JUMPDEST PUSH4 0x4E487B71 PUSH1 0xE0 SHL DUP8 MSTORE PUSH1 0x11 DUP5 MSTORE PUSH1 0x24 DUP8 REVERT JUMPDEST PUSH1 0x40 MLOAD PUSH3 0x461BCD PUSH1 0xE5 SHL DUP2 MSTORE DUP1 DUP6 ADD DUP5 SWAP1 MSTORE PUSH1 0x1E PUSH1 0x24 DUP3 ADD MSTORE PUSH32 0x50686F746F6E6963566974616C6974793A206E6F7420696E20747269616C0000 PUSH1 0x44 DUP3 ADD MSTORE PUSH1 0x64 SWAP1 REVERT JUMPDEST POP CALLVALUE PUSH2 0x1DD JUMPI DUP2 PUSH1 0x3 NOT CALLDATASIZE ADD SLT PUSH2 0x1DD JUMPI PUSH2 0x10F3 PUSH2 0x15E1 JUMP JUMPDEST DUP2 DUP1 DUP1 DUP1 PUSH1 0x1 DUP1 PUSH1 0xA0 SHL SUB DUP2 SLOAD AND SELFBALANCE SWAP1 GAS CALL PUSH2 0x110D PUSH2 0x14B2 JUMP JUMPDEST POP ISZERO PUSH2 0x1117 JUMPI POP DUP1 RETURN JUMPDEST PUSH1 0x64 SWAP1 PUSH1 0x20 PUSH1 0x40 MLOAD SWAP2 PUSH3 0x461BCD PUSH1 0xE5 SHL DUP4 MSTORE DUP3 ADD MSTORE PUSH1 0xF PUSH1 0x24 DUP3 ADD MSTORE PUSH15 0x1D1C985B9CD9995C8819985A5B1959 PUSH1 0x8A SHL PUSH1 0x44 DUP3 ADD MSTORE REVERT JUMPDEST POP CALLVALUE PUSH2 0x1DD JUMPI PUSH1 0x20 CALLDATASIZE PUSH1 0x3 NOT ADD SLT PUSH2 0x1DD JUMPI PUSH2 0x1192 PUSH8 0xDE0B6B3A7640000 PUSH2 0x2D0 PUSH1 0x40 PUSH1 0x20 SWAP6 PUSH1 0x1 DUP1 PUSH1 0xA0 SHL SUB PUSH2 0x1182 PUSH2 0x141A JUMP JUMPDEST AND DUP2 MSTORE PUSH1 0x1 DUP8 MSTORE KECCAK256 SLOAD SWAP4 SLOAD PUSH2 0x15A9 JUMP JUMPDEST GT ISZERO PUSH1 0x40 MLOAD SWAP1 DUP2 MSTORE RETURN JUMPDEST DUP3 CALLVALUE PUSH2 0x496 JUMPI DUP1 PUSH1 0x3 NOT CALLDATASIZE ADD SLT PUSH2 0x496 JUMPI PUSH1 0x20 PUSH1 0x7 SLOAD PUSH1 0x40 MLOAD SWAP1 DUP2 MSTORE RETURN JUMPDEST POP CALLVALUE PUSH2 0x1DD JUMPI PUSH1 0x20 CALLDATASIZE PUSH1 0x3 NOT ADD SLT PUSH2 0x1DD JUMPI PUSH1 0x40 PUSH2 0x1A0 SWAP3 PUSH2 0x11DA PUSH2 0x141A JUMP JUMPDEST DUP2 PUSH2 0x180 DUP5 MLOAD PUSH2 0x11E9 DUP2 PUSH2 0x144C JUMP JUMPDEST DUP3 DUP2 MSTORE DUP3 PUSH1 0x20 DUP3 ADD MSTORE DUP3 DUP7 DUP3 ADD MSTORE DUP3 PUSH1 0x60 DUP3 ADD MSTORE DUP3 PUSH1 0x80 DUP3 ADD MSTORE DUP3 PUSH1 0xA0 DUP3 ADD MSTORE DUP3 PUSH1 0xC0 DUP3 ADD MSTORE DUP3 PUSH1 0xE0 DUP3 ADD MSTORE DUP3 PUSH2 0x100 DUP3 ADD MSTORE DUP3 PUSH2 0x120 DUP3 ADD MSTORE DUP3 PUSH2 0x140 DUP3 ADD MSTORE DUP3 PUSH2 0x160 DUP3 ADD MSTORE ADD MSTORE PUSH1 0x1 DUP1 PUSH1 0xA0 SHL SUB AND DUP2 MSTORE PUSH1 0x1 PUSH1 0x20 MSTORE KECCAK256 PUSH1 0x40 MLOAD SWAP1 PUSH2 0x1250 DUP3 PUSH2 0x144C JUMP JUMPDEST DUP1 SLOAD SWAP3 DUP4 DUP4 MSTORE PUSH1 0x1 DUP3 ADD SLOAD PUSH1 0x20 DUP5 ADD MSTORE PUSH1 0x2 DUP3 ADD SLOAD PUSH1 0x40 DUP5 ADD MSTORE PUSH1 0x3 DUP3 ADD SLOAD PUSH1 0x60 DUP5 ADD MSTORE DUP2 ADD SLOAD PUSH1 0x80 DUP4 ADD MSTORE PUSH1 0x5 DUP2 ADD SLOAD PUSH1 0xA0 DUP4 ADD MSTORE PUSH1 0x6 DUP2 ADD SLOAD PUSH1 0xC0 DUP4 ADD MSTORE PUSH1 0x7 DUP2 ADD SLOAD PUSH1 0xE0 DUP4 ADD MSTORE PUSH1 0x1 PUSH1 0x1 PUSH1 0x40 SHL SUB PUSH1 0x8 DUP3 ADD SLOAD DUP2 DUP2 AND PUSH2 0x100 DUP6 ADD MSTORE PUSH1 0xFF DUP2 PUSH1 0x40 SHR AND ISZERO ISZERO PUSH2 0x120 DUP6 ADD MSTORE PUSH1 0x48 SHR AND PUSH2 0x140 DUP4 ADD MSTORE PUSH1 0x9 DUP2 ADD SLOAD PUSH2 0x160 DUP4 ADD MSTORE PUSH1 0xA PUSH1 0x1 DUP1 PUSH1 0xA0 SHL SUB SWAP2 ADD SLOAD AND PUSH2 0x180 DUP3 ADD MSTORE PUSH1 0x40 MLOAD SWAP2 DUP3 MSTORE PUSH1 0x20 DUP2 ADD MLOAD PUSH1 0x20 DUP4 ADD MSTORE PUSH1 0x40 DUP2 ADD MLOAD PUSH1 0x40 DUP4 ADD MSTORE PUSH1 0x60 DUP2 ADD MLOAD PUSH1 0x60 DUP4 ADD MSTORE PUSH1 0x80 DUP2 ADD MLOAD PUSH1 0x80 DUP4 ADD MSTORE PUSH1 0xA0 DUP2 ADD MLOAD PUSH1 0xA0 DUP4 ADD MSTORE PUSH1 0xC0 DUP2 ADD MLOAD PUSH1 0xC0 DUP4 ADD MSTORE PUSH1 0xE0 DUP2 ADD MLOAD PUSH1 0xE0 DUP4 ADD MSTORE PUSH1 0x1 PUSH1 0x1 PUSH1 0x40 SHL SUB PUSH2 0x100 DUP3 ADD MLOAD AND PUSH2 0x100 DUP4 ADD MSTORE PUSH2 0x120 DUP2 ADD MLOAD ISZERO ISZERO PUSH2 0x120 DUP4 ADD MSTORE PUSH1 0x1 PUSH1 0x1 PUSH1 0x40 SHL SUB PUSH2 0x140 DUP3 ADD MLOAD AND PUSH2 0x140 DUP4 ADD MSTORE PUSH2 0x160 DUP2 ADD MLOAD PUSH2 0x160 DUP4 ADD MSTORE PUSH2 0x180 PUSH1 0x1 DUP1 PUSH1 0xA0 SHL SUB SWAP2 ADD MLOAD AND PUSH2 0x180 DUP3 ADD MSTORE RETURN JUMPDEST POP SWAP1 CALLVALUE PUSH2 0x496 JUMPI DUP1 PUSH1 0x3 NOT CALLDATASIZE ADD SLT PUSH2 0x496 JUMPI PUSH1 0x20 PUSH2 0x13B7 PUSH8 0xDE0B6B3A7640000 PUSH2 0x2D0 DUP6 SLOAD PUSH2 0x15A9 JUMP JUMPDEST PUSH1 0x40 MLOAD SWAP1 DUP2 MSTORE RETURN JUMPDEST DUP3 CALLVALUE PUSH2 0x496 JUMPI DUP1 PUSH1 0x3 NOT CALLDATASIZE ADD SLT PUSH2 0x496 JUMPI PUSH1 0x20 PUSH1 0x40 MLOAD PUSH3 0x2A300 DUP2 MSTORE RETURN JUMPDEST DUP4 SWAP1 CALLVALUE PUSH2 0x1DD JUMPI DUP2 PUSH1 0x3 NOT CALLDATASIZE ADD SLT PUSH2 0x1DD JUMPI PUSH1 0x20 SWAP1 PUSH1 0x8 SLOAD DUP2 MSTORE RETURN JUMPDEST CALLVALUE PUSH2 0x1415 JUMPI PUSH1 0x0 CALLDATASIZE PUSH1 0x3 NOT ADD SLT PUSH2 0x1415 JUMPI PUSH1 0x20 PUSH1 0x40 MLOAD PUSH1 0x19 DUP2 MSTORE RETURN JUMPDEST PUSH1 0x0 DUP1 REVERT JUMPDEST PUSH1 0x4 CALLDATALOAD SWAP1 PUSH1 0x1 PUSH1 0x1 PUSH1 0xA0 SHL SUB DUP3 AND DUP3 SUB PUSH2 0x1415 JUMPI JUMP JUMPDEST CALLVALUE PUSH2 0x1415 JUMPI PUSH1 0x0 CALLDATASIZE PUSH1 0x3 NOT ADD SLT PUSH2 0x1415 JUMPI PUSH1 0x20 PUSH1 0x40 MLOAD PUSH1 0xA DUP2 MSTORE RETURN JUMPDEST PUSH2 0x1A0 DUP2 ADD SWAP1 DUP2 LT PUSH1 0x1 PUSH1 0x1 PUSH1 0x40 SHL SUB DUP3 GT OR PUSH2 0x1468 JUMPI PUSH1 0x40 MSTORE JUMP JUMPDEST PUSH4 0x4E487B71 PUSH1 0xE0 SHL PUSH1 0x0 MSTORE PUSH1 0x41 PUSH1 0x4 MSTORE PUSH1 0x24 PUSH1 0x0 REVERT JUMPDEST PUSH1 0x1 PUSH1 0x1 PUSH1 0x40 SHL SUB DUP2 GT PUSH2 0x1468 JUMPI PUSH1 0x40 MSTORE JUMP JUMPDEST SWAP1 PUSH1 0x1F DUP1 NOT SWAP2 ADD AND DUP2 ADD SWAP1 DUP2 LT PUSH1 0x1 PUSH1 0x1 PUSH1 0x40 SHL SUB DUP3 GT OR PUSH2 0x1468 JUMPI PUSH1 0x40 MSTORE JUMP JUMPDEST RETURNDATASIZE ISZERO PUSH2 0x14EC JUMPI RETURNDATASIZE SWAP1 PUSH1 0x1 PUSH1 0x1 PUSH1 0x40 SHL SUB DUP3 GT PUSH2 0x1468 JUMPI PUSH1 0x40 MLOAD SWAP2 PUSH2 0x14E0 PUSH1 0x1F DUP3 ADD PUSH1 0x1F NOT AND PUSH1 0x20 ADD DUP5 PUSH2 0x1491 JUMP JUMPDEST DUP3 MSTORE RETURNDATASIZE PUSH1 0x0 PUSH1 0x20 DUP5 ADD RETURNDATACOPY JUMP JUMPDEST PUSH1 0x60 SWAP1 JUMP JUMPDEST SWAP1 PUSH8 0x2C68AF0BB140000 SWAP2 DUP3 ADD DUP1 SWAP3 GT PUSH2 0x1507 JUMPI JUMP JUMPDEST PUSH4 0x4E487B71 PUSH1 0xE0 SHL PUSH1 0x0 MSTORE PUSH1 0x11 PUSH1 0x4 MSTORE PUSH1 0x24 PUSH1 0x0 REVERT JUMPDEST SWAP2 SWAP1 DUP3 ADD DUP1 SWAP3 GT PUSH2 0x1507 JUMPI JUMP JUMPDEST SWAP1 DUP2 PUSH1 0x20 SWAP2 SUB SLT PUSH2 0x1415 JUMPI MLOAD DUP1 ISZERO ISZERO DUP2 SUB PUSH2 0x1415 JUMPI SWAP1 JUMP JUMPDEST DUP2 ISZERO PUSH2 0x154C JUMPI DIV SWAP1 JUMP JUMPDEST PUSH4 0x4E487B71 PUSH1 0xE0 SHL PUSH1 0x0 MSTORE PUSH1 0x12 PUSH1 0x4 MSTORE PUSH1 0x24 PUSH1 0x0 REVERT JUMPDEST ISZERO PUSH2 0x1569 JUMPI JUMP JUMPDEST PUSH1 0x40 MLOAD PUSH3 0x461BCD PUSH1 0xE5 SHL DUP2 MSTORE PUSH1 0x20 PUSH1 0x4 DUP3 ADD MSTORE PUSH1 0x9 PUSH1 0x24 DUP3 ADD MSTORE PUSH9 0x6D6178205343414C45 PUSH1 0xB8 SHL PUSH1 0x44 DUP3 ADD MSTORE PUSH1 0x64 SWAP1 REVERT JUMPDEST PUSH1 0x0 NOT DUP2 EQ PUSH2 0x1507 JUMPI PUSH1 0x1 ADD SWAP1 JUMP JUMPDEST SWAP1 PUSH8 0x905438E60010000 SWAP2 DUP1 DUP4 MUL SWAP3 DUP4 DIV SUB PUSH2 0x1507 JUMPI JUMP JUMPDEST DUP2 DUP2 MUL SWAP3 SWAP2 DUP2 ISZERO SWAP2 DUP5 DIV EQ OR ISZERO PUSH2 0x1507 JUMPI JUMP JUMPDEST SWAP2 SWAP1 DUP3 SUB SWAP2 DUP3 GT PUSH2 0x1507 JUMPI JUMP JUMPDEST PUSH1 0x0 SLOAD PUSH1 0x1 PUSH1 0x1 PUSH1 0xA0 SHL SUB AND CALLER SUB PUSH2 0x15F5 JUMPI JUMP JUMPDEST PUSH1 0x40 MLOAD PUSH4 0x118CDAA7 PUSH1 0xE0 SHL DUP2 MSTORE CALLER PUSH1 0x4 DUP3 ADD MSTORE PUSH1 0x24 SWAP1 REVERT JUMPDEST PUSH32 0x9B779B17422D0DF92223018B32B4D1FA46E071723D6817E2486D003BECC55F00 PUSH1 0x2 DUP2 SLOAD EQ PUSH2 0x163D JUMPI PUSH1 0x2 SWAP1 SSTORE JUMP JUMPDEST PUSH1 0x40 MLOAD PUSH4 0x3EE5AEB5 PUSH1 0xE0 SHL DUP2 MSTORE PUSH1 0x4 SWAP1 REVERT JUMPDEST PUSH1 0x1 PUSH1 0x1 PUSH1 0xA0 SHL SUB AND PUSH1 0x0 SWAP1 DUP2 MSTORE PUSH1 0x1 PUSH1 0x20 MSTORE PUSH1 0x40 SWAP1 KECCAK256 PUSH1 0x8 DUP2 ADD DUP1 SLOAD PUSH1 0x1 PUSH1 0x1 PUSH1 0x40 SHL SUB DUP1 DUP3 AND SWAP3 SWAP1 SWAP2 DUP4 ISZERO PUSH2 0x1714 JUMPI POP PUSH2 0x168B DUP4 TIMESTAMP PUSH2 0x15D4 JUMP JUMPDEST SWAP2 PUSH2 0x1699 PUSH1 0x6 SLOAD DUP1 SWAP5 PUSH2 0x1542 JUMP JUMPDEST SWAP3 DUP4 ISZERO PUSH2 0x170C JUMPI PUSH2 0x16CF SWAP5 PUSH2 0x16B1 PUSH2 0x16B7 SWAP3 DUP7 PUSH2 0x15C1 JUMP JUMPDEST SWAP1 PUSH2 0x151D JUMP JUMPDEST AND PUSH1 0x1 PUSH1 0x1 PUSH1 0x40 SHL SUB NOT DUP3 SLOAD AND OR SWAP1 SSTORE PUSH1 0x7 SLOAD PUSH2 0x15C1 JUMP JUMPDEST PUSH1 0x64 DUP2 GT PUSH2 0x1704 JUMPI JUMPDEST PUSH1 0x64 PUSH2 0x16E6 DUP4 SLOAD SWAP3 DUP4 PUSH2 0x15C1 JUMP JUMPDEST DIV DUP1 DUP3 GT ISZERO PUSH2 0x16FC JUMPI PUSH2 0x16F8 SWAP2 PUSH2 0x15D4 JUMP JUMPDEST SWAP1 SSTORE JUMP JUMPDEST POP POP PUSH1 0x0 SWAP1 SSTORE JUMP JUMPDEST POP PUSH1 0x64 PUSH2 0x16D8 JUMP JUMPDEST POP POP POP POP POP POP JUMP JUMPDEST SWAP3 POP SWAP3 POP TIMESTAMP AND SWAP1 PUSH1 0x1 PUSH1 0x1 PUSH1 0x40 SHL SUB NOT AND OR SWAP1 SSTORE JUMP JUMPDEST PUSH1 0x1 PUSH1 0x1 PUSH1 0xA0 SHL SUB AND PUSH1 0x0 SWAP1 DUP2 MSTORE PUSH1 0x1 PUSH1 0x20 MSTORE PUSH1 0x40 DUP2 KECCAK256 PUSH1 0x7 DUP2 ADD SLOAD SWAP2 DUP3 ISZERO PUSH2 0x18F7 JUMPI PUSH2 0x175B DUP4 PUSH1 0x1 DUP5 ADD SLOAD PUSH2 0x1542 JUMP JUMPDEST SWAP2 PUSH8 0xDE0B6B3A7640000 SWAP4 DUP5 DUP5 GT PUSH2 0x18EF JUMPI JUMPDEST PUSH1 0x2 DUP3 ADD SLOAD DUP6 DUP2 MUL SWAP1 DUP1 DUP3 DIV DUP8 EQ SWAP1 ISZERO OR ISZERO PUSH2 0x18DB JUMPI SWAP1 PUSH2 0x178E SWAP2 PUSH2 0x1542 JUMP JUMPDEST SWAP1 PUSH1 0x3 DUP2 ADD SLOAD DUP6 DUP2 GT PUSH1 0x0 EQ PUSH2 0x18C2 JUMPI POP DUP5 JUMPDEST PUSH1 0x4 SWAP3 DUP4 DUP4 ADD SLOAD DUP8 DUP2 GT PUSH1 0x0 EQ PUSH2 0x18B9 JUMPI POP PUSH1 0x5 DUP8 SWAP4 JUMPDEST ADD SLOAD PUSH1 0xA SWAP8 SWAP1 DUP9 DUP2 GT ISZERO PUSH2 0x18A0 JUMPI POP SWAP6 JUMPDEST PUSH1 0x1E DUP2 MUL SWAP1 DUP1 DUP3 DIV PUSH1 0x1E EQ SWAP1 ISZERO OR ISZERO PUSH2 0x188D JUMPI PUSH1 0x19 DUP3 MUL SWAP2 DUP1 DUP4 DIV PUSH1 0x19 EQ SWAP1 ISZERO OR ISZERO PUSH2 0x188D JUMPI SWAP1 PUSH2 0x17F9 SWAP2 PUSH2 0x151D JUMP JUMPDEST PUSH1 0x19 DUP3 MUL SWAP2 DUP1 DUP4 DIV PUSH1 0x19 EQ SWAP1 ISZERO OR ISZERO PUSH2 0x187A JUMPI SWAP1 PUSH2 0x1816 SWAP2 PUSH2 0x151D JUMP JUMPDEST DUP6 DUP3 MUL SWAP2 DUP1 DUP4 DIV DUP8 EQ SWAP1 ISZERO OR ISZERO PUSH2 0x1867 JUMPI SWAP1 PUSH2 0x1831 SWAP2 PUSH2 0x151D JUMP JUMPDEST SWAP3 DUP5 DUP2 MUL SWAP5 DUP2 DUP7 DIV EQ SWAP1 ISZERO OR ISZERO PUSH2 0x1854 JUMPI POP POP PUSH1 0x64 SWAP2 PUSH2 0x1850 SWAP2 PUSH2 0x151D JUMP JUMPDEST DIV SWAP1 JUMP JUMPDEST PUSH4 0x4E487B71 PUSH1 0xE0 SHL DUP3 MSTORE PUSH1 0x11 SWAP1 MSTORE PUSH1 0x24 SWAP1 REVERT JUMPDEST PUSH4 0x4E487B71 PUSH1 0xE0 SHL DUP5 MSTORE PUSH1 0x11 DUP4 MSTORE PUSH1 0x24 DUP5 REVERT JUMPDEST PUSH4 0x4E487B71 PUSH1 0xE0 SHL DUP6 MSTORE PUSH1 0x11 DUP5 MSTORE PUSH1 0x24 DUP6 REVERT JUMPDEST PUSH4 0x4E487B71 PUSH1 0xE0 SHL DUP7 MSTORE PUSH1 0x11 DUP6 MSTORE PUSH1 0x24 DUP7 REVERT JUMPDEST DUP2 DUP2 MUL SWAP2 DUP2 DUP4 DIV EQ SWAP1 ISZERO OR ISZERO PUSH2 0x188D JUMPI DUP8 SWAP1 DIV SWAP6 PUSH2 0x17C9 JUMP JUMPDEST PUSH1 0x5 SWAP1 SWAP4 PUSH2 0x17B8 JUMP JUMPDEST DUP6 DUP2 MUL SWAP1 DUP1 DUP3 DIV DUP8 EQ SWAP1 ISZERO OR ISZERO PUSH2 0x18DB JUMPI DUP6 SWAP1 DIV PUSH2 0x17A1 JUMP JUMPDEST PUSH4 0x4E487B71 PUSH1 0xE0 SHL DUP5 MSTORE PUSH1 0x11 PUSH1 0x4 MSTORE PUSH1 0x24 DUP5 REVERT JUMPDEST DUP5 SWAP4 POP PUSH2 0x176E JUMP JUMPDEST POP POP POP PUSH8 0x3782DACE9D90000 SWAP1 JUMP INVALID LOG2 PUSH5 0x6970667358 0x22 SLT KECCAK256 0x4B 0xA5 PUSH14 0x15D983089F156B994BAB3DC2A64E 0x2C DUP12 0x27 SELFDESTRUCT PUSH19 0x946905F1990DE6ABCA8564736F6C6343000818 STOP CALLER "},"methodIdentifiers":{"ALPHA()":"b0bb1c5a","BETA()":"071a7541","DELTA()":"ecb5fff6","EPSILON()":"d12c952b","GAMMA()":"eba0df6e","RESURRECTION_BPD_REQUIRED()":"7ca03c39","RESURRECTION_WINDOW()":"118d206e","SCALE()":"eced5526","V_MAX_MATURE()":"b074d407","V_MIN_GENESIS()":"cb2a7287","applyDecay(address)":"edfcc437","checkResurrectionExpiry(address)":"5def4da7","decayInterval()":"b6334aee","getCurrentVitality(address)":"b3d78bb1","getDynamicThreshold()":"249acb51","getVitalityState(address)":"2e984a27","isAboveThreshold(address)":"4591b374","lambdaDecay()":"3b7a14e3","marketplaceMaturity()":"ad32fd0a","minResurrectionBond()":"b0805ae4","muSurplus()":"06b51d42","owner()":"8da5cb5b","postResurrectionBond(address)":"8b9880c0","recordBPD(address,uint256,uint256,bool)":"c9405762","registry()":"7b103999","renounceOwnership()":"715018a6","resurrectBonds(address)":"8afec09b","setAgentDiversityScore(address,uint256)":"a1e88387","setDecayInterval(uint256)":"e9815430","setDecayParams(uint256,uint256)":"b0b88d74","setMarketplaceMaturity(uint256)":"fadb78ee","setMinResurrectionBond(uint256)":"8a248b4c","transferOwnership(address)":"f2fde38b","vitality(address)":"92f883cb","withdrawSlashedBonds()":"53d4cfe0"}}}}}