{"contracts/PhotonicAuction.sol":{"PhotonicAuction":{"abi":[{"inputs":[],"stateMutability":"nonpayable","type":"constructor"},{"inputs":[{"internalType":"address","name":"owner","type":"address"}],"name":"OwnableInvalidOwner","type":"error"},{"inputs":[{"internalType":"address","name":"account","type":"address"}],"name":"OwnableUnauthorizedAccount","type":"error"},{"inputs":[],"name":"ReentrancyGuardReentrantCall","type":"error"},{"anonymous":false,"inputs":[{"indexed":true,"internalType":"bytes32","name":"intentId","type":"bytes32"},{"indexed":true,"internalType":"address","name":"agent","type":"address"},{"indexed":false,"internalType":"uint256","name":"priceQuote","type":"uint256"}],"name":"BidSubmitted","type":"event"},{"anonymous":false,"inputs":[{"indexed":true,"internalType":"bytes32","name":"intentId","type":"bytes32"},{"indexed":true,"internalType":"address","name":"winner","type":"address"},{"indexed":false,"internalType":"uint256","name":"price","type":"uint256"},{"indexed":false,"internalType":"uint256","name":"score","type":"uint256"}],"name":"IntentAwarded","type":"event"},{"anonymous":false,"inputs":[{"indexed":true,"internalType":"bytes32","name":"intentId","type":"bytes32"},{"indexed":true,"internalType":"address","name":"buyer","type":"address"}],"name":"IntentCancelled","type":"event"},{"anonymous":false,"inputs":[{"indexed":true,"internalType":"bytes32","name":"intentId","type":"bytes32"}],"name":"IntentExpired","type":"event"},{"anonymous":false,"inputs":[{"indexed":true,"internalType":"bytes32","name":"intentId","type":"bytes32"},{"indexed":false,"internalType":"string","name":"taskDescription","type":"string"}],"name":"IntentRevealed","type":"event"},{"anonymous":false,"inputs":[{"indexed":true,"internalType":"bytes32","name":"intentId","type":"bytes32"},{"indexed":true,"internalType":"address","name":"buyer","type":"address"},{"indexed":false,"internalType":"enum PhotonicAuction.PrivacyMode","name":"mode","type":"uint8"},{"indexed":false,"internalType":"uint256","name":"maxCost","type":"uint256"}],"name":"IntentSubmitted","type":"event"},{"anonymous":false,"inputs":[{"indexed":true,"internalType":"address","name":"previousOwner","type":"address"},{"indexed":true,"internalType":"address","name":"newOwner","type":"address"}],"name":"OwnershipTransferred","type":"event"},{"inputs":[{"internalType":"address","name":"","type":"address"}],"name":"agentDiversityScore","outputs":[{"internalType":"uint256","name":"","type":"uint256"}],"stateMutability":"view","type":"function"},{"inputs":[{"internalType":"uint256","name":"","type":"uint256"}],"name":"allIntents","outputs":[{"internalType":"bytes32","name":"","type":"bytes32"}],"stateMutability":"view","type":"function"},{"inputs":[{"internalType":"bytes32","name":"intentId","type":"bytes32"}],"name":"awardIntent","outputs":[],"stateMutability":"nonpayable","type":"function"},{"inputs":[],"name":"biddingWindow","outputs":[{"internalType":"uint256","name":"","type":"uint256"}],"stateMutability":"view","type":"function"},{"inputs":[{"internalType":"bytes32","name":"","type":"bytes32"},{"internalType":"uint256","name":"","type":"uint256"}],"name":"bids","outputs":[{"internalType":"address","name":"agent","type":"address"},{"internalType":"bytes32","name":"genomeHash","type":"bytes32"},{"internalType":"uint256","name":"priceQuote","type":"uint256"},{"internalType":"bytes32","name":"bpdSample","type":"bytes32"},{"internalType":"uint256","name":"scoreCached","type":"uint256"},{"internalType":"uint64","name":"submittedAt","type":"uint64"},{"internalType":"bool","name":"active","type":"bool"}],"stateMutability":"view","type":"function"},{"inputs":[{"internalType":"bytes32","name":"intentId","type":"bytes32"}],"name":"cancelIntent","outputs":[],"stateMutability":"nonpayable","type":"function"},{"inputs":[],"name":"getAllIntentCount","outputs":[{"internalType":"uint256","name":"","type":"uint256"}],"stateMutability":"view","type":"function"},{"inputs":[{"internalType":"bytes32","name":"intentId","type":"bytes32"}],"name":"getBids","outputs":[{"components":[{"internalType":"address","name":"agent","type":"address"},{"internalType":"bytes32","name":"genomeHash","type":"bytes32"},{"internalType":"uint256","name":"priceQuote","type":"uint256"},{"internalType":"bytes32","name":"bpdSample","type":"bytes32"},{"internalType":"uint256","name":"scoreCached","type":"uint256"},{"internalType":"uint64","name":"submittedAt","type":"uint64"},{"internalType":"bool","name":"active","type":"bool"}],"internalType":"struct PhotonicAuction.Bid[]","name":"","type":"tuple[]"}],"stateMutability":"view","type":"function"},{"inputs":[{"internalType":"bytes32","name":"intentId","type":"bytes32"}],"name":"getIntent","outputs":[{"components":[{"internalType":"bytes32","name":"intentId","type":"bytes32"},{"internalType":"address","name":"buyer","type":"address"},{"internalType":"bytes32","name":"intentHash","type":"bytes32"},{"internalType":"string","name":"taskDescription","type":"string"},{"internalType":"uint256","name":"maxCost","type":"uint256"},{"internalType":"uint64","name":"deadline","type":"uint64"},{"internalType":"uint256","name":"qualityFloor","type":"uint256"},{"internalType":"enum PhotonicAuction.PrivacyMode","name":"privacyMode","type":"uint8"},{"internalType":"enum PhotonicAuction.CompositionMode","name":"compositionMode","type":"uint8"},{"internalType":"enum PhotonicAuction.IntentStatus","name":"status","type":"uint8"},{"internalType":"address","name":"winner","type":"address"},{"internalType":"uint64","name":"createdAt","type":"uint64"},{"internalType":"uint64","name":"awardedAt","type":"uint64"}],"internalType":"struct PhotonicAuction.Intent","name":"","type":"tuple"}],"stateMutability":"view","type":"function"},{"inputs":[],"name":"getOpenIntentCount","outputs":[{"internalType":"uint256","name":"","type":"uint256"}],"stateMutability":"view","type":"function"},{"inputs":[{"internalType":"bytes32","name":"","type":"bytes32"},{"internalType":"address","name":"","type":"address"}],"name":"hasBid","outputs":[{"internalType":"bool","name":"","type":"bool"}],"stateMutability":"view","type":"function"},{"inputs":[{"internalType":"bytes32","name":"","type":"bytes32"}],"name":"intents","outputs":[{"internalType":"bytes32","name":"intentId","type":"bytes32"},{"internalType":"address","name":"buyer","type":"address"},{"internalType":"bytes32","name":"intentHash","type":"bytes32"},{"internalType":"string","name":"taskDescription","type":"string"},{"internalType":"uint256","name":"maxCost","type":"uint256"},{"internalType":"uint64","name":"deadline","type":"uint64"},{"internalType":"uint256","name":"qualityFloor","type":"uint256"},{"internalType":"enum PhotonicAuction.PrivacyMode","name":"privacyMode","type":"uint8"},{"internalType":"enum PhotonicAuction.CompositionMode","name":"compositionMode","type":"uint8"},{"internalType":"enum PhotonicAuction.IntentStatus","name":"status","type":"uint8"},{"internalType":"address","name":"winner","type":"address"},{"internalType":"uint64","name":"createdAt","type":"uint64"},{"internalType":"uint64","name":"awardedAt","type":"uint64"}],"stateMutability":"view","type":"function"},{"inputs":[{"internalType":"uint256","name":"","type":"uint256"}],"name":"openIntents","outputs":[{"internalType":"bytes32","name":"","type":"bytes32"}],"stateMutability":"view","type":"function"},{"inputs":[],"name":"owner","outputs":[{"internalType":"address","name":"","type":"address"}],"stateMutability":"view","type":"function"},{"inputs":[],"name":"protocolFeeBps","outputs":[{"internalType":"uint256","name":"","type":"uint256"}],"stateMutability":"view","type":"function"},{"inputs":[],"name":"renounceOwnership","outputs":[],"stateMutability":"nonpayable","type":"function"},{"inputs":[{"internalType":"bytes32","name":"intentId","type":"bytes32"},{"internalType":"string","name":"taskDescription","type":"string"},{"internalType":"bytes32","name":"nonce","type":"bytes32"}],"name":"revealIntent","outputs":[],"stateMutability":"nonpayable","type":"function"},{"inputs":[{"internalType":"address","name":"agent","type":"address"},{"internalType":"uint256","name":"score","type":"uint256"}],"name":"setAgentDiversityScore","outputs":[],"stateMutability":"nonpayable","type":"function"},{"inputs":[{"internalType":"uint256","name":"_window","type":"uint256"}],"name":"setBiddingWindow","outputs":[],"stateMutability":"nonpayable","type":"function"},{"inputs":[{"internalType":"uint256","name":"_bps","type":"uint256"}],"name":"setProtocolFee","outputs":[],"stateMutability":"nonpayable","type":"function"},{"inputs":[{"internalType":"bytes32","name":"intentId","type":"bytes32"},{"internalType":"bytes32","name":"genomeHash","type":"bytes32"},{"internalType":"uint256","name":"priceQuote","type":"uint256"},{"internalType":"bytes32","name":"bpdSample","type":"bytes32"}],"name":"submitBid","outputs":[],"stateMutability":"nonpayable","type":"function"},{"inputs":[{"internalType":"bytes32","name":"intentId","type":"bytes32"},{"internalType":"string","name":"taskDescription","type":"string"},{"internalType":"uint256","name":"qualityFloor","type":"uint256"},{"internalType":"enum PhotonicAuction.CompositionMode","name":"compositionMode","type":"uint8"}],"name":"submitPublicIntent","outputs":[],"stateMutability":"payable","type":"function"},{"inputs":[{"internalType":"bytes32","name":"intentId","type":"bytes32"},{"internalType":"bytes32","name":"intentHash","type":"bytes32"},{"internalType":"uint256","name":"qualityFloor","type":"uint256"},{"internalType":"enum PhotonicAuction.CompositionMode","name":"compositionMode","type":"uint8"}],"name":"submitZKIntent","outputs":[],"stateMutability":"payable","type":"function"},{"inputs":[{"internalType":"address","name":"newOwner","type":"address"}],"name":"transferOwnership","outputs":[],"stateMutability":"nonpayable","type":"function"},{"inputs":[],"name":"weightBpdQuality","outputs":[{"internalType":"uint256","name":"","type":"uint256"}],"stateMutability":"view","type":"function"},{"inputs":[],"name":"weightCompositionalFitness","outputs":[{"internalType":"uint256","name":"","type":"uint256"}],"stateMutability":"view","type":"function"},{"inputs":[],"name":"weightDiversityBonus","outputs":[{"internalType":"uint256","name":"","type":"uint256"}],"stateMutability":"view","type":"function"},{"inputs":[],"name":"weightPriceEfficiency","outputs":[{"internalType":"uint256","name":"","type":"uint256"}],"stateMutability":"view","type":"function"}],"evm":{"bytecode":{"linkReferences":{},"object":"608080604052346100bd5733156100a75760008054336001600160a01b03198216811783556040519290916001600160a01b0316907f8be0079c531659141344cd1fd0a4f28419497f9722a3daafe3b4186f6b6457e09080a360017f9b779b17422d0df92223018b32b4d1fa46e071723d6817e2486d003becc55f0055610e1060075560646008556028600955601e600a556014600b55600a600c5561233790816100c38239f35b631e4fbdf760e01b815260006004820152602490fd5b600080fdfe608080604052600436101561001357600080fd5b60003560e01c9081630b62c3bb14611c095750806330aad97514611836578063346c2b9d146117e457806335659fb8146117c657806339eed48b146117a857806343f2f5c21461178a5780634f371f731461176c57806356e56c301461171b578063611eaba114611279578063715018a614611220578063787dce3d146111c757806381b27c5d146111765780638da5cb5b1461114d5780639021578a146110495780639d4f988b14610f3b578063a1e8838714610efc578063b6ba7d2b14610ede578063bd3200f614610ec0578063c38826e014610ea2578063cb0a5a6b14610ba6578063cb2c33f614610896578063d55f960d146107c9578063dec0f0881461041a578063decaf084146103f9578063ece86c09146103db578063f13c46aa1461027a578063f2fde38b146101f15763f7e65b1c1461015357600080fd5b346101ec5760403660031901126101ec576024356004356000526002602052604060002080548210156101ec5760e09161018c91611e10565b5060ff60018060a01b03825416916001810154906002810154600382015490600560048401549301549360405196875260208701526040860152606085015260808401526001600160401b03811660a084015260401c16151560c0820152f35b600080fd5b346101ec5760203660031901126101ec5761020a611c3f565b6102126122b5565b6001600160a01b0390811690811561026157600054826001600160601b0360a01b821617600055167f8be0079c531659141344cd1fd0a4f28419497f9722a3daafe3b4186f6b6457e0600080a3005b604051631e4fbdf760e01b815260006004820152602490fd5b346101ec576020806003193601126101ec576040519061029982611cbc565b600082526000818301526000604083015260608083015260006080830152600060a0830152600060c0830152600060e083015261010091600083820152608060c0610120926000848201526101409560008783015261016090600082840152600061018080940152600435600052600187526103186040600020612111565b9160405198888a998a528451818b01528401519060018060a01b0380921660408b0152604085015160608b01526103c061036460608701518c6101a09b8c9101526101c08d0190611db9565b99608087015160a08d015260a0870151958c6001600160401b039a8b8099169101528c60e060c08a01519101528c8160e08a0151916103a283611df9565b01528701516103b081611df9565b818d0152860151828c0190611e03565b84015116818901528201511682870152015116908301520390f35b346101ec5760003660031901126101ec576020600b54604051908152f35b346101ec5760203660031901126101ec576104126122b5565b600435600755005b60803660031901126101ec57600260643510156101ec57610439612285565b610444341515611e42565b600435600052600160205261046d6001600160401b0360076040600020015460b81c1615611e99565b6001600160401b0361048160075442611ee5565b166040519061048f82611cbc565b60043582523360208301526024356040830152604051602081018181106001600160401b038211176107b35760405260008152606083015234608083015260a082015260443560c0820152600160e08201526104ec606435611df9565b606435610100820152600061012082015260006101408201526001600160401b03421661016082015260006101808201526004356000526001602052604060002090805182556001820160018060a01b036020830151166001600160601b0360a01b8254161790556040810151600283015560608101519182516001600160401b0381116107b35761058e816105856003850154611c82565b60038501611f0d565b6020601f82116001146107455781906105c093949560009261073a575b50508160011b916000199060031b1c19161790565b60038201555b6080820151600482015560058101906001600160401b0360a084015116916001600160401b0319928382541617905560c083015160068201556007810160e084015161061181611df9565b61061a81611df9565b815460ff61ff0061010088015161063081611df9565b61063981611df9565b60081b1692169061ffff1916171781556101208401516004811015610724576001600160401b03928261067160089361018095611f63565b61014087015181546301000000600160b81b03191660189190911b6301000000600160b81b03161781556101608701518154908660b81b9060b81b16908660b81b19161790550193015116908254161790556106ce600435611f84565b6106d9600435611fcc565b6040516001815234602082015233907f2ce20f2d95ad40e6debdcf55e49b8abd91915fdb446d16460dba72f3c3bb3fde604060043592a360016000805160206122e283398151915255005b634e487b7160e01b600052602160045260246000fd5b0151905085806105ab565b6003830160005260206000209060005b601f198416811061079b5750600193949583601f19811610610782575b505050811b0160038201556105c6565b015160001960f88460031b161c19169055848080610772565b9091602060018192858a015181550193019101610755565b634e487b7160e01b600052604160045260246000fd5b346101ec5760203660031901126101ec576004356107e5612285565b806000526001602052604060002061080a60018060a01b036001830154163314612014565b600781019081549060ff8260101c16926004841015610724576000806004819482946202000061085b9861083f8c9b15612060565b62ff000019161790550154335af1610855612209565b50612239565b33907fac5a4b90e421002a2fdb9f132b9b32c24fa4ae16ec480516c85932de208d2a33600080a360016000805160206122e283398151915255005b346101ec5760803660031901126101ec576108af612285565b6004356000526001602052604060002060ff600782015460101c16600481101561072457610b62576001600160401b03600582015416421015610b1d57600435600052600360205260406000203360005260205260ff60406000205416610ad8576004015460443511610a9357600435600052600260205260406000206040519061093982611cd8565b338252602435602083015260443560408301526064356060830152600060808301526001600160401b03421660a0830152600160c08301528054600160401b8110156107b35761098e91600182018155611e10565b610a7d5760059060018060a01b038351166001600160601b0360a01b8254161781556020830151600182015560408301516002820155606083015160038201556080830151600482015501906001600160401b0360a08201511668ff000000000000000060c08454930151151560401b169168ffffffffffffffffff19161717905560043560005260036020526040600020336000526020526040600020600160ff19825416179055604051604435815233907f50fe806ad7090c0b4c89850edc7f5f0619df0b894aa98735d1d54c60548bf286602060043592a360016000805160206122e283398151915255005b634e487b7160e01b600052600060045260246000fd5b60405162461bcd60e51b815260206004820152601f60248201527f50686f746f6e696341756374696f6e3a2061626f7665206d617820636f7374006044820152606490fd5b60405162461bcd60e51b815260206004820152601c60248201527f50686f746f6e696341756374696f6e3a20616c726561647920626964000000006044820152606490fd5b60405162461bcd60e51b815260206004820152601f60248201527f50686f746f6e696341756374696f6e3a2062696464696e6720636c6f736564006044820152606490fd5b606460405162461bcd60e51b815260206004820152602060248201527f50686f746f6e696341756374696f6e3a20696e74656e74206e6f74206f70656e6044820152fd5b346101ec5760603660031901126101ec5760246004356001600160401b0382358181116101ec57610bdb903690600401611c55565b918360005260016020958187526040600020610c0360018060a01b0384830154163314612014565b60078101548360ff8216610c1681611df9565b03610e5e5760101c60ff166004811015610e49578303610df6576040518881019087878337610c596040828a81018d60443590820152038c810184520182611cf3565b519020600282015403610db257600301928511610d9e5750610c8584610c7f8454611c82565b84611f0d565b600090601f8511600114610d135750836040937f3d918dc0b0572da8a7d032adfdc76156fe94d0121d0873dfe29a435128385fad969793610cdf83808096600091610d08575b508160011b916000199060031b1c19161790565b90555b8451958487958652850152848401376000828201840152601f01601f19168101030190a2005b90508401358c610ccb565b90601f1985169083600052876000209160005b818110610d895750938693849360409793857f3d918dc0b0572da8a7d032adfdc76156fe94d0121d0873dfe29a435128385fad9b9c9810610d6f575b505083811b019055610ce2565b840135600019600387901b60f8161c191690558a80610d62565b86830135845592840192918901918901610d26565b634e487b7160e01b60009081526041600452fd5b60405162461bcd60e51b815260048101899052601e818401527f50686f746f6e696341756374696f6e3a2068617368206d69736d6174636800006044820152606490fd5b60405162461bcd60e51b8152600481018990526026818401527f50686f746f6e696341756374696f6e3a206d757374206265206177617264656460448201526508199a5c9cdd60d21b6064820152608490fd5b82634e487b7160e01b60005260216004526000fd5b60405162461bcd60e51b8152600481018a9052601c818501527f50686f746f6e696341756374696f6e3a206e6f74205a4b206d6f6465000000006044820152606490fd5b346101ec5760003660031901126101ec576020600c54604051908152f35b346101ec5760003660031901126101ec576020600a54604051908152f35b346101ec5760003660031901126101ec576020600954604051908152f35b346101ec5760403660031901126101ec57610f15611c3f565b610f1d6122b5565b6001600160a01b031660009081526004602052604090206024359055005b346101ec576020806003193601126101ec57600435600052600281526040600020908154916001600160401b03928381116107b3579160405192610f84828260051b0185611cf3565b8084528184018093600052826000206000915b838310611026575050505060405192818401908285525180915260408401929160005b828110610fc75785850386f35b835180516001600160a01b03168652808301518684015260408082015190870152606080820151908701526080808201519087015260a08082015189169087015260c09081015115159086015260e09094019392810192600101610fba565b600685600192611038859a989a6120ac565b815201920192019190959395610f97565b346101ec5760203660031901126101ec5760043560005260016020526060604060002080549060018060a01b03918260018301541660028301549361109060038501611d14565b906004850154946001600160401b0393846005830154166006830154906110ed60078501549660ff88169489600860ff8b821c16980154169a6040519e8f9e8f906101a094859483526020830152604082015201528c0190611db9565b9860808b015260a08a015260c089015261110681611df9565b60e088015261111481611df9565b61010087015261112e610120870160ff8460101c16611e03565b8160181c1661014086015260b81c166101608401526101808301520390f35b346101ec5760003660031901126101ec576000546040516001600160a01b039091168152602090f35b346101ec5760203660031901126101ec576004356005548110156101ec5760209060056000527f036b6384b5eca791c62761152d0c79bb0604c104a5fb6f4eb0703f3154bb3db00154604051908152f35b346101ec5760203660031901126101ec576004356111e36122b5565b6103e881116111f157600855005b60405162461bcd60e51b81526020600482015260076024820152666d61782031302560c81b6044820152606490fd5b346101ec5760003660031901126101ec576112396122b5565b600080546001600160a01b0319811682556001600160a01b03167f8be0079c531659141344cd1fd0a4f28419497f9722a3daafe3b4186f6b6457e08280a3005b346101ec5760203660031901126101ec57611292612285565b600435600052600160205260406000206112b960018060a01b036001830154163314612014565b60ff600782015460101c166004811015610724576112d79015612060565b6001600160401b0360058201541642106116ca5760043560005260026020526040600020908154156116855760009081805b845481101561150a5760ff60056113208388611e10565b50015460401c16156115025761133f6113398287611e10565b506120ac565b61134884612111565b6060820151909190156114f1576080670b1a2bc2ec500000925b018051156114e8576040820151670de0b6b3a764000091828202918083048414901517156114a457519081156114d257828282048103116114a457049003905b80516001600160a01b031660009081526004602052604090205492831592836114ba57670de0b6b3a7640000938585810204851417156114a45760646114549481960204925b670de0b6b3a764000080851161149a575b509161143a61144061144a93602061143a96015115156000146114855761143a6114306709b6e64a8ec60000955b600954906121e9565b91600a54906121e9565b90611ee5565b91600b54906121e9565b91600c54906121e9565b048060046114628489611e10565b500155828111611478575b506001905b01611309565b915092506001839061146d565b61143a61143067058d15e17628000095611427565b935061143a6113f9565b634e487b7160e01b600052601160045260246000fd5b60649450611454935067016345785d8a0000926113e8565b634e487b7160e01b600052601260045260246000fd5b506000906113a2565b6080670429d069189e000092611362565b600190611472565b50600261152d859461151c8187611e10565b50546001600160a01b031695611e10565b50015460078301805462010000600160b81b0319166301000000600160b81b03601887901b1617620100001790556008808401805467ffffffffffffffff1916426001600160401b031617905554909290611597906127109061159090866121e9565b04846121fc565b6115a58460048401546121fc565b9080611623575b50806115fc575b505060405191825260208201527f1a7d1bd9541230a71a85f1873ed02c2ab08382ecc570b030a47a424e51f58ced604060043592a360016000805160206122e283398151915255005b60008080809361161c956001808060a01b03910154165af1610855612209565b83806115b3565b600080808093895af1611634612209565b501561164057856115ac565b60405162461bcd60e51b815260206004820152601f60248201527f50686f746f6e696341756374696f6e3a207061796d656e74206661696c6564006044820152606490fd5b60405162461bcd60e51b815260206004820152601860248201527f50686f746f6e696341756374696f6e3a206e6f206269647300000000000000006044820152606490fd5b60405162461bcd60e51b815260206004820152602360248201527f50686f746f6e696341756374696f6e3a2062696464696e67207374696c6c206f6044820152623832b760e91b6064820152608490fd5b346101ec5760203660031901126101ec576004356006548110156101ec5760209060066000527ff652222313e28459528d920b65115c16c04f3efc82aaedc97be59f3f377c0d3f0154604051908152f35b346101ec5760003660031901126101ec576020600754604051908152f35b346101ec5760003660031901126101ec576020600554604051908152f35b346101ec5760003660031901126101ec576020600654604051908152f35b346101ec5760003660031901126101ec576020600854604051908152f35b346101ec5760403660031901126101ec576024356001600160a01b038116908190036101ec576004356000526003602052604060002090600052602052602060ff604060002054166040519015158152f35b60803660031901126101ec576024356001600160401b0381116101ec57611861903690600401611c55565b600260643510156101ec57611874612285565b61187f341515611e42565b60043560005260016020526118a86001600160401b0360076040600020015460b81c1615611e99565b6040516020810190828483376118da6054828581013360601b6020820152426034820152036034810184520182611cf3565b519020916001600160401b036118f260075442611ee5565b16916040519361190185611cbc565b6004358552336020860152604085015261191a81611ef2565b916119286040519384611cf3565b81835236828201116101ec57816000926020928386013783010152606083015234608083015260a082015260443560c0820152600060e082015261196d606435611df9565b606435610100820152600061012082015260006101408201526001600160401b03421661016082015260006101808201526004356000526001602052604060002090805182556001820160018060a01b036020830151166001600160601b0360a01b8254161790556040810151600283015560608101519182516001600160401b0381116107b357611a06816105856003850154611c82565b6020601f8211600114611b9b578190611a3793949560009261073a5750508160011b916000199060031b1c19161790565b60038201555b6080820151600482015560058101906001600160401b0360a084015116916001600160401b0319928382541617905560c083015160068201556007810160e0840151611a8881611df9565b611a9181611df9565b815460ff61ff00610100880151611aa781611df9565b611ab081611df9565b60081b1692169061ffff1916171781556101208401516004811015610724576001600160401b039282611ae860089361018095611f63565b61014087015181546301000000600160b81b03191660189190911b6301000000600160b81b03161781556101608701518154908660b81b9060b81b16908660b81b1916179055019301511690825416179055611b45600435611f84565b611b50600435611fcc565b6040516000815234602082015233907f2ce20f2d95ad40e6debdcf55e49b8abd91915fdb446d16460dba72f3c3bb3fde604060043592a360016000805160206122e283398151915255005b6003830160005260206000209060005b601f1984168110611bf15750600193949583601f19811610611bd8575b505050811b016003820155611a3d565b015160001960f88460031b161c19169055848080611bc8565b9091602060018192858a015181550193019101611bab565b346101ec5760203660031901126101ec576020906001600160a01b03611c2d611c3f565b16600052600482526040600020548152f35b600435906001600160a01b03821682036101ec57565b9181601f840112156101ec578235916001600160401b0383116101ec57602083818601950101116101ec57565b90600182811c92168015611cb2575b6020831014611c9c57565b634e487b7160e01b600052602260045260246000fd5b91607f1691611c91565b6101a081019081106001600160401b038211176107b357604052565b60e081019081106001600160401b038211176107b357604052565b90601f801991011681019081106001600160401b038211176107b357604052565b90604051918260008254611d2781611c82565b90818452602094600191600181169081600014611d975750600114611d58575b505050611d5692500383611cf3565b565b600090815285812095935091905b818310611d7f575050611d569350820101388080611d47565b85548884018501529485019487945091830191611d66565b92505050611d5694925060ff191682840152151560051b820101388080611d47565b919082519283825260005b848110611de5575050826000602080949584010152601f8019910116010190565b602081830181015184830182015201611dc4565b6002111561072457565b9060048210156107245752565b8054821015611e2c576000526006602060002091020190600090565b634e487b7160e01b600052603260045260246000fd5b15611e4957565b60405162461bcd60e51b815260206004820152602260248201527f50686f746f6e696341756374696f6e3a206d75737420657363726f772066756e604482015261647360f01b6064820152608490fd5b15611ea057565b60405162461bcd60e51b815260206004820152601e60248201527f50686f746f6e696341756374696f6e3a20696e74656e742065786973747300006044820152606490fd5b919082018092116114a457565b6001600160401b0381116107b357601f01601f191660200190565b90601f8111611f1b57505050565b6000916000526020600020906020601f850160051c83019410611f59575b601f0160051c01915b828110611f4e57505050565b818155600101611f42565b9092508290611f39565b9060048110156107245762ff000082549160101b169062ff00001916179055565b600554600160401b8110156107b3576001810180600555811015611e2c5760056000527f036b6384b5eca791c62761152d0c79bb0604c104a5fb6f4eb0703f3154bb3db00155565b600654600160401b8110156107b3576001810180600655811015611e2c5760066000527ff652222313e28459528d920b65115c16c04f3efc82aaedc97be59f3f377c0d3f0155565b1561201b57565b60405162461bcd60e51b815260206004820152601a60248201527f50686f746f6e696341756374696f6e3a206e6f742062757965720000000000006044820152606490fd5b1561206757565b60405162461bcd60e51b815260206004820152601960248201527f50686f746f6e696341756374696f6e3a206e6f74206f70656e000000000000006044820152606490fd5b906040516120b981611cd8565b60c060ff6005839560018060a01b0381541685526001810154602086015260028101546040860152600381015460608601526004810154608086015201546001600160401b03811660a085015260401c161515910152565b9060405161211e81611cbc565b8254815260018301546001600160a01b039081166020830152600284015460408301529092839161215160038301611d14565b6060840152600482015460808401526001600160401b03908160058401541660a0850152600683015460c085015260078301549260ff841661219281611df9565b60e086015260ff8460081c166121a781611df9565b61010086015260ff8460101c166004811015610724576101809460089385926101208901528160181c1661014088015260b81c16610160860152015416910152565b818102929181159184041417156114a457565b919082039182116114a457565b3d15612234573d9061221a82611ef2565b916122286040519384611cf3565b82523d6000602084013e565b606090565b1561224057565b60405162461bcd60e51b815260206004820152601e60248201527f50686f746f6e696341756374696f6e3a20726566756e64206661696c656400006044820152606490fd5b6000805160206122e283398151915260028154146122a35760029055565b604051633ee5aeb560e01b8152600490fd5b6000546001600160a01b031633036122c957565b60405163118cdaa760e01b8152336004820152602490fdfe9b779b17422d0df92223018b32b4d1fa46e071723d6817e2486d003becc55f00a264697066735822122003593dd86bc189843b8734c13d8e2e5ad23ca541c2a763878c0eb7480380ad6164736f6c63430008180033","opcodes":"PUSH1 0x80 DUP1 PUSH1 0x40 MSTORE CALLVALUE PUSH2 0xBD JUMPI CALLER ISZERO PUSH2 0xA7 JUMPI PUSH1 0x0 DUP1 SLOAD CALLER PUSH1 0x1 PUSH1 0x1 PUSH1 0xA0 SHL SUB NOT DUP3 AND DUP2 OR DUP4 SSTORE PUSH1 0x40 MLOAD SWAP3 SWAP1 SWAP2 PUSH1 0x1 PUSH1 0x1 PUSH1 0xA0 SHL SUB AND SWAP1 PUSH32 0x8BE0079C531659141344CD1FD0A4F28419497F9722A3DAAFE3B4186F6B6457E0 SWAP1 DUP1 LOG3 PUSH1 0x1 PUSH32 0x9B779B17422D0DF92223018B32B4D1FA46E071723D6817E2486D003BECC55F00 SSTORE PUSH2 0xE10 PUSH1 0x7 SSTORE PUSH1 0x64 PUSH1 0x8 SSTORE PUSH1 0x28 PUSH1 0x9 SSTORE PUSH1 0x1E PUSH1 0xA SSTORE PUSH1 0x14 PUSH1 0xB SSTORE PUSH1 0xA PUSH1 0xC SSTORE PUSH2 0x2337 SWAP1 DUP2 PUSH2 0xC3 DUP3 CODECOPY RETURN JUMPDEST PUSH4 0x1E4FBDF7 PUSH1 0xE0 SHL DUP2 MSTORE PUSH1 0x0 PUSH1 0x4 DUP3 ADD MSTORE PUSH1 0x24 SWAP1 REVERT JUMPDEST PUSH1 0x0 DUP1 REVERT INVALID PUSH1 0x80 DUP1 PUSH1 0x40 MSTORE PUSH1 0x4 CALLDATASIZE LT ISZERO PUSH2 0x13 JUMPI PUSH1 0x0 DUP1 REVERT JUMPDEST PUSH1 0x0 CALLDATALOAD PUSH1 0xE0 SHR SWAP1 DUP2 PUSH4 0xB62C3BB EQ PUSH2 0x1C09 JUMPI POP DUP1 PUSH4 0x30AAD975 EQ PUSH2 0x1836 JUMPI DUP1 PUSH4 0x346C2B9D EQ PUSH2 0x17E4 JUMPI DUP1 PUSH4 0x35659FB8 EQ PUSH2 0x17C6 JUMPI DUP1 PUSH4 0x39EED48B EQ PUSH2 0x17A8 JUMPI DUP1 PUSH4 0x43F2F5C2 EQ PUSH2 0x178A JUMPI DUP1 PUSH4 0x4F371F73 EQ PUSH2 0x176C JUMPI DUP1 PUSH4 0x56E56C30 EQ PUSH2 0x171B JUMPI DUP1 PUSH4 0x611EABA1 EQ PUSH2 0x1279 JUMPI DUP1 PUSH4 0x715018A6 EQ PUSH2 0x1220 JUMPI DUP1 PUSH4 0x787DCE3D EQ PUSH2 0x11C7 JUMPI DUP1 PUSH4 0x81B27C5D EQ PUSH2 0x1176 JUMPI DUP1 PUSH4 0x8DA5CB5B EQ PUSH2 0x114D JUMPI DUP1 PUSH4 0x9021578A EQ PUSH2 0x1049 JUMPI DUP1 PUSH4 0x9D4F988B EQ PUSH2 0xF3B JUMPI DUP1 PUSH4 0xA1E88387 EQ PUSH2 0xEFC JUMPI DUP1 PUSH4 0xB6BA7D2B EQ PUSH2 0xEDE JUMPI DUP1 PUSH4 0xBD3200F6 EQ PUSH2 0xEC0 JUMPI DUP1 PUSH4 0xC38826E0 EQ PUSH2 0xEA2 JUMPI DUP1 PUSH4 0xCB0A5A6B EQ PUSH2 0xBA6 JUMPI DUP1 PUSH4 0xCB2C33F6 EQ PUSH2 0x896 JUMPI DUP1 PUSH4 0xD55F960D EQ PUSH2 0x7C9 JUMPI DUP1 PUSH4 0xDEC0F088 EQ PUSH2 0x41A JUMPI DUP1 PUSH4 0xDECAF084 EQ PUSH2 0x3F9 JUMPI DUP1 PUSH4 0xECE86C09 EQ PUSH2 0x3DB JUMPI DUP1 PUSH4 0xF13C46AA EQ PUSH2 0x27A JUMPI DUP1 PUSH4 0xF2FDE38B EQ PUSH2 0x1F1 JUMPI PUSH4 0xF7E65B1C EQ PUSH2 0x153 JUMPI PUSH1 0x0 DUP1 REVERT JUMPDEST CALLVALUE PUSH2 0x1EC JUMPI PUSH1 0x40 CALLDATASIZE PUSH1 0x3 NOT ADD SLT PUSH2 0x1EC JUMPI PUSH1 0x24 CALLDATALOAD PUSH1 0x4 CALLDATALOAD PUSH1 0x0 MSTORE PUSH1 0x2 PUSH1 0x20 MSTORE PUSH1 0x40 PUSH1 0x0 KECCAK256 DUP1 SLOAD DUP3 LT ISZERO PUSH2 0x1EC JUMPI PUSH1 0xE0 SWAP2 PUSH2 0x18C SWAP2 PUSH2 0x1E10 JUMP JUMPDEST POP PUSH1 0xFF PUSH1 0x1 DUP1 PUSH1 0xA0 SHL SUB DUP3 SLOAD AND SWAP2 PUSH1 0x1 DUP2 ADD SLOAD SWAP1 PUSH1 0x2 DUP2 ADD SLOAD PUSH1 0x3 DUP3 ADD SLOAD SWAP1 PUSH1 0x5 PUSH1 0x4 DUP5 ADD SLOAD SWAP4 ADD SLOAD SWAP4 PUSH1 0x40 MLOAD SWAP7 DUP8 MSTORE PUSH1 0x20 DUP8 ADD MSTORE PUSH1 0x40 DUP7 ADD MSTORE PUSH1 0x60 DUP6 ADD MSTORE PUSH1 0x80 DUP5 ADD MSTORE PUSH1 0x1 PUSH1 0x1 PUSH1 0x40 SHL SUB DUP2 AND PUSH1 0xA0 DUP5 ADD MSTORE PUSH1 0x40 SHR AND ISZERO ISZERO PUSH1 0xC0 DUP3 ADD MSTORE RETURN JUMPDEST PUSH1 0x0 DUP1 REVERT JUMPDEST CALLVALUE PUSH2 0x1EC JUMPI PUSH1 0x20 CALLDATASIZE PUSH1 0x3 NOT ADD SLT PUSH2 0x1EC JUMPI PUSH2 0x20A PUSH2 0x1C3F JUMP JUMPDEST PUSH2 0x212 PUSH2 0x22B5 JUMP JUMPDEST PUSH1 0x1 PUSH1 0x1 PUSH1 0xA0 SHL SUB SWAP1 DUP2 AND SWAP1 DUP2 ISZERO PUSH2 0x261 JUMPI PUSH1 0x0 SLOAD DUP3 PUSH1 0x1 PUSH1 0x1 PUSH1 0x60 SHL SUB PUSH1 0xA0 SHL DUP3 AND OR PUSH1 0x0 SSTORE AND PUSH32 0x8BE0079C531659141344CD1FD0A4F28419497F9722A3DAAFE3B4186F6B6457E0 PUSH1 0x0 DUP1 LOG3 STOP JUMPDEST PUSH1 0x40 MLOAD PUSH4 0x1E4FBDF7 PUSH1 0xE0 SHL DUP2 MSTORE PUSH1 0x0 PUSH1 0x4 DUP3 ADD MSTORE PUSH1 0x24 SWAP1 REVERT JUMPDEST CALLVALUE PUSH2 0x1EC JUMPI PUSH1 0x20 DUP1 PUSH1 0x3 NOT CALLDATASIZE ADD SLT PUSH2 0x1EC JUMPI PUSH1 0x40 MLOAD SWAP1 PUSH2 0x299 DUP3 PUSH2 0x1CBC JUMP JUMPDEST PUSH1 0x0 DUP3 MSTORE PUSH1 0x0 DUP2 DUP4 ADD MSTORE PUSH1 0x0 PUSH1 0x40 DUP4 ADD MSTORE PUSH1 0x60 DUP1 DUP4 ADD MSTORE PUSH1 0x0 PUSH1 0x80 DUP4 ADD MSTORE PUSH1 0x0 PUSH1 0xA0 DUP4 ADD MSTORE PUSH1 0x0 PUSH1 0xC0 DUP4 ADD MSTORE PUSH1 0x0 PUSH1 0xE0 DUP4 ADD MSTORE PUSH2 0x100 SWAP2 PUSH1 0x0 DUP4 DUP3 ADD MSTORE PUSH1 0x80 PUSH1 0xC0 PUSH2 0x120 SWAP3 PUSH1 0x0 DUP5 DUP3 ADD MSTORE PUSH2 0x140 SWAP6 PUSH1 0x0 DUP8 DUP4 ADD MSTORE PUSH2 0x160 SWAP1 PUSH1 0x0 DUP3 DUP5 ADD MSTORE PUSH1 0x0 PUSH2 0x180 DUP1 SWAP5 ADD MSTORE PUSH1 0x4 CALLDATALOAD PUSH1 0x0 MSTORE PUSH1 0x1 DUP8 MSTORE PUSH2 0x318 PUSH1 0x40 PUSH1 0x0 KECCAK256 PUSH2 0x2111 JUMP JUMPDEST SWAP2 PUSH1 0x40 MLOAD SWAP9 DUP9 DUP11 SWAP10 DUP11 MSTORE DUP5 MLOAD DUP2 DUP12 ADD MSTORE DUP5 ADD MLOAD SWAP1 PUSH1 0x1 DUP1 PUSH1 0xA0 SHL SUB DUP1 SWAP3 AND PUSH1 0x40 DUP12 ADD MSTORE PUSH1 0x40 DUP6 ADD MLOAD PUSH1 0x60 DUP12 ADD MSTORE PUSH2 0x3C0 PUSH2 0x364 PUSH1 0x60 DUP8 ADD MLOAD DUP13 PUSH2 0x1A0 SWAP12 DUP13 SWAP2 ADD MSTORE PUSH2 0x1C0 DUP14 ADD SWAP1 PUSH2 0x1DB9 JUMP JUMPDEST SWAP10 PUSH1 0x80 DUP8 ADD MLOAD PUSH1 0xA0 DUP14 ADD MSTORE PUSH1 0xA0 DUP8 ADD MLOAD SWAP6 DUP13 PUSH1 0x1 PUSH1 0x1 PUSH1 0x40 SHL SUB SWAP11 DUP12 DUP1 SWAP10 AND SWAP2 ADD MSTORE DUP13 PUSH1 0xE0 PUSH1 0xC0 DUP11 ADD MLOAD SWAP2 ADD MSTORE DUP13 DUP2 PUSH1 0xE0 DUP11 ADD MLOAD SWAP2 PUSH2 0x3A2 DUP4 PUSH2 0x1DF9 JUMP JUMPDEST ADD MSTORE DUP8 ADD MLOAD PUSH2 0x3B0 DUP2 PUSH2 0x1DF9 JUMP JUMPDEST DUP2 DUP14 ADD MSTORE DUP7 ADD MLOAD DUP3 DUP13 ADD SWAP1 PUSH2 0x1E03 JUMP JUMPDEST DUP5 ADD MLOAD AND DUP2 DUP10 ADD MSTORE DUP3 ADD MLOAD AND DUP3 DUP8 ADD MSTORE ADD MLOAD AND SWAP1 DUP4 ADD MSTORE SUB SWAP1 RETURN JUMPDEST CALLVALUE PUSH2 0x1EC JUMPI PUSH1 0x0 CALLDATASIZE PUSH1 0x3 NOT ADD SLT PUSH2 0x1EC JUMPI PUSH1 0x20 PUSH1 0xB SLOAD PUSH1 0x40 MLOAD SWAP1 DUP2 MSTORE RETURN JUMPDEST CALLVALUE PUSH2 0x1EC JUMPI PUSH1 0x20 CALLDATASIZE PUSH1 0x3 NOT ADD SLT PUSH2 0x1EC JUMPI PUSH2 0x412 PUSH2 0x22B5 JUMP JUMPDEST PUSH1 0x4 CALLDATALOAD PUSH1 0x7 SSTORE STOP JUMPDEST PUSH1 0x80 CALLDATASIZE PUSH1 0x3 NOT ADD SLT PUSH2 0x1EC JUMPI PUSH1 0x2 PUSH1 0x64 CALLDATALOAD LT ISZERO PUSH2 0x1EC JUMPI PUSH2 0x439 PUSH2 0x2285 JUMP JUMPDEST PUSH2 0x444 CALLVALUE ISZERO ISZERO PUSH2 0x1E42 JUMP JUMPDEST PUSH1 0x4 CALLDATALOAD PUSH1 0x0 MSTORE PUSH1 0x1 PUSH1 0x20 MSTORE PUSH2 0x46D PUSH1 0x1 PUSH1 0x1 PUSH1 0x40 SHL SUB PUSH1 0x7 PUSH1 0x40 PUSH1 0x0 KECCAK256 ADD SLOAD PUSH1 0xB8 SHR AND ISZERO PUSH2 0x1E99 JUMP JUMPDEST PUSH1 0x1 PUSH1 0x1 PUSH1 0x40 SHL SUB PUSH2 0x481 PUSH1 0x7 SLOAD TIMESTAMP PUSH2 0x1EE5 JUMP JUMPDEST AND PUSH1 0x40 MLOAD SWAP1 PUSH2 0x48F DUP3 PUSH2 0x1CBC JUMP JUMPDEST PUSH1 0x4 CALLDATALOAD DUP3 MSTORE CALLER PUSH1 0x20 DUP4 ADD MSTORE PUSH1 0x24 CALLDATALOAD PUSH1 0x40 DUP4 ADD MSTORE PUSH1 0x40 MLOAD PUSH1 0x20 DUP2 ADD DUP2 DUP2 LT PUSH1 0x1 PUSH1 0x1 PUSH1 0x40 SHL SUB DUP3 GT OR PUSH2 0x7B3 JUMPI PUSH1 0x40 MSTORE PUSH1 0x0 DUP2 MSTORE PUSH1 0x60 DUP4 ADD MSTORE CALLVALUE PUSH1 0x80 DUP4 ADD MSTORE PUSH1 0xA0 DUP3 ADD MSTORE PUSH1 0x44 CALLDATALOAD PUSH1 0xC0 DUP3 ADD MSTORE PUSH1 0x1 PUSH1 0xE0 DUP3 ADD MSTORE PUSH2 0x4EC PUSH1 0x64 CALLDATALOAD PUSH2 0x1DF9 JUMP JUMPDEST PUSH1 0x64 CALLDATALOAD PUSH2 0x100 DUP3 ADD MSTORE PUSH1 0x0 PUSH2 0x120 DUP3 ADD MSTORE PUSH1 0x0 PUSH2 0x140 DUP3 ADD MSTORE PUSH1 0x1 PUSH1 0x1 PUSH1 0x40 SHL SUB TIMESTAMP AND PUSH2 0x160 DUP3 ADD MSTORE PUSH1 0x0 PUSH2 0x180 DUP3 ADD MSTORE PUSH1 0x4 CALLDATALOAD PUSH1 0x0 MSTORE PUSH1 0x1 PUSH1 0x20 MSTORE PUSH1 0x40 PUSH1 0x0 KECCAK256 SWAP1 DUP1 MLOAD DUP3 SSTORE PUSH1 0x1 DUP3 ADD PUSH1 0x1 DUP1 PUSH1 0xA0 SHL SUB PUSH1 0x20 DUP4 ADD MLOAD AND PUSH1 0x1 PUSH1 0x1 PUSH1 0x60 SHL SUB PUSH1 0xA0 SHL DUP3 SLOAD AND OR SWAP1 SSTORE PUSH1 0x40 DUP2 ADD MLOAD PUSH1 0x2 DUP4 ADD SSTORE PUSH1 0x60 DUP2 ADD MLOAD SWAP2 DUP3 MLOAD PUSH1 0x1 PUSH1 0x1 PUSH1 0x40 SHL SUB DUP2 GT PUSH2 0x7B3 JUMPI PUSH2 0x58E DUP2 PUSH2 0x585 PUSH1 0x3 DUP6 ADD SLOAD PUSH2 0x1C82 JUMP JUMPDEST PUSH1 0x3 DUP6 ADD PUSH2 0x1F0D JUMP JUMPDEST PUSH1 0x20 PUSH1 0x1F DUP3 GT PUSH1 0x1 EQ PUSH2 0x745 JUMPI DUP2 SWAP1 PUSH2 0x5C0 SWAP4 SWAP5 SWAP6 PUSH1 0x0 SWAP3 PUSH2 0x73A JUMPI JUMPDEST POP POP DUP2 PUSH1 0x1 SHL SWAP2 PUSH1 0x0 NOT SWAP1 PUSH1 0x3 SHL SHR NOT AND OR SWAP1 JUMP JUMPDEST PUSH1 0x3 DUP3 ADD SSTORE JUMPDEST PUSH1 0x80 DUP3 ADD MLOAD PUSH1 0x4 DUP3 ADD SSTORE PUSH1 0x5 DUP2 ADD SWAP1 PUSH1 0x1 PUSH1 0x1 PUSH1 0x40 SHL SUB PUSH1 0xA0 DUP5 ADD MLOAD AND SWAP2 PUSH1 0x1 PUSH1 0x1 PUSH1 0x40 SHL SUB NOT SWAP3 DUP4 DUP3 SLOAD AND OR SWAP1 SSTORE PUSH1 0xC0 DUP4 ADD MLOAD PUSH1 0x6 DUP3 ADD SSTORE PUSH1 0x7 DUP2 ADD PUSH1 0xE0 DUP5 ADD MLOAD PUSH2 0x611 DUP2 PUSH2 0x1DF9 JUMP JUMPDEST PUSH2 0x61A DUP2 PUSH2 0x1DF9 JUMP JUMPDEST DUP2 SLOAD PUSH1 0xFF PUSH2 0xFF00 PUSH2 0x100 DUP9 ADD MLOAD PUSH2 0x630 DUP2 PUSH2 0x1DF9 JUMP JUMPDEST PUSH2 0x639 DUP2 PUSH2 0x1DF9 JUMP JUMPDEST PUSH1 0x8 SHL AND SWAP3 AND SWAP1 PUSH2 0xFFFF NOT AND OR OR DUP2 SSTORE PUSH2 0x120 DUP5 ADD MLOAD PUSH1 0x4 DUP2 LT ISZERO PUSH2 0x724 JUMPI PUSH1 0x1 PUSH1 0x1 PUSH1 0x40 SHL SUB SWAP3 DUP3 PUSH2 0x671 PUSH1 0x8 SWAP4 PUSH2 0x180 SWAP6 PUSH2 0x1F63 JUMP JUMPDEST PUSH2 0x140 DUP8 ADD MLOAD DUP2 SLOAD PUSH4 0x1000000 PUSH1 0x1 PUSH1 0xB8 SHL SUB NOT AND PUSH1 0x18 SWAP2 SWAP1 SWAP2 SHL PUSH4 0x1000000 PUSH1 0x1 PUSH1 0xB8 SHL SUB AND OR DUP2 SSTORE PUSH2 0x160 DUP8 ADD MLOAD DUP2 SLOAD SWAP1 DUP7 PUSH1 0xB8 SHL SWAP1 PUSH1 0xB8 SHL AND SWAP1 DUP7 PUSH1 0xB8 SHL NOT AND OR SWAP1 SSTORE ADD SWAP4 ADD MLOAD AND SWAP1 DUP3 SLOAD AND OR SWAP1 SSTORE PUSH2 0x6CE PUSH1 0x4 CALLDATALOAD PUSH2 0x1F84 JUMP JUMPDEST PUSH2 0x6D9 PUSH1 0x4 CALLDATALOAD PUSH2 0x1FCC JUMP JUMPDEST PUSH1 0x40 MLOAD PUSH1 0x1 DUP2 MSTORE CALLVALUE PUSH1 0x20 DUP3 ADD MSTORE CALLER SWAP1 PUSH32 0x2CE20F2D95AD40E6DEBDCF55E49B8ABD91915FDB446D16460DBA72F3C3BB3FDE PUSH1 0x40 PUSH1 0x4 CALLDATALOAD SWAP3 LOG3 PUSH1 0x1 PUSH1 0x0 DUP1 MLOAD PUSH1 0x20 PUSH2 0x22E2 DUP4 CODECOPY DUP2 MLOAD SWAP2 MSTORE SSTORE STOP JUMPDEST PUSH4 0x4E487B71 PUSH1 0xE0 SHL PUSH1 0x0 MSTORE PUSH1 0x21 PUSH1 0x4 MSTORE PUSH1 0x24 PUSH1 0x0 REVERT JUMPDEST ADD MLOAD SWAP1 POP DUP6 DUP1 PUSH2 0x5AB JUMP JUMPDEST PUSH1 0x3 DUP4 ADD PUSH1 0x0 MSTORE PUSH1 0x20 PUSH1 0x0 KECCAK256 SWAP1 PUSH1 0x0 JUMPDEST PUSH1 0x1F NOT DUP5 AND DUP2 LT PUSH2 0x79B JUMPI POP PUSH1 0x1 SWAP4 SWAP5 SWAP6 DUP4 PUSH1 0x1F NOT DUP2 AND LT PUSH2 0x782 JUMPI JUMPDEST POP POP POP DUP2 SHL ADD PUSH1 0x3 DUP3 ADD SSTORE PUSH2 0x5C6 JUMP JUMPDEST ADD MLOAD PUSH1 0x0 NOT PUSH1 0xF8 DUP5 PUSH1 0x3 SHL AND SHR NOT AND SWAP1 SSTORE DUP5 DUP1 DUP1 PUSH2 0x772 JUMP JUMPDEST SWAP1 SWAP2 PUSH1 0x20 PUSH1 0x1 DUP2 SWAP3 DUP6 DUP11 ADD MLOAD DUP2 SSTORE ADD SWAP4 ADD SWAP2 ADD PUSH2 0x755 JUMP JUMPDEST PUSH4 0x4E487B71 PUSH1 0xE0 SHL PUSH1 0x0 MSTORE PUSH1 0x41 PUSH1 0x4 MSTORE PUSH1 0x24 PUSH1 0x0 REVERT JUMPDEST CALLVALUE PUSH2 0x1EC JUMPI PUSH1 0x20 CALLDATASIZE PUSH1 0x3 NOT ADD SLT PUSH2 0x1EC JUMPI PUSH1 0x4 CALLDATALOAD PUSH2 0x7E5 PUSH2 0x2285 JUMP JUMPDEST DUP1 PUSH1 0x0 MSTORE PUSH1 0x1 PUSH1 0x20 MSTORE PUSH1 0x40 PUSH1 0x0 KECCAK256 PUSH2 0x80A PUSH1 0x1 DUP1 PUSH1 0xA0 SHL SUB PUSH1 0x1 DUP4 ADD SLOAD AND CALLER EQ PUSH2 0x2014 JUMP JUMPDEST PUSH1 0x7 DUP2 ADD SWAP1 DUP2 SLOAD SWAP1 PUSH1 0xFF DUP3 PUSH1 0x10 SHR AND SWAP3 PUSH1 0x4 DUP5 LT ISZERO PUSH2 0x724 JUMPI PUSH1 0x0 DUP1 PUSH1 0x4 DUP2 SWAP5 DUP3 SWAP5 PUSH3 0x20000 PUSH2 0x85B SWAP9 PUSH2 0x83F DUP13 SWAP12 ISZERO PUSH2 0x2060 JUMP JUMPDEST PUSH3 0xFF0000 NOT AND OR SWAP1 SSTORE ADD SLOAD CALLER GAS CALL PUSH2 0x855 PUSH2 0x2209 JUMP JUMPDEST POP PUSH2 0x2239 JUMP JUMPDEST CALLER SWAP1 PUSH32 0xAC5A4B90E421002A2FDB9F132B9B32C24FA4AE16EC480516C85932DE208D2A33 PUSH1 0x0 DUP1 LOG3 PUSH1 0x1 PUSH1 0x0 DUP1 MLOAD PUSH1 0x20 PUSH2 0x22E2 DUP4 CODECOPY DUP2 MLOAD SWAP2 MSTORE SSTORE STOP JUMPDEST CALLVALUE PUSH2 0x1EC JUMPI PUSH1 0x80 CALLDATASIZE PUSH1 0x3 NOT ADD SLT PUSH2 0x1EC JUMPI PUSH2 0x8AF PUSH2 0x2285 JUMP JUMPDEST PUSH1 0x4 CALLDATALOAD PUSH1 0x0 MSTORE PUSH1 0x1 PUSH1 0x20 MSTORE PUSH1 0x40 PUSH1 0x0 KECCAK256 PUSH1 0xFF PUSH1 0x7 DUP3 ADD SLOAD PUSH1 0x10 SHR AND PUSH1 0x4 DUP2 LT ISZERO PUSH2 0x724 JUMPI PUSH2 0xB62 JUMPI PUSH1 0x1 PUSH1 0x1 PUSH1 0x40 SHL SUB PUSH1 0x5 DUP3 ADD SLOAD AND TIMESTAMP LT ISZERO PUSH2 0xB1D JUMPI PUSH1 0x4 CALLDATALOAD PUSH1 0x0 MSTORE PUSH1 0x3 PUSH1 0x20 MSTORE PUSH1 0x40 PUSH1 0x0 KECCAK256 CALLER PUSH1 0x0 MSTORE PUSH1 0x20 MSTORE PUSH1 0xFF PUSH1 0x40 PUSH1 0x0 KECCAK256 SLOAD AND PUSH2 0xAD8 JUMPI PUSH1 0x4 ADD SLOAD PUSH1 0x44 CALLDATALOAD GT PUSH2 0xA93 JUMPI PUSH1 0x4 CALLDATALOAD PUSH1 0x0 MSTORE PUSH1 0x2 PUSH1 0x20 MSTORE PUSH1 0x40 PUSH1 0x0 KECCAK256 PUSH1 0x40 MLOAD SWAP1 PUSH2 0x939 DUP3 PUSH2 0x1CD8 JUMP JUMPDEST CALLER DUP3 MSTORE PUSH1 0x24 CALLDATALOAD PUSH1 0x20 DUP4 ADD MSTORE PUSH1 0x44 CALLDATALOAD PUSH1 0x40 DUP4 ADD MSTORE PUSH1 0x64 CALLDATALOAD PUSH1 0x60 DUP4 ADD MSTORE PUSH1 0x0 PUSH1 0x80 DUP4 ADD MSTORE PUSH1 0x1 PUSH1 0x1 PUSH1 0x40 SHL SUB TIMESTAMP AND PUSH1 0xA0 DUP4 ADD MSTORE PUSH1 0x1 PUSH1 0xC0 DUP4 ADD MSTORE DUP1 SLOAD PUSH1 0x1 PUSH1 0x40 SHL DUP2 LT ISZERO PUSH2 0x7B3 JUMPI PUSH2 0x98E SWAP2 PUSH1 0x1 DUP3 ADD DUP2 SSTORE PUSH2 0x1E10 JUMP JUMPDEST PUSH2 0xA7D JUMPI PUSH1 0x5 SWAP1 PUSH1 0x1 DUP1 PUSH1 0xA0 SHL SUB DUP4 MLOAD AND PUSH1 0x1 PUSH1 0x1 PUSH1 0x60 SHL SUB PUSH1 0xA0 SHL DUP3 SLOAD AND OR DUP2 SSTORE PUSH1 0x20 DUP4 ADD MLOAD PUSH1 0x1 DUP3 ADD SSTORE PUSH1 0x40 DUP4 ADD MLOAD PUSH1 0x2 DUP3 ADD SSTORE PUSH1 0x60 DUP4 ADD MLOAD PUSH1 0x3 DUP3 ADD SSTORE PUSH1 0x80 DUP4 ADD MLOAD PUSH1 0x4 DUP3 ADD SSTORE ADD SWAP1 PUSH1 0x1 PUSH1 0x1 PUSH1 0x40 SHL SUB PUSH1 0xA0 DUP3 ADD MLOAD AND PUSH9 0xFF0000000000000000 PUSH1 0xC0 DUP5 SLOAD SWAP4 ADD MLOAD ISZERO ISZERO PUSH1 0x40 SHL AND SWAP2 PUSH9 0xFFFFFFFFFFFFFFFFFF NOT AND OR OR SWAP1 SSTORE PUSH1 0x4 CALLDATALOAD PUSH1 0x0 MSTORE PUSH1 0x3 PUSH1 0x20 MSTORE PUSH1 0x40 PUSH1 0x0 KECCAK256 CALLER PUSH1 0x0 MSTORE PUSH1 0x20 MSTORE PUSH1 0x40 PUSH1 0x0 KECCAK256 PUSH1 0x1 PUSH1 0xFF NOT DUP3 SLOAD AND OR SWAP1 SSTORE PUSH1 0x40 MLOAD PUSH1 0x44 CALLDATALOAD DUP2 MSTORE CALLER SWAP1 PUSH32 0x50FE806AD7090C0B4C89850EDC7F5F0619DF0B894AA98735D1D54C60548BF286 PUSH1 0x20 PUSH1 0x4 CALLDATALOAD SWAP3 LOG3 PUSH1 0x1 PUSH1 0x0 DUP1 MLOAD PUSH1 0x20 PUSH2 0x22E2 DUP4 CODECOPY DUP2 MLOAD SWAP2 MSTORE SSTORE STOP JUMPDEST PUSH4 0x4E487B71 PUSH1 0xE0 SHL PUSH1 0x0 MSTORE PUSH1 0x0 PUSH1 0x4 MSTORE PUSH1 0x24 PUSH1 0x0 REVERT JUMPDEST PUSH1 0x40 MLOAD PUSH3 0x461BCD PUSH1 0xE5 SHL DUP2 MSTORE PUSH1 0x20 PUSH1 0x4 DUP3 ADD MSTORE PUSH1 0x1F PUSH1 0x24 DUP3 ADD MSTORE PUSH32 0x50686F746F6E696341756374696F6E3A2061626F7665206D617820636F737400 PUSH1 0x44 DUP3 ADD MSTORE PUSH1 0x64 SWAP1 REVERT JUMPDEST PUSH1 0x40 MLOAD PUSH3 0x461BCD PUSH1 0xE5 SHL DUP2 MSTORE PUSH1 0x20 PUSH1 0x4 DUP3 ADD MSTORE PUSH1 0x1C PUSH1 0x24 DUP3 ADD MSTORE PUSH32 0x50686F746F6E696341756374696F6E3A20616C72656164792062696400000000 PUSH1 0x44 DUP3 ADD MSTORE PUSH1 0x64 SWAP1 REVERT JUMPDEST PUSH1 0x40 MLOAD PUSH3 0x461BCD PUSH1 0xE5 SHL DUP2 MSTORE PUSH1 0x20 PUSH1 0x4 DUP3 ADD MSTORE PUSH1 0x1F PUSH1 0x24 DUP3 ADD MSTORE PUSH32 0x50686F746F6E696341756374696F6E3A2062696464696E6720636C6F73656400 PUSH1 0x44 DUP3 ADD MSTORE PUSH1 0x64 SWAP1 REVERT JUMPDEST PUSH1 0x64 PUSH1 0x40 MLOAD PUSH3 0x461BCD PUSH1 0xE5 SHL DUP2 MSTORE PUSH1 0x20 PUSH1 0x4 DUP3 ADD MSTORE PUSH1 0x20 PUSH1 0x24 DUP3 ADD MSTORE PUSH32 0x50686F746F6E696341756374696F6E3A20696E74656E74206E6F74206F70656E PUSH1 0x44 DUP3 ADD MSTORE REVERT JUMPDEST CALLVALUE PUSH2 0x1EC JUMPI PUSH1 0x60 CALLDATASIZE PUSH1 0x3 NOT ADD SLT PUSH2 0x1EC JUMPI PUSH1 0x24 PUSH1 0x4 CALLDATALOAD PUSH1 0x1 PUSH1 0x1 PUSH1 0x40 SHL SUB DUP3 CALLDATALOAD DUP2 DUP2 GT PUSH2 0x1EC JUMPI PUSH2 0xBDB SWAP1 CALLDATASIZE SWAP1 PUSH1 0x4 ADD PUSH2 0x1C55 JUMP JUMPDEST SWAP2 DUP4 PUSH1 0x0 MSTORE PUSH1 0x1 PUSH1 0x20 SWAP6 DUP2 DUP8 MSTORE PUSH1 0x40 PUSH1 0x0 KECCAK256 PUSH2 0xC03 PUSH1 0x1 DUP1 PUSH1 0xA0 SHL SUB DUP5 DUP4 ADD SLOAD AND CALLER EQ PUSH2 0x2014 JUMP JUMPDEST PUSH1 0x7 DUP2 ADD SLOAD DUP4 PUSH1 0xFF DUP3 AND PUSH2 0xC16 DUP2 PUSH2 0x1DF9 JUMP JUMPDEST SUB PUSH2 0xE5E JUMPI PUSH1 0x10 SHR PUSH1 0xFF AND PUSH1 0x4 DUP2 LT ISZERO PUSH2 0xE49 JUMPI DUP4 SUB PUSH2 0xDF6 JUMPI PUSH1 0x40 MLOAD DUP9 DUP2 ADD SWAP1 DUP8 DUP8 DUP4 CALLDATACOPY PUSH2 0xC59 PUSH1 0x40 DUP3 DUP11 DUP2 ADD DUP14 PUSH1 0x44 CALLDATALOAD SWAP1 DUP3 ADD MSTORE SUB DUP13 DUP2 ADD DUP5 MSTORE ADD DUP3 PUSH2 0x1CF3 JUMP JUMPDEST MLOAD SWAP1 KECCAK256 PUSH1 0x2 DUP3 ADD SLOAD SUB PUSH2 0xDB2 JUMPI PUSH1 0x3 ADD SWAP3 DUP6 GT PUSH2 0xD9E JUMPI POP PUSH2 0xC85 DUP5 PUSH2 0xC7F DUP5 SLOAD PUSH2 0x1C82 JUMP JUMPDEST DUP5 PUSH2 0x1F0D JUMP JUMPDEST PUSH1 0x0 SWAP1 PUSH1 0x1F DUP6 GT PUSH1 0x1 EQ PUSH2 0xD13 JUMPI POP DUP4 PUSH1 0x40 SWAP4 PUSH32 0x3D918DC0B0572DA8A7D032ADFDC76156FE94D0121D0873DFE29A435128385FAD SWAP7 SWAP8 SWAP4 PUSH2 0xCDF DUP4 DUP1 DUP1 SWAP7 PUSH1 0x0 SWAP2 PUSH2 0xD08 JUMPI JUMPDEST POP DUP2 PUSH1 0x1 SHL SWAP2 PUSH1 0x0 NOT SWAP1 PUSH1 0x3 SHL SHR NOT AND OR SWAP1 JUMP JUMPDEST SWAP1 SSTORE JUMPDEST DUP5 MLOAD SWAP6 DUP5 DUP8 SWAP6 DUP7 MSTORE DUP6 ADD MSTORE DUP5 DUP5 ADD CALLDATACOPY PUSH1 0x0 DUP3 DUP3 ADD DUP5 ADD MSTORE PUSH1 0x1F ADD PUSH1 0x1F NOT AND DUP2 ADD SUB ADD SWAP1 LOG2 STOP JUMPDEST SWAP1 POP DUP5 ADD CALLDATALOAD DUP13 PUSH2 0xCCB JUMP JUMPDEST SWAP1 PUSH1 0x1F NOT DUP6 AND SWAP1 DUP4 PUSH1 0x0 MSTORE DUP8 PUSH1 0x0 KECCAK256 SWAP2 PUSH1 0x0 JUMPDEST DUP2 DUP2 LT PUSH2 0xD89 JUMPI POP SWAP4 DUP7 SWAP4 DUP5 SWAP4 PUSH1 0x40 SWAP8 SWAP4 DUP6 PUSH32 0x3D918DC0B0572DA8A7D032ADFDC76156FE94D0121D0873DFE29A435128385FAD SWAP12 SWAP13 SWAP9 LT PUSH2 0xD6F JUMPI JUMPDEST POP POP DUP4 DUP2 SHL ADD SWAP1 SSTORE PUSH2 0xCE2 JUMP JUMPDEST DUP5 ADD CALLDATALOAD PUSH1 0x0 NOT PUSH1 0x3 DUP8 SWAP1 SHL PUSH1 0xF8 AND SHR NOT AND SWAP1 SSTORE DUP11 DUP1 PUSH2 0xD62 JUMP JUMPDEST DUP7 DUP4 ADD CALLDATALOAD DUP5 SSTORE SWAP3 DUP5 ADD SWAP3 SWAP2 DUP10 ADD SWAP2 DUP10 ADD PUSH2 0xD26 JUMP JUMPDEST PUSH4 0x4E487B71 PUSH1 0xE0 SHL PUSH1 0x0 SWAP1 DUP2 MSTORE PUSH1 0x41 PUSH1 0x4 MSTORE REVERT JUMPDEST PUSH1 0x40 MLOAD PUSH3 0x461BCD PUSH1 0xE5 SHL DUP2 MSTORE PUSH1 0x4 DUP2 ADD DUP10 SWAP1 MSTORE PUSH1 0x1E DUP2 DUP5 ADD MSTORE PUSH32 0x50686F746F6E696341756374696F6E3A2068617368206D69736D617463680000 PUSH1 0x44 DUP3 ADD MSTORE PUSH1 0x64 SWAP1 REVERT JUMPDEST PUSH1 0x40 MLOAD PUSH3 0x461BCD PUSH1 0xE5 SHL DUP2 MSTORE PUSH1 0x4 DUP2 ADD DUP10 SWAP1 MSTORE PUSH1 0x26 DUP2 DUP5 ADD MSTORE PUSH32 0x50686F746F6E696341756374696F6E3A206D7573742062652061776172646564 PUSH1 0x44 DUP3 ADD MSTORE PUSH6 0x8199A5C9CDD PUSH1 0xD2 SHL PUSH1 0x64 DUP3 ADD MSTORE PUSH1 0x84 SWAP1 REVERT JUMPDEST DUP3 PUSH4 0x4E487B71 PUSH1 0xE0 SHL PUSH1 0x0 MSTORE PUSH1 0x21 PUSH1 0x4 MSTORE PUSH1 0x0 REVERT JUMPDEST PUSH1 0x40 MLOAD PUSH3 0x461BCD PUSH1 0xE5 SHL DUP2 MSTORE PUSH1 0x4 DUP2 ADD DUP11 SWAP1 MSTORE PUSH1 0x1C DUP2 DUP6 ADD MSTORE PUSH32 0x50686F746F6E696341756374696F6E3A206E6F74205A4B206D6F646500000000 PUSH1 0x44 DUP3 ADD MSTORE PUSH1 0x64 SWAP1 REVERT JUMPDEST CALLVALUE PUSH2 0x1EC JUMPI PUSH1 0x0 CALLDATASIZE PUSH1 0x3 NOT ADD SLT PUSH2 0x1EC JUMPI PUSH1 0x20 PUSH1 0xC SLOAD PUSH1 0x40 MLOAD SWAP1 DUP2 MSTORE RETURN JUMPDEST CALLVALUE PUSH2 0x1EC JUMPI PUSH1 0x0 CALLDATASIZE PUSH1 0x3 NOT ADD SLT PUSH2 0x1EC JUMPI PUSH1 0x20 PUSH1 0xA SLOAD PUSH1 0x40 MLOAD SWAP1 DUP2 MSTORE RETURN JUMPDEST CALLVALUE PUSH2 0x1EC JUMPI PUSH1 0x0 CALLDATASIZE PUSH1 0x3 NOT ADD SLT PUSH2 0x1EC JUMPI PUSH1 0x20 PUSH1 0x9 SLOAD PUSH1 0x40 MLOAD SWAP1 DUP2 MSTORE RETURN JUMPDEST CALLVALUE PUSH2 0x1EC JUMPI PUSH1 0x40 CALLDATASIZE PUSH1 0x3 NOT ADD SLT PUSH2 0x1EC JUMPI PUSH2 0xF15 PUSH2 0x1C3F JUMP JUMPDEST PUSH2 0xF1D PUSH2 0x22B5 JUMP JUMPDEST PUSH1 0x1 PUSH1 0x1 PUSH1 0xA0 SHL SUB AND PUSH1 0x0 SWAP1 DUP2 MSTORE PUSH1 0x4 PUSH1 0x20 MSTORE PUSH1 0x40 SWAP1 KECCAK256 PUSH1 0x24 CALLDATALOAD SWAP1 SSTORE STOP JUMPDEST CALLVALUE PUSH2 0x1EC JUMPI PUSH1 0x20 DUP1 PUSH1 0x3 NOT CALLDATASIZE ADD SLT PUSH2 0x1EC JUMPI PUSH1 0x4 CALLDATALOAD PUSH1 0x0 MSTORE PUSH1 0x2 DUP2 MSTORE PUSH1 0x40 PUSH1 0x0 KECCAK256 SWAP1 DUP2 SLOAD SWAP2 PUSH1 0x1 PUSH1 0x1 PUSH1 0x40 SHL SUB SWAP3 DUP4 DUP2 GT PUSH2 0x7B3 JUMPI SWAP2 PUSH1 0x40 MLOAD SWAP3 PUSH2 0xF84 DUP3 DUP3 PUSH1 0x5 SHL ADD DUP6 PUSH2 0x1CF3 JUMP JUMPDEST DUP1 DUP5 MSTORE DUP2 DUP5 ADD DUP1 SWAP4 PUSH1 0x0 MSTORE DUP3 PUSH1 0x0 KECCAK256 PUSH1 0x0 SWAP2 JUMPDEST DUP4 DUP4 LT PUSH2 0x1026 JUMPI POP POP POP POP PUSH1 0x40 MLOAD SWAP3 DUP2 DUP5 ADD SWAP1 DUP3 DUP6 MSTORE MLOAD DUP1 SWAP2 MSTORE PUSH1 0x40 DUP5 ADD SWAP3 SWAP2 PUSH1 0x0 JUMPDEST DUP3 DUP2 LT PUSH2 0xFC7 JUMPI DUP6 DUP6 SUB DUP7 RETURN JUMPDEST DUP4 MLOAD DUP1 MLOAD PUSH1 0x1 PUSH1 0x1 PUSH1 0xA0 SHL SUB AND DUP7 MSTORE DUP1 DUP4 ADD MLOAD DUP7 DUP5 ADD MSTORE PUSH1 0x40 DUP1 DUP3 ADD MLOAD SWAP1 DUP8 ADD MSTORE PUSH1 0x60 DUP1 DUP3 ADD MLOAD SWAP1 DUP8 ADD MSTORE PUSH1 0x80 DUP1 DUP3 ADD MLOAD SWAP1 DUP8 ADD MSTORE PUSH1 0xA0 DUP1 DUP3 ADD MLOAD DUP10 AND SWAP1 DUP8 ADD MSTORE PUSH1 0xC0 SWAP1 DUP2 ADD MLOAD ISZERO ISZERO SWAP1 DUP7 ADD MSTORE PUSH1 0xE0 SWAP1 SWAP5 ADD SWAP4 SWAP3 DUP2 ADD SWAP3 PUSH1 0x1 ADD PUSH2 0xFBA JUMP JUMPDEST PUSH1 0x6 DUP6 PUSH1 0x1 SWAP3 PUSH2 0x1038 DUP6 SWAP11 SWAP9 SWAP11 PUSH2 0x20AC JUMP JUMPDEST DUP2 MSTORE ADD SWAP3 ADD SWAP3 ADD SWAP2 SWAP1 SWAP6 SWAP4 SWAP6 PUSH2 0xF97 JUMP JUMPDEST CALLVALUE PUSH2 0x1EC JUMPI PUSH1 0x20 CALLDATASIZE PUSH1 0x3 NOT ADD SLT PUSH2 0x1EC JUMPI PUSH1 0x4 CALLDATALOAD PUSH1 0x0 MSTORE PUSH1 0x1 PUSH1 0x20 MSTORE PUSH1 0x60 PUSH1 0x40 PUSH1 0x0 KECCAK256 DUP1 SLOAD SWAP1 PUSH1 0x1 DUP1 PUSH1 0xA0 SHL SUB SWAP2 DUP3 PUSH1 0x1 DUP4 ADD SLOAD AND PUSH1 0x2 DUP4 ADD SLOAD SWAP4 PUSH2 0x1090 PUSH1 0x3 DUP6 ADD PUSH2 0x1D14 JUMP JUMPDEST SWAP1 PUSH1 0x4 DUP6 ADD SLOAD SWAP5 PUSH1 0x1 PUSH1 0x1 PUSH1 0x40 SHL SUB SWAP4 DUP5 PUSH1 0x5 DUP4 ADD SLOAD AND PUSH1 0x6 DUP4 ADD SLOAD SWAP1 PUSH2 0x10ED PUSH1 0x7 DUP6 ADD SLOAD SWAP7 PUSH1 0xFF DUP9 AND SWAP5 DUP10 PUSH1 0x8 PUSH1 0xFF DUP12 DUP3 SHR AND SWAP9 ADD SLOAD AND SWAP11 PUSH1 0x40 MLOAD SWAP15 DUP16 SWAP15 DUP16 SWAP1 PUSH2 0x1A0 SWAP5 DUP6 SWAP5 DUP4 MSTORE PUSH1 0x20 DUP4 ADD MSTORE PUSH1 0x40 DUP3 ADD MSTORE ADD MSTORE DUP13 ADD SWAP1 PUSH2 0x1DB9 JUMP JUMPDEST SWAP9 PUSH1 0x80 DUP12 ADD MSTORE PUSH1 0xA0 DUP11 ADD MSTORE PUSH1 0xC0 DUP10 ADD MSTORE PUSH2 0x1106 DUP2 PUSH2 0x1DF9 JUMP JUMPDEST PUSH1 0xE0 DUP9 ADD MSTORE PUSH2 0x1114 DUP2 PUSH2 0x1DF9 JUMP JUMPDEST PUSH2 0x100 DUP8 ADD MSTORE PUSH2 0x112E PUSH2 0x120 DUP8 ADD PUSH1 0xFF DUP5 PUSH1 0x10 SHR AND PUSH2 0x1E03 JUMP JUMPDEST DUP2 PUSH1 0x18 SHR AND PUSH2 0x140 DUP7 ADD MSTORE PUSH1 0xB8 SHR AND PUSH2 0x160 DUP5 ADD MSTORE PUSH2 0x180 DUP4 ADD MSTORE SUB SWAP1 RETURN JUMPDEST CALLVALUE PUSH2 0x1EC JUMPI PUSH1 0x0 CALLDATASIZE PUSH1 0x3 NOT ADD SLT PUSH2 0x1EC JUMPI PUSH1 0x0 SLOAD PUSH1 0x40 MLOAD PUSH1 0x1 PUSH1 0x1 PUSH1 0xA0 SHL SUB SWAP1 SWAP2 AND DUP2 MSTORE PUSH1 0x20 SWAP1 RETURN JUMPDEST CALLVALUE PUSH2 0x1EC JUMPI PUSH1 0x20 CALLDATASIZE PUSH1 0x3 NOT ADD SLT PUSH2 0x1EC JUMPI PUSH1 0x4 CALLDATALOAD PUSH1 0x5 SLOAD DUP2 LT ISZERO PUSH2 0x1EC JUMPI PUSH1 0x20 SWAP1 PUSH1 0x5 PUSH1 0x0 MSTORE PUSH32 0x36B6384B5ECA791C62761152D0C79BB0604C104A5FB6F4EB0703F3154BB3DB0 ADD SLOAD PUSH1 0x40 MLOAD SWAP1 DUP2 MSTORE RETURN JUMPDEST CALLVALUE PUSH2 0x1EC JUMPI PUSH1 0x20 CALLDATASIZE PUSH1 0x3 NOT ADD SLT PUSH2 0x1EC JUMPI PUSH1 0x4 CALLDATALOAD PUSH2 0x11E3 PUSH2 0x22B5 JUMP JUMPDEST PUSH2 0x3E8 DUP2 GT PUSH2 0x11F1 JUMPI PUSH1 0x8 SSTORE STOP JUMPDEST PUSH1 0x40 MLOAD PUSH3 0x461BCD PUSH1 0xE5 SHL DUP2 MSTORE PUSH1 0x20 PUSH1 0x4 DUP3 ADD MSTORE PUSH1 0x7 PUSH1 0x24 DUP3 ADD MSTORE PUSH7 0x6D617820313025 PUSH1 0xC8 SHL PUSH1 0x44 DUP3 ADD MSTORE PUSH1 0x64 SWAP1 REVERT JUMPDEST CALLVALUE PUSH2 0x1EC JUMPI PUSH1 0x0 CALLDATASIZE PUSH1 0x3 NOT ADD SLT PUSH2 0x1EC JUMPI PUSH2 0x1239 PUSH2 0x22B5 JUMP JUMPDEST PUSH1 0x0 DUP1 SLOAD PUSH1 0x1 PUSH1 0x1 PUSH1 0xA0 SHL SUB NOT DUP2 AND DUP3 SSTORE PUSH1 0x1 PUSH1 0x1 PUSH1 0xA0 SHL SUB AND PUSH32 0x8BE0079C531659141344CD1FD0A4F28419497F9722A3DAAFE3B4186F6B6457E0 DUP3 DUP1 LOG3 STOP JUMPDEST CALLVALUE PUSH2 0x1EC JUMPI PUSH1 0x20 CALLDATASIZE PUSH1 0x3 NOT ADD SLT PUSH2 0x1EC JUMPI PUSH2 0x1292 PUSH2 0x2285 JUMP JUMPDEST PUSH1 0x4 CALLDATALOAD PUSH1 0x0 MSTORE PUSH1 0x1 PUSH1 0x20 MSTORE PUSH1 0x40 PUSH1 0x0 KECCAK256 PUSH2 0x12B9 PUSH1 0x1 DUP1 PUSH1 0xA0 SHL SUB PUSH1 0x1 DUP4 ADD SLOAD AND CALLER EQ PUSH2 0x2014 JUMP JUMPDEST PUSH1 0xFF PUSH1 0x7 DUP3 ADD SLOAD PUSH1 0x10 SHR AND PUSH1 0x4 DUP2 LT ISZERO PUSH2 0x724 JUMPI PUSH2 0x12D7 SWAP1 ISZERO PUSH2 0x2060 JUMP JUMPDEST PUSH1 0x1 PUSH1 0x1 PUSH1 0x40 SHL SUB PUSH1 0x5 DUP3 ADD SLOAD AND TIMESTAMP LT PUSH2 0x16CA JUMPI PUSH1 0x4 CALLDATALOAD PUSH1 0x0 MSTORE PUSH1 0x2 PUSH1 0x20 MSTORE PUSH1 0x40 PUSH1 0x0 KECCAK256 SWAP1 DUP2 SLOAD ISZERO PUSH2 0x1685 JUMPI PUSH1 0x0 SWAP1 DUP2 DUP1 JUMPDEST DUP5 SLOAD DUP2 LT ISZERO PUSH2 0x150A JUMPI PUSH1 0xFF PUSH1 0x5 PUSH2 0x1320 DUP4 DUP9 PUSH2 0x1E10 JUMP JUMPDEST POP ADD SLOAD PUSH1 0x40 SHR AND ISZERO PUSH2 0x1502 JUMPI PUSH2 0x133F PUSH2 0x1339 DUP3 DUP8 PUSH2 0x1E10 JUMP JUMPDEST POP PUSH2 0x20AC JUMP JUMPDEST PUSH2 0x1348 DUP5 PUSH2 0x2111 JUMP JUMPDEST PUSH1 0x60 DUP3 ADD MLOAD SWAP1 SWAP2 SWAP1 ISZERO PUSH2 0x14F1 JUMPI PUSH1 0x80 PUSH8 0xB1A2BC2EC500000 SWAP3 JUMPDEST ADD DUP1 MLOAD ISZERO PUSH2 0x14E8 JUMPI PUSH1 0x40 DUP3 ADD MLOAD PUSH8 0xDE0B6B3A7640000 SWAP2 DUP3 DUP3 MUL SWAP2 DUP1 DUP4 DIV DUP5 EQ SWAP1 ISZERO OR ISZERO PUSH2 0x14A4 JUMPI MLOAD SWAP1 DUP2 ISZERO PUSH2 0x14D2 JUMPI DUP3 DUP3 DUP3 DIV DUP2 SUB GT PUSH2 0x14A4 JUMPI DIV SWAP1 SUB SWAP1 JUMPDEST DUP1 MLOAD PUSH1 0x1 PUSH1 0x1 PUSH1 0xA0 SHL SUB AND PUSH1 0x0 SWAP1 DUP2 MSTORE PUSH1 0x4 PUSH1 0x20 MSTORE PUSH1 0x40 SWAP1 KECCAK256 SLOAD SWAP3 DUP4 ISZERO SWAP3 DUP4 PUSH2 0x14BA JUMPI PUSH8 0xDE0B6B3A7640000 SWAP4 DUP6 DUP6 DUP2 MUL DIV DUP6 EQ OR ISZERO PUSH2 0x14A4 JUMPI PUSH1 0x64 PUSH2 0x1454 SWAP5 DUP2 SWAP7 MUL DIV SWAP3 JUMPDEST PUSH8 0xDE0B6B3A7640000 DUP1 DUP6 GT PUSH2 0x149A JUMPI JUMPDEST POP SWAP2 PUSH2 0x143A PUSH2 0x1440 PUSH2 0x144A SWAP4 PUSH1 0x20 PUSH2 0x143A SWAP7 ADD MLOAD ISZERO ISZERO PUSH1 0x0 EQ PUSH2 0x1485 JUMPI PUSH2 0x143A PUSH2 0x1430 PUSH8 0x9B6E64A8EC60000 SWAP6 JUMPDEST PUSH1 0x9 SLOAD SWAP1 PUSH2 0x21E9 JUMP JUMPDEST SWAP2 PUSH1 0xA SLOAD SWAP1 PUSH2 0x21E9 JUMP JUMPDEST SWAP1 PUSH2 0x1EE5 JUMP JUMPDEST SWAP2 PUSH1 0xB SLOAD SWAP1 PUSH2 0x21E9 JUMP JUMPDEST SWAP2 PUSH1 0xC SLOAD SWAP1 PUSH2 0x21E9 JUMP JUMPDEST DIV DUP1 PUSH1 0x4 PUSH2 0x1462 DUP5 DUP10 PUSH2 0x1E10 JUMP JUMPDEST POP ADD SSTORE DUP3 DUP2 GT PUSH2 0x1478 JUMPI JUMPDEST POP PUSH1 0x1 SWAP1 JUMPDEST ADD PUSH2 0x1309 JUMP JUMPDEST SWAP2 POP SWAP3 POP PUSH1 0x1 DUP4 SWAP1 PUSH2 0x146D JUMP JUMPDEST PUSH2 0x143A PUSH2 0x1430 PUSH8 0x58D15E176280000 SWAP6 PUSH2 0x1427 JUMP JUMPDEST SWAP4 POP PUSH2 0x143A PUSH2 0x13F9 JUMP JUMPDEST PUSH4 0x4E487B71 PUSH1 0xE0 SHL PUSH1 0x0 MSTORE PUSH1 0x11 PUSH1 0x4 MSTORE PUSH1 0x24 PUSH1 0x0 REVERT JUMPDEST PUSH1 0x64 SWAP5 POP PUSH2 0x1454 SWAP4 POP PUSH8 0x16345785D8A0000 SWAP3 PUSH2 0x13E8 JUMP JUMPDEST PUSH4 0x4E487B71 PUSH1 0xE0 SHL PUSH1 0x0 MSTORE PUSH1 0x12 PUSH1 0x4 MSTORE PUSH1 0x24 PUSH1 0x0 REVERT JUMPDEST POP PUSH1 0x0 SWAP1 PUSH2 0x13A2 JUMP JUMPDEST PUSH1 0x80 PUSH8 0x429D069189E0000 SWAP3 PUSH2 0x1362 JUMP JUMPDEST PUSH1 0x1 SWAP1 PUSH2 0x1472 JUMP JUMPDEST POP PUSH1 0x2 PUSH2 0x152D DUP6 SWAP5 PUSH2 0x151C DUP2 DUP8 PUSH2 0x1E10 JUMP JUMPDEST POP SLOAD PUSH1 0x1 PUSH1 0x1 PUSH1 0xA0 SHL SUB AND SWAP6 PUSH2 0x1E10 JUMP JUMPDEST POP ADD SLOAD PUSH1 0x7 DUP4 ADD DUP1 SLOAD PUSH3 0x10000 PUSH1 0x1 PUSH1 0xB8 SHL SUB NOT AND PUSH4 0x1000000 PUSH1 0x1 PUSH1 0xB8 SHL SUB PUSH1 0x18 DUP8 SWAP1 SHL AND OR PUSH3 0x10000 OR SWAP1 SSTORE PUSH1 0x8 DUP1 DUP5 ADD DUP1 SLOAD PUSH8 0xFFFFFFFFFFFFFFFF NOT AND TIMESTAMP PUSH1 0x1 PUSH1 0x1 PUSH1 0x40 SHL SUB AND OR SWAP1 SSTORE SLOAD SWAP1 SWAP3 SWAP1 PUSH2 0x1597 SWAP1 PUSH2 0x2710 SWAP1 PUSH2 0x1590 SWAP1 DUP7 PUSH2 0x21E9 JUMP JUMPDEST DIV DUP5 PUSH2 0x21FC JUMP JUMPDEST PUSH2 0x15A5 DUP5 PUSH1 0x4 DUP5 ADD SLOAD PUSH2 0x21FC JUMP JUMPDEST SWAP1 DUP1 PUSH2 0x1623 JUMPI JUMPDEST POP DUP1 PUSH2 0x15FC JUMPI JUMPDEST POP POP PUSH1 0x40 MLOAD SWAP2 DUP3 MSTORE PUSH1 0x20 DUP3 ADD MSTORE PUSH32 0x1A7D1BD9541230A71A85F1873ED02C2AB08382ECC570B030A47A424E51F58CED PUSH1 0x40 PUSH1 0x4 CALLDATALOAD SWAP3 LOG3 PUSH1 0x1 PUSH1 0x0 DUP1 MLOAD PUSH1 0x20 PUSH2 0x22E2 DUP4 CODECOPY DUP2 MLOAD SWAP2 MSTORE SSTORE STOP JUMPDEST PUSH1 0x0 DUP1 DUP1 DUP1 SWAP4 PUSH2 0x161C SWAP6 PUSH1 0x1 DUP1 DUP1 PUSH1 0xA0 SHL SUB SWAP2 ADD SLOAD AND GAS CALL PUSH2 0x855 PUSH2 0x2209 JUMP JUMPDEST DUP4 DUP1 PUSH2 0x15B3 JUMP JUMPDEST PUSH1 0x0 DUP1 DUP1 DUP1 SWAP4 DUP10 GAS CALL PUSH2 0x1634 PUSH2 0x2209 JUMP JUMPDEST POP ISZERO PUSH2 0x1640 JUMPI DUP6 PUSH2 0x15AC JUMP JUMPDEST PUSH1 0x40 MLOAD PUSH3 0x461BCD PUSH1 0xE5 SHL DUP2 MSTORE PUSH1 0x20 PUSH1 0x4 DUP3 ADD MSTORE PUSH1 0x1F PUSH1 0x24 DUP3 ADD MSTORE PUSH32 0x50686F746F6E696341756374696F6E3A207061796D656E74206661696C656400 PUSH1 0x44 DUP3 ADD MSTORE PUSH1 0x64 SWAP1 REVERT JUMPDEST PUSH1 0x40 MLOAD PUSH3 0x461BCD PUSH1 0xE5 SHL DUP2 MSTORE PUSH1 0x20 PUSH1 0x4 DUP3 ADD MSTORE PUSH1 0x18 PUSH1 0x24 DUP3 ADD MSTORE PUSH32 0x50686F746F6E696341756374696F6E3A206E6F20626964730000000000000000 PUSH1 0x44 DUP3 ADD MSTORE PUSH1 0x64 SWAP1 REVERT JUMPDEST PUSH1 0x40 MLOAD PUSH3 0x461BCD PUSH1 0xE5 SHL DUP2 MSTORE PUSH1 0x20 PUSH1 0x4 DUP3 ADD MSTORE PUSH1 0x23 PUSH1 0x24 DUP3 ADD MSTORE PUSH32 0x50686F746F6E696341756374696F6E3A2062696464696E67207374696C6C206F PUSH1 0x44 DUP3 ADD MSTORE PUSH3 0x3832B7 PUSH1 0xE9 SHL PUSH1 0x64 DUP3 ADD MSTORE PUSH1 0x84 SWAP1 REVERT JUMPDEST CALLVALUE PUSH2 0x1EC JUMPI PUSH1 0x20 CALLDATASIZE PUSH1 0x3 NOT ADD SLT PUSH2 0x1EC JUMPI PUSH1 0x4 CALLDATALOAD PUSH1 0x6 SLOAD DUP2 LT ISZERO PUSH2 0x1EC JUMPI PUSH1 0x20 SWAP1 PUSH1 0x6 PUSH1 0x0 MSTORE PUSH32 0xF652222313E28459528D920B65115C16C04F3EFC82AAEDC97BE59F3F377C0D3F ADD SLOAD PUSH1 0x40 MLOAD SWAP1 DUP2 MSTORE RETURN JUMPDEST CALLVALUE PUSH2 0x1EC JUMPI PUSH1 0x0 CALLDATASIZE PUSH1 0x3 NOT ADD SLT PUSH2 0x1EC JUMPI PUSH1 0x20 PUSH1 0x7 SLOAD PUSH1 0x40 MLOAD SWAP1 DUP2 MSTORE RETURN JUMPDEST CALLVALUE PUSH2 0x1EC JUMPI PUSH1 0x0 CALLDATASIZE PUSH1 0x3 NOT ADD SLT PUSH2 0x1EC JUMPI PUSH1 0x20 PUSH1 0x5 SLOAD PUSH1 0x40 MLOAD SWAP1 DUP2 MSTORE RETURN JUMPDEST CALLVALUE PUSH2 0x1EC JUMPI PUSH1 0x0 CALLDATASIZE PUSH1 0x3 NOT ADD SLT PUSH2 0x1EC JUMPI PUSH1 0x20 PUSH1 0x6 SLOAD PUSH1 0x40 MLOAD SWAP1 DUP2 MSTORE RETURN JUMPDEST CALLVALUE PUSH2 0x1EC JUMPI PUSH1 0x0 CALLDATASIZE PUSH1 0x3 NOT ADD SLT PUSH2 0x1EC JUMPI PUSH1 0x20 PUSH1 0x8 SLOAD PUSH1 0x40 MLOAD SWAP1 DUP2 MSTORE RETURN JUMPDEST CALLVALUE PUSH2 0x1EC JUMPI PUSH1 0x40 CALLDATASIZE PUSH1 0x3 NOT ADD SLT PUSH2 0x1EC JUMPI PUSH1 0x24 CALLDATALOAD PUSH1 0x1 PUSH1 0x1 PUSH1 0xA0 SHL SUB DUP2 AND SWAP1 DUP2 SWAP1 SUB PUSH2 0x1EC JUMPI PUSH1 0x4 CALLDATALOAD PUSH1 0x0 MSTORE PUSH1 0x3 PUSH1 0x20 MSTORE PUSH1 0x40 PUSH1 0x0 KECCAK256 SWAP1 PUSH1 0x0 MSTORE PUSH1 0x20 MSTORE PUSH1 0x20 PUSH1 0xFF PUSH1 0x40 PUSH1 0x0 KECCAK256 SLOAD AND PUSH1 0x40 MLOAD SWAP1 ISZERO ISZERO DUP2 MSTORE RETURN JUMPDEST PUSH1 0x80 CALLDATASIZE PUSH1 0x3 NOT ADD SLT PUSH2 0x1EC JUMPI PUSH1 0x24 CALLDATALOAD PUSH1 0x1 PUSH1 0x1 PUSH1 0x40 SHL SUB DUP2 GT PUSH2 0x1EC JUMPI PUSH2 0x1861 SWAP1 CALLDATASIZE SWAP1 PUSH1 0x4 ADD PUSH2 0x1C55 JUMP JUMPDEST PUSH1 0x2 PUSH1 0x64 CALLDATALOAD LT ISZERO PUSH2 0x1EC JUMPI PUSH2 0x1874 PUSH2 0x2285 JUMP JUMPDEST PUSH2 0x187F CALLVALUE ISZERO ISZERO PUSH2 0x1E42 JUMP JUMPDEST PUSH1 0x4 CALLDATALOAD PUSH1 0x0 MSTORE PUSH1 0x1 PUSH1 0x20 MSTORE PUSH2 0x18A8 PUSH1 0x1 PUSH1 0x1 PUSH1 0x40 SHL SUB PUSH1 0x7 PUSH1 0x40 PUSH1 0x0 KECCAK256 ADD SLOAD PUSH1 0xB8 SHR AND ISZERO PUSH2 0x1E99 JUMP JUMPDEST PUSH1 0x40 MLOAD PUSH1 0x20 DUP2 ADD SWAP1 DUP3 DUP5 DUP4 CALLDATACOPY PUSH2 0x18DA PUSH1 0x54 DUP3 DUP6 DUP2 ADD CALLER PUSH1 0x60 SHL PUSH1 0x20 DUP3 ADD MSTORE TIMESTAMP PUSH1 0x34 DUP3 ADD MSTORE SUB PUSH1 0x34 DUP2 ADD DUP5 MSTORE ADD DUP3 PUSH2 0x1CF3 JUMP JUMPDEST MLOAD SWAP1 KECCAK256 SWAP2 PUSH1 0x1 PUSH1 0x1 PUSH1 0x40 SHL SUB PUSH2 0x18F2 PUSH1 0x7 SLOAD TIMESTAMP PUSH2 0x1EE5 JUMP JUMPDEST AND SWAP2 PUSH1 0x40 MLOAD SWAP4 PUSH2 0x1901 DUP6 PUSH2 0x1CBC JUMP JUMPDEST PUSH1 0x4 CALLDATALOAD DUP6 MSTORE CALLER PUSH1 0x20 DUP7 ADD MSTORE PUSH1 0x40 DUP6 ADD MSTORE PUSH2 0x191A DUP2 PUSH2 0x1EF2 JUMP JUMPDEST SWAP2 PUSH2 0x1928 PUSH1 0x40 MLOAD SWAP4 DUP5 PUSH2 0x1CF3 JUMP JUMPDEST DUP2 DUP4 MSTORE CALLDATASIZE DUP3 DUP3 ADD GT PUSH2 0x1EC JUMPI DUP2 PUSH1 0x0 SWAP3 PUSH1 0x20 SWAP3 DUP4 DUP7 ADD CALLDATACOPY DUP4 ADD ADD MSTORE PUSH1 0x60 DUP4 ADD MSTORE CALLVALUE PUSH1 0x80 DUP4 ADD MSTORE PUSH1 0xA0 DUP3 ADD MSTORE PUSH1 0x44 CALLDATALOAD PUSH1 0xC0 DUP3 ADD MSTORE PUSH1 0x0 PUSH1 0xE0 DUP3 ADD MSTORE PUSH2 0x196D PUSH1 0x64 CALLDATALOAD PUSH2 0x1DF9 JUMP JUMPDEST PUSH1 0x64 CALLDATALOAD PUSH2 0x100 DUP3 ADD MSTORE PUSH1 0x0 PUSH2 0x120 DUP3 ADD MSTORE PUSH1 0x0 PUSH2 0x140 DUP3 ADD MSTORE PUSH1 0x1 PUSH1 0x1 PUSH1 0x40 SHL SUB TIMESTAMP AND PUSH2 0x160 DUP3 ADD MSTORE PUSH1 0x0 PUSH2 0x180 DUP3 ADD MSTORE PUSH1 0x4 CALLDATALOAD PUSH1 0x0 MSTORE PUSH1 0x1 PUSH1 0x20 MSTORE PUSH1 0x40 PUSH1 0x0 KECCAK256 SWAP1 DUP1 MLOAD DUP3 SSTORE PUSH1 0x1 DUP3 ADD PUSH1 0x1 DUP1 PUSH1 0xA0 SHL SUB PUSH1 0x20 DUP4 ADD MLOAD AND PUSH1 0x1 PUSH1 0x1 PUSH1 0x60 SHL SUB PUSH1 0xA0 SHL DUP3 SLOAD AND OR SWAP1 SSTORE PUSH1 0x40 DUP2 ADD MLOAD PUSH1 0x2 DUP4 ADD SSTORE PUSH1 0x60 DUP2 ADD MLOAD SWAP2 DUP3 MLOAD PUSH1 0x1 PUSH1 0x1 PUSH1 0x40 SHL SUB DUP2 GT PUSH2 0x7B3 JUMPI PUSH2 0x1A06 DUP2 PUSH2 0x585 PUSH1 0x3 DUP6 ADD SLOAD PUSH2 0x1C82 JUMP JUMPDEST PUSH1 0x20 PUSH1 0x1F DUP3 GT PUSH1 0x1 EQ PUSH2 0x1B9B JUMPI DUP2 SWAP1 PUSH2 0x1A37 SWAP4 SWAP5 SWAP6 PUSH1 0x0 SWAP3 PUSH2 0x73A JUMPI POP POP DUP2 PUSH1 0x1 SHL SWAP2 PUSH1 0x0 NOT SWAP1 PUSH1 0x3 SHL SHR NOT AND OR SWAP1 JUMP JUMPDEST PUSH1 0x3 DUP3 ADD SSTORE JUMPDEST PUSH1 0x80 DUP3 ADD MLOAD PUSH1 0x4 DUP3 ADD SSTORE PUSH1 0x5 DUP2 ADD SWAP1 PUSH1 0x1 PUSH1 0x1 PUSH1 0x40 SHL SUB PUSH1 0xA0 DUP5 ADD MLOAD AND SWAP2 PUSH1 0x1 PUSH1 0x1 PUSH1 0x40 SHL SUB NOT SWAP3 DUP4 DUP3 SLOAD AND OR SWAP1 SSTORE PUSH1 0xC0 DUP4 ADD MLOAD PUSH1 0x6 DUP3 ADD SSTORE PUSH1 0x7 DUP2 ADD PUSH1 0xE0 DUP5 ADD MLOAD PUSH2 0x1A88 DUP2 PUSH2 0x1DF9 JUMP JUMPDEST PUSH2 0x1A91 DUP2 PUSH2 0x1DF9 JUMP JUMPDEST DUP2 SLOAD PUSH1 0xFF PUSH2 0xFF00 PUSH2 0x100 DUP9 ADD MLOAD PUSH2 0x1AA7 DUP2 PUSH2 0x1DF9 JUMP JUMPDEST PUSH2 0x1AB0 DUP2 PUSH2 0x1DF9 JUMP JUMPDEST PUSH1 0x8 SHL AND SWAP3 AND SWAP1 PUSH2 0xFFFF NOT AND OR OR DUP2 SSTORE PUSH2 0x120 DUP5 ADD MLOAD PUSH1 0x4 DUP2 LT ISZERO PUSH2 0x724 JUMPI PUSH1 0x1 PUSH1 0x1 PUSH1 0x40 SHL SUB SWAP3 DUP3 PUSH2 0x1AE8 PUSH1 0x8 SWAP4 PUSH2 0x180 SWAP6 PUSH2 0x1F63 JUMP JUMPDEST PUSH2 0x140 DUP8 ADD MLOAD DUP2 SLOAD PUSH4 0x1000000 PUSH1 0x1 PUSH1 0xB8 SHL SUB NOT AND PUSH1 0x18 SWAP2 SWAP1 SWAP2 SHL PUSH4 0x1000000 PUSH1 0x1 PUSH1 0xB8 SHL SUB AND OR DUP2 SSTORE PUSH2 0x160 DUP8 ADD MLOAD DUP2 SLOAD SWAP1 DUP7 PUSH1 0xB8 SHL SWAP1 PUSH1 0xB8 SHL AND SWAP1 DUP7 PUSH1 0xB8 SHL NOT AND OR SWAP1 SSTORE ADD SWAP4 ADD MLOAD AND SWAP1 DUP3 SLOAD AND OR SWAP1 SSTORE PUSH2 0x1B45 PUSH1 0x4 CALLDATALOAD PUSH2 0x1F84 JUMP JUMPDEST PUSH2 0x1B50 PUSH1 0x4 CALLDATALOAD PUSH2 0x1FCC JUMP JUMPDEST PUSH1 0x40 MLOAD PUSH1 0x0 DUP2 MSTORE CALLVALUE PUSH1 0x20 DUP3 ADD MSTORE CALLER SWAP1 PUSH32 0x2CE20F2D95AD40E6DEBDCF55E49B8ABD91915FDB446D16460DBA72F3C3BB3FDE PUSH1 0x40 PUSH1 0x4 CALLDATALOAD SWAP3 LOG3 PUSH1 0x1 PUSH1 0x0 DUP1 MLOAD PUSH1 0x20 PUSH2 0x22E2 DUP4 CODECOPY DUP2 MLOAD SWAP2 MSTORE SSTORE STOP JUMPDEST PUSH1 0x3 DUP4 ADD PUSH1 0x0 MSTORE PUSH1 0x20 PUSH1 0x0 KECCAK256 SWAP1 PUSH1 0x0 JUMPDEST PUSH1 0x1F NOT DUP5 AND DUP2 LT PUSH2 0x1BF1 JUMPI POP PUSH1 0x1 SWAP4 SWAP5 SWAP6 DUP4 PUSH1 0x1F NOT DUP2 AND LT PUSH2 0x1BD8 JUMPI JUMPDEST POP POP POP DUP2 SHL ADD PUSH1 0x3 DUP3 ADD SSTORE PUSH2 0x1A3D JUMP JUMPDEST ADD MLOAD PUSH1 0x0 NOT PUSH1 0xF8 DUP5 PUSH1 0x3 SHL AND SHR NOT AND SWAP1 SSTORE DUP5 DUP1 DUP1 PUSH2 0x1BC8 JUMP JUMPDEST SWAP1 SWAP2 PUSH1 0x20 PUSH1 0x1 DUP2 SWAP3 DUP6 DUP11 ADD MLOAD DUP2 SSTORE ADD SWAP4 ADD SWAP2 ADD PUSH2 0x1BAB JUMP JUMPDEST CALLVALUE PUSH2 0x1EC JUMPI PUSH1 0x20 CALLDATASIZE PUSH1 0x3 NOT ADD SLT PUSH2 0x1EC JUMPI PUSH1 0x20 SWAP1 PUSH1 0x1 PUSH1 0x1 PUSH1 0xA0 SHL SUB PUSH2 0x1C2D PUSH2 0x1C3F JUMP JUMPDEST AND PUSH1 0x0 MSTORE PUSH1 0x4 DUP3 MSTORE PUSH1 0x40 PUSH1 0x0 KECCAK256 SLOAD DUP2 MSTORE RETURN JUMPDEST PUSH1 0x4 CALLDATALOAD SWAP1 PUSH1 0x1 PUSH1 0x1 PUSH1 0xA0 SHL SUB DUP3 AND DUP3 SUB PUSH2 0x1EC JUMPI JUMP JUMPDEST SWAP2 DUP2 PUSH1 0x1F DUP5 ADD SLT ISZERO PUSH2 0x1EC JUMPI DUP3 CALLDATALOAD SWAP2 PUSH1 0x1 PUSH1 0x1 PUSH1 0x40 SHL SUB DUP4 GT PUSH2 0x1EC JUMPI PUSH1 0x20 DUP4 DUP2 DUP7 ADD SWAP6 ADD ADD GT PUSH2 0x1EC JUMPI JUMP JUMPDEST SWAP1 PUSH1 0x1 DUP3 DUP2 SHR SWAP3 AND DUP1 ISZERO PUSH2 0x1CB2 JUMPI JUMPDEST PUSH1 0x20 DUP4 LT EQ PUSH2 0x1C9C JUMPI JUMP JUMPDEST PUSH4 0x4E487B71 PUSH1 0xE0 SHL PUSH1 0x0 MSTORE PUSH1 0x22 PUSH1 0x4 MSTORE PUSH1 0x24 PUSH1 0x0 REVERT JUMPDEST SWAP2 PUSH1 0x7F AND SWAP2 PUSH2 0x1C91 JUMP JUMPDEST PUSH2 0x1A0 DUP2 ADD SWAP1 DUP2 LT PUSH1 0x1 PUSH1 0x1 PUSH1 0x40 SHL SUB DUP3 GT OR PUSH2 0x7B3 JUMPI PUSH1 0x40 MSTORE JUMP JUMPDEST PUSH1 0xE0 DUP2 ADD SWAP1 DUP2 LT PUSH1 0x1 PUSH1 0x1 PUSH1 0x40 SHL SUB DUP3 GT OR PUSH2 0x7B3 JUMPI PUSH1 0x40 MSTORE JUMP JUMPDEST SWAP1 PUSH1 0x1F DUP1 NOT SWAP2 ADD AND DUP2 ADD SWAP1 DUP2 LT PUSH1 0x1 PUSH1 0x1 PUSH1 0x40 SHL SUB DUP3 GT OR PUSH2 0x7B3 JUMPI PUSH1 0x40 MSTORE JUMP JUMPDEST SWAP1 PUSH1 0x40 MLOAD SWAP2 DUP3 PUSH1 0x0 DUP3 SLOAD PUSH2 0x1D27 DUP2 PUSH2 0x1C82 JUMP JUMPDEST SWAP1 DUP2 DUP5 MSTORE PUSH1 0x20 SWAP5 PUSH1 0x1 SWAP2 PUSH1 0x1 DUP2 AND SWAP1 DUP2 PUSH1 0x0 EQ PUSH2 0x1D97 JUMPI POP PUSH1 0x1 EQ PUSH2 0x1D58 JUMPI JUMPDEST POP POP POP PUSH2 0x1D56 SWAP3 POP SUB DUP4 PUSH2 0x1CF3 JUMP JUMPDEST JUMP JUMPDEST PUSH1 0x0 SWAP1 DUP2 MSTORE DUP6 DUP2 KECCAK256 SWAP6 SWAP4 POP SWAP2 SWAP1 JUMPDEST DUP2 DUP4 LT PUSH2 0x1D7F JUMPI POP POP PUSH2 0x1D56 SWAP4 POP DUP3 ADD ADD CODESIZE DUP1 DUP1 PUSH2 0x1D47 JUMP JUMPDEST DUP6 SLOAD DUP9 DUP5 ADD DUP6 ADD MSTORE SWAP5 DUP6 ADD SWAP5 DUP8 SWAP5 POP SWAP2 DUP4 ADD SWAP2 PUSH2 0x1D66 JUMP JUMPDEST SWAP3 POP POP POP PUSH2 0x1D56 SWAP5 SWAP3 POP PUSH1 0xFF NOT AND DUP3 DUP5 ADD MSTORE ISZERO ISZERO PUSH1 0x5 SHL DUP3 ADD ADD CODESIZE DUP1 DUP1 PUSH2 0x1D47 JUMP JUMPDEST SWAP2 SWAP1 DUP3 MLOAD SWAP3 DUP4 DUP3 MSTORE PUSH1 0x0 JUMPDEST DUP5 DUP2 LT PUSH2 0x1DE5 JUMPI POP POP DUP3 PUSH1 0x0 PUSH1 0x20 DUP1 SWAP5 SWAP6 DUP5 ADD ADD MSTORE PUSH1 0x1F DUP1 NOT SWAP2 ADD AND ADD ADD SWAP1 JUMP JUMPDEST PUSH1 0x20 DUP2 DUP4 ADD DUP2 ADD MLOAD DUP5 DUP4 ADD DUP3 ADD MSTORE ADD PUSH2 0x1DC4 JUMP JUMPDEST PUSH1 0x2 GT ISZERO PUSH2 0x724 JUMPI JUMP JUMPDEST SWAP1 PUSH1 0x4 DUP3 LT ISZERO PUSH2 0x724 JUMPI MSTORE JUMP JUMPDEST DUP1 SLOAD DUP3 LT ISZERO PUSH2 0x1E2C JUMPI PUSH1 0x0 MSTORE PUSH1 0x6 PUSH1 0x20 PUSH1 0x0 KECCAK256 SWAP2 MUL ADD SWAP1 PUSH1 0x0 SWAP1 JUMP JUMPDEST PUSH4 0x4E487B71 PUSH1 0xE0 SHL PUSH1 0x0 MSTORE PUSH1 0x32 PUSH1 0x4 MSTORE PUSH1 0x24 PUSH1 0x0 REVERT JUMPDEST ISZERO PUSH2 0x1E49 JUMPI JUMP JUMPDEST PUSH1 0x40 MLOAD PUSH3 0x461BCD PUSH1 0xE5 SHL DUP2 MSTORE PUSH1 0x20 PUSH1 0x4 DUP3 ADD MSTORE PUSH1 0x22 PUSH1 0x24 DUP3 ADD MSTORE PUSH32 0x50686F746F6E696341756374696F6E3A206D75737420657363726F772066756E PUSH1 0x44 DUP3 ADD MSTORE PUSH2 0x6473 PUSH1 0xF0 SHL PUSH1 0x64 DUP3 ADD MSTORE PUSH1 0x84 SWAP1 REVERT JUMPDEST ISZERO PUSH2 0x1EA0 JUMPI JUMP JUMPDEST PUSH1 0x40 MLOAD PUSH3 0x461BCD PUSH1 0xE5 SHL DUP2 MSTORE PUSH1 0x20 PUSH1 0x4 DUP3 ADD MSTORE PUSH1 0x1E PUSH1 0x24 DUP3 ADD MSTORE PUSH32 0x50686F746F6E696341756374696F6E3A20696E74656E74206578697374730000 PUSH1 0x44 DUP3 ADD MSTORE PUSH1 0x64 SWAP1 REVERT JUMPDEST SWAP2 SWAP1 DUP3 ADD DUP1 SWAP3 GT PUSH2 0x14A4 JUMPI JUMP JUMPDEST PUSH1 0x1 PUSH1 0x1 PUSH1 0x40 SHL SUB DUP2 GT PUSH2 0x7B3 JUMPI PUSH1 0x1F ADD PUSH1 0x1F NOT AND PUSH1 0x20 ADD SWAP1 JUMP JUMPDEST SWAP1 PUSH1 0x1F DUP2 GT PUSH2 0x1F1B JUMPI POP POP POP JUMP JUMPDEST PUSH1 0x0 SWAP2 PUSH1 0x0 MSTORE PUSH1 0x20 PUSH1 0x0 KECCAK256 SWAP1 PUSH1 0x20 PUSH1 0x1F DUP6 ADD PUSH1 0x5 SHR DUP4 ADD SWAP5 LT PUSH2 0x1F59 JUMPI JUMPDEST PUSH1 0x1F ADD PUSH1 0x5 SHR ADD SWAP2 JUMPDEST DUP3 DUP2 LT PUSH2 0x1F4E JUMPI POP POP POP JUMP JUMPDEST DUP2 DUP2 SSTORE PUSH1 0x1 ADD PUSH2 0x1F42 JUMP JUMPDEST SWAP1 SWAP3 POP DUP3 SWAP1 PUSH2 0x1F39 JUMP JUMPDEST SWAP1 PUSH1 0x4 DUP2 LT ISZERO PUSH2 0x724 JUMPI PUSH3 0xFF0000 DUP3 SLOAD SWAP2 PUSH1 0x10 SHL AND SWAP1 PUSH3 0xFF0000 NOT AND OR SWAP1 SSTORE JUMP JUMPDEST PUSH1 0x5 SLOAD PUSH1 0x1 PUSH1 0x40 SHL DUP2 LT ISZERO PUSH2 0x7B3 JUMPI PUSH1 0x1 DUP2 ADD DUP1 PUSH1 0x5 SSTORE DUP2 LT ISZERO PUSH2 0x1E2C JUMPI PUSH1 0x5 PUSH1 0x0 MSTORE PUSH32 0x36B6384B5ECA791C62761152D0C79BB0604C104A5FB6F4EB0703F3154BB3DB0 ADD SSTORE JUMP JUMPDEST PUSH1 0x6 SLOAD PUSH1 0x1 PUSH1 0x40 SHL DUP2 LT ISZERO PUSH2 0x7B3 JUMPI PUSH1 0x1 DUP2 ADD DUP1 PUSH1 0x6 SSTORE DUP2 LT ISZERO PUSH2 0x1E2C JUMPI PUSH1 0x6 PUSH1 0x0 MSTORE PUSH32 0xF652222313E28459528D920B65115C16C04F3EFC82AAEDC97BE59F3F377C0D3F ADD SSTORE JUMP JUMPDEST ISZERO PUSH2 0x201B JUMPI JUMP JUMPDEST PUSH1 0x40 MLOAD PUSH3 0x461BCD PUSH1 0xE5 SHL DUP2 MSTORE PUSH1 0x20 PUSH1 0x4 DUP3 ADD MSTORE PUSH1 0x1A PUSH1 0x24 DUP3 ADD MSTORE PUSH32 0x50686F746F6E696341756374696F6E3A206E6F74206275796572000000000000 PUSH1 0x44 DUP3 ADD MSTORE PUSH1 0x64 SWAP1 REVERT JUMPDEST ISZERO PUSH2 0x2067 JUMPI JUMP JUMPDEST PUSH1 0x40 MLOAD PUSH3 0x461BCD PUSH1 0xE5 SHL DUP2 MSTORE PUSH1 0x20 PUSH1 0x4 DUP3 ADD MSTORE PUSH1 0x19 PUSH1 0x24 DUP3 ADD MSTORE PUSH32 0x50686F746F6E696341756374696F6E3A206E6F74206F70656E00000000000000 PUSH1 0x44 DUP3 ADD MSTORE PUSH1 0x64 SWAP1 REVERT JUMPDEST SWAP1 PUSH1 0x40 MLOAD PUSH2 0x20B9 DUP2 PUSH2 0x1CD8 JUMP JUMPDEST PUSH1 0xC0 PUSH1 0xFF PUSH1 0x5 DUP4 SWAP6 PUSH1 0x1 DUP1 PUSH1 0xA0 SHL SUB DUP2 SLOAD AND DUP6 MSTORE PUSH1 0x1 DUP2 ADD SLOAD PUSH1 0x20 DUP7 ADD MSTORE PUSH1 0x2 DUP2 ADD SLOAD PUSH1 0x40 DUP7 ADD MSTORE PUSH1 0x3 DUP2 ADD SLOAD PUSH1 0x60 DUP7 ADD MSTORE PUSH1 0x4 DUP2 ADD SLOAD PUSH1 0x80 DUP7 ADD MSTORE ADD SLOAD PUSH1 0x1 PUSH1 0x1 PUSH1 0x40 SHL SUB DUP2 AND PUSH1 0xA0 DUP6 ADD MSTORE PUSH1 0x40 SHR AND ISZERO ISZERO SWAP2 ADD MSTORE JUMP JUMPDEST SWAP1 PUSH1 0x40 MLOAD PUSH2 0x211E DUP2 PUSH2 0x1CBC JUMP JUMPDEST DUP3 SLOAD DUP2 MSTORE PUSH1 0x1 DUP4 ADD SLOAD PUSH1 0x1 PUSH1 0x1 PUSH1 0xA0 SHL SUB SWAP1 DUP2 AND PUSH1 0x20 DUP4 ADD MSTORE PUSH1 0x2 DUP5 ADD SLOAD PUSH1 0x40 DUP4 ADD MSTORE SWAP1 SWAP3 DUP4 SWAP2 PUSH2 0x2151 PUSH1 0x3 DUP4 ADD PUSH2 0x1D14 JUMP JUMPDEST PUSH1 0x60 DUP5 ADD MSTORE PUSH1 0x4 DUP3 ADD SLOAD PUSH1 0x80 DUP5 ADD MSTORE PUSH1 0x1 PUSH1 0x1 PUSH1 0x40 SHL SUB SWAP1 DUP2 PUSH1 0x5 DUP5 ADD SLOAD AND PUSH1 0xA0 DUP6 ADD MSTORE PUSH1 0x6 DUP4 ADD SLOAD PUSH1 0xC0 DUP6 ADD MSTORE PUSH1 0x7 DUP4 ADD SLOAD SWAP3 PUSH1 0xFF DUP5 AND PUSH2 0x2192 DUP2 PUSH2 0x1DF9 JUMP JUMPDEST PUSH1 0xE0 DUP7 ADD MSTORE PUSH1 0xFF DUP5 PUSH1 0x8 SHR AND PUSH2 0x21A7 DUP2 PUSH2 0x1DF9 JUMP JUMPDEST PUSH2 0x100 DUP7 ADD MSTORE PUSH1 0xFF DUP5 PUSH1 0x10 SHR AND PUSH1 0x4 DUP2 LT ISZERO PUSH2 0x724 JUMPI PUSH2 0x180 SWAP5 PUSH1 0x8 SWAP4 DUP6 SWAP3 PUSH2 0x120 DUP10 ADD MSTORE DUP2 PUSH1 0x18 SHR AND PUSH2 0x140 DUP9 ADD MSTORE PUSH1 0xB8 SHR AND PUSH2 0x160 DUP7 ADD MSTORE ADD SLOAD AND SWAP2 ADD MSTORE JUMP JUMPDEST DUP2 DUP2 MUL SWAP3 SWAP2 DUP2 ISZERO SWAP2 DUP5 DIV EQ OR ISZERO PUSH2 0x14A4 JUMPI JUMP JUMPDEST SWAP2 SWAP1 DUP3 SUB SWAP2 DUP3 GT PUSH2 0x14A4 JUMPI JUMP JUMPDEST RETURNDATASIZE ISZERO PUSH2 0x2234 JUMPI RETURNDATASIZE SWAP1 PUSH2 0x221A DUP3 PUSH2 0x1EF2 JUMP JUMPDEST SWAP2 PUSH2 0x2228 PUSH1 0x40 MLOAD SWAP4 DUP5 PUSH2 0x1CF3 JUMP JUMPDEST DUP3 MSTORE RETURNDATASIZE PUSH1 0x0 PUSH1 0x20 DUP5 ADD RETURNDATACOPY JUMP JUMPDEST PUSH1 0x60 SWAP1 JUMP JUMPDEST ISZERO PUSH2 0x2240 JUMPI JUMP JUMPDEST PUSH1 0x40 MLOAD PUSH3 0x461BCD PUSH1 0xE5 SHL DUP2 MSTORE PUSH1 0x20 PUSH1 0x4 DUP3 ADD MSTORE PUSH1 0x1E PUSH1 0x24 DUP3 ADD MSTORE PUSH32 0x50686F746F6E696341756374696F6E3A20726566756E64206661696C65640000 PUSH1 0x44 DUP3 ADD MSTORE PUSH1 0x64 SWAP1 REVERT JUMPDEST PUSH1 0x0 DUP1 MLOAD PUSH1 0x20 PUSH2 0x22E2 DUP4 CODECOPY DUP2 MLOAD SWAP2 MSTORE PUSH1 0x2 DUP2 SLOAD EQ PUSH2 0x22A3 JUMPI PUSH1 0x2 SWAP1 SSTORE JUMP JUMPDEST PUSH1 0x40 MLOAD PUSH4 0x3EE5AEB5 PUSH1 0xE0 SHL DUP2 MSTORE PUSH1 0x4 SWAP1 REVERT JUMPDEST PUSH1 0x0 SLOAD PUSH1 0x1 PUSH1 0x1 PUSH1 0xA0 SHL SUB AND CALLER SUB PUSH2 0x22C9 JUMPI JUMP JUMPDEST PUSH1 0x40 MLOAD PUSH4 0x118CDAA7 PUSH1 0xE0 SHL DUP2 MSTORE CALLER PUSH1 0x4 DUP3 ADD MSTORE PUSH1 0x24 SWAP1 REVERT INVALID SWAP12 PUSH24 0x9B17422D0DF92223018B32B4D1FA46E071723D6817E2486D STOP EXTCODESIZE 0xEC 0xC5 PUSH0 STOP LOG2 PUSH5 0x6970667358 0x22 SLT KECCAK256 SUB MSIZE RETURNDATASIZE 0xD8 PUSH12 0xC189843B8734C13D8E2E5AD2 EXTCODECOPY 0xA5 COINBASE 0xC2 0xA7 PUSH4 0x878C0EB7 BASEFEE SUB DUP1 0xAD PUSH2 0x6473 PUSH16 0x6C634300081800330000000000000000 "},"methodIdentifiers":{"agentDiversityScore(address)":"0b62c3bb","allIntents(uint256)":"56e56c30","awardIntent(bytes32)":"611eaba1","biddingWindow()":"4f371f73","bids(bytes32,uint256)":"f7e65b1c","cancelIntent(bytes32)":"d55f960d","getAllIntentCount()":"39eed48b","getBids(bytes32)":"9d4f988b","getIntent(bytes32)":"f13c46aa","getOpenIntentCount()":"43f2f5c2","hasBid(bytes32,address)":"346c2b9d","intents(bytes32)":"9021578a","openIntents(uint256)":"81b27c5d","owner()":"8da5cb5b","protocolFeeBps()":"35659fb8","renounceOwnership()":"715018a6","revealIntent(bytes32,string,bytes32)":"cb0a5a6b","setAgentDiversityScore(address,uint256)":"a1e88387","setBiddingWindow(uint256)":"decaf084","setProtocolFee(uint256)":"787dce3d","submitBid(bytes32,bytes32,uint256,bytes32)":"cb2c33f6","submitPublicIntent(bytes32,string,uint256,uint8)":"30aad975","submitZKIntent(bytes32,bytes32,uint256,uint8)":"dec0f088","transferOwnership(address)":"f2fde38b","weightBpdQuality()":"b6ba7d2b","weightCompositionalFitness()":"ece86c09","weightDiversityBonus()":"c38826e0","weightPriceEfficiency()":"bd3200f6"}}}}}