{
  "_format": "hh-sol-artifact-1",
  "contractName": "PhotonicEscrow",
  "sourceName": "contracts/PhotonicEscrow.sol",
  "abi": [
    {
      "inputs": [],
      "stateMutability": "nonpayable",
      "type": "constructor"
    },
    {
      "inputs": [
        {
          "internalType": "address",
          "name": "owner",
          "type": "address"
        }
      ],
      "name": "OwnableInvalidOwner",
      "type": "error"
    },
    {
      "inputs": [
        {
          "internalType": "address",
          "name": "account",
          "type": "address"
        }
      ],
      "name": "OwnableUnauthorizedAccount",
      "type": "error"
    },
    {
      "inputs": [],
      "name": "ReentrancyGuardReentrantCall",
      "type": "error"
    },
    {
      "anonymous": false,
      "inputs": [
        {
          "indexed": true,
          "internalType": "bytes32",
          "name": "orderId",
          "type": "bytes32"
        },
        {
          "indexed": false,
          "internalType": "bytes32",
          "name": "sessionKeyCommitment",
          "type": "bytes32"
        }
      ],
      "name": "CASCAttached",
      "type": "event"
    },
    {
      "anonymous": false,
      "inputs": [
        {
          "indexed": true,
          "internalType": "bytes32",
          "name": "orderId",
          "type": "bytes32"
        }
      ],
      "name": "OrderCancelled",
      "type": "event"
    },
    {
      "anonymous": false,
      "inputs": [
        {
          "indexed": true,
          "internalType": "bytes32",
          "name": "orderId",
          "type": "bytes32"
        },
        {
          "indexed": false,
          "internalType": "uint256",
          "name": "providerPayout",
          "type": "uint256"
        },
        {
          "indexed": false,
          "internalType": "uint256",
          "name": "parentRoyalty",
          "type": "uint256"
        }
      ],
      "name": "OrderCleared",
      "type": "event"
    },
    {
      "anonymous": false,
      "inputs": [
        {
          "indexed": true,
          "internalType": "bytes32",
          "name": "orderId",
          "type": "bytes32"
        },
        {
          "indexed": false,
          "internalType": "address",
          "name": "buyer",
          "type": "address"
        },
        {
          "indexed": false,
          "internalType": "address",
          "name": "provider",
          "type": "address"
        },
        {
          "indexed": false,
          "internalType": "uint256",
          "name": "amount",
          "type": "uint256"
        }
      ],
      "name": "OrderCreated",
      "type": "event"
    },
    {
      "anonymous": false,
      "inputs": [
        {
          "indexed": true,
          "internalType": "bytes32",
          "name": "orderId",
          "type": "bytes32"
        },
        {
          "indexed": false,
          "internalType": "bytes32",
          "name": "bpdHash",
          "type": "bytes32"
        },
        {
          "indexed": false,
          "internalType": "bytes32",
          "name": "bpdId",
          "type": "bytes32"
        }
      ],
      "name": "OrderDelivered",
      "type": "event"
    },
    {
      "anonymous": false,
      "inputs": [
        {
          "indexed": true,
          "internalType": "bytes32",
          "name": "orderId",
          "type": "bytes32"
        },
        {
          "indexed": false,
          "internalType": "address",
          "name": "disputedBy",
          "type": "address"
        }
      ],
      "name": "OrderDisputed",
      "type": "event"
    },
    {
      "anonymous": false,
      "inputs": [
        {
          "indexed": true,
          "internalType": "bytes32",
          "name": "orderId",
          "type": "bytes32"
        },
        {
          "indexed": false,
          "internalType": "uint256",
          "name": "lockedAt",
          "type": "uint256"
        }
      ],
      "name": "OrderLocked",
      "type": "event"
    },
    {
      "anonymous": false,
      "inputs": [
        {
          "indexed": true,
          "internalType": "address",
          "name": "previousOwner",
          "type": "address"
        },
        {
          "indexed": true,
          "internalType": "address",
          "name": "newOwner",
          "type": "address"
        }
      ],
      "name": "OwnershipTransferred",
      "type": "event"
    },
    {
      "inputs": [
        {
          "internalType": "uint256",
          "name": "",
          "type": "uint256"
        }
      ],
      "name": "allOrderIds",
      "outputs": [
        {
          "internalType": "bytes32",
          "name": "",
          "type": "bytes32"
        }
      ],
      "stateMutability": "view",
      "type": "function"
    },
    {
      "inputs": [
        {
          "internalType": "bytes32",
          "name": "orderId",
          "type": "bytes32"
        },
        {
          "internalType": "bytes32[]",
          "name": "encryptedFragments",
          "type": "bytes32[]"
        },
        {
          "internalType": "bytes32",
          "name": "sessionKeyCommitment",
          "type": "bytes32"
        },
        {
          "internalType": "uint64",
          "name": "maxAge",
          "type": "uint64"
        },
        {
          "internalType": "bytes32",
          "name": "continuityProof",
          "type": "bytes32"
        },
        {
          "internalType": "address[]",
          "name": "accessPolicy",
          "type": "address[]"
        }
      ],
      "name": "attachCASC",
      "outputs": [],
      "stateMutability": "nonpayable",
      "type": "function"
    },
    {
      "inputs": [
        {
          "internalType": "bytes32",
          "name": "",
          "type": "bytes32"
        }
      ],
      "name": "bpdCleared",
      "outputs": [
        {
          "internalType": "bool",
          "name": "",
          "type": "bool"
        }
      ],
      "stateMutability": "view",
      "type": "function"
    },
    {
      "inputs": [
        {
          "internalType": "bytes32",
          "name": "orderId",
          "type": "bytes32"
        }
      ],
      "name": "cancelOrder",
      "outputs": [],
      "stateMutability": "nonpayable",
      "type": "function"
    },
    {
      "inputs": [
        {
          "internalType": "bytes32",
          "name": "",
          "type": "bytes32"
        }
      ],
      "name": "cascs",
      "outputs": [
        {
          "internalType": "bytes32",
          "name": "sessionKeyCommitment",
          "type": "bytes32"
        },
        {
          "internalType": "uint64",
          "name": "maxAge",
          "type": "uint64"
        },
        {
          "internalType": "uint64",
          "name": "timestamp",
          "type": "uint64"
        },
        {
          "internalType": "bytes32",
          "name": "continuityProof",
          "type": "bytes32"
        }
      ],
      "stateMutability": "view",
      "type": "function"
    },
    {
      "inputs": [
        {
          "internalType": "bytes32",
          "name": "orderId",
          "type": "bytes32"
        }
      ],
      "name": "clearOrder",
      "outputs": [],
      "stateMutability": "nonpayable",
      "type": "function"
    },
    {
      "inputs": [
        {
          "internalType": "bytes32",
          "name": "orderId",
          "type": "bytes32"
        },
        {
          "internalType": "address",
          "name": "provider",
          "type": "address"
        },
        {
          "internalType": "address",
          "name": "parentAgent",
          "type": "address"
        },
        {
          "internalType": "bytes32",
          "name": "intentHash",
          "type": "bytes32"
        },
        {
          "internalType": "bool",
          "name": "requireBPD",
          "type": "bool"
        }
      ],
      "name": "createOrder",
      "outputs": [],
      "stateMutability": "payable",
      "type": "function"
    },
    {
      "inputs": [
        {
          "internalType": "bytes32",
          "name": "orderId",
          "type": "bytes32"
        }
      ],
      "name": "disputeOrder",
      "outputs": [],
      "stateMutability": "nonpayable",
      "type": "function"
    },
    {
      "inputs": [],
      "name": "disputeWindow",
      "outputs": [
        {
          "internalType": "uint256",
          "name": "",
          "type": "uint256"
        }
      ],
      "stateMutability": "view",
      "type": "function"
    },
    {
      "inputs": [
        {
          "internalType": "bytes32",
          "name": "orderId",
          "type": "bytes32"
        }
      ],
      "name": "getCASC",
      "outputs": [
        {
          "components": [
            {
              "internalType": "bytes32[]",
              "name": "encryptedFragments",
              "type": "bytes32[]"
            },
            {
              "internalType": "bytes32",
              "name": "sessionKeyCommitment",
              "type": "bytes32"
            },
            {
              "internalType": "uint64",
              "name": "maxAge",
              "type": "uint64"
            },
            {
              "internalType": "uint64",
              "name": "timestamp",
              "type": "uint64"
            },
            {
              "internalType": "bytes32",
              "name": "continuityProof",
              "type": "bytes32"
            },
            {
              "internalType": "address[]",
              "name": "accessPolicy",
              "type": "address[]"
            }
          ],
          "internalType": "struct PhotonicEscrow.CASC",
          "name": "",
          "type": "tuple"
        }
      ],
      "stateMutability": "view",
      "type": "function"
    },
    {
      "inputs": [
        {
          "internalType": "bytes32",
          "name": "orderId",
          "type": "bytes32"
        }
      ],
      "name": "getOrder",
      "outputs": [
        {
          "components": [
            {
              "internalType": "bytes32",
              "name": "orderId",
              "type": "bytes32"
            },
            {
              "internalType": "address",
              "name": "buyer",
              "type": "address"
            },
            {
              "internalType": "address",
              "name": "provider",
              "type": "address"
            },
            {
              "internalType": "address",
              "name": "parentAgent",
              "type": "address"
            },
            {
              "internalType": "uint256",
              "name": "totalAmount",
              "type": "uint256"
            },
            {
              "internalType": "uint256",
              "name": "providerAmount",
              "type": "uint256"
            },
            {
              "internalType": "uint256",
              "name": "verifierPool",
              "type": "uint256"
            },
            {
              "internalType": "uint256",
              "name": "parentRoyalty",
              "type": "uint256"
            },
            {
              "internalType": "uint256",
              "name": "protocolFee",
              "type": "uint256"
            },
            {
              "internalType": "bytes32",
              "name": "intentHash",
              "type": "bytes32"
            },
            {
              "internalType": "bytes32",
              "name": "bpdId",
              "type": "bytes32"
            },
            {
              "internalType": "bytes32",
              "name": "bpdHash",
              "type": "bytes32"
            },
            {
              "internalType": "enum PhotonicEscrow.OrderStatus",
              "name": "status",
              "type": "uint8"
            },
            {
              "internalType": "bool",
              "name": "bpdVerificationRequired",
              "type": "bool"
            },
            {
              "internalType": "uint64",
              "name": "createdAt",
              "type": "uint64"
            },
            {
              "internalType": "uint64",
              "name": "lockedAt",
              "type": "uint64"
            },
            {
              "internalType": "uint64",
              "name": "deliveredAt",
              "type": "uint64"
            },
            {
              "internalType": "uint64",
              "name": "clearedAt",
              "type": "uint64"
            }
          ],
          "internalType": "struct PhotonicEscrow.Order",
          "name": "",
          "type": "tuple"
        }
      ],
      "stateMutability": "view",
      "type": "function"
    },
    {
      "inputs": [
        {
          "internalType": "bytes32",
          "name": "orderId",
          "type": "bytes32"
        }
      ],
      "name": "lockOrder",
      "outputs": [],
      "stateMutability": "nonpayable",
      "type": "function"
    },
    {
      "inputs": [
        {
          "internalType": "bytes32",
          "name": "orderId",
          "type": "bytes32"
        },
        {
          "internalType": "bytes32",
          "name": "bpdId",
          "type": "bytes32"
        },
        {
          "internalType": "bytes32",
          "name": "bpdHash",
          "type": "bytes32"
        },
        {
          "internalType": "bytes32",
          "name": "updatedBehavioralRoot",
          "type": "bytes32"
        },
        {
          "internalType": "uint256",
          "name": "newFitnessScore",
          "type": "uint256"
        }
      ],
      "name": "markDelivered",
      "outputs": [],
      "stateMutability": "nonpayable",
      "type": "function"
    },
    {
      "inputs": [
        {
          "internalType": "bytes32",
          "name": "",
          "type": "bytes32"
        }
      ],
      "name": "orders",
      "outputs": [
        {
          "internalType": "bytes32",
          "name": "orderId",
          "type": "bytes32"
        },
        {
          "internalType": "address",
          "name": "buyer",
          "type": "address"
        },
        {
          "internalType": "address",
          "name": "provider",
          "type": "address"
        },
        {
          "internalType": "address",
          "name": "parentAgent",
          "type": "address"
        },
        {
          "internalType": "uint256",
          "name": "totalAmount",
          "type": "uint256"
        },
        {
          "internalType": "uint256",
          "name": "providerAmount",
          "type": "uint256"
        },
        {
          "internalType": "uint256",
          "name": "verifierPool",
          "type": "uint256"
        },
        {
          "internalType": "uint256",
          "name": "parentRoyalty",
          "type": "uint256"
        },
        {
          "internalType": "uint256",
          "name": "protocolFee",
          "type": "uint256"
        },
        {
          "internalType": "bytes32",
          "name": "intentHash",
          "type": "bytes32"
        },
        {
          "internalType": "bytes32",
          "name": "bpdId",
          "type": "bytes32"
        },
        {
          "internalType": "bytes32",
          "name": "bpdHash",
          "type": "bytes32"
        },
        {
          "internalType": "enum PhotonicEscrow.OrderStatus",
          "name": "status",
          "type": "uint8"
        },
        {
          "internalType": "bool",
          "name": "bpdVerificationRequired",
          "type": "bool"
        },
        {
          "internalType": "uint64",
          "name": "createdAt",
          "type": "uint64"
        },
        {
          "internalType": "uint64",
          "name": "lockedAt",
          "type": "uint64"
        },
        {
          "internalType": "uint64",
          "name": "deliveredAt",
          "type": "uint64"
        },
        {
          "internalType": "uint64",
          "name": "clearedAt",
          "type": "uint64"
        }
      ],
      "stateMutability": "view",
      "type": "function"
    },
    {
      "inputs": [],
      "name": "owner",
      "outputs": [
        {
          "internalType": "address",
          "name": "",
          "type": "address"
        }
      ],
      "stateMutability": "view",
      "type": "function"
    },
    {
      "inputs": [],
      "name": "parentRoyaltyBps",
      "outputs": [
        {
          "internalType": "uint256",
          "name": "",
          "type": "uint256"
        }
      ],
      "stateMutability": "view",
      "type": "function"
    },
    {
      "inputs": [],
      "name": "protocolFeeBps",
      "outputs": [
        {
          "internalType": "uint256",
          "name": "",
          "type": "uint256"
        }
      ],
      "stateMutability": "view",
      "type": "function"
    },
    {
      "inputs": [],
      "name": "registryContract",
      "outputs": [
        {
          "internalType": "contract IPhotonicRegistryEscrow",
          "name": "",
          "type": "address"
        }
      ],
      "stateMutability": "view",
      "type": "function"
    },
    {
      "inputs": [],
      "name": "renounceOwnership",
      "outputs": [],
      "stateMutability": "nonpayable",
      "type": "function"
    },
    {
      "inputs": [
        {
          "internalType": "address",
          "name": "_verifier",
          "type": "address"
        },
        {
          "internalType": "address",
          "name": "_registry",
          "type": "address"
        },
        {
          "internalType": "address",
          "name": "_vitality",
          "type": "address"
        }
      ],
      "name": "setContracts",
      "outputs": [],
      "stateMutability": "nonpayable",
      "type": "function"
    },
    {
      "inputs": [
        {
          "internalType": "uint256",
          "name": "_window",
          "type": "uint256"
        }
      ],
      "name": "setDisputeWindow",
      "outputs": [],
      "stateMutability": "nonpayable",
      "type": "function"
    },
    {
      "inputs": [
        {
          "internalType": "uint256",
          "name": "_vPool",
          "type": "uint256"
        },
        {
          "internalType": "uint256",
          "name": "_royalty",
          "type": "uint256"
        },
        {
          "internalType": "uint256",
          "name": "_protocol",
          "type": "uint256"
        }
      ],
      "name": "setFees",
      "outputs": [],
      "stateMutability": "nonpayable",
      "type": "function"
    },
    {
      "inputs": [],
      "name": "totalOrders",
      "outputs": [
        {
          "internalType": "uint256",
          "name": "",
          "type": "uint256"
        }
      ],
      "stateMutability": "view",
      "type": "function"
    },
    {
      "inputs": [
        {
          "internalType": "address",
          "name": "newOwner",
          "type": "address"
        }
      ],
      "name": "transferOwnership",
      "outputs": [],
      "stateMutability": "nonpayable",
      "type": "function"
    },
    {
      "inputs": [],
      "name": "verifierContract",
      "outputs": [
        {
          "internalType": "contract IPhotonicVerifier",
          "name": "",
          "type": "address"
        }
      ],
      "stateMutability": "view",
      "type": "function"
    },
    {
      "inputs": [],
      "name": "verifierPoolBps",
      "outputs": [
        {
          "internalType": "uint256",
          "name": "",
          "type": "uint256"
        }
      ],
      "stateMutability": "view",
      "type": "function"
    },
    {
      "inputs": [],
      "name": "vitalityContract",
      "outputs": [
        {
          "internalType": "contract IPhotonicVitality",
          "name": "",
          "type": "address"
        }
      ],
      "stateMutability": "view",
      "type": "function"
    },
    {
      "stateMutability": "payable",
      "type": "receive"
    }
  ],
  "bytecode": "0x608080604052346100b557331561009f5760008054336001600160a01b03198216811783556040519290916001600160a01b0316907f8be0079c531659141344cd1fd0a4f28419497f9722a3daafe3b4186f6b6457e09080a360017f9b779b17422d0df92223018b32b4d1fa46e071723d6817e2486d003becc55f00556101f460075560c8600855606460095562015180600a5561204b90816100bb8239f35b631e4fbdf760e01b815260006004820152602490fd5b600080fdfe608080604052600436101561001d575b50361561001b57600080fd5b005b600090813560e01c908163117f5f9214611c4c575080631d83440914611c2e57806324e767ee14611bff5780632684d7971461171b5780632804f2a2146116f25780632810584f146116d457806328c1f99b146116ab5780632bf05e9b14611672578063332226d01461164f57806335659fb8146116315780633e4e3792146115405780634b82130a146113705780635778472a146110cd578063715018a6146110735780637489ec2314610f1c578063779cc27a14610dff57806380f3902f14610aa35780638da5cb5b14610a7c5780639c3f1e9014610951578063a59b1be514610738578063aa999207146106de578063b3066d4914610675578063bbb6fd3414610657578063cec10c11146105c8578063cf6956881461059f578063eba676cb146101dc5763f2fde38b0361000f57346101d95760203660031901126101d957610168611c99565b610170611fc9565b6001600160a01b039081169081156101c057600054826001600160601b0360a01b821617600055167f8be0079c531659141344cd1fd0a4f28419497f9722a3daafe3b4186f6b6457e0600080a380f35b604051631e4fbdf760e01b815260048101849052602490fd5b80fd5b50346101d95760208060031936011261059b57600435906101fb611f99565b818352600181526040832090600c820180549060ff821660068110156105875760026102279114611e52565b60018401546001600160a01b039290831633148015610566575b156105135760ff19166003179055600d8301805467ffffffffffffffff1916426001600160401b0316179055600483015460058401805490929187918082111561050b5761028e91611df9565b82600654169081610483575b505082548061040c575b509060078501948554801515806103fd575b610382575b50600801549081610311575b5050905492546040805194855292840152507f085cba674968e1a6967082cb9d1db9f7f203548b3b6d984e881cf53182e432e291a26001600080516020611ff68339815191525580f35b82809281928254165af1610323611eab565b5015610331578438806102c7565b60405162461bcd60e51b815260048101839052602360248201527f50686f746f6e6963457363726f773a20666565207472616e73666572206661696044820152621b195960ea1b6064820152608490fd5b92808084958495600383960154165af161039a611eab565b50156103a957908691386102bb565b60405162461bcd60e51b815260048101859052602660248201527f50686f746f6e6963457363726f773a20726f79616c7479207061796d656e742060448201526519985a5b195960d21b6064820152608490fd5b508260038301541615156102b6565b818080928560028a0154165af1610421611eab565b501561042e5785386102a4565b60405162461bcd60e51b815260048101849052602760248201527f50686f746f6e6963457363726f773a2070726f7669646572207061796d656e746044820152660819985a5b195960ca1b6064820152608490fd5b836002880154169084600389015416151592803b156105075784928360849260405196879586946364a02bb160e11b86526004860152670b1a2bc2ec5000006024860152604485015260648401525af180156104fc576104e4575b8061029a565b6104ed90611d9c565b6104f85785386104de565b8580fd5b6040513d84823e3d90fd5b8480fd5b50508061028e565b60405162461bcd60e51b815260048101859052602560248201527f50686f746f6e6963457363726f773a20646973707574652077696e646f772061604482015264637469766560d81b6064820152608490fd5b5061057f600a546001600160401b038360901c16611e9e565b421015610241565b634e487b7160e01b87526021600452602487fd5b5080fd5b50346101d957806003193601126101d9576004546040516001600160a01b039091168152602090f35b50346101d95760603660031901126101d9576044356024356004356105eb611fc9565b610bb8610601846105fc8585611e9e565b611e9e565b116106125760075560085560095580f35b60405162461bcd60e51b815260206004820152601d60248201527f50686f746f6e6963457363726f773a206665657320746f6f20686967680000006044820152606490fd5b50346101d957806003193601126101d9576020600754604051908152f35b50346101d95760603660031901126101d95761068f611c99565b610697611c68565b61069f611c83565b6106a7611fc9565b60018060a01b038092816001600160601b0360a01b9516856004541617600455168360055416176005551690600654161760065580f35b50346101d95760203660031901126101d9576040608091600435815260026020522060018101549060028101549060036001600160401b0391015491604051938452818116602085015260401c1660408301526060820152f35b50346101d95760a03660031901126101d95760043560443560243561075b611f99565b828452600160205260408420600281019060018060a01b03610781818454163314611eea565b600c8201805460ff8116600681101561093d57906107a3600160029314611f36565b600a8501879055600b850188905567ffffffffffffffff60901b1990911679ffffffffffffffff0000000000000000000000000000000000ff19909116174260901b67ffffffffffffffff60901b161781558782600554168386541690803b15610939576064839260405194859384926349f4f46360e01b845260048401528335602484015260843560448401525af1801561092e57610912575b509060ff889493925460081c1680610905575b61089d575b83877fccbe032090d4ffab4b2e4df175b3403fc6ee21d8a4a769ae5d73fd547f5a41e16040898982519182526020820152a26001600080516020611ff68339815191525580f35b6006816004541692015492541690803b156109015760648492604051948593849263a2626a5b60e01b84528960048501528a602485015260448401525af180156104fc576108ed575b8080610856565b6108f690611d9c565b6109015783386108e6565b8380fd5b5080600454161515610851565b9761092360ff999594939295611d9c565b97939091929361083e565b6040513d8b823e3d90fd5b8280fd5b634e487b7160e01b8a52602160045260248afd5b50346101d95760203660031901126101d9576004358152600160205260409020805490600160a01b600190039081600182015416918060028301541690600383015416600483015460058401546006850154600786015490600887015492600988015494600a89015496600b8a015498600c8b01549a600d01546001600160401b03169b604051809e81526020015260408d015260608c015260808b015260a08a015260c089015260e0880152610100870152610120860152610140850152610160840152610180830160ff821690610a2991611cfc565b8060081c60ff1615156101a08401528060101c6001600160401b03166101c08401528060501c6001600160401b03166101e084015260901c6001600160401b031661020083015261022082015261024090f35b50346101d957806003193601126101d957546040516001600160a01b039091168152602090f35b50346101d95760c03660031901126101d9576024356001600160401b03811161059b57610ad4903690600401611d1f565b606435906001600160401b0382168092036109015760a4356001600160401b03811161050757610b08903690600401611d1f565b9290916004358652600160205260ff600c60408820610b3460018060a01b036002830154163314611eea565b0154166006811015610587576001610b4c9114611f36565b60405194610b5986611d81565b610b6282611f82565b91610b706040519384611daf565b808352602083019060051b820191368311610dfb57905b828210610deb575050508452604435602085015260408401526001600160401b03421660608401526084356080840152610bc082611f82565b91610bce6040519384611daf565b8083526020830191368260051b8201116104f85780925b8260051b82018410610dc5575050505060a0820152600435825260026020526040822081518051906001600160401b038211610db157600160401b8211610db1578254828455808310610d8a575b5060200182855260208520855b838110610d7657868660a060048860208401516001820155600281016001600160401b036040860151168154906fffffffffffffffff0000000000000000606088015160401b16916fffffffffffffffffffffffffffffffff1916171790556080840151600382015501910151908151916001600160401b038311610d6257600160401b8311610d62578154838355808410610d3c575b5060200190835260208320835b838110610d1f578460405160443581527f028caeb8773b4c34422742e9a9c266e7037381062ecfe7237a5e651affb0a0ea602060043592a280f35b82516001600160a01b031681830155602090920191600101610ce4565b828552836020862091820191015b818110610d575750610cd7565b858155600101610d4a565b634e487b7160e01b84526041600452602484fd5b600190602084519401938184015501610c40565b83865260208620908382015b8183018110610da6575050610c33565b878155600101610d96565b634e487b7160e01b85526041600452602485fd5b83356001600160a01b0381169003610de7578335815260209384019301610be5565b8680fd5b8135815260209182019101610b87565b8880fd5b50346101d95760203660031901126101d957600435610e1c611f99565b8082526001602052600c60408320610e4160018060a01b036001830154163314611e06565b0180549060ff82166006811015610f0857610ec35771ffffffffffffffff000000000000000000ff199091164260501b67ffffffffffffffff60501b161760011790557fe88cea854b1fc2dd9f5bc9eaf26ada71dce7d2ecfba27b4c6f9d24916a3d8f386020604051428152a26001600080516020611ff68339815191525580f35b60405162461bcd60e51b815260206004820152601c60248201527f50686f746f6e6963457363726f773a2077726f6e6720737461747573000000006044820152606490fd5b634e487b7160e01b85526021600452602485fd5b50346101d95760203660031901126101d957600435610f39611f99565b808252600160205260408220610f5c60018060a01b036001830154163314611e06565b600c81019081549060ff8216600681101561105f5761101a578460048194928294936005849560ff19161790550154335af1610f96611eab565b5015610fd5577f5152abf959f6564662358c2e52b702259b78bac5ee7842a0f01937e670efcc7d8280a26001600080516020611ff68339815191525580f35b60405162461bcd60e51b815260206004820152601d60248201527f50686f746f6e6963457363726f773a20726566756e64206661696c65640000006044820152606490fd5b60405162461bcd60e51b815260206004820152601d60248201527f50686f746f6e6963457363726f773a2063616e6e6f742063616e63656c0000006044820152606490fd5b634e487b7160e01b86526021600452602486fd5b50346101d957806003193601126101d95761108c611fc9565b80546001600160a01b03198116825581906001600160a01b03167f8be0079c531659141344cd1fd0a4f28419497f9722a3daafe3b4186f6b6457e08280a380f35b50346101d95760203660031901126101d957806102206040516110ef81611d4f565b8281528260208201528260408201528260608201528260808201528260a08201528260c08201528260e08201528261010082015282610120820152826101408201528261016082015282610180820152826101a0820152826101c0820152826101e08201528261020082015201526004358152600160205260408120906040519061117982611d4f565b8254825260018301546001600160a01b039081166020840152600284015481166040840152600384015416606083015260048301546080830152600583015460a083015260068084015460c0840152600784015460e084015260088401546101008401526009840154610120840152600a840154610140840152600b840154610160840152600c840154919060ff8316101561135c5750600d610240936001600160401b038360ff82951661018087015260ff8160081c1615156101a0870152818160101c166101c0870152818160501c166101e087015260901c166102008501520154166102208201526001600160401b03610220604051928051845260018060a01b03602082015116602085015260018060a01b03604082015116604085015260018060a01b0360608201511660608501526080810151608085015260a081015160a085015260c081015160c085015260e081015160e0850152610100810151610100850152610120810151610120850152610140810151610140850152610160810151610160850152611319610180820151610180860190611cfc565b6101a081015115156101a0850152826101c0820151166101c0850152826101e0820151166101e08501528261020082015116610200850152015116610220820152f35b634e487b7160e01b81526021600452602490fd5b50346101d957602090816003193601126101d957606060a060405161139481611d81565b8281528385820152836040820152838382015283608082015201526004358152600282526040812090604051906113ca82611d81565b604051835480825284835285832086830191845b8882821061152c5750505050816113f6910382611daf565b82526001916001840154938582019485526002810154906001600160401b036040840192818116845281606086019160401c168152600460038401549360808701948552019360405194858b825491828152019189528b892090895b8181106115105750505085611468910386611daf565b60a08601948552604051988a8a5260e08a0196519660c08c8c015287518091528b6101008c01980190895b8181106114fd575050905160408b0152505182166060890152511660808701525160a086015251848203601f190160c0860152805180835291860195908101925b8281106114e15785870386f35b83516001600160a01b03168752958101959281019284016114d4565b82518a52988d0198918d01918b01611493565b82546001600160a01b03168452928d0192918b01918b01611452565b8354855290930192600192830192016113de565b50346101d95760203660031901126101d9576004358082526001602052600c6040832061157a60018060a01b036001830154163314611e06565b01805460ff81166006811015610f085760026115969114611e52565b6115ae600a546001600160401b038360901c16611e9e565b4210156115ec5760049060ff19161790557f9809df6c9d63642a6f1e33a698d415ba2d882a4071894da748ab5482975c8e636020604051338152a280f35b60405162461bcd60e51b815260206004820152601e60248201527f50686f746f6e6963457363726f773a2077696e646f77206578706972656400006044820152606490fd5b50346101d957806003193601126101d9576020600954604051908152f35b50346101d95760203660031901126101d957611669611fc9565b600435600a5580f35b50346101d95760203660031901126101d95760043590600b548210156101d957602061169d83611caf565b90546040519160031b1c8152f35b50346101d957806003193601126101d9576005546040516001600160a01b039091168152602090f35b50346101d957806003193601126101d9576020600854604051908152f35b50346101d957806003193601126101d9576006546040516001600160a01b039091168152602090f35b5060a03660031901126101d957611730611c68565b611738611c83565b60843580151581036109015761174c611f99565b3415611bba57600435845260016020526001600160401b03600c60408620015460101c16611b7557600554604051631703e5f960e01b81526001600160a01b038581166004830152909160209183916024918391165afa908115611b6a578591611b2f575b5015611adf57612710806117c760075434611dd0565b04906001600160a01b03841615611ad857806117e560085434611dd0565b04905b6117f460095434611dd0565b049161180d83611808846118088534611df9565b611df9565b6040519561181a87611d4f565b600435875233602088015260018060a01b038816604088015260018060a01b0316606087015234608087015260a086015260c085015260e084015261010083015260643561012083015283610140830152836101608301528361018083015215156101a08201526001600160401b0342166101c0820152826101e082015282610200820152826102208201526004358352600160205260408320815181556001810160018060a01b03602084015116906001600160601b0360a01b91828254161790556002820160018060a01b0360408501511682825416179055600382019060018060a01b03606085015116908254161790556080820151600482015560a0820151600582015560c0820151600682015560e0820151600782015561010082015160088201556101208201516009820155610140820151600a820155610160820151600b820155600c8101610180830151600681101561105f5781546101a08501516101c08601516101e087015171ffffffffffffffffffffffffffffffffffff1990931660ff9094169390931790151560081b61ff00161760109290921b69ffffffffffffffff0000169190911760509190911b67ffffffffffffffff60501b161781556001600160401b039161022091600d9190611a2390610200870151815467ffffffffffffffff60901b191690871660901b67ffffffffffffffff60901b16179055565b01920151166001600160401b0319825416179055600b54600160401b811015611ac457806001611a569201600b55611caf565b81549060031b90600435821b91600019901b19161790556040519033825260018060a01b031660208201523460408201527f36825e46cf83e31a195caceff131f91757535b66b9b146d5c8bf65ac8d420ce8606060043592a26001600080516020611ff68339815191525580f35b634e487b7160e01b83526041600452602483fd5b85906117e8565b60405162461bcd60e51b815260206004820152602260248201527f50686f746f6e6963457363726f773a2070726f7669646572206e6f7420616c69604482015261766560f01b6064820152608490fd5b90506020813d602011611b62575b81611b4a60209383611daf565b810103126105075751801515810361050757386117b1565b3d9150611b3d565b6040513d87823e3d90fd5b60405162461bcd60e51b815260206004820152601c60248201527f50686f746f6e6963457363726f773a206f7264657220657869737473000000006044820152606490fd5b60405162461bcd60e51b815260206004820152601860248201527f50686f746f6e6963457363726f773a206e6f2066756e647300000000000000006044820152606490fd5b50346101d95760203660031901126101d95760ff60406020926004358152600384522054166040519015158152f35b50346101d957806003193601126101d9576020600b54604051908152f35b90503461059b578160031936011261059b57602090600a548152f35b602435906001600160a01b0382168203611c7e57565b600080fd5b604435906001600160a01b0382168203611c7e57565b600435906001600160a01b0382168203611c7e57565b600b54811015611ce657600b6000527f0175b7a638427703f0dbe7bb9bbf987a2551717b34e79f33b5b1008d1fa01db90190600090565b634e487b7160e01b600052603260045260246000fd5b906006821015611d095752565b634e487b7160e01b600052602160045260246000fd5b9181601f84011215611c7e578235916001600160401b038311611c7e576020808501948460051b010111611c7e57565b61024081019081106001600160401b03821117611d6b57604052565b634e487b7160e01b600052604160045260246000fd5b60c081019081106001600160401b03821117611d6b57604052565b6001600160401b038111611d6b57604052565b90601f801991011681019081106001600160401b03821117611d6b57604052565b81810292918115918404141715611de357565b634e487b7160e01b600052601160045260246000fd5b91908203918211611de357565b15611e0d57565b60405162461bcd60e51b815260206004820152601960248201527f50686f746f6e6963457363726f773a206e6f74206275796572000000000000006044820152606490fd5b15611e5957565b60405162461bcd60e51b815260206004820152601d60248201527f50686f746f6e6963457363726f773a206e6f742064656c6976657265640000006044820152606490fd5b91908201809211611de357565b3d15611ee5573d906001600160401b038211611d6b5760405191611ed9601f8201601f191660200184611daf565b82523d6000602084013e565b606090565b15611ef157565b60405162461bcd60e51b815260206004820152601c60248201527f50686f746f6e6963457363726f773a206e6f742070726f7669646572000000006044820152606490fd5b15611f3d57565b60405162461bcd60e51b815260206004820152601a60248201527f50686f746f6e6963457363726f773a206e6f74206c6f636b65640000000000006044820152606490fd5b6001600160401b038111611d6b5760051b60200190565b600080516020611ff68339815191526002815414611fb75760029055565b604051633ee5aeb560e01b8152600490fd5b6000546001600160a01b03163303611fdd57565b60405163118cdaa760e01b8152336004820152602490fdfe9b779b17422d0df92223018b32b4d1fa46e071723d6817e2486d003becc55f00a264697066735822122079ba92f5b2e8c9f183625e1d9fb9960bde718e9ef6afda23d734454c9199605364736f6c63430008180033",
  "linkReferences": {},
  "deployedLinkReferences": {}
}