{
  "_format": "hh-sol-artifact-1",
  "contractName": "PhotonicVitality",
  "sourceName": "contracts/PhotonicVitality.sol",
  "abi": [
    {
      "inputs": [
        {
          "internalType": "address",
          "name": "_registry",
          "type": "address"
        }
      ],
      "stateMutability": "nonpayable",
      "type": "constructor"
    },
    {
      "inputs": [
        {
          "internalType": "address",
          "name": "owner",
          "type": "address"
        }
      ],
      "name": "OwnableInvalidOwner",
      "type": "error"
    },
    {
      "inputs": [
        {
          "internalType": "address",
          "name": "account",
          "type": "address"
        }
      ],
      "name": "OwnableUnauthorizedAccount",
      "type": "error"
    },
    {
      "inputs": [],
      "name": "ReentrancyGuardReentrantCall",
      "type": "error"
    },
    {
      "anonymous": false,
      "inputs": [
        {
          "indexed": true,
          "internalType": "address",
          "name": "agent",
          "type": "address"
        },
        {
          "indexed": false,
          "internalType": "uint256",
          "name": "finalVitality",
          "type": "uint256"
        },
        {
          "indexed": false,
          "internalType": "uint256",
          "name": "threshold",
          "type": "uint256"
        }
      ],
      "name": "AgentKilled",
      "type": "event"
    },
    {
      "anonymous": false,
      "inputs": [
        {
          "indexed": true,
          "internalType": "address",
          "name": "previousOwner",
          "type": "address"
        },
        {
          "indexed": true,
          "internalType": "address",
          "name": "newOwner",
          "type": "address"
        }
      ],
      "name": "OwnershipTransferred",
      "type": "event"
    },
    {
      "anonymous": false,
      "inputs": [
        {
          "indexed": true,
          "internalType": "address",
          "name": "agent",
          "type": "address"
        },
        {
          "indexed": true,
          "internalType": "address",
          "name": "sponsor",
          "type": "address"
        },
        {
          "indexed": false,
          "internalType": "uint256",
          "name": "bond",
          "type": "uint256"
        }
      ],
      "name": "ResurrectionBonded",
      "type": "event"
    },
    {
      "anonymous": false,
      "inputs": [
        {
          "indexed": true,
          "internalType": "address",
          "name": "agent",
          "type": "address"
        },
        {
          "indexed": true,
          "internalType": "address",
          "name": "sponsor",
          "type": "address"
        },
        {
          "indexed": false,
          "internalType": "uint256",
          "name": "slashed",
          "type": "uint256"
        }
      ],
      "name": "ResurrectionFailed",
      "type": "event"
    },
    {
      "anonymous": false,
      "inputs": [
        {
          "indexed": true,
          "internalType": "address",
          "name": "agent",
          "type": "address"
        },
        {
          "indexed": true,
          "internalType": "address",
          "name": "sponsor",
          "type": "address"
        }
      ],
      "name": "ResurrectionSucceeded",
      "type": "event"
    },
    {
      "anonymous": false,
      "inputs": [
        {
          "indexed": true,
          "internalType": "address",
          "name": "agent",
          "type": "address"
        },
        {
          "indexed": false,
          "internalType": "uint256",
          "name": "decayAmount",
          "type": "uint256"
        },
        {
          "indexed": false,
          "internalType": "uint256",
          "name": "newVitality",
          "type": "uint256"
        }
      ],
      "name": "VitalityDecayed",
      "type": "event"
    },
    {
      "anonymous": false,
      "inputs": [
        {
          "indexed": true,
          "internalType": "address",
          "name": "agent",
          "type": "address"
        },
        {
          "indexed": false,
          "internalType": "uint256",
          "name": "newVitality",
          "type": "uint256"
        },
        {
          "indexed": false,
          "internalType": "uint256",
          "name": "totalBPDs",
          "type": "uint256"
        }
      ],
      "name": "VitalityUpdated",
      "type": "event"
    },
    {
      "inputs": [],
      "name": "ALPHA",
      "outputs": [
        {
          "internalType": "uint256",
          "name": "",
          "type": "uint256"
        }
      ],
      "stateMutability": "view",
      "type": "function"
    },
    {
      "inputs": [],
      "name": "BETA",
      "outputs": [
        {
          "internalType": "uint256",
          "name": "",
          "type": "uint256"
        }
      ],
      "stateMutability": "view",
      "type": "function"
    },
    {
      "inputs": [],
      "name": "DELTA",
      "outputs": [
        {
          "internalType": "uint256",
          "name": "",
          "type": "uint256"
        }
      ],
      "stateMutability": "view",
      "type": "function"
    },
    {
      "inputs": [],
      "name": "EPSILON",
      "outputs": [
        {
          "internalType": "uint256",
          "name": "",
          "type": "uint256"
        }
      ],
      "stateMutability": "view",
      "type": "function"
    },
    {
      "inputs": [],
      "name": "GAMMA",
      "outputs": [
        {
          "internalType": "uint256",
          "name": "",
          "type": "uint256"
        }
      ],
      "stateMutability": "view",
      "type": "function"
    },
    {
      "inputs": [],
      "name": "RESURRECTION_BPD_REQUIRED",
      "outputs": [
        {
          "internalType": "uint256",
          "name": "",
          "type": "uint256"
        }
      ],
      "stateMutability": "view",
      "type": "function"
    },
    {
      "inputs": [],
      "name": "RESURRECTION_WINDOW",
      "outputs": [
        {
          "internalType": "uint256",
          "name": "",
          "type": "uint256"
        }
      ],
      "stateMutability": "view",
      "type": "function"
    },
    {
      "inputs": [],
      "name": "SCALE",
      "outputs": [
        {
          "internalType": "uint256",
          "name": "",
          "type": "uint256"
        }
      ],
      "stateMutability": "view",
      "type": "function"
    },
    {
      "inputs": [],
      "name": "V_MAX_MATURE",
      "outputs": [
        {
          "internalType": "uint256",
          "name": "",
          "type": "uint256"
        }
      ],
      "stateMutability": "view",
      "type": "function"
    },
    {
      "inputs": [],
      "name": "V_MIN_GENESIS",
      "outputs": [
        {
          "internalType": "uint256",
          "name": "",
          "type": "uint256"
        }
      ],
      "stateMutability": "view",
      "type": "function"
    },
    {
      "inputs": [
        {
          "internalType": "address",
          "name": "agent",
          "type": "address"
        }
      ],
      "name": "applyDecay",
      "outputs": [],
      "stateMutability": "nonpayable",
      "type": "function"
    },
    {
      "inputs": [
        {
          "internalType": "address",
          "name": "agent",
          "type": "address"
        }
      ],
      "name": "checkResurrectionExpiry",
      "outputs": [],
      "stateMutability": "nonpayable",
      "type": "function"
    },
    {
      "inputs": [],
      "name": "decayInterval",
      "outputs": [
        {
          "internalType": "uint256",
          "name": "",
          "type": "uint256"
        }
      ],
      "stateMutability": "view",
      "type": "function"
    },
    {
      "inputs": [
        {
          "internalType": "address",
          "name": "agent",
          "type": "address"
        }
      ],
      "name": "getCurrentVitality",
      "outputs": [
        {
          "internalType": "uint256",
          "name": "",
          "type": "uint256"
        }
      ],
      "stateMutability": "view",
      "type": "function"
    },
    {
      "inputs": [],
      "name": "getDynamicThreshold",
      "outputs": [
        {
          "internalType": "uint256",
          "name": "",
          "type": "uint256"
        }
      ],
      "stateMutability": "view",
      "type": "function"
    },
    {
      "inputs": [
        {
          "internalType": "address",
          "name": "agent",
          "type": "address"
        }
      ],
      "name": "getVitalityState",
      "outputs": [
        {
          "components": [
            {
              "internalType": "uint256",
              "name": "vitality",
              "type": "uint256"
            },
            {
              "internalType": "uint256",
              "name": "bpdQualityAccum",
              "type": "uint256"
            },
            {
              "internalType": "uint256",
              "name": "compositionalSuccesses",
              "type": "uint256"
            },
            {
              "internalType": "uint256",
              "name": "surplusAccum",
              "type": "uint256"
            },
            {
              "internalType": "uint256",
              "name": "diversityScore",
              "type": "uint256"
            },
            {
              "internalType": "uint256",
              "name": "resurrectionVouches",
              "type": "uint256"
            },
            {
              "internalType": "uint256",
              "name": "totalBPDs",
              "type": "uint256"
            },
            {
              "internalType": "uint256",
              "name": "totalDeliveries",
              "type": "uint256"
            },
            {
              "internalType": "uint64",
              "name": "lastDecayAt",
              "type": "uint64"
            },
            {
              "internalType": "bool",
              "name": "inResurrectionTrial",
              "type": "bool"
            },
            {
              "internalType": "uint64",
              "name": "resurrectionTrialStart",
              "type": "uint64"
            },
            {
              "internalType": "uint256",
              "name": "resurrectionBPDCount",
              "type": "uint256"
            },
            {
              "internalType": "address",
              "name": "resurrectionSponsor",
              "type": "address"
            }
          ],
          "internalType": "struct PhotonicVitality.VitalityState",
          "name": "",
          "type": "tuple"
        }
      ],
      "stateMutability": "view",
      "type": "function"
    },
    {
      "inputs": [
        {
          "internalType": "address",
          "name": "agent",
          "type": "address"
        }
      ],
      "name": "isAboveThreshold",
      "outputs": [
        {
          "internalType": "bool",
          "name": "",
          "type": "bool"
        }
      ],
      "stateMutability": "view",
      "type": "function"
    },
    {
      "inputs": [],
      "name": "lambdaDecay",
      "outputs": [
        {
          "internalType": "uint256",
          "name": "",
          "type": "uint256"
        }
      ],
      "stateMutability": "view",
      "type": "function"
    },
    {
      "inputs": [],
      "name": "marketplaceMaturity",
      "outputs": [
        {
          "internalType": "uint256",
          "name": "",
          "type": "uint256"
        }
      ],
      "stateMutability": "view",
      "type": "function"
    },
    {
      "inputs": [],
      "name": "minResurrectionBond",
      "outputs": [
        {
          "internalType": "uint256",
          "name": "",
          "type": "uint256"
        }
      ],
      "stateMutability": "view",
      "type": "function"
    },
    {
      "inputs": [],
      "name": "muSurplus",
      "outputs": [
        {
          "internalType": "uint256",
          "name": "",
          "type": "uint256"
        }
      ],
      "stateMutability": "view",
      "type": "function"
    },
    {
      "inputs": [],
      "name": "owner",
      "outputs": [
        {
          "internalType": "address",
          "name": "",
          "type": "address"
        }
      ],
      "stateMutability": "view",
      "type": "function"
    },
    {
      "inputs": [
        {
          "internalType": "address",
          "name": "agent",
          "type": "address"
        }
      ],
      "name": "postResurrectionBond",
      "outputs": [],
      "stateMutability": "payable",
      "type": "function"
    },
    {
      "inputs": [
        {
          "internalType": "address",
          "name": "agent",
          "type": "address"
        },
        {
          "internalType": "uint256",
          "name": "bpdQualityScore",
          "type": "uint256"
        },
        {
          "internalType": "uint256",
          "name": "surplusGenerated",
          "type": "uint256"
        },
        {
          "internalType": "bool",
          "name": "wasCompositional",
          "type": "bool"
        }
      ],
      "name": "recordBPD",
      "outputs": [],
      "stateMutability": "nonpayable",
      "type": "function"
    },
    {
      "inputs": [],
      "name": "registry",
      "outputs": [
        {
          "internalType": "contract IPhotonicRegistry",
          "name": "",
          "type": "address"
        }
      ],
      "stateMutability": "view",
      "type": "function"
    },
    {
      "inputs": [],
      "name": "renounceOwnership",
      "outputs": [],
      "stateMutability": "nonpayable",
      "type": "function"
    },
    {
      "inputs": [
        {
          "internalType": "address",
          "name": "",
          "type": "address"
        }
      ],
      "name": "resurrectBonds",
      "outputs": [
        {
          "internalType": "address",
          "name": "sponsor",
          "type": "address"
        },
        {
          "internalType": "address",
          "name": "agent",
          "type": "address"
        },
        {
          "internalType": "uint256",
          "name": "bondAmount",
          "type": "uint256"
        },
        {
          "internalType": "uint64",
          "name": "bondedAt",
          "type": "uint64"
        },
        {
          "internalType": "bool",
          "name": "active",
          "type": "bool"
        },
        {
          "internalType": "bool",
          "name": "slashed",
          "type": "bool"
        }
      ],
      "stateMutability": "view",
      "type": "function"
    },
    {
      "inputs": [
        {
          "internalType": "address",
          "name": "agent",
          "type": "address"
        },
        {
          "internalType": "uint256",
          "name": "score",
          "type": "uint256"
        }
      ],
      "name": "setAgentDiversityScore",
      "outputs": [],
      "stateMutability": "nonpayable",
      "type": "function"
    },
    {
      "inputs": [
        {
          "internalType": "uint256",
          "name": "_interval",
          "type": "uint256"
        }
      ],
      "name": "setDecayInterval",
      "outputs": [],
      "stateMutability": "nonpayable",
      "type": "function"
    },
    {
      "inputs": [
        {
          "internalType": "uint256",
          "name": "_lambda",
          "type": "uint256"
        },
        {
          "internalType": "uint256",
          "name": "_mu",
          "type": "uint256"
        }
      ],
      "name": "setDecayParams",
      "outputs": [],
      "stateMutability": "nonpayable",
      "type": "function"
    },
    {
      "inputs": [
        {
          "internalType": "uint256",
          "name": "maturity",
          "type": "uint256"
        }
      ],
      "name": "setMarketplaceMaturity",
      "outputs": [],
      "stateMutability": "nonpayable",
      "type": "function"
    },
    {
      "inputs": [
        {
          "internalType": "uint256",
          "name": "_min",
          "type": "uint256"
        }
      ],
      "name": "setMinResurrectionBond",
      "outputs": [],
      "stateMutability": "nonpayable",
      "type": "function"
    },
    {
      "inputs": [
        {
          "internalType": "address",
          "name": "newOwner",
          "type": "address"
        }
      ],
      "name": "transferOwnership",
      "outputs": [],
      "stateMutability": "nonpayable",
      "type": "function"
    },
    {
      "inputs": [
        {
          "internalType": "address",
          "name": "",
          "type": "address"
        }
      ],
      "name": "vitality",
      "outputs": [
        {
          "internalType": "uint256",
          "name": "vitality",
          "type": "uint256"
        },
        {
          "internalType": "uint256",
          "name": "bpdQualityAccum",
          "type": "uint256"
        },
        {
          "internalType": "uint256",
          "name": "compositionalSuccesses",
          "type": "uint256"
        },
        {
          "internalType": "uint256",
          "name": "surplusAccum",
          "type": "uint256"
        },
        {
          "internalType": "uint256",
          "name": "diversityScore",
          "type": "uint256"
        },
        {
          "internalType": "uint256",
          "name": "resurrectionVouches",
          "type": "uint256"
        },
        {
          "internalType": "uint256",
          "name": "totalBPDs",
          "type": "uint256"
        },
        {
          "internalType": "uint256",
          "name": "totalDeliveries",
          "type": "uint256"
        },
        {
          "internalType": "uint64",
          "name": "lastDecayAt",
          "type": "uint64"
        },
        {
          "internalType": "bool",
          "name": "inResurrectionTrial",
          "type": "bool"
        },
        {
          "internalType": "uint64",
          "name": "resurrectionTrialStart",
          "type": "uint64"
        },
        {
          "internalType": "uint256",
          "name": "resurrectionBPDCount",
          "type": "uint256"
        },
        {
          "internalType": "address",
          "name": "resurrectionSponsor",
          "type": "address"
        }
      ],
      "stateMutability": "view",
      "type": "function"
    },
    {
      "inputs": [],
      "name": "withdrawSlashedBonds",
      "outputs": [],
      "stateMutability": "nonpayable",
      "type": "function"
    },
    {
      "stateMutability": "payable",
      "type": "receive"
    }
  ],
  "bytecode": "0x60803461010657601f611a5e38819003918201601f19168301916001600160401b0383118484101761010b5780849260209460405283398101031261010657516001600160a01b0390818116908190036101065733156100ed5760005460018060a01b0319903382821617600055604051933391167f8be0079c531659141344cd1fd0a4f28419497f9722a3daafe3b4186f6b6457e0600080a360017f9b779b17422d0df92223018b32b4d1fa46e071723d6817e2486d003becc55f0055662386f26fc100006005556201518060065560056007556003600855600354161760035561193c90816101228239f35b604051631e4fbdf760e01b815260006004820152602490fd5b600080fd5b634e487b7160e01b600052604160045260246000fdfe60808060405260048036101561001f575b5050361561001d57600080fd5b005b600091823560e01c90816306b51d42146113dd57508063071a75411461049e578063118d206e146113bf578063249acb511461138d5780632e984a27146111ba5780633b7a14e31461119c5780634591b3741461114d57806353d4cfe0146110da5780635def4da714610e89578063715018a614610e2f5780637b10399914610e065780637ca03c3914610dea5780638a248b4c14610dc95780638afec09b14610d435780638b9880c0146109d45780638da5cb5b146109ad57806392f883cb146108db578063a1e8838714610887578063ad32fd0a1461086a578063b074d4071461084e578063b0805ae414610830578063b0b88d74146107b1578063b0bb1c5a14610795578063b3d78bb11461075c578063b6334aee1461073e578063c9405762146104e0578063cb2a7287146104c4578063d12c952b14610499578063e9815430146104a3578063eba0df6e1461049e578063ecb5fff614610499578063eced552614610473578063edfcc43714610271578063f2fde38b146101e15763fadb78ee0361001057346101dd5760203660031901126101dd578035906101c56115e1565b6101d9670de0b6b3a7640000831115611562565b5580f35b5080fd5b50346101dd5760203660031901126101dd576101fb61141a565b6102036115e1565b6001600160a01b039081169182156102595750600054826bffffffffffffffffffffffff60a01b821617600055167f8be0079c531659141344cd1fd0a4f28419497f9722a3daafe3b4186f6b6457e0600080a380f35b604051631e4fbdf760e01b8152908101849052602490fd5b50346101dd576020908160031936011261046f5761028d61141a565b916102978361164f565b6102a08361172a565b9160018060a01b038094169384865260018352836040872055856102d6670de0b6b3a76400006102d085546115a9565b046114f1565b9182861080610402575b610319575b50857f1e47c2b38e942a794065b3eda38de29674d535197655c51a92d9bc44b436346060408688825191868352820152a280f35b6003541692833b156101dd578660848392836040519788948593630625254b60e11b855284015260406024840152600e60448401526d766974616c6974795f646563617960901b60648401525af19283156103f55786936103d6575b505092604092917f2f2d096570460a7ea0f29dc5d62d2aa6ac728fbd32af2a863602e246adf9111f847f1e47c2b38e942a794065b3eda38de29674d535197655c51a92d9bc44b43634609681519085825286820152a29281925085386102e5565b6103e3919294935061147e565b6103f1579083908538610375565b8480fd5b50604051903d90823e3d90fd5b50602485826003541660405192838092631703e5f960e01b82528c8a8301525afa908115610464578391610437575b506102e0565b6104579150863d881161045d575b61044f8183611491565b81019061152a565b38610431565b503d610445565b6040513d85823e3d90fd5b8280fd5b82346104965780600319360112610496576020604051670de0b6b3a76400008152f35b80fd5b611430565b6113f9565b50346101dd5760203660031901126101dd576104bd6115e1565b3560065580f35b8234610496578060031936011261049657602060405160148152f35b50346101dd5760803660031901126101dd576104fa61141a565b906064359060443582151583036103f1576105136115e1565b60018060a01b0393848116948587526020936001855260408820956105378461164f565b60018701610548602435825461151d565b90556006870194610559865461159a565b865560078801610569815461159a565b905580610727575b50610712575b60ff600887015460401c166105c9575b5050917f0b455be0c77127a4af822900aed37d161c8886f776f830c8b5ce6754647eab1393916105b860409461172a565b80935554908351928352820152a280f35b6003600987016105d9815461159a565b809155106105875786600052600185526040600020906002865260056040600020926008810160ff60401b19908181541690556003850190815416905501610621815461159a565b905582825416600052600186526005604060002001610640815461159a565b90556000808080868654166002870154905af161065b6114b2565b50156106c25750604094927f0b455be0c77127a4af822900aed37d161c8886f776f830c8b5ce6754647eab139694926105b8925416887fce951a09aaa0a3c8279838afc01e9ea534f1a2b34e1d0daabf6814f44a2068ea600080a392945081939550610587565b60405162461bcd60e51b81529081018690526024808201527f50686f746f6e6963566974616c6974793a20626f6e642072657475726e2066616044820152631a5b195960e21b6064820152608490fd5b60028601610720815461159a565b9055610577565b6107366003890191825461151d565b905538610571565b82346104965780600319360112610496576020600654604051908152f35b8234610496576020366003190112610496576020906040906001600160a01b0361078461141a565b168152600183522054604051908152f35b82346104965780600319360112610496576020604051601e8152f35b50346101dd5760403660031901126101dd578035602435916107d16115e1565b603282111580610825575b156107eb575060075560085580f35b60649060206040519162461bcd60e51b83528201526013602482015272756e726561736f6e61626c6520706172616d7360681b6044820152fd5b5060328311156107dc565b82346104965780600319360112610496576020600554604051908152f35b8234610496578060031936011261049657602060405160558152f35b50346101dd57816003193601126101dd5760209054604051908152f35b50346101dd5760403660031901126101dd576108a161141a565b90602435916108ae6115e1565b6108c2670de0b6b3a7640000841115611562565b6001600160a01b03168352600160205260408320015580f35b50346101dd5760203660031901126101dd576101a0916001600160a01b0391906040908361090761141a565b16815260016020522080549260018201549260028301549060038401549084015460058501546006860154916007870154936008880154956001600160401b0397600a60098b01549a015416996040519b8c5260208c015260408b015260608a0152608089015260a088015260c087015260e086015281811661010086015260ff8160401c16151561012086015260481c16610140840152610160830152610180820152f35b8234610496578060031936011261049657546040516001600160a01b039091168152602090f35b506020908160031936011261046f576109eb61141a565b906109f461160d565b6005543410610cff57600354604051631703e5f960e01b81526001600160a01b03938416838201819052939185908290602490829086165afa908115610cf4578691610cd7575b50610c95578285526002845260ff600360408720015460401c16610c43576001600160401b0360405160c0810181811083821117610c3057916703782dace9d90000918894936040523381528787818301938185526003604085019434865260608101958342168752600260808301966001885260a08401968d88528d52528960408c20925116976bffffffffffffffffffffffff60a01b98898454161783558a60018401915116898254161790555160028201550193511669ff00000000000000000060ff60401b85549451151560401b169251151560481b169269ffffffffffffffffffff191617171790556001875260408420906008820168010000000000000000815470ffffffffffffffff0000000000000000004260481b169070ffffffffffffffffff0000000000000000191617179055846009830155600a8201903390825416179055556003541691823b156101dd5760448491836040519586948593630621c93960e21b85528401523360248401525af18015610c2557610c12575b507fe7504388ce145ddf2f87bce15593f0f8dbf8bf637011138ed475304a9154ee34604051923484523393a360017f9b779b17422d0df92223018b32b4d1fa46e071723d6817e2486d003becc55f005580f35b610c1e9093919361147e565b9138610bbf565b6040513d86823e3d90fd5b634e487b7160e01b885260418552602488fd5b60405162461bcd60e51b8152808301859052602560248201527f50686f746f6e6963566974616c6974793a20626f6e6420616c72656164792061604482015264637469766560d81b6064820152608490fd5b60648285806040519262461bcd60e51b845283015260248201527f50686f746f6e6963566974616c6974793a206167656e74206e6f7420646561646044820152fd5b610cee9150853d871161045d5761044f8183611491565b38610a3b565b6040513d88823e3d90fd5b60405162461bcd60e51b8152908101839052601e60248201527f50686f746f6e6963566974616c6974793a20626f6e6420746f6f206c6f7700006044820152606490fd5b82346104965760203660031901126104965760c0906001600160a01b039060ff9060409083610d7061141a565b1681526002602052208281541692600182015416906003600282015491015491604051948552602085015260408401526001600160401b0381166060840152818160401c161515608084015260481c16151560a0820152f35b50346101dd5760203660031901126101dd57610de36115e1565b3560055580f35b8234610496578060031936011261049657602060405160038152f35b82346104965780600319360112610496576003546040516001600160a01b039091168152602090f35b8234610496578060031936011261049657610e486115e1565b80546001600160a01b03198116825581906001600160a01b03167f8be0079c531659141344cd1fd0a4f28419497f9722a3daafe3b4186f6b6457e08280a380f35b50346101dd5760208060031936011261046f57610ea461141a565b91610ead61160d565b60018060a01b03809316918285526001815260408520600881015460ff8160401c1615611096576001600160401b039060481c166202a300810180911161108357421061103357600960039101541015610fe45782855260018152604085209360028252600860408720950160ff60401b19815416905560038501690100000000000000000069ffff00000000000000001982541617905585816003541693843b156101dd576024869183604051978894859363273476db60e21b85528401525af1908115610cf4577f5a4793cb20fc90657a7cb58a04c0ec68e38ec275211c47ee9a54275a28eaa06c93600292610fd5575b50855416940154604051908152a360017f9b779b17422d0df92223018b32b4d1fa46e071723d6817e2486d003becc55f005580f35b610fde9061147e565b38610fa0565b60405162461bcd60e51b815291820152602360248201527f50686f746f6e6963566974616c6974793a20616c72656164792073756363656560448201526219195960ea1b606482015260849150fd5b60405162461bcd60e51b81528084018390526024808201527f50686f746f6e6963566974616c6974793a20747269616c207374696c6c2061636044820152637469766560e01b6064820152608490fd5b634e487b7160e01b875260118452602487fd5b60405162461bcd60e51b8152808501849052601e60248201527f50686f746f6e6963566974616c6974793a206e6f7420696e20747269616c00006044820152606490fd5b50346101dd57816003193601126101dd576110f36115e1565b8180808060018060a01b0381541647905af161110d6114b2565b5015611117575080f35b60649060206040519162461bcd60e51b8352820152600f60248201526e1d1c985b9cd9995c8819985a5b1959608a1b6044820152fd5b50346101dd5760203660031901126101dd57611192670de0b6b3a76400006102d0604060209560018060a01b0361118261141a565b16815260018752205493546115a9565b1115604051908152f35b82346104965780600319360112610496576020600754604051908152f35b50346101dd5760203660031901126101dd5760406101a0926111da61141a565b8161018084516111e98161144c565b82815282602082015282868201528260608201528260808201528260a08201528260c08201528260e082015282610100820152826101208201528261014082015282610160820152015260018060a01b03168152600160205220604051906112508261144c565b8054928383526001820154602084015260028201546040840152600382015460608401528101546080830152600581015460a0830152600681015460c0830152600781015460e08301526001600160401b03600882015481811661010085015260ff8160401c16151561012085015260481c166101408301526009810154610160830152600a60018060a01b03910154166101808201526040519182526020810151602083015260408101516040830152606081015160608301526080810151608083015260a081015160a083015260c081015160c083015260e081015160e08301526001600160401b036101008201511661010083015261012081015115156101208301526001600160401b036101408201511661014083015261016081015161016083015261018060018060a01b0391015116610180820152f35b50903461049657806003193601126104965760206113b7670de0b6b3a76400006102d085546115a9565b604051908152f35b823461049657806003193601126104965760206040516202a3008152f35b8390346101dd57816003193601126101dd576020906008548152f35b3461141557600036600319011261141557602060405160198152f35b600080fd5b600435906001600160a01b038216820361141557565b34611415576000366003190112611415576020604051600a8152f35b6101a081019081106001600160401b0382111761146857604052565b634e487b7160e01b600052604160045260246000fd5b6001600160401b03811161146857604052565b90601f801991011681019081106001600160401b0382111761146857604052565b3d156114ec573d906001600160401b03821161146857604051916114e0601f8201601f191660200184611491565b82523d6000602084013e565b606090565b906702c68af0bb14000091820180921161150757565b634e487b7160e01b600052601160045260246000fd5b9190820180921161150757565b90816020910312611415575180151581036114155790565b811561154c570490565b634e487b7160e01b600052601260045260246000fd5b1561156957565b60405162461bcd60e51b81526020600482015260096024820152686d6178205343414c4560b81b6044820152606490fd5b60001981146115075760010190565b90670905438e60010000918083029283040361150757565b8181029291811591840414171561150757565b9190820391821161150757565b6000546001600160a01b031633036115f557565b60405163118cdaa760e01b8152336004820152602490fd5b7f9b779b17422d0df92223018b32b4d1fa46e071723d6817e2486d003becc55f00600281541461163d5760029055565b604051633ee5aeb560e01b8152600490fd5b6001600160a01b031660009081526001602052604090206008810180546001600160401b038082169290918315611714575061168b83426115d4565b916116996006548094611542565b92831561170c576116cf946116b16116b792866115c1565b9061151d565b166001600160401b03198254161790556007546115c1565b60648111611704575b60646116e6835492836115c1565b04808211156116fc576116f8916115d4565b9055565b505060009055565b5060646116d8565b505050505050565b925092504216906001600160401b031916179055565b6001600160a01b0316600090815260016020526040812060078101549182156118f75761175b836001840154611542565b91670de0b6b3a7640000938484116118ef575b6002820154858102908082048714901517156118db579061178e91611542565b9060038101548581116000146118c25750845b600492838301548781116000146118b95750600587935b0154600a9790888111156118a05750955b601e810290808204601e149015171561188d5760198202918083046019149015171561188d57906117f99161151d565b60198202918083046019149015171561187a57906118169161151d565b8582029180830487149015171561186757906118319161151d565b928481029481860414901517156118545750506064916118509161151d565b0490565b634e487b7160e01b825260119052602490fd5b634e487b7160e01b845260118352602484fd5b634e487b7160e01b855260118452602485fd5b634e487b7160e01b865260118552602486fd5b81810291818304149015171561188d57879004956117c9565b600590936117b8565b858102908082048714901517156118db578590046117a1565b634e487b7160e01b84526011600452602484fd5b84935061176e565b5050506703782dace9d900009056fea26469706673582212204ba56d15d983089f156b994bab3dc2a64e2c8b27ff72946905f1990de6abca8564736f6c63430008180033",
  "linkReferences": {},
  "deployedLinkReferences": {}
}